{"contracts/Campaign.sol":{"Campaign":{"abi":[{"inputs":[{"internalType":"string","name":"_title","type":"string"},{"internalType":"uint256","name":"minContribution","type":"uint256"},{"internalType":"address","name":"_factory","type":"address"},{"internalType":"address","name":"_owner","type":"address"}],"stateMutability":"nonpayable","type":"constructor"},{"anonymous":false,"inputs":[],"name":"CampaignCancelled","type":"event"},{"anonymous":false,"inputs":[{"indexed":false,"internalType":"address","name":"contributor","type":"address"},{"indexed":false,"internalType":"uint256","name":"amount","type":"uint256"}],"name":"ContributionMade","type":"event"},{"anonymous":false,"inputs":[{"indexed":true,"internalType":"address","name":"previousOwner","type":"address"},{"indexed":true,"internalType":"address","name":"newOwner","type":"address"}],"name":"OwnershipTransferred","type":"event"},{"anonymous":false,"inputs":[{"indexed":false,"internalType":"address","name":"contributor","type":"address"},{"indexed":false,"internalType":"uint256","name":"amount","type":"uint256"}],"name":"RefundIssued","type":"event"},{"anonymous":false,"inputs":[{"indexed":false,"internalType":"uint256","name":"requestId","type":"uint256"},{"indexed":false,"internalType":"address","name":"approver","type":"address"}],"name":"RequestApproved","type":"event"},{"anonymous":false,"inputs":[{"indexed":false,"internalType":"uint256","name":"requestId","type":"uint256"}],"name":"RequestCancelled","type":"event"},{"anonymous":false,"inputs":[{"indexed":false,"internalType":"uint256","name":"requestId","type":"uint256"},{"indexed":false,"internalType":"string","name":"description","type":"string"},{"indexed":false,"internalType":"uint256","name":"value","type":"uint256"},{"indexed":false,"internalType":"address","name":"recipient","type":"address"}],"name":"RequestCreated","type":"event"},{"anonymous":false,"inputs":[{"indexed":false,"internalType":"uint256","name":"requestId","type":"uint256"}],"name":"RequestFinalized","type":"event"},{"anonymous":false,"inputs":[{"indexed":false,"internalType":"uint256","name":"requestId","type":"uint256"},{"indexed":false,"internalType":"address","name":"rejector","type":"address"}],"name":"RequestRejected","type":"event"},{"inputs":[{"internalType":"uint256","name":"index","type":"uint256"}],"name":"approveRequest","outputs":[],"stateMutability":"nonpayable","type":"function"},{"inputs":[],"name":"cancelCampaign","outputs":[],"stateMutability":"nonpayable","type":"function"},{"inputs":[{"internalType":"uint256","name":"index","type":"uint256"}],"name":"cancelRequest","outputs":[],"stateMutability":"nonpayable","type":"function"},{"inputs":[],"name":"contribute","outputs":[],"stateMutability":"payable","type":"function"},{"inputs":[{"internalType":"address","name":"","type":"address"}],"name":"contributions","outputs":[{"internalType":"uint256","name":"","type":"uint256"}],"stateMutability":"view","type":"function"},{"inputs":[{"internalType":"string","name":"description","type":"string"},{"internalType":"uint256","name":"value","type":"uint256"},{"internalType":"address payable","name":"recipient","type":"address"}],"name":"createRequest","outputs":[],"stateMutability":"nonpayable","type":"function"},{"inputs":[],"name":"createdAt","outputs":[{"internalType":"uint256","name":"","type":"uint256"}],"stateMutability":"view","type":"function"},{"inputs":[],"name":"factory","outputs":[{"internalType":"address payable","name":"","type":"address"}],"stateMutability":"view","type":"function"},{"inputs":[{"internalType":"uint256","name":"index","type":"uint256"}],"name":"finalizeRequest","outputs":[],"stateMutability":"nonpayable","type":"function"},{"inputs":[],"name":"forceCancel","outputs":[],"stateMutability":"nonpayable","type":"function"},{"inputs":[],"name":"getContributorsCount","outputs":[{"internalType":"uint256","name":"","type":"uint256"}],"stateMutability":"view","type":"function"},{"inputs":[],"name":"getMaxFunds","outputs":[{"internalType":"uint256","name":"","type":"uint256"}],"stateMutability":"view","type":"function"},{"inputs":[],"name":"getRequestsCount","outputs":[{"internalType":"uint256","name":"","type":"uint256"}],"stateMutability":"view","type":"function"},{"inputs":[],"name":"getSummary","outputs":[{"internalType":"string","name":"","type":"string"},{"internalType":"uint256","name":"","type":"uint256"},{"internalType":"uint256","name":"","type":"uint256"},{"internalType":"uint256","name":"","type":"uint256"},{"internalType":"uint256","name":"","type":"uint256"},{"internalType":"address","name":"","type":"address"}],"stateMutability":"view","type":"function"},{"inputs":[],"name":"getTotalFunds","outputs":[{"internalType":"uint256","name":"","type":"uint256"}],"stateMutability":"view","type":"function"},{"inputs":[{"internalType":"uint256","name":"requestIndex","type":"uint256"},{"internalType":"address","name":"contributor","type":"address"}],"name":"hasVoted","outputs":[{"internalType":"bool","name":"","type":"bool"}],"stateMutability":"view","type":"function"},{"inputs":[],"name":"isCancelled","outputs":[{"internalType":"bool","name":"","type":"bool"}],"stateMutability":"view","type":"function"},{"inputs":[],"name":"maxFunds","outputs":[{"internalType":"uint256","name":"","type":"uint256"}],"stateMutability":"view","type":"function"},{"inputs":[],"name":"minimumContribution","outputs":[{"internalType":"uint256","name":"","type":"uint256"}],"stateMutability":"view","type":"function"},{"inputs":[],"name":"owner","outputs":[{"internalType":"address","name":"","type":"address"}],"stateMutability":"view","type":"function"},{"inputs":[{"internalType":"uint256","name":"index","type":"uint256"}],"name":"rejectRequest","outputs":[],"stateMutability":"nonpayable","type":"function"},{"inputs":[],"name":"renounceOwnership","outputs":[],"stateMutability":"nonpayable","type":"function"},{"inputs":[{"internalType":"uint256","name":"","type":"uint256"}],"name":"requests","outputs":[{"internalType":"string","name":"description","type":"string"},{"internalType":"uint256","name":"value","type":"uint256"},{"internalType":"address payable","name":"recipient","type":"address"},{"internalType":"bool","name":"complete","type":"bool"},{"internalType":"uint256","name":"approvalCount","type":"uint256"},{"internalType":"uint256","name":"rejectionCount","type":"uint256"}],"stateMutability":"view","type":"function"},{"inputs":[],"name":"title","outputs":[{"internalType":"string","name":"","type":"string"}],"stateMutability":"view","type":"function"},{"inputs":[],"name":"totalFunds","outputs":[{"internalType":"uint256","name":"","type":"uint256"}],"stateMutability":"view","type":"function"},{"inputs":[{"internalType":"address","name":"newOwner","type":"address"}],"name":"transferOwnership","outputs":[],"stateMutability":"nonpayable","type":"function"},{"stateMutability":"payable","type":"receive"}],"evm":{"bytecode":{"linkReferences":{},"object":"60e06040524260a0523480156200001557600080fd5b5060405162001d3c38038062001d3c833981016040819052620000389162000100565b600160005562000048336200007b565b62000053816200007b565b6001600160a01b03821660805260026200006e858262000295565b50505060c0525062000361565b600180546001600160a01b038381166001600160a01b0319831681179093556040519116919082907f8be0079c531659141344cd1fd0a4f28419497f9722a3daafe3b4186f6b6457e090600090a35050565b634e487b7160e01b600052604160045260246000fd5b80516001600160a01b0381168114620000fb57600080fd5b919050565b600080600080608085870312156200011757600080fd5b84516001600160401b03808211156200012f57600080fd5b818701915087601f8301126200014457600080fd5b815181811115620001595762000159620000cd565b604051601f8201601f19908116603f01168101908382118183101715620001845762000184620000cd565b81604052828152602093508a84848701011115620001a157600080fd5b600091505b82821015620001c55784820184015181830185015290830190620001a6565b60008484830101528098505050508087015194505050620001e960408601620000e3565b9150620001f960608601620000e3565b905092959194509250565b600181811c908216806200021957607f821691505b6020821081036200023a57634e487b7160e01b600052602260045260246000fd5b50919050565b601f82111562000290576000816000526020600020601f850160051c810160208610156200026b5750805b601f850160051c820191505b818110156200028c5782815560010162000277565b5050505b505050565b81516001600160401b03811115620002b157620002b1620000cd565b620002c981620002c2845462000204565b8462000240565b602080601f831160018114620003015760008415620002e85750858301515b600019600386901b1c1916600185901b1785556200028c565b600085815260208120601f198616915b82811015620003325788860151825594840194600190910190840162000311565b5085821015620003515787850151600019600388901b60f8161c191681555b5050505050600190811b01905550565b60805160a05160c05161198f620003ad6000396000818161039c015281816105280152610c27015260006104490152600081816104150152818161066301526106f5015261198f6000f3fe6080604052600436106101845760003560e01c80638da5cb5b116100d1578063cf09e0d01161008a578063dff748e611610064578063dff748e614610493578063eb8bbd28146104a8578063f2fde38b146104bd578063feed5561146104dd57600080fd5b8063cf09e0d014610437578063d7bb99ba1461046b578063d7d1bbdb1461047357600080fd5b80638da5cb5b14610358578063937e09b11461038a57806395ee1221146103be578063968ed600146103d8578063980e7844146103ee578063c45a01551461040357600080fd5b806342e94c901161013e5780635d6e297f116101185780635d6e297f146102db578063715018a6146102f157806381d12c58146103065780638a9cfd551461033857600080fd5b806342e94c901461025c57806343859632146102895780634a79d50c146102b957600080fd5b80624f3e861461019857806303441006146101ad5780632d7788db146101cd5780633015394c146101ed5780633410452a1461020d5780634051ddac1461023557600080fd5b36610193576101916104f2565b005b600080fd5b3480156101a457600080fd5b50610191610635565b3480156101b957600080fd5b506101916101c836600461145c565b610786565b3480156101d957600080fd5b506101916101e836600461145c565b6109a7565b3480156101f957600080fd5b5061019161020836600461145c565b610b57565b34801561021957600080fd5b50610222610c09565b6040519081526020015b60405180910390f35b34801561024157600080fd5b5061024a610c19565b60405161022c969594939291906114bb565b34801561026857600080fd5b50610222610277366004611515565b60036020526000908152604090205481565b34801561029557600080fd5b506102a96102a4366004611539565b610cff565b604051901515815260200161022c565b3480156102c557600080fd5b506102ce610d58565b60405161022c9190611569565b3480156102e757600080fd5b5061022260085481565b3480156102fd57600080fd5b50610191610de6565b34801561031257600080fd5b5061032661032136600461145c565b610df8565b60405161022c9695949392919061157c565b34801561034457600080fd5b506101916103533660046115e7565b610ec5565b34801561036457600080fd5b506001546001600160a01b03165b6040516001600160a01b03909116815260200161022c565b34801561039657600080fd5b506102227f000000000000000000000000000000000000000000000000000000000000000081565b3480156103ca57600080fd5b506009546102a99060ff1681565b3480156103e457600080fd5b5061022260075481565b3480156103fa57600080fd5b506101916110f3565b34801561040f57600080fd5b506103727f000000000000000000000000000000000000000000000000000000000000000081565b34801561044357600080fd5b506102227f000000000000000000000000000000000000000000000000000000000000000081565b6101916104f2565b34801561047f57600080fd5b5061019161048e36600461145c565b61111e565b34801561049f57600080fd5b50600854610222565b3480156104b457600080fd5b50600754610222565b3480156104c957600080fd5b506101916104d8366004611515565b6112bf565b3480156104e957600080fd5b50610222611335565b60095460ff161561051e5760405162461bcd60e51b8152600401610515906116b2565b60405180910390fd5b610526611340565b7f00000000000000000000000000000000000000000000000000000000000000003410156105a05760405162461bcd60e51b815260206004820152602160248201527f436f6e747269627574696f6e2062656c6f77206d696e696d756d20616d6f756e6044820152601d60fa1b6064820152608401610515565b3360009081526003602052604081205490036105c4576105c4600480546001019055565b33600090815260036020526040812080543492906105e39084906116ff565b909155506105f19050611399565b604080513381523460208201527f6770260ea820d2f539364e7617e021543aaf6d192f2fd2a47c20db6bd99a4eb9910160405180910390a16106336001600055565b565b60095460ff16156106585760405162461bcd60e51b8152600401610515906116b2565b336001600160a01b037f000000000000000000000000000000000000000000000000000000000000000016146106e05760405162461bcd60e51b815260206004820152602760248201527f4f6e6c792074686520666163746f72792063616e2063616c6c207468697320666044820152663ab731ba34b7b760c91b6064820152608401610515565b6106e8611340565b6040516001600160a01b037f000000000000000000000000000000000000000000000000000000000000000016904780156108fc02916000818181858888f1935050505015801561073d573d6000803e3d6000fd5b506009805460ff19166001179055610753611399565b6040517f123d4f203b2b83bfe9f45903402bb88193cc56a43371d97ab5a51bd1817d858690600090a16106336001600055565b61078e6113b0565b610796611340565b60065481106107b75760405162461bcd60e51b815260040161051590611712565b60008181526005602052604090206002810154600160a01b900460ff16156107f15760405162461bcd60e51b815260040161051590611741565b60008160040154826003015461080791906116ff565b90506000606461081660045490565b61082190601e611783565b61082b919061179a565b9050808210156108725760405162461bcd60e51b8152602060048201526012602482015271145d5bdc9d5b481b9bdd081c995858da195960721b6044820152606401610515565b82600401548360030154116108c05760405162461bcd60e51b81526020600482015260146024820152734e6f7420656e6f75676820617070726f76616c7360601b6044820152606401610515565b47836001015411156109095760405162461bcd60e51b8152602060048201526012602482015271496e73756666696369656e742066756e647360701b6044820152606401610515565b60028301805460ff60a01b198116600160a01b1790915560018401546040516001600160a01b039092169181156108fc0291906000818181858888f1935050505015801561095b573d6000803e3d6000fd5b50610964611399565b6040518481527f5f737e695a47d9dd61a69c097b680eb2d154fd3a73ddf8e06ae201447c5933959060200160405180910390a15050506109a46001600055565b50565b60095460ff16156109ca5760405162461bcd60e51b8152600401610515906116b2565b6109d2611340565b60065481106109f35760405162461bcd60e51b815260040161051590611712565b33600090815260036020526040902054610a4f5760405162461bcd60e51b815260206004820152601c60248201527f4f6e6c7920636f6e7472696275746f72732063616e2072656a656374000000006044820152606401610515565b60008181526005602081815260408084203385529283019091529091205460ff1615610ab65760405162461bcd60e51b8152602060048201526016602482015275165bdd481a185d9948185b1c9958591e481d9bdd195960521b6044820152606401610515565b6002810154600160a01b900460ff1615610ae25760405162461bcd60e51b815260040161051590611741565b3360009081526005820160205260408120805460ff1916600117905560048201805491610b0e836117bc565b9091555050604080518381523360208201527f490ad67e4c8b3b9c1d11dfcd7f02e155190b8f6feff3a9d9e9df3721f0f74e5791015b60405180910390a1506109a46001600055565b610b5f6113b0565b610b67611340565b6006548110610b885760405162461bcd60e51b815260040161051590611712565b60008181526005602052604090206002810154600160a01b900460ff1615610bc25760405162461bcd60e51b815260040161051590611741565b60028101805460ff60a01b1916600160a01b1790556040517fee243f878b7fc2f54e934ca33783d4395d42bc07612e2bd4b8e0e178639f7a2890610b449084815260200190565b6000610c1460065490565b905090565b6060600080600080600060027f000000000000000000000000000000000000000000000000000000000000000047610c5060065490565b6004546001546001600160a01b0316858054610c6b906117d5565b80601f0160208091040260200160405190810160405280929190818152602001828054610c97906117d5565b8015610ce45780601f10610cb957610100808354040283529160200191610ce4565b820191906000526020600020905b815481529060010190602001808311610cc757829003601f168201915b50505050509550955095509550955095509550909192939495565b6000610d0a60065490565b8310610d285760405162461bcd60e51b815260040161051590611712565b5060008281526005602081815260408084206001600160a01b0386168552909201905290205460ff165b92915050565b60028054610d65906117d5565b80601f0160208091040260200160405190810160405280929190818152602001828054610d91906117d5565b8015610dde5780601f10610db357610100808354040283529160200191610dde565b820191906000526020600020905b815481529060010190602001808311610dc157829003601f168201915b505050505081565b610dee6113b0565b610633600061140a565b600560205260009081526040902080548190610e13906117d5565b80601f0160208091040260200160405190810160405280929190818152602001828054610e3f906117d5565b8015610e8c5780601f10610e6157610100808354040283529160200191610e8c565b820191906000526020600020905b815481529060010190602001808311610e6f57829003601f168201915b50505050600183015460028401546003850154600490950154939491936001600160a01b0382169350600160a01b90910460ff16919086565b610ecd6113b0565b60095460ff1615610ef05760405162461bcd60e51b8152600401610515906116b2565b610ef8611340565b60008211610f545760405162461bcd60e51b8152602060048201526024808201527f526571756573742076616c7565206d75737420626520677265617465722074686044820152630616e20360e41b6064820152608401610515565b6000835111610fa55760405162461bcd60e51b815260206004820152601b60248201527f4465736372697074696f6e2063616e6e6f7420626520656d70747900000000006044820152606401610515565b6001600160a01b038116610ffb5760405162461bcd60e51b815260206004820152601960248201527f496e76616c696420726563697069656e742061646472657373000000000000006044820152606401610515565b4782111561104b5760405162461bcd60e51b815260206004820152601e60248201527f496e73756666696369656e742066756e647320666f72207265717565737400006044820152606401610515565b600061105660065490565b600081815260056020526040902090915080611072868261185f565b50600181018490556002810180546001600160a81b0319166001600160a01b0385161790556110a5600680546001019055565b7ff7365309cb3a1c4835d32acd2153ebf718723e270daad5bb2aac6dd47564583b828686866040516110da949392919061191f565b60405180910390a150506110ee6001600055565b505050565b60095460ff16156111165760405162461bcd60e51b8152600401610515906116b2565b6106e06113b0565b60095460ff16156111415760405162461bcd60e51b8152600401610515906116b2565b611149611340565b600654811061116a5760405162461bcd60e51b815260040161051590611712565b336000908152600360205260409020546111c65760405162461bcd60e51b815260206004820152601d60248201527f4f6e6c7920636f6e7472696275746f72732063616e20617070726f76650000006044820152606401610515565b60008181526005602081815260408084203385529283019091529091205460ff161561122d5760405162461bcd60e51b8152602060048201526016602482015275165bdd481a185d9948185b1c9958591e481d9bdd195960521b6044820152606401610515565b6002810154600160a01b900460ff16156112595760405162461bcd60e51b815260040161051590611741565b3360009081526005820160205260408120805460ff1916600117905560038201805491611285836117bc565b9091555050604080518381523360208201527ff3dc904660a0ea05aba8dfa1e21fbc4fb2914be2a3029da7b0fdd3e5eee20ddb9101610b44565b6112c76113b0565b6001600160a01b03811661132c5760405162461bcd60e51b815260206004820152602660248201527f4f776e61626c653a206e6577206f776e657220697320746865207a65726f206160448201526564647265737360d01b6064820152608401610515565b6109a48161140a565b6000610c1460045490565b6002600054036113925760405162461bcd60e51b815260206004820152601f60248201527f5265656e7472616e637947756172643a207265656e7472616e742063616c6c006044820152606401610515565b6002600055565b476007819055600854101561063357600754600855565b6001546001600160a01b031633146106335760405162461bcd60e51b815260206004820181905260248201527f4f776e61626c653a2063616c6c6572206973206e6f7420746865206f776e65726044820152606401610515565b600180546001600160a01b038381166001600160a01b0319831681179093556040519116919082907f8be0079c531659141344cd1fd0a4f28419497f9722a3daafe3b4186f6b6457e090600090a35050565b60006020828403121561146e57600080fd5b5035919050565b6000815180845260005b8181101561149b5760208185018101518683018201520161147f565b506000602082860101526020601f19601f83011685010191505092915050565b60c0815260006114ce60c0830189611475565b6020830197909752506040810194909452606084019290925260808301526001600160a01b031660a090910152919050565b6001600160a01b03811681146109a457600080fd5b60006020828403121561152757600080fd5b813561153281611500565b9392505050565b6000806040838503121561154c57600080fd5b82359150602083013561155e81611500565b809150509250929050565b6020815260006115326020830184611475565b60c08152600061158f60c0830189611475565b6020830197909752506001600160a01b039490941660408501529115156060840152608083015260a090910152919050565b634e487b7160e01b600052604160045260246000fd5b80356115e281611500565b919050565b6000806000606084860312156115fc57600080fd5b833567ffffffffffffffff8082111561161457600080fd5b818601915086601f83011261162857600080fd5b81358181111561163a5761163a6115c1565b604051601f8201601f19908116603f01168101908382118183101715611662576116626115c1565b8160405282815289602084870101111561167b57600080fd5b826020860160208301376000602084830101528097505050505050602084013591506116a9604085016115d7565b90509250925092565b6020808252601b908201527f43616d706169676e20686173206265656e2063616e63656c6c65640000000000604082015260600190565b634e487b7160e01b600052601160045260246000fd5b80820180821115610d5257610d526116e9565b602080825260159082015274092dcecc2d8d2c840e4cae2eacae6e840d2dcc8caf605b1b604082015260600190565b60208082526022908201527f526571756573742068617320616c7265616479206265656e20636f6d706c6574604082015261195960f21b606082015260800190565b8082028115828204841417610d5257610d526116e9565b6000826117b757634e487b7160e01b600052601260045260246000fd5b500490565b6000600182016117ce576117ce6116e9565b5060010190565b600181811c908216806117e957607f821691505b60208210810361180957634e487b7160e01b600052602260045260246000fd5b50919050565b601f8211156110ee576000816000526020600020601f850160051c810160208610156118385750805b601f850160051c820191505b8181101561185757828155600101611844565b505050505050565b815167ffffffffffffffff811115611879576118796115c1565b61188d8161188784546117d5565b8461180f565b602080601f8311600181146118c257600084156118aa5750858301515b600019600386901b1c1916600185901b178555611857565b600085815260208120601f198616915b828110156118f1578886015182559484019460019091019084016118d2565b508582101561190f5787850151600019600388901b60f8161c191681555b5050505050600190811b01905550565b8481526080602082015260006119386080830186611475565b6040830194909452506001600160a01b03919091166060909101529291505056fea264697066735822122025977c65cebc0d60035e0eaaee86163b8eca2e20fb827155c7b44b8dc31dc51964736f6c63430008180033","opcodes":"PUSH1 0xE0 PUSH1 0x40 MSTORE TIMESTAMP PUSH1 0xA0 MSTORE CALLVALUE DUP1 ISZERO PUSH3 0x15 JUMPI PUSH1 0x0 DUP1 REVERT JUMPDEST POP PUSH1 0x40 MLOAD PUSH3 0x1D3C CODESIZE SUB DUP1 PUSH3 0x1D3C DUP4 CODECOPY DUP2 ADD PUSH1 0x40 DUP2 SWAP1 MSTORE PUSH3 0x38 SWAP2 PUSH3 0x100 JUMP JUMPDEST PUSH1 0x1 PUSH1 0x0 SSTORE PUSH3 0x48 CALLER PUSH3 0x7B JUMP JUMPDEST PUSH3 0x53 DUP2 PUSH3 0x7B JUMP JUMPDEST PUSH1 0x1 PUSH1 0x1 PUSH1 0xA0 SHL SUB DUP3 AND PUSH1 0x80 MSTORE PUSH1 0x2 PUSH3 0x6E DUP6 DUP3 PUSH3 0x295 JUMP JUMPDEST POP POP POP PUSH1 0xC0 MSTORE POP PUSH3 0x361 JUMP JUMPDEST PUSH1 0x1 DUP1 SLOAD PUSH1 0x1 PUSH1 0x1 PUSH1 0xA0 SHL SUB DUP4 DUP2 AND PUSH1 0x1 PUSH1 0x1 PUSH1 0xA0 SHL SUB NOT DUP4 AND DUP2 OR SWAP1 SWAP4 SSTORE PUSH1 0x40 MLOAD SWAP2 AND SWAP2 SWAP1 DUP3 SWAP1 PUSH32 0x8BE0079C531659141344CD1FD0A4F28419497F9722A3DAAFE3B4186F6B6457E0 SWAP1 PUSH1 0x0 SWAP1 LOG3 POP POP JUMP JUMPDEST PUSH4 0x4E487B71 PUSH1 0xE0 SHL PUSH1 0x0 MSTORE PUSH1 0x41 PUSH1 0x4 MSTORE PUSH1 0x24 PUSH1 0x0 REVERT JUMPDEST DUP1 MLOAD PUSH1 0x1 PUSH1 0x1 PUSH1 0xA0 SHL SUB DUP2 AND DUP2 EQ PUSH3 0xFB JUMPI PUSH1 0x0 DUP1 REVERT JUMPDEST SWAP2 SWAP1 POP JUMP JUMPDEST PUSH1 0x0 DUP1 PUSH1 0x0 DUP1 PUSH1 0x80 DUP6 DUP8 SUB SLT ISZERO PUSH3 0x117 JUMPI PUSH1 0x0 DUP1 REVERT JUMPDEST DUP5 MLOAD PUSH1 0x1 PUSH1 0x1 PUSH1 0x40 SHL SUB DUP1 DUP3 GT ISZERO PUSH3 0x12F JUMPI PUSH1 0x0 DUP1 REVERT JUMPDEST DUP2 DUP8 ADD SWAP2 POP DUP8 PUSH1 0x1F DUP4 ADD SLT PUSH3 0x144 JUMPI PUSH1 0x0 DUP1 REVERT JUMPDEST DUP2 MLOAD DUP2 DUP2 GT ISZERO PUSH3 0x159 JUMPI PUSH3 0x159 PUSH3 0xCD JUMP JUMPDEST PUSH1 0x40 MLOAD PUSH1 0x1F DUP3 ADD PUSH1 0x1F NOT SWAP1 DUP2 AND PUSH1 0x3F ADD AND DUP2 ADD SWAP1 DUP4 DUP3 GT DUP2 DUP4 LT OR ISZERO PUSH3 0x184 JUMPI PUSH3 0x184 PUSH3 0xCD JUMP JUMPDEST DUP2 PUSH1 0x40 MSTORE DUP3 DUP2 MSTORE PUSH1 0x20 SWAP4 POP DUP11 DUP5 DUP5 DUP8 ADD ADD GT ISZERO PUSH3 0x1A1 JUMPI PUSH1 0x0 DUP1 REVERT JUMPDEST PUSH1 0x0 SWAP2 POP JUMPDEST DUP3 DUP3 LT ISZERO PUSH3 0x1C5 JUMPI DUP5 DUP3 ADD DUP5 ADD MLOAD DUP2 DUP4 ADD DUP6 ADD MSTORE SWAP1 DUP4 ADD SWAP1 PUSH3 0x1A6 JUMP JUMPDEST PUSH1 0x0 DUP5 DUP5 DUP4 ADD ADD MSTORE DUP1 SWAP9 POP POP POP POP DUP1 DUP8 ADD MLOAD SWAP5 POP POP POP PUSH3 0x1E9 PUSH1 0x40 DUP7 ADD PUSH3 0xE3 JUMP JUMPDEST SWAP2 POP PUSH3 0x1F9 PUSH1 0x60 DUP7 ADD PUSH3 0xE3 JUMP JUMPDEST SWAP1 POP SWAP3 SWAP6 SWAP2 SWAP5 POP SWAP3 POP JUMP JUMPDEST PUSH1 0x1 DUP2 DUP2 SHR SWAP1 DUP3 AND DUP1 PUSH3 0x219 JUMPI PUSH1 0x7F DUP3 AND SWAP2 POP JUMPDEST PUSH1 0x20 DUP3 LT DUP2 SUB PUSH3 0x23A JUMPI PUSH4 0x4E487B71 PUSH1 0xE0 SHL PUSH1 0x0 MSTORE PUSH1 0x22 PUSH1 0x4 MSTORE PUSH1 0x24 PUSH1 0x0 REVERT JUMPDEST POP SWAP2 SWAP1 POP JUMP JUMPDEST PUSH1 0x1F DUP3 GT ISZERO PUSH3 0x290 JUMPI PUSH1 0x0 DUP2 PUSH1 0x0 MSTORE PUSH1 0x20 PUSH1 0x0 KECCAK256 PUSH1 0x1F DUP6 ADD PUSH1 0x5 SHR DUP2 ADD PUSH1 0x20 DUP7 LT ISZERO PUSH3 0x26B JUMPI POP DUP1 JUMPDEST PUSH1 0x1F DUP6 ADD PUSH1 0x5 SHR DUP3 ADD SWAP2 POP JUMPDEST DUP2 DUP2 LT ISZERO PUSH3 0x28C JUMPI DUP3 DUP2 SSTORE PUSH1 0x1 ADD PUSH3 0x277 JUMP JUMPDEST POP POP POP JUMPDEST POP POP POP JUMP JUMPDEST DUP2 MLOAD PUSH1 0x1 PUSH1 0x1 PUSH1 0x40 SHL SUB DUP2 GT ISZERO PUSH3 0x2B1 JUMPI PUSH3 0x2B1 PUSH3 0xCD JUMP JUMPDEST PUSH3 0x2C9 DUP2 PUSH3 0x2C2 DUP5 SLOAD PUSH3 0x204 JUMP JUMPDEST DUP5 PUSH3 0x240 JUMP JUMPDEST PUSH1 0x20 DUP1 PUSH1 0x1F DUP4 GT PUSH1 0x1 DUP2 EQ PUSH3 0x301 JUMPI PUSH1 0x0 DUP5 ISZERO PUSH3 0x2E8 JUMPI POP DUP6 DUP4 ADD MLOAD JUMPDEST PUSH1 0x0 NOT PUSH1 0x3 DUP7 SWAP1 SHL SHR NOT AND PUSH1 0x1 DUP6 SWAP1 SHL OR DUP6 SSTORE PUSH3 0x28C JUMP JUMPDEST PUSH1 0x0 DUP6 DUP2 MSTORE PUSH1 0x20 DUP2 KECCAK256 PUSH1 0x1F NOT DUP7 AND SWAP2 JUMPDEST DUP3 DUP2 LT ISZERO PUSH3 0x332 JUMPI DUP9 DUP7 ADD MLOAD DUP3 SSTORE SWAP5 DUP5 ADD SWAP5 PUSH1 0x1 SWAP1 SWAP2 ADD SWAP1 DUP5 ADD PUSH3 0x311 JUMP JUMPDEST POP DUP6 DUP3 LT ISZERO PUSH3 0x351 JUMPI DUP8 DUP6 ADD MLOAD PUSH1 0x0 NOT PUSH1 0x3 DUP9 SWAP1 SHL PUSH1 0xF8 AND SHR NOT AND DUP2 SSTORE JUMPDEST POP POP POP POP POP PUSH1 0x1 SWAP1 DUP2 SHL ADD SWAP1 SSTORE POP JUMP JUMPDEST PUSH1 0x80 MLOAD PUSH1 0xA0 MLOAD PUSH1 0xC0 MLOAD PUSH2 0x198F PUSH3 0x3AD PUSH1 0x0 CODECOPY PUSH1 0x0 DUP2 DUP2 PUSH2 0x39C ADD MSTORE DUP2 DUP2 PUSH2 0x528 ADD MSTORE PUSH2 0xC27 ADD MSTORE PUSH1 0x0 PUSH2 0x449 ADD MSTORE PUSH1 0x0 DUP2 DUP2 PUSH2 0x415 ADD MSTORE DUP2 DUP2 PUSH2 0x663 ADD MSTORE PUSH2 0x6F5 ADD MSTORE PUSH2 0x198F PUSH1 0x0 RETURN INVALID PUSH1 0x80 PUSH1 0x40 MSTORE PUSH1 0x4 CALLDATASIZE LT PUSH2 0x184 JUMPI PUSH1 0x0 CALLDATALOAD PUSH1 0xE0 SHR DUP1 PUSH4 0x8DA5CB5B GT PUSH2 0xD1 JUMPI DUP1 PUSH4 0xCF09E0D0 GT PUSH2 0x8A JUMPI DUP1 PUSH4 0xDFF748E6 GT PUSH2 0x64 JUMPI DUP1 PUSH4 0xDFF748E6 EQ PUSH2 0x493 JUMPI DUP1 PUSH4 0xEB8BBD28 EQ PUSH2 0x4A8 JUMPI DUP1 PUSH4 0xF2FDE38B EQ PUSH2 0x4BD JUMPI DUP1 PUSH4 0xFEED5561 EQ PUSH2 0x4DD JUMPI PUSH1 0x0 DUP1 REVERT JUMPDEST DUP1 PUSH4 0xCF09E0D0 EQ PUSH2 0x437 JUMPI DUP1 PUSH4 0xD7BB99BA EQ PUSH2 0x46B JUMPI DUP1 PUSH4 0xD7D1BBDB EQ PUSH2 0x473 JUMPI PUSH1 0x0 DUP1 REVERT JUMPDEST DUP1 PUSH4 0x8DA5CB5B EQ PUSH2 0x358 JUMPI DUP1 PUSH4 0x937E09B1 EQ PUSH2 0x38A JUMPI DUP1 PUSH4 0x95EE1221 EQ PUSH2 0x3BE JUMPI DUP1 PUSH4 0x968ED600 EQ PUSH2 0x3D8 JUMPI DUP1 PUSH4 0x980E7844 EQ PUSH2 0x3EE JUMPI DUP1 PUSH4 0xC45A0155 EQ PUSH2 0x403 JUMPI PUSH1 0x0 DUP1 REVERT JUMPDEST DUP1 PUSH4 0x42E94C90 GT PUSH2 0x13E JUMPI DUP1 PUSH4 0x5D6E297F GT PUSH2 0x118 JUMPI DUP1 PUSH4 0x5D6E297F EQ PUSH2 0x2DB JUMPI DUP1 PUSH4 0x715018A6 EQ PUSH2 0x2F1 JUMPI DUP1 PUSH4 0x81D12C58 EQ PUSH2 0x306 JUMPI DUP1 PUSH4 0x8A9CFD55 EQ PUSH2 0x338 JUMPI PUSH1 0x0 DUP1 REVERT JUMPDEST DUP1 PUSH4 0x42E94C90 EQ PUSH2 0x25C JUMPI DUP1 PUSH4 0x43859632 EQ PUSH2 0x289 JUMPI DUP1 PUSH4 0x4A79D50C EQ PUSH2 0x2B9 JUMPI PUSH1 0x0 DUP1 REVERT JUMPDEST DUP1 PUSH3 0x4F3E86 EQ PUSH2 0x198 JUMPI DUP1 PUSH4 0x3441006 EQ PUSH2 0x1AD JUMPI DUP1 PUSH4 0x2D7788DB EQ PUSH2 0x1CD JUMPI DUP1 PUSH4 0x3015394C EQ PUSH2 0x1ED JUMPI DUP1 PUSH4 0x3410452A EQ PUSH2 0x20D JUMPI DUP1 PUSH4 0x4051DDAC EQ PUSH2 0x235 JUMPI PUSH1 0x0 DUP1 REVERT JUMPDEST CALLDATASIZE PUSH2 0x193 JUMPI PUSH2 0x191 PUSH2 0x4F2 JUMP JUMPDEST STOP JUMPDEST PUSH1 0x0 DUP1 REVERT JUMPDEST CALLVALUE DUP1 ISZERO PUSH2 0x1A4 JUMPI PUSH1 0x0 DUP1 REVERT JUMPDEST POP PUSH2 0x191 PUSH2 0x635 JUMP JUMPDEST CALLVALUE DUP1 ISZERO PUSH2 0x1B9 JUMPI PUSH1 0x0 DUP1 REVERT JUMPDEST POP PUSH2 0x191 PUSH2 0x1C8 CALLDATASIZE PUSH1 0x4 PUSH2 0x145C JUMP JUMPDEST PUSH2 0x786 JUMP JUMPDEST CALLVALUE DUP1 ISZERO PUSH2 0x1D9 JUMPI PUSH1 0x0 DUP1 REVERT JUMPDEST POP PUSH2 0x191 PUSH2 0x1E8 CALLDATASIZE PUSH1 0x4 PUSH2 0x145C JUMP JUMPDEST PUSH2 0x9A7 JUMP JUMPDEST CALLVALUE DUP1 ISZERO PUSH2 0x1F9 JUMPI PUSH1 0x0 DUP1 REVERT JUMPDEST POP PUSH2 0x191 PUSH2 0x208 CALLDATASIZE PUSH1 0x4 PUSH2 0x145C JUMP JUMPDEST PUSH2 0xB57 JUMP JUMPDEST CALLVALUE DUP1 ISZERO PUSH2 0x219 JUMPI PUSH1 0x0 DUP1 REVERT JUMPDEST POP PUSH2 0x222 PUSH2 0xC09 JUMP JUMPDEST PUSH1 0x40 MLOAD SWAP1 DUP2 MSTORE PUSH1 0x20 ADD JUMPDEST PUSH1 0x40 MLOAD DUP1 SWAP2 SUB SWAP1 RETURN JUMPDEST CALLVALUE DUP1 ISZERO PUSH2 0x241 JUMPI PUSH1 0x0 DUP1 REVERT JUMPDEST POP PUSH2 0x24A PUSH2 0xC19 JUMP JUMPDEST PUSH1 0x40 MLOAD PUSH2 0x22C SWAP7 SWAP6 SWAP5 SWAP4 SWAP3 SWAP2 SWAP1 PUSH2 0x14BB JUMP JUMPDEST CALLVALUE DUP1 ISZERO PUSH2 0x268 JUMPI PUSH1 0x0 DUP1 REVERT JUMPDEST POP PUSH2 0x222 PUSH2 0x277 CALLDATASIZE PUSH1 0x4 PUSH2 0x1515 JUMP JUMPDEST PUSH1 0x3 PUSH1 0x20 MSTORE PUSH1 0x0 SWAP1 DUP2 MSTORE PUSH1 0x40 SWAP1 KECCAK256 SLOAD DUP2 JUMP JUMPDEST CALLVALUE DUP1 ISZERO PUSH2 0x295 JUMPI PUSH1 0x0 DUP1 REVERT JUMPDEST POP PUSH2 0x2A9 PUSH2 0x2A4 CALLDATASIZE PUSH1 0x4 PUSH2 0x1539 JUMP JUMPDEST PUSH2 0xCFF JUMP JUMPDEST PUSH1 0x40 MLOAD SWAP1 ISZERO ISZERO DUP2 MSTORE PUSH1 0x20 ADD PUSH2 0x22C JUMP JUMPDEST CALLVALUE DUP1 ISZERO PUSH2 0x2C5 JUMPI PUSH1 0x0 DUP1 REVERT JUMPDEST POP PUSH2 0x2CE PUSH2 0xD58 JUMP JUMPDEST PUSH1 0x40 MLOAD PUSH2 0x22C SWAP2 SWAP1 PUSH2 0x1569 JUMP JUMPDEST CALLVALUE DUP1 ISZERO PUSH2 0x2E7 JUMPI PUSH1 0x0 DUP1 REVERT JUMPDEST POP PUSH2 0x222 PUSH1 0x8 SLOAD DUP2 JUMP JUMPDEST CALLVALUE DUP1 ISZERO PUSH2 0x2FD JUMPI PUSH1 0x0 DUP1 REVERT JUMPDEST POP PUSH2 0x191 PUSH2 0xDE6 JUMP JUMPDEST CALLVALUE DUP1 ISZERO PUSH2 0x312 JUMPI PUSH1 0x0 DUP1 REVERT JUMPDEST POP PUSH2 0x326 PUSH2 0x321 CALLDATASIZE PUSH1 0x4 PUSH2 0x145C JUMP JUMPDEST PUSH2 0xDF8 JUMP JUMPDEST PUSH1 0x40 MLOAD PUSH2 0x22C SWAP7 SWAP6 SWAP5 SWAP4 SWAP3 SWAP2 SWAP1 PUSH2 0x157C JUMP JUMPDEST CALLVALUE DUP1 ISZERO PUSH2 0x344 JUMPI PUSH1 0x0 DUP1 REVERT JUMPDEST POP PUSH2 0x191 PUSH2 0x353 CALLDATASIZE PUSH1 0x4 PUSH2 0x15E7 JUMP JUMPDEST PUSH2 0xEC5 JUMP JUMPDEST CALLVALUE DUP1 ISZERO PUSH2 0x364 JUMPI PUSH1 0x0 DUP1 REVERT JUMPDEST POP PUSH1 0x1 SLOAD PUSH1 0x1 PUSH1 0x1 PUSH1 0xA0 SHL SUB AND JUMPDEST PUSH1 0x40 MLOAD PUSH1 0x1 PUSH1 0x1 PUSH1 0xA0 SHL SUB SWAP1 SWAP2 AND DUP2 MSTORE PUSH1 0x20 ADD PUSH2 0x22C JUMP JUMPDEST CALLVALUE DUP1 ISZERO PUSH2 0x396 JUMPI PUSH1 0x0 DUP1 REVERT JUMPDEST POP PUSH2 0x222 PUSH32 0x0 DUP2 JUMP JUMPDEST CALLVALUE DUP1 ISZERO PUSH2 0x3CA JUMPI PUSH1 0x0 DUP1 REVERT JUMPDEST POP PUSH1 0x9 SLOAD PUSH2 0x2A9 SWAP1 PUSH1 0xFF AND DUP2 JUMP JUMPDEST CALLVALUE DUP1 ISZERO PUSH2 0x3E4 JUMPI PUSH1 0x0 DUP1 REVERT JUMPDEST POP PUSH2 0x222 PUSH1 0x7 SLOAD DUP2 JUMP JUMPDEST CALLVALUE DUP1 ISZERO PUSH2 0x3FA JUMPI PUSH1 0x0 DUP1 REVERT JUMPDEST POP PUSH2 0x191 PUSH2 0x10F3 JUMP JUMPDEST CALLVALUE DUP1 ISZERO PUSH2 0x40F JUMPI PUSH1 0x0 DUP1 REVERT JUMPDEST POP PUSH2 0x372 PUSH32 0x0 DUP2 JUMP JUMPDEST CALLVALUE DUP1 ISZERO PUSH2 0x443 JUMPI PUSH1 0x0 DUP1 REVERT JUMPDEST POP PUSH2 0x222 PUSH32 0x0 DUP2 JUMP JUMPDEST PUSH2 0x191 PUSH2 0x4F2 JUMP JUMPDEST CALLVALUE DUP1 ISZERO PUSH2 0x47F JUMPI PUSH1 0x0 DUP1 REVERT JUMPDEST POP PUSH2 0x191 PUSH2 0x48E CALLDATASIZE PUSH1 0x4 PUSH2 0x145C JUMP JUMPDEST PUSH2 0x111E JUMP JUMPDEST CALLVALUE DUP1 ISZERO PUSH2 0x49F JUMPI PUSH1 0x0 DUP1 REVERT JUMPDEST POP PUSH1 0x8 SLOAD PUSH2 0x222 JUMP JUMPDEST CALLVALUE DUP1 ISZERO PUSH2 0x4B4 JUMPI PUSH1 0x0 DUP1 REVERT JUMPDEST POP PUSH1 0x7 SLOAD PUSH2 0x222 JUMP JUMPDEST CALLVALUE DUP1 ISZERO PUSH2 0x4C9 JUMPI PUSH1 0x0 DUP1 REVERT JUMPDEST POP PUSH2 0x191 PUSH2 0x4D8 CALLDATASIZE PUSH1 0x4 PUSH2 0x1515 JUMP JUMPDEST PUSH2 0x12BF JUMP JUMPDEST CALLVALUE DUP1 ISZERO PUSH2 0x4E9 JUMPI PUSH1 0x0 DUP1 REVERT JUMPDEST POP PUSH2 0x222 PUSH2 0x1335 JUMP JUMPDEST PUSH1 0x9 SLOAD PUSH1 0xFF AND ISZERO PUSH2 0x51E JUMPI PUSH1 0x40 MLOAD PUSH3 0x461BCD PUSH1 0xE5 SHL DUP2 MSTORE PUSH1 0x4 ADD PUSH2 0x515 SWAP1 PUSH2 0x16B2 JUMP JUMPDEST PUSH1 0x40 MLOAD DUP1 SWAP2 SUB SWAP1 REVERT JUMPDEST PUSH2 0x526 PUSH2 0x1340 JUMP JUMPDEST PUSH32 0x0 CALLVALUE LT ISZERO PUSH2 0x5A0 JUMPI PUSH1 0x40 MLOAD PUSH3 0x461BCD PUSH1 0xE5 SHL DUP2 MSTORE PUSH1 0x20 PUSH1 0x4 DUP3 ADD MSTORE PUSH1 0x21 PUSH1 0x24 DUP3 ADD MSTORE PUSH32 0x436F6E747269627574696F6E2062656C6F77206D696E696D756D20616D6F756E PUSH1 0x44 DUP3 ADD MSTORE PUSH1 0x1D PUSH1 0xFA SHL PUSH1 0x64 DUP3 ADD MSTORE PUSH1 0x84 ADD PUSH2 0x515 JUMP JUMPDEST CALLER PUSH1 0x0 SWAP1 DUP2 MSTORE PUSH1 0x3 PUSH1 0x20 MSTORE PUSH1 0x40 DUP2 KECCAK256 SLOAD SWAP1 SUB PUSH2 0x5C4 JUMPI PUSH2 0x5C4 PUSH1 0x4 DUP1 SLOAD PUSH1 0x1 ADD SWAP1 SSTORE JUMP JUMPDEST CALLER PUSH1 0x0 SWAP1 DUP2 MSTORE PUSH1 0x3 PUSH1 0x20 MSTORE PUSH1 0x40 DUP2 KECCAK256 DUP1 SLOAD CALLVALUE SWAP3 SWAP1 PUSH2 0x5E3 SWAP1 DUP5 SWAP1 PUSH2 0x16FF JUMP JUMPDEST SWAP1 SWAP2 SSTORE POP PUSH2 0x5F1 SWAP1 POP PUSH2 0x1399 JUMP JUMPDEST PUSH1 0x40 DUP1 MLOAD CALLER DUP2 MSTORE CALLVALUE PUSH1 0x20 DUP3 ADD MSTORE PUSH32 0x6770260EA820D2F539364E7617E021543AAF6D192F2FD2A47C20DB6BD99A4EB9 SWAP2 ADD PUSH1 0x40 MLOAD DUP1 SWAP2 SUB SWAP1 LOG1 PUSH2 0x633 PUSH1 0x1 PUSH1 0x0 SSTORE JUMP JUMPDEST JUMP JUMPDEST PUSH1 0x9 SLOAD PUSH1 0xFF AND ISZERO PUSH2 0x658 JUMPI PUSH1 0x40 MLOAD PUSH3 0x461BCD PUSH1 0xE5 SHL DUP2 MSTORE PUSH1 0x4 ADD PUSH2 0x515 SWAP1 PUSH2 0x16B2 JUMP JUMPDEST CALLER PUSH1 0x1 PUSH1 0x1 PUSH1 0xA0 SHL SUB PUSH32 0x0 AND EQ PUSH2 0x6E0 JUMPI PUSH1 0x40 MLOAD PUSH3 0x461BCD PUSH1 0xE5 SHL DUP2 MSTORE PUSH1 0x20 PUSH1 0x4 DUP3 ADD MSTORE PUSH1 0x27 PUSH1 0x24 DUP3 ADD MSTORE PUSH32 0x4F6E6C792074686520666163746F72792063616E2063616C6C20746869732066 PUSH1 0x44 DUP3 ADD MSTORE PUSH7 0x3AB731BA34B7B7 PUSH1 0xC9 SHL PUSH1 0x64 DUP3 ADD MSTORE PUSH1 0x84 ADD PUSH2 0x515 JUMP JUMPDEST PUSH2 0x6E8 PUSH2 0x1340 JUMP JUMPDEST PUSH1 0x40 MLOAD PUSH1 0x1 PUSH1 0x1 PUSH1 0xA0 SHL SUB PUSH32 0x0 AND SWAP1 SELFBALANCE DUP1 ISZERO PUSH2 0x8FC MUL SWAP2 PUSH1 0x0 DUP2 DUP2 DUP2 DUP6 DUP9 DUP9 CALL SWAP4 POP POP POP POP ISZERO DUP1 ISZERO PUSH2 0x73D JUMPI RETURNDATASIZE PUSH1 0x0 DUP1 RETURNDATACOPY RETURNDATASIZE PUSH1 0x0 REVERT JUMPDEST POP PUSH1 0x9 DUP1 SLOAD PUSH1 0xFF NOT AND PUSH1 0x1 OR SWAP1 SSTORE PUSH2 0x753 PUSH2 0x1399 JUMP JUMPDEST PUSH1 0x40 MLOAD PUSH32 0x123D4F203B2B83BFE9F45903402BB88193CC56A43371D97AB5A51BD1817D8586 SWAP1 PUSH1 0x0 SWAP1 LOG1 PUSH2 0x633 PUSH1 0x1 PUSH1 0x0 SSTORE JUMP JUMPDEST PUSH2 0x78E PUSH2 0x13B0 JUMP JUMPDEST PUSH2 0x796 PUSH2 0x1340 JUMP JUMPDEST PUSH1 0x6 SLOAD DUP2 LT PUSH2 0x7B7 JUMPI PUSH1 0x40 MLOAD PUSH3 0x461BCD PUSH1 0xE5 SHL DUP2 MSTORE PUSH1 0x4 ADD PUSH2 0x515 SWAP1 PUSH2 0x1712 JUMP JUMPDEST PUSH1 0x0 DUP2 DUP2 MSTORE PUSH1 0x5 PUSH1 0x20 MSTORE PUSH1 0x40 SWAP1 KECCAK256 PUSH1 0x2 DUP2 ADD SLOAD PUSH1 0x1 PUSH1 0xA0 SHL SWAP1 DIV PUSH1 0xFF AND ISZERO PUSH2 0x7F1 JUMPI PUSH1 0x40 MLOAD PUSH3 0x461BCD PUSH1 0xE5 SHL DUP2 MSTORE PUSH1 0x4 ADD PUSH2 0x515 SWAP1 PUSH2 0x1741 JUMP JUMPDEST PUSH1 0x0 DUP2 PUSH1 0x4 ADD SLOAD DUP3 PUSH1 0x3 ADD SLOAD PUSH2 0x807 SWAP2 SWAP1 PUSH2 0x16FF JUMP JUMPDEST SWAP1 POP PUSH1 0x0 PUSH1 0x64 PUSH2 0x816 PUSH1 0x4 SLOAD SWAP1 JUMP JUMPDEST PUSH2 0x821 SWAP1 PUSH1 0x1E PUSH2 0x1783 JUMP JUMPDEST PUSH2 0x82B SWAP2 SWAP1 PUSH2 0x179A JUMP JUMPDEST SWAP1 POP DUP1 DUP3 LT ISZERO PUSH2 0x872 JUMPI PUSH1 0x40 MLOAD PUSH3 0x461BCD PUSH1 0xE5 SHL DUP2 MSTORE PUSH1 0x20 PUSH1 0x4 DUP3 ADD MSTORE PUSH1 0x12 PUSH1 0x24 DUP3 ADD MSTORE PUSH18 0x145D5BDC9D5B481B9BDD081C995858DA1959 PUSH1 0x72 SHL PUSH1 0x44 DUP3 ADD MSTORE PUSH1 0x64 ADD PUSH2 0x515 JUMP JUMPDEST DUP3 PUSH1 0x4 ADD SLOAD DUP4 PUSH1 0x3 ADD SLOAD GT PUSH2 0x8C0 JUMPI PUSH1 0x40 MLOAD PUSH3 0x461BCD PUSH1 0xE5 SHL DUP2 MSTORE PUSH1 0x20 PUSH1 0x4 DUP3 ADD MSTORE PUSH1 0x14 PUSH1 0x24 DUP3 ADD MSTORE PUSH20 0x4E6F7420656E6F75676820617070726F76616C73 PUSH1 0x60 SHL PUSH1 0x44 DUP3 ADD MSTORE PUSH1 0x64 ADD PUSH2 0x515 JUMP JUMPDEST SELFBALANCE DUP4 PUSH1 0x1 ADD SLOAD GT ISZERO PUSH2 0x909 JUMPI PUSH1 0x40 MLOAD PUSH3 0x461BCD PUSH1 0xE5 SHL DUP2 MSTORE PUSH1 0x20 PUSH1 0x4 DUP3 ADD MSTORE PUSH1 0x12 PUSH1 0x24 DUP3 ADD MSTORE PUSH18 0x496E73756666696369656E742066756E6473 PUSH1 0x70 SHL PUSH1 0x44 DUP3 ADD MSTORE PUSH1 0x64 ADD PUSH2 0x515 JUMP JUMPDEST PUSH1 0x2 DUP4 ADD DUP1 SLOAD PUSH1 0xFF PUSH1 0xA0 SHL NOT DUP2 AND PUSH1 0x1 PUSH1 0xA0 SHL OR SWAP1 SWAP2 SSTORE PUSH1 0x1 DUP5 ADD SLOAD PUSH1 0x40 MLOAD PUSH1 0x1 PUSH1 0x1 PUSH1 0xA0 SHL SUB SWAP1 SWAP3 AND SWAP2 DUP2 ISZERO PUSH2 0x8FC MUL SWAP2 SWAP1 PUSH1 0x0 DUP2 DUP2 DUP2 DUP6 DUP9 DUP9 CALL SWAP4 POP POP POP POP ISZERO DUP1 ISZERO PUSH2 0x95B JUMPI RETURNDATASIZE PUSH1 0x0 DUP1 RETURNDATACOPY RETURNDATASIZE PUSH1 0x0 REVERT JUMPDEST POP PUSH2 0x964 PUSH2 0x1399 JUMP JUMPDEST PUSH1 0x40 MLOAD DUP5 DUP2 MSTORE PUSH32 0x5F737E695A47D9DD61A69C097B680EB2D154FD3A73DDF8E06AE201447C593395 SWAP1 PUSH1 0x20 ADD PUSH1 0x40 MLOAD DUP1 SWAP2 SUB SWAP1 LOG1 POP POP POP PUSH2 0x9A4 PUSH1 0x1 PUSH1 0x0 SSTORE JUMP JUMPDEST POP JUMP JUMPDEST PUSH1 0x9 SLOAD PUSH1 0xFF AND ISZERO PUSH2 0x9CA JUMPI PUSH1 0x40 MLOAD PUSH3 0x461BCD PUSH1 0xE5 SHL DUP2 MSTORE PUSH1 0x4 ADD PUSH2 0x515 SWAP1 PUSH2 0x16B2 JUMP JUMPDEST PUSH2 0x9D2 PUSH2 0x1340 JUMP JUMPDEST PUSH1 0x6 SLOAD DUP2 LT PUSH2 0x9F3 JUMPI PUSH1 0x40 MLOAD PUSH3 0x461BCD PUSH1 0xE5 SHL DUP2 MSTORE PUSH1 0x4 ADD PUSH2 0x515 SWAP1 PUSH2 0x1712 JUMP JUMPDEST CALLER PUSH1 0x0 SWAP1 DUP2 MSTORE PUSH1 0x3 PUSH1 0x20 MSTORE PUSH1 0x40 SWAP1 KECCAK256 SLOAD PUSH2 0xA4F JUMPI PUSH1 0x40 MLOAD PUSH3 0x461BCD PUSH1 0xE5 SHL DUP2 MSTORE PUSH1 0x20 PUSH1 0x4 DUP3 ADD MSTORE PUSH1 0x1C PUSH1 0x24 DUP3 ADD MSTORE PUSH32 0x4F6E6C7920636F6E7472696275746F72732063616E2072656A65637400000000 PUSH1 0x44 DUP3 ADD MSTORE PUSH1 0x64 ADD PUSH2 0x515 JUMP JUMPDEST PUSH1 0x0 DUP2 DUP2 MSTORE PUSH1 0x5 PUSH1 0x20 DUP2 DUP2 MSTORE PUSH1 0x40 DUP1 DUP5 KECCAK256 CALLER DUP6 MSTORE SWAP3 DUP4 ADD SWAP1 SWAP2 MSTORE SWAP1 SWAP2 KECCAK256 SLOAD PUSH1 0xFF AND ISZERO PUSH2 0xAB6 JUMPI PUSH1 0x40 MLOAD PUSH3 0x461BCD PUSH1 0xE5 SHL DUP2 MSTORE PUSH1 0x20 PUSH1 0x4 DUP3 ADD MSTORE PUSH1 0x16 PUSH1 0x24 DUP3 ADD MSTORE PUSH22 0x165BDD481A185D9948185B1C9958591E481D9BDD1959 PUSH1 0x52 SHL PUSH1 0x44 DUP3 ADD MSTORE PUSH1 0x64 ADD PUSH2 0x515 JUMP JUMPDEST PUSH1 0x2 DUP2 ADD SLOAD PUSH1 0x1 PUSH1 0xA0 SHL SWAP1 DIV PUSH1 0xFF AND ISZERO PUSH2 0xAE2 JUMPI PUSH1 0x40 MLOAD PUSH3 0x461BCD PUSH1 0xE5 SHL DUP2 MSTORE PUSH1 0x4 ADD PUSH2 0x515 SWAP1 PUSH2 0x1741 JUMP JUMPDEST CALLER PUSH1 0x0 SWAP1 DUP2 MSTORE PUSH1 0x5 DUP3 ADD PUSH1 0x20 MSTORE PUSH1 0x40 DUP2 KECCAK256 DUP1 SLOAD PUSH1 0xFF NOT AND PUSH1 0x1 OR SWAP1 SSTORE PUSH1 0x4 DUP3 ADD DUP1 SLOAD SWAP2 PUSH2 0xB0E DUP4 PUSH2 0x17BC JUMP JUMPDEST SWAP1 SWAP2 SSTORE POP POP PUSH1 0x40 DUP1 MLOAD DUP4 DUP2 MSTORE CALLER PUSH1 0x20 DUP3 ADD MSTORE PUSH32 0x490AD67E4C8B3B9C1D11DFCD7F02E155190B8F6FEFF3A9D9E9DF3721F0F74E57 SWAP2 ADD JUMPDEST PUSH1 0x40 MLOAD DUP1 SWAP2 SUB SWAP1 LOG1 POP PUSH2 0x9A4 PUSH1 0x1 PUSH1 0x0 SSTORE JUMP JUMPDEST PUSH2 0xB5F PUSH2 0x13B0 JUMP JUMPDEST PUSH2 0xB67 PUSH2 0x1340 JUMP JUMPDEST PUSH1 0x6 SLOAD DUP2 LT PUSH2 0xB88 JUMPI PUSH1 0x40 MLOAD PUSH3 0x461BCD PUSH1 0xE5 SHL DUP2 MSTORE PUSH1 0x4 ADD PUSH2 0x515 SWAP1 PUSH2 0x1712 JUMP JUMPDEST PUSH1 0x0 DUP2 DUP2 MSTORE PUSH1 0x5 PUSH1 0x20 MSTORE PUSH1 0x40 SWAP1 KECCAK256 PUSH1 0x2 DUP2 ADD SLOAD PUSH1 0x1 PUSH1 0xA0 SHL SWAP1 DIV PUSH1 0xFF AND ISZERO PUSH2 0xBC2 JUMPI PUSH1 0x40 MLOAD PUSH3 0x461BCD PUSH1 0xE5 SHL DUP2 MSTORE PUSH1 0x4 ADD PUSH2 0x515 SWAP1 PUSH2 0x1741 JUMP JUMPDEST PUSH1 0x2 DUP2 ADD DUP1 SLOAD PUSH1 0xFF PUSH1 0xA0 SHL NOT AND PUSH1 0x1 PUSH1 0xA0 SHL OR SWAP1 SSTORE PUSH1 0x40 MLOAD PUSH32 0xEE243F878B7FC2F54E934CA33783D4395D42BC07612E2BD4B8E0E178639F7A28 SWAP1 PUSH2 0xB44 SWAP1 DUP5 DUP2 MSTORE PUSH1 0x20 ADD SWAP1 JUMP JUMPDEST PUSH1 0x0 PUSH2 0xC14 PUSH1 0x6 SLOAD SWAP1 JUMP JUMPDEST SWAP1 POP SWAP1 JUMP JUMPDEST PUSH1 0x60 PUSH1 0x0 DUP1 PUSH1 0x0 DUP1 PUSH1 0x0 PUSH1 0x2 PUSH32 0x0 SELFBALANCE PUSH2 0xC50 PUSH1 0x6 SLOAD SWAP1 JUMP JUMPDEST PUSH1 0x4 SLOAD PUSH1 0x1 SLOAD PUSH1 0x1 PUSH1 0x1 PUSH1 0xA0 SHL SUB AND DUP6 DUP1 SLOAD PUSH2 0xC6B SWAP1 PUSH2 0x17D5 JUMP JUMPDEST DUP1 PUSH1 0x1F ADD PUSH1 0x20 DUP1 SWAP2 DIV MUL PUSH1 0x20 ADD PUSH1 0x40 MLOAD SWAP1 DUP2 ADD PUSH1 0x40 MSTORE DUP1 SWAP3 SWAP2 SWAP1 DUP2 DUP2 MSTORE PUSH1 0x20 ADD DUP3 DUP1 SLOAD PUSH2 0xC97 SWAP1 PUSH2 0x17D5 JUMP JUMPDEST DUP1 ISZERO PUSH2 0xCE4 JUMPI DUP1 PUSH1 0x1F LT PUSH2 0xCB9 JUMPI PUSH2 0x100 DUP1 DUP4 SLOAD DIV MUL DUP4 MSTORE SWAP2 PUSH1 0x20 ADD SWAP2 PUSH2 0xCE4 JUMP JUMPDEST DUP3 ADD SWAP2 SWAP1 PUSH1 0x0 MSTORE PUSH1 0x20 PUSH1 0x0 KECCAK256 SWAP1 JUMPDEST DUP2 SLOAD DUP2 MSTORE SWAP1 PUSH1 0x1 ADD SWAP1 PUSH1 0x20 ADD DUP1 DUP4 GT PUSH2 0xCC7 JUMPI DUP3 SWAP1 SUB PUSH1 0x1F AND DUP3 ADD SWAP2 JUMPDEST POP POP POP POP POP SWAP6 POP SWAP6 POP SWAP6 POP SWAP6 POP SWAP6 POP SWAP6 POP SWAP6 POP SWAP1 SWAP2 SWAP3 SWAP4 SWAP5 SWAP6 JUMP JUMPDEST PUSH1 0x0 PUSH2 0xD0A PUSH1 0x6 SLOAD SWAP1 JUMP JUMPDEST DUP4 LT PUSH2 0xD28 JUMPI PUSH1 0x40 MLOAD PUSH3 0x461BCD PUSH1 0xE5 SHL DUP2 MSTORE PUSH1 0x4 ADD PUSH2 0x515 SWAP1 PUSH2 0x1712 JUMP JUMPDEST POP PUSH1 0x0 DUP3 DUP2 MSTORE PUSH1 0x5 PUSH1 0x20 DUP2 DUP2 MSTORE PUSH1 0x40 DUP1 DUP5 KECCAK256 PUSH1 0x1 PUSH1 0x1 PUSH1 0xA0 SHL SUB DUP7 AND DUP6 MSTORE SWAP1 SWAP3 ADD SWAP1 MSTORE SWAP1 KECCAK256 SLOAD PUSH1 0xFF AND JUMPDEST SWAP3 SWAP2 POP POP JUMP JUMPDEST PUSH1 0x2 DUP1 SLOAD PUSH2 0xD65 SWAP1 PUSH2 0x17D5 JUMP JUMPDEST DUP1 PUSH1 0x1F ADD PUSH1 0x20 DUP1 SWAP2 DIV MUL PUSH1 0x20 ADD PUSH1 0x40 MLOAD SWAP1 DUP2 ADD PUSH1 0x40 MSTORE DUP1 SWAP3 SWAP2 SWAP1 DUP2 DUP2 MSTORE PUSH1 0x20 ADD DUP3 DUP1 SLOAD PUSH2 0xD91 SWAP1 PUSH2 0x17D5 JUMP JUMPDEST DUP1 ISZERO PUSH2 0xDDE JUMPI DUP1 PUSH1 0x1F LT PUSH2 0xDB3 JUMPI PUSH2 0x100 DUP1 DUP4 SLOAD DIV MUL DUP4 MSTORE SWAP2 PUSH1 0x20 ADD SWAP2 PUSH2 0xDDE JUMP JUMPDEST DUP3 ADD SWAP2 SWAP1 PUSH1 0x0 MSTORE PUSH1 0x20 PUSH1 0x0 KECCAK256 SWAP1 JUMPDEST DUP2 SLOAD DUP2 MSTORE SWAP1 PUSH1 0x1 ADD SWAP1 PUSH1 0x20 ADD DUP1 DUP4 GT PUSH2 0xDC1 JUMPI DUP3 SWAP1 SUB PUSH1 0x1F AND DUP3 ADD SWAP2 JUMPDEST POP POP POP POP POP DUP2 JUMP JUMPDEST PUSH2 0xDEE PUSH2 0x13B0 JUMP JUMPDEST PUSH2 0x633 PUSH1 0x0 PUSH2 0x140A JUMP JUMPDEST PUSH1 0x5 PUSH1 0x20 MSTORE PUSH1 0x0 SWAP1 DUP2 MSTORE PUSH1 0x40 SWAP1 KECCAK256 DUP1 SLOAD DUP2 SWAP1 PUSH2 0xE13 SWAP1 PUSH2 0x17D5 JUMP JUMPDEST DUP1 PUSH1 0x1F ADD PUSH1 0x20 DUP1 SWAP2 DIV MUL PUSH1 0x20 ADD PUSH1 0x40 MLOAD SWAP1 DUP2 ADD PUSH1 0x40 MSTORE DUP1 SWAP3 SWAP2 SWAP1 DUP2 DUP2 MSTORE PUSH1 0x20 ADD DUP3 DUP1 SLOAD PUSH2 0xE3F SWAP1 PUSH2 0x17D5 JUMP JUMPDEST DUP1 ISZERO PUSH2 0xE8C JUMPI DUP1 PUSH1 0x1F LT PUSH2 0xE61 JUMPI PUSH2 0x100 DUP1 DUP4 SLOAD DIV MUL DUP4 MSTORE SWAP2 PUSH1 0x20 ADD SWAP2 PUSH2 0xE8C JUMP JUMPDEST DUP3 ADD SWAP2 SWAP1 PUSH1 0x0 MSTORE PUSH1 0x20 PUSH1 0x0 KECCAK256 SWAP1 JUMPDEST DUP2 SLOAD DUP2 MSTORE SWAP1 PUSH1 0x1 ADD SWAP1 PUSH1 0x20 ADD DUP1 DUP4 GT PUSH2 0xE6F JUMPI DUP3 SWAP1 SUB PUSH1 0x1F AND DUP3 ADD SWAP2 JUMPDEST POP POP POP POP PUSH1 0x1 DUP4 ADD SLOAD PUSH1 0x2 DUP5 ADD SLOAD PUSH1 0x3 DUP6 ADD SLOAD PUSH1 0x4 SWAP1 SWAP6 ADD SLOAD SWAP4 SWAP5 SWAP2 SWAP4 PUSH1 0x1 PUSH1 0x1 PUSH1 0xA0 SHL SUB DUP3 AND SWAP4 POP PUSH1 0x1 PUSH1 0xA0 SHL SWAP1 SWAP2 DIV PUSH1 0xFF AND SWAP2 SWAP1 DUP7 JUMP JUMPDEST PUSH2 0xECD PUSH2 0x13B0 JUMP JUMPDEST PUSH1 0x9 SLOAD PUSH1 0xFF AND ISZERO PUSH2 0xEF0 JUMPI PUSH1 0x40 MLOAD PUSH3 0x461BCD PUSH1 0xE5 SHL DUP2 MSTORE PUSH1 0x4 ADD PUSH2 0x515 SWAP1 PUSH2 0x16B2 JUMP JUMPDEST PUSH2 0xEF8 PUSH2 0x1340 JUMP JUMPDEST PUSH1 0x0 DUP3 GT PUSH2 0xF54 JUMPI PUSH1 0x40 MLOAD PUSH3 0x461BCD PUSH1 0xE5 SHL DUP2 MSTORE PUSH1 0x20 PUSH1 0x4 DUP3 ADD MSTORE PUSH1 0x24 DUP1 DUP3 ADD MSTORE PUSH32 0x526571756573742076616C7565206D7573742062652067726561746572207468 PUSH1 0x44 DUP3 ADD MSTORE PUSH4 0x616E203 PUSH1 0xE4 SHL PUSH1 0x64 DUP3 ADD MSTORE PUSH1 0x84 ADD PUSH2 0x515 JUMP JUMPDEST PUSH1 0x0 DUP4 MLOAD GT PUSH2 0xFA5 JUMPI PUSH1 0x40 MLOAD PUSH3 0x461BCD PUSH1 0xE5 SHL DUP2 MSTORE PUSH1 0x20 PUSH1 0x4 DUP3 ADD MSTORE PUSH1 0x1B PUSH1 0x24 DUP3 ADD MSTORE PUSH32 0x4465736372697074696F6E2063616E6E6F7420626520656D7074790000000000 PUSH1 0x44 DUP3 ADD MSTORE PUSH1 0x64 ADD PUSH2 0x515 JUMP JUMPDEST PUSH1 0x1 PUSH1 0x1 PUSH1 0xA0 SHL SUB DUP2 AND PUSH2 0xFFB JUMPI PUSH1 0x40 MLOAD PUSH3 0x461BCD PUSH1 0xE5 SHL DUP2 MSTORE PUSH1 0x20 PUSH1 0x4 DUP3 ADD MSTORE PUSH1 0x19 PUSH1 0x24 DUP3 ADD MSTORE PUSH32 0x496E76616C696420726563697069656E74206164647265737300000000000000 PUSH1 0x44 DUP3 ADD MSTORE PUSH1 0x64 ADD PUSH2 0x515 JUMP JUMPDEST SELFBALANCE DUP3 GT ISZERO PUSH2 0x104B JUMPI PUSH1 0x40 MLOAD PUSH3 0x461BCD PUSH1 0xE5 SHL DUP2 MSTORE PUSH1 0x20 PUSH1 0x4 DUP3 ADD MSTORE PUSH1 0x1E PUSH1 0x24 DUP3 ADD MSTORE PUSH32 0x496E73756666696369656E742066756E647320666F7220726571756573740000 PUSH1 0x44 DUP3 ADD MSTORE PUSH1 0x64 ADD PUSH2 0x515 JUMP JUMPDEST PUSH1 0x0 PUSH2 0x1056 PUSH1 0x6 SLOAD SWAP1 JUMP JUMPDEST PUSH1 0x0 DUP2 DUP2 MSTORE PUSH1 0x5 PUSH1 0x20 MSTORE PUSH1 0x40 SWAP1 KECCAK256 SWAP1 SWAP2 POP DUP1 PUSH2 0x1072 DUP7 DUP3 PUSH2 0x185F JUMP JUMPDEST POP PUSH1 0x1 DUP2 ADD DUP5 SWAP1 SSTORE PUSH1 0x2 DUP2 ADD DUP1 SLOAD PUSH1 0x1 PUSH1 0x1 PUSH1 0xA8 SHL SUB NOT AND PUSH1 0x1 PUSH1 0x1 PUSH1 0xA0 SHL SUB DUP6 AND OR SWAP1 SSTORE PUSH2 0x10A5 PUSH1 0x6 DUP1 SLOAD PUSH1 0x1 ADD SWAP1 SSTORE JUMP JUMPDEST PUSH32 0xF7365309CB3A1C4835D32ACD2153EBF718723E270DAAD5BB2AAC6DD47564583B DUP3 DUP7 DUP7 DUP7 PUSH1 0x40 MLOAD PUSH2 0x10DA SWAP5 SWAP4 SWAP3 SWAP2 SWAP1 PUSH2 0x191F JUMP JUMPDEST PUSH1 0x40 MLOAD DUP1 SWAP2 SUB SWAP1 LOG1 POP POP PUSH2 0x10EE PUSH1 0x1 PUSH1 0x0 SSTORE JUMP JUMPDEST POP POP POP JUMP JUMPDEST PUSH1 0x9 SLOAD PUSH1 0xFF AND ISZERO PUSH2 0x1116 JUMPI PUSH1 0x40 MLOAD PUSH3 0x461BCD PUSH1 0xE5 SHL DUP2 MSTORE PUSH1 0x4 ADD PUSH2 0x515 SWAP1 PUSH2 0x16B2 JUMP JUMPDEST PUSH2 0x6E0 PUSH2 0x13B0 JUMP JUMPDEST PUSH1 0x9 SLOAD PUSH1 0xFF AND ISZERO PUSH2 0x1141 JUMPI PUSH1 0x40 MLOAD PUSH3 0x461BCD PUSH1 0xE5 SHL DUP2 MSTORE PUSH1 0x4 ADD PUSH2 0x515 SWAP1 PUSH2 0x16B2 JUMP JUMPDEST PUSH2 0x1149 PUSH2 0x1340 JUMP JUMPDEST PUSH1 0x6 SLOAD DUP2 LT PUSH2 0x116A JUMPI PUSH1 0x40 MLOAD PUSH3 0x461BCD PUSH1 0xE5 SHL DUP2 MSTORE PUSH1 0x4 ADD PUSH2 0x515 SWAP1 PUSH2 0x1712 JUMP JUMPDEST CALLER PUSH1 0x0 SWAP1 DUP2 MSTORE PUSH1 0x3 PUSH1 0x20 MSTORE PUSH1 0x40 SWAP1 KECCAK256 SLOAD PUSH2 0x11C6 JUMPI PUSH1 0x40 MLOAD PUSH3 0x461BCD PUSH1 0xE5 SHL DUP2 MSTORE PUSH1 0x20 PUSH1 0x4 DUP3 ADD MSTORE PUSH1 0x1D PUSH1 0x24 DUP3 ADD MSTORE PUSH32 0x4F6E6C7920636F6E7472696275746F72732063616E20617070726F7665000000 PUSH1 0x44 DUP3 ADD MSTORE PUSH1 0x64 ADD PUSH2 0x515 JUMP JUMPDEST PUSH1 0x0 DUP2 DUP2 MSTORE PUSH1 0x5 PUSH1 0x20 DUP2 DUP2 MSTORE PUSH1 0x40 DUP1 DUP5 KECCAK256 CALLER DUP6 MSTORE SWAP3 DUP4 ADD SWAP1 SWAP2 MSTORE SWAP1 SWAP2 KECCAK256 SLOAD PUSH1 0xFF AND ISZERO PUSH2 0x122D JUMPI PUSH1 0x40 MLOAD PUSH3 0x461BCD PUSH1 0xE5 SHL DUP2 MSTORE PUSH1 0x20 PUSH1 0x4 DUP3 ADD MSTORE PUSH1 0x16 PUSH1 0x24 DUP3 ADD MSTORE PUSH22 0x165BDD481A185D9948185B1C9958591E481D9BDD1959 PUSH1 0x52 SHL PUSH1 0x44 DUP3 ADD MSTORE PUSH1 0x64 ADD PUSH2 0x515 JUMP JUMPDEST PUSH1 0x2 DUP2 ADD SLOAD PUSH1 0x1 PUSH1 0xA0 SHL SWAP1 DIV PUSH1 0xFF AND ISZERO PUSH2 0x1259 JUMPI PUSH1 0x40 MLOAD PUSH3 0x461BCD PUSH1 0xE5 SHL DUP2 MSTORE PUSH1 0x4 ADD PUSH2 0x515 SWAP1 PUSH2 0x1741 JUMP JUMPDEST CALLER PUSH1 0x0 SWAP1 DUP2 MSTORE PUSH1 0x5 DUP3 ADD PUSH1 0x20 MSTORE PUSH1 0x40 DUP2 KECCAK256 DUP1 SLOAD PUSH1 0xFF NOT AND PUSH1 0x1 OR SWAP1 SSTORE PUSH1 0x3 DUP3 ADD DUP1 SLOAD SWAP2 PUSH2 0x1285 DUP4 PUSH2 0x17BC JUMP JUMPDEST SWAP1 SWAP2 SSTORE POP POP PUSH1 0x40 DUP1 MLOAD DUP4 DUP2 MSTORE CALLER PUSH1 0x20 DUP3 ADD MSTORE PUSH32 0xF3DC904660A0EA05ABA8DFA1E21FBC4FB2914BE2A3029DA7B0FDD3E5EEE20DDB SWAP2 ADD PUSH2 0xB44 JUMP JUMPDEST PUSH2 0x12C7 PUSH2 0x13B0 JUMP JUMPDEST PUSH1 0x1 PUSH1 0x1 PUSH1 0xA0 SHL SUB DUP2 AND PUSH2 0x132C JUMPI PUSH1 0x40 MLOAD PUSH3 0x461BCD PUSH1 0xE5 SHL DUP2 MSTORE PUSH1 0x20 PUSH1 0x4 DUP3 ADD MSTORE PUSH1 0x26 PUSH1 0x24 DUP3 ADD MSTORE PUSH32 0x4F776E61626C653A206E6577206F776E657220697320746865207A65726F2061 PUSH1 0x44 DUP3 ADD MSTORE PUSH6 0x646472657373 PUSH1 0xD0 SHL PUSH1 0x64 DUP3 ADD MSTORE PUSH1 0x84 ADD PUSH2 0x515 JUMP JUMPDEST PUSH2 0x9A4 DUP2 PUSH2 0x140A JUMP JUMPDEST PUSH1 0x0 PUSH2 0xC14 PUSH1 0x4 SLOAD SWAP1 JUMP JUMPDEST PUSH1 0x2 PUSH1 0x0 SLOAD SUB PUSH2 0x1392 JUMPI PUSH1 0x40 MLOAD PUSH3 0x461BCD PUSH1 0xE5 SHL DUP2 MSTORE PUSH1 0x20 PUSH1 0x4 DUP3 ADD MSTORE PUSH1 0x1F PUSH1 0x24 DUP3 ADD MSTORE PUSH32 0x5265656E7472616E637947756172643A207265656E7472616E742063616C6C00 PUSH1 0x44 DUP3 ADD MSTORE PUSH1 0x64 ADD PUSH2 0x515 JUMP JUMPDEST PUSH1 0x2 PUSH1 0x0 SSTORE JUMP JUMPDEST SELFBALANCE PUSH1 0x7 DUP2 SWAP1 SSTORE PUSH1 0x8 SLOAD LT ISZERO PUSH2 0x633 JUMPI PUSH1 0x7 SLOAD PUSH1 0x8 SSTORE JUMP JUMPDEST PUSH1 0x1 SLOAD PUSH1 0x1 PUSH1 0x1 PUSH1 0xA0 SHL SUB AND CALLER EQ PUSH2 0x633 JUMPI PUSH1 0x40 MLOAD PUSH3 0x461BCD PUSH1 0xE5 SHL DUP2 MSTORE PUSH1 0x20 PUSH1 0x4 DUP3 ADD DUP2 SWAP1 MSTORE PUSH1 0x24 DUP3 ADD MSTORE PUSH32 0x4F776E61626C653A2063616C6C6572206973206E6F7420746865206F776E6572 PUSH1 0x44 DUP3 ADD MSTORE PUSH1 0x64 ADD PUSH2 0x515 JUMP JUMPDEST PUSH1 0x1 DUP1 SLOAD PUSH1 0x1 PUSH1 0x1 PUSH1 0xA0 SHL SUB DUP4 DUP2 AND PUSH1 0x1 PUSH1 0x1 PUSH1 0xA0 SHL SUB NOT DUP4 AND DUP2 OR SWAP1 SWAP4 SSTORE PUSH1 0x40 MLOAD SWAP2 AND SWAP2 SWAP1 DUP3 SWAP1 PUSH32 0x8BE0079C531659141344CD1FD0A4F28419497F9722A3DAAFE3B4186F6B6457E0 SWAP1 PUSH1 0x0 SWAP1 LOG3 POP POP JUMP JUMPDEST PUSH1 0x0 PUSH1 0x20 DUP3 DUP5 SUB SLT ISZERO PUSH2 0x146E JUMPI PUSH1 0x0 DUP1 REVERT JUMPDEST POP CALLDATALOAD SWAP2 SWAP1 POP JUMP JUMPDEST PUSH1 0x0 DUP2 MLOAD DUP1 DUP5 MSTORE PUSH1 0x0 JUMPDEST DUP2 DUP2 LT ISZERO PUSH2 0x149B JUMPI PUSH1 0x20 DUP2 DUP6 ADD DUP2 ADD MLOAD DUP7 DUP4 ADD DUP3 ADD MSTORE ADD PUSH2 0x147F JUMP JUMPDEST POP PUSH1 0x0 PUSH1 0x20 DUP3 DUP7 ADD ADD MSTORE PUSH1 0x20 PUSH1 0x1F NOT PUSH1 0x1F DUP4 ADD AND DUP6 ADD ADD SWAP2 POP POP SWAP3 SWAP2 POP POP JUMP JUMPDEST PUSH1 0xC0 DUP2 MSTORE PUSH1 0x0 PUSH2 0x14CE PUSH1 0xC0 DUP4 ADD DUP10 PUSH2 0x1475 JUMP JUMPDEST PUSH1 0x20 DUP4 ADD SWAP8 SWAP1 SWAP8 MSTORE POP PUSH1 0x40 DUP2 ADD SWAP5 SWAP1 SWAP5 MSTORE PUSH1 0x60 DUP5 ADD SWAP3 SWAP1 SWAP3 MSTORE PUSH1 0x80 DUP4 ADD MSTORE PUSH1 0x1 PUSH1 0x1 PUSH1 0xA0 SHL SUB AND PUSH1 0xA0 SWAP1 SWAP2 ADD MSTORE SWAP2 SWAP1 POP JUMP JUMPDEST PUSH1 0x1 PUSH1 0x1 PUSH1 0xA0 SHL SUB DUP2 AND DUP2 EQ PUSH2 0x9A4 JUMPI PUSH1 0x0 DUP1 REVERT JUMPDEST PUSH1 0x0 PUSH1 0x20 DUP3 DUP5 SUB SLT ISZERO PUSH2 0x1527 JUMPI PUSH1 0x0 DUP1 REVERT JUMPDEST DUP2 CALLDATALOAD PUSH2 0x1532 DUP2 PUSH2 0x1500 JUMP JUMPDEST SWAP4 SWAP3 POP POP POP JUMP JUMPDEST PUSH1 0x0 DUP1 PUSH1 0x40 DUP4 DUP6 SUB SLT ISZERO PUSH2 0x154C JUMPI PUSH1 0x0 DUP1 REVERT JUMPDEST DUP3 CALLDATALOAD SWAP2 POP PUSH1 0x20 DUP4 ADD CALLDATALOAD PUSH2 0x155E DUP2 PUSH2 0x1500 JUMP JUMPDEST DUP1 SWAP2 POP POP SWAP3 POP SWAP3 SWAP1 POP JUMP JUMPDEST PUSH1 0x20 DUP2 MSTORE PUSH1 0x0 PUSH2 0x1532 PUSH1 0x20 DUP4 ADD DUP5 PUSH2 0x1475 JUMP JUMPDEST PUSH1 0xC0 DUP2 MSTORE PUSH1 0x0 PUSH2 0x158F PUSH1 0xC0 DUP4 ADD DUP10 PUSH2 0x1475 JUMP JUMPDEST PUSH1 0x20 DUP4 ADD SWAP8 SWAP1 SWAP8 MSTORE POP PUSH1 0x1 PUSH1 0x1 PUSH1 0xA0 SHL SUB SWAP5 SWAP1 SWAP5 AND PUSH1 0x40 DUP6 ADD MSTORE SWAP2 ISZERO ISZERO PUSH1 0x60 DUP5 ADD MSTORE PUSH1 0x80 DUP4 ADD MSTORE PUSH1 0xA0 SWAP1 SWAP2 ADD MSTORE SWAP2 SWAP1 POP JUMP JUMPDEST PUSH4 0x4E487B71 PUSH1 0xE0 SHL PUSH1 0x0 MSTORE PUSH1 0x41 PUSH1 0x4 MSTORE PUSH1 0x24 PUSH1 0x0 REVERT JUMPDEST DUP1 CALLDATALOAD PUSH2 0x15E2 DUP2 PUSH2 0x1500 JUMP JUMPDEST SWAP2 SWAP1 POP JUMP JUMPDEST PUSH1 0x0 DUP1 PUSH1 0x0 PUSH1 0x60 DUP5 DUP7 SUB SLT ISZERO PUSH2 0x15FC JUMPI PUSH1 0x0 DUP1 REVERT JUMPDEST DUP4 CALLDATALOAD PUSH8 0xFFFFFFFFFFFFFFFF DUP1 DUP3 GT ISZERO PUSH2 0x1614 JUMPI PUSH1 0x0 DUP1 REVERT JUMPDEST DUP2 DUP7 ADD SWAP2 POP DUP7 PUSH1 0x1F DUP4 ADD SLT PUSH2 0x1628 JUMPI PUSH1 0x0 DUP1 REVERT JUMPDEST DUP2 CALLDATALOAD DUP2 DUP2 GT ISZERO PUSH2 0x163A JUMPI PUSH2 0x163A PUSH2 0x15C1 JUMP JUMPDEST PUSH1 0x40 MLOAD PUSH1 0x1F DUP3 ADD PUSH1 0x1F NOT SWAP1 DUP2 AND PUSH1 0x3F ADD AND DUP2 ADD SWAP1 DUP4 DUP3 GT DUP2 DUP4 LT OR ISZERO PUSH2 0x1662 JUMPI PUSH2 0x1662 PUSH2 0x15C1 JUMP JUMPDEST DUP2 PUSH1 0x40 MSTORE DUP3 DUP2 MSTORE DUP10 PUSH1 0x20 DUP5 DUP8 ADD ADD GT ISZERO PUSH2 0x167B JUMPI PUSH1 0x0 DUP1 REVERT JUMPDEST DUP3 PUSH1 0x20 DUP7 ADD PUSH1 0x20 DUP4 ADD CALLDATACOPY PUSH1 0x0 PUSH1 0x20 DUP5 DUP4 ADD ADD MSTORE DUP1 SWAP8 POP POP POP POP POP POP PUSH1 0x20 DUP5 ADD CALLDATALOAD SWAP2 POP PUSH2 0x16A9 PUSH1 0x40 DUP6 ADD PUSH2 0x15D7 JUMP JUMPDEST SWAP1 POP SWAP3 POP SWAP3 POP SWAP3 JUMP JUMPDEST PUSH1 0x20 DUP1 DUP3 MSTORE PUSH1 0x1B SWAP1 DUP3 ADD MSTORE PUSH32 0x43616D706169676E20686173206265656E2063616E63656C6C65640000000000 PUSH1 0x40 DUP3 ADD MSTORE PUSH1 0x60 ADD SWAP1 JUMP JUMPDEST PUSH4 0x4E487B71 PUSH1 0xE0 SHL PUSH1 0x0 MSTORE PUSH1 0x11 PUSH1 0x4 MSTORE PUSH1 0x24 PUSH1 0x0 REVERT JUMPDEST DUP1 DUP3 ADD DUP1 DUP3 GT ISZERO PUSH2 0xD52 JUMPI PUSH2 0xD52 PUSH2 0x16E9 JUMP JUMPDEST PUSH1 0x20 DUP1 DUP3 MSTORE PUSH1 0x15 SWAP1 DUP3 ADD MSTORE PUSH21 0x92DCECC2D8D2C840E4CAE2EACAE6E840D2DCC8CAF PUSH1 0x5B SHL PUSH1 0x40 DUP3 ADD MSTORE PUSH1 0x60 ADD SWAP1 JUMP JUMPDEST PUSH1 0x20 DUP1 DUP3 MSTORE PUSH1 0x22 SWAP1 DUP3 ADD MSTORE PUSH32 0x526571756573742068617320616C7265616479206265656E20636F6D706C6574 PUSH1 0x40 DUP3 ADD MSTORE PUSH2 0x1959 PUSH1 0xF2 SHL PUSH1 0x60 DUP3 ADD MSTORE PUSH1 0x80 ADD SWAP1 JUMP JUMPDEST DUP1 DUP3 MUL DUP2 ISZERO DUP3 DUP3 DIV DUP5 EQ OR PUSH2 0xD52 JUMPI PUSH2 0xD52 PUSH2 0x16E9 JUMP JUMPDEST PUSH1 0x0 DUP3 PUSH2 0x17B7 JUMPI PUSH4 0x4E487B71 PUSH1 0xE0 SHL PUSH1 0x0 MSTORE PUSH1 0x12 PUSH1 0x4 MSTORE PUSH1 0x24 PUSH1 0x0 REVERT JUMPDEST POP DIV SWAP1 JUMP JUMPDEST PUSH1 0x0 PUSH1 0x1 DUP3 ADD PUSH2 0x17CE JUMPI PUSH2 0x17CE PUSH2 0x16E9 JUMP JUMPDEST POP PUSH1 0x1 ADD SWAP1 JUMP JUMPDEST PUSH1 0x1 DUP2 DUP2 SHR SWAP1 DUP3 AND DUP1 PUSH2 0x17E9 JUMPI PUSH1 0x7F DUP3 AND SWAP2 POP JUMPDEST PUSH1 0x20 DUP3 LT DUP2 SUB PUSH2 0x1809 JUMPI PUSH4 0x4E487B71 PUSH1 0xE0 SHL PUSH1 0x0 MSTORE PUSH1 0x22 PUSH1 0x4 MSTORE PUSH1 0x24 PUSH1 0x0 REVERT JUMPDEST POP SWAP2 SWAP1 POP JUMP JUMPDEST PUSH1 0x1F DUP3 GT ISZERO PUSH2 0x10EE JUMPI PUSH1 0x0 DUP2 PUSH1 0x0 MSTORE PUSH1 0x20 PUSH1 0x0 KECCAK256 PUSH1 0x1F DUP6 ADD PUSH1 0x5 SHR DUP2 ADD PUSH1 0x20 DUP7 LT ISZERO PUSH2 0x1838 JUMPI POP DUP1 JUMPDEST PUSH1 0x1F DUP6 ADD PUSH1 0x5 SHR DUP3 ADD SWAP2 POP JUMPDEST DUP2 DUP2 LT ISZERO PUSH2 0x1857 JUMPI DUP3 DUP2 SSTORE PUSH1 0x1 ADD PUSH2 0x1844 JUMP JUMPDEST POP POP POP POP POP POP JUMP JUMPDEST DUP2 MLOAD PUSH8 0xFFFFFFFFFFFFFFFF DUP2 GT ISZERO PUSH2 0x1879 JUMPI PUSH2 0x1879 PUSH2 0x15C1 JUMP JUMPDEST PUSH2 0x188D DUP2 PUSH2 0x1887 DUP5 SLOAD PUSH2 0x17D5 JUMP JUMPDEST DUP5 PUSH2 0x180F JUMP JUMPDEST PUSH1 0x20 DUP1 PUSH1 0x1F DUP4 GT PUSH1 0x1 DUP2 EQ PUSH2 0x18C2 JUMPI PUSH1 0x0 DUP5 ISZERO PUSH2 0x18AA JUMPI POP DUP6 DUP4 ADD MLOAD JUMPDEST PUSH1 0x0 NOT PUSH1 0x3 DUP7 SWAP1 SHL SHR NOT AND PUSH1 0x1 DUP6 SWAP1 SHL OR DUP6 SSTORE PUSH2 0x1857 JUMP JUMPDEST PUSH1 0x0 DUP6 DUP2 MSTORE PUSH1 0x20 DUP2 KECCAK256 PUSH1 0x1F NOT DUP7 AND SWAP2 JUMPDEST DUP3 DUP2 LT ISZERO PUSH2 0x18F1 JUMPI DUP9 DUP7 ADD MLOAD DUP3 SSTORE SWAP5 DUP5 ADD SWAP5 PUSH1 0x1 SWAP1 SWAP2 ADD SWAP1 DUP5 ADD PUSH2 0x18D2 JUMP JUMPDEST POP DUP6 DUP3 LT ISZERO PUSH2 0x190F JUMPI DUP8 DUP6 ADD MLOAD PUSH1 0x0 NOT PUSH1 0x3 DUP9 SWAP1 SHL PUSH1 0xF8 AND SHR NOT AND DUP2 SSTORE JUMPDEST POP POP POP POP POP PUSH1 0x1 SWAP1 DUP2 SHL ADD SWAP1 SSTORE POP JUMP JUMPDEST DUP5 DUP2 MSTORE PUSH1 0x80 PUSH1 0x20 DUP3 ADD MSTORE PUSH1 0x0 PUSH2 0x1938 PUSH1 0x80 DUP4 ADD DUP7 PUSH2 0x1475 JUMP JUMPDEST PUSH1 0x40 DUP4 ADD SWAP5 SWAP1 SWAP5 MSTORE POP PUSH1 0x1 PUSH1 0x1 PUSH1 0xA0 SHL SUB SWAP2 SWAP1 SWAP2 AND PUSH1 0x60 SWAP1 SWAP2 ADD MSTORE SWAP3 SWAP2 POP POP JUMP INVALID LOG2 PUSH5 0x6970667358 0x22 SLT KECCAK256 0x25 SWAP8 PUSH29 0x65CEBC0D60035E0EAAEE86163B8ECA2E20FB827155C7B44B8DC31DC519 PUSH5 0x736F6C6343 STOP ADDMOD XOR STOP CALLER "},"methodIdentifiers":{"approveRequest(uint256)":"d7d1bbdb","cancelCampaign()":"980e7844","cancelRequest(uint256)":"3015394c","contribute()":"d7bb99ba","contributions(address)":"42e94c90","createRequest(string,uint256,address)":"8a9cfd55","createdAt()":"cf09e0d0","factory()":"c45a0155","finalizeRequest(uint256)":"03441006","forceCancel()":"004f3e86","getContributorsCount()":"feed5561","getMaxFunds()":"dff748e6","getRequestsCount()":"3410452a","getSummary()":"4051ddac","getTotalFunds()":"eb8bbd28","hasVoted(uint256,address)":"43859632","isCancelled()":"95ee1221","maxFunds()":"5d6e297f","minimumContribution()":"937e09b1","owner()":"8da5cb5b","rejectRequest(uint256)":"2d7788db","renounceOwnership()":"715018a6","requests(uint256)":"81d12c58","title()":"4a79d50c","totalFunds()":"968ed600","transferOwnership(address)":"f2fde38b"}}}}}