{"contracts/CampaignFactory.sol":{"CampaignFactory":{"abi":[{"inputs":[],"stateMutability":"nonpayable","type":"constructor"},{"anonymous":false,"inputs":[{"indexed":true,"internalType":"uint256","name":"campaignId","type":"uint256"},{"indexed":true,"internalType":"address","name":"campaignAddress","type":"address"},{"indexed":true,"internalType":"address","name":"creator","type":"address"},{"indexed":false,"internalType":"uint256","name":"minContribution","type":"uint256"},{"indexed":false,"internalType":"uint256","name":"timestamp","type":"uint256"}],"name":"CampaignCreated","type":"event"},{"anonymous":false,"inputs":[{"indexed":true,"internalType":"uint256","name":"campaignId","type":"uint256"},{"indexed":true,"internalType":"address","name":"campaignAddress","type":"address"}],"name":"CampaignRemoved","type":"event"},{"anonymous":false,"inputs":[{"indexed":true,"internalType":"uint256","name":"campaignId","type":"uint256"},{"indexed":true,"internalType":"address","name":"campaignAddress","type":"address"},{"indexed":false,"internalType":"bool","name":"isActive","type":"bool"}],"name":"CampaignStatusChanged","type":"event"},{"anonymous":false,"inputs":[{"indexed":true,"internalType":"address","name":"previousOwner","type":"address"},{"indexed":true,"internalType":"address","name":"newOwner","type":"address"}],"name":"OwnershipTransferred","type":"event"},{"inputs":[{"internalType":"address","name":"","type":"address"}],"name":"campaignIds","outputs":[{"internalType":"uint256","name":"","type":"uint256"}],"stateMutability":"view","type":"function"},{"inputs":[{"internalType":"uint256","name":"","type":"uint256"}],"name":"campaigns","outputs":[{"internalType":"address","name":"campaignAddress","type":"address"},{"internalType":"bool","name":"isActive","type":"bool"},{"internalType":"uint256","name":"createdAt","type":"uint256"},{"internalType":"uint256","name":"minContribution","type":"uint256"},{"internalType":"address","name":"creator","type":"address"}],"stateMutability":"view","type":"function"},{"inputs":[{"internalType":"uint256","name":"minContribution","type":"uint256"}],"name":"createCampaign","outputs":[{"internalType":"address","name":"","type":"address"}],"stateMutability":"nonpayable","type":"function"},{"inputs":[{"internalType":"uint256","name":"campaignId","type":"uint256"}],"name":"deactivateCampaign","outputs":[],"stateMutability":"nonpayable","type":"function"},{"inputs":[],"name":"getActiveCampaigns","outputs":[{"internalType":"address[]","name":"","type":"address[]"}],"stateMutability":"view","type":"function"},{"inputs":[{"internalType":"uint256","name":"campaignId","type":"uint256"}],"name":"getCampaignInfo","outputs":[{"internalType":"address","name":"campaignAddress","type":"address"},{"internalType":"bool","name":"isActive","type":"bool"},{"internalType":"uint256","name":"createdAt","type":"uint256"},{"internalType":"uint256","name":"minContribution","type":"uint256"},{"internalType":"address","name":"creator","type":"address"}],"stateMutability":"view","type":"function"},{"inputs":[{"internalType":"address","name":"campaignAddress","type":"address"}],"name":"getCampaignStatus","outputs":[{"internalType":"bool","name":"","type":"bool"}],"stateMutability":"view","type":"function"},{"inputs":[],"name":"getDeployedCampaigns","outputs":[{"internalType":"address[]","name":"","type":"address[]"},{"internalType":"bool[]","name":"","type":"bool[]"}],"stateMutability":"view","type":"function"},{"inputs":[],"name":"owner","outputs":[{"internalType":"address","name":"","type":"address"}],"stateMutability":"view","type":"function"},{"inputs":[],"name":"renounceOwnership","outputs":[],"stateMutability":"nonpayable","type":"function"},{"inputs":[{"internalType":"address","name":"newOwner","type":"address"}],"name":"transferOwnership","outputs":[],"stateMutability":"nonpayable","type":"function"}],"evm":{"bytecode":{"linkReferences":{},"object":"60806040523480156200001157600080fd5b5062000032620000266200005060201b60201c565b6200005860201b60201c565b600180819055506200004a336200005860201b60201c565b6200011c565b600033905090565b60008060009054906101000a900473ffffffffffffffffffffffffffffffffffffffff169050816000806101000a81548173ffffffffffffffffffffffffffffffffffffffff021916908373ffffffffffffffffffffffffffffffffffffffff1602179055508173ffffffffffffffffffffffffffffffffffffffff168173ffffffffffffffffffffffffffffffffffffffff167f8be0079c531659141344cd1fd0a4f28419497f9722a3daafe3b4186f6b6457e060405160405180910390a35050565b614f97806200012c6000396000f3fe60806040523480156200001157600080fd5b5060043610620000b85760003560e01c80638da5cb5b116200007b5780638da5cb5b146200017c5780639d31e1a7146200019e578063a3303a7514620001d4578063c362b156146200020a578063e38e2b82146200022c578063f2fde38b146200026657620000b8565b8063141961bc14620000bd5780634acb9d4f14620000f7578063715018a6146200011a5780637eca30fe1462000126578063840f8b901462000146575b600080fd5b620000db6004803603810190620000d591906200154d565b62000286565b604051620000ee959493929190620015f2565b60405180910390f35b6200010162000309565b60405162000111929190620017eb565b60405180910390f35b62000124620005e6565b005b6200014460048036038101906200013e91906200154d565b620005fe565b005b6200016460048036038101906200015e919062001857565b620008eb565b60405162000173919062001889565b60405180910390f35b6200018662000903565b604051620001959190620018a6565b60405180910390f35b620001bc6004803603810190620001b6919062001857565b6200092c565b604051620001cb9190620018c3565b60405180910390f35b620001f26004803603810190620001ec91906200154d565b62000aa8565b604051620002019190620018a6565b60405180910390f35b6200021462000e09565b604051620002239190620018e0565b60405180910390f35b6200024a60048036038101906200024491906200154d565b62001123565b6040516200025d959493929190620015f2565b60405180910390f35b6200028460048036038101906200027e919062001857565b620012a5565b005b60036020528060005260406000206000915090508060000160009054906101000a900473ffffffffffffffffffffffffffffffffffffffff16908060000160149054906101000a900460ff16908060010154908060020154908060030160009054906101000a900473ffffffffffffffffffffffffffffffffffffffff16905085565b60608060006200031a60026200132f565b905060008167ffffffffffffffff8111156200033b576200033a62001904565b5b6040519080825280602002602001820160405280156200036a5781602001602082028036833780820191505090505b50905060008267ffffffffffffffff8111156200038c576200038b62001904565b5b604051908082528060200260200182016040528015620003bb5781602001602082028036833780820191505090505b50905060005b83811015620005d8576000600360008381526020019081526020016000206040518060a00160405290816000820160009054906101000a900473ffffffffffffffffffffffffffffffffffffffff1673ffffffffffffffffffffffffffffffffffffffff1673ffffffffffffffffffffffffffffffffffffffff1681526020016000820160149054906101000a900460ff1615151515815260200160018201548152602001600282015481526020016003820160009054906101000a900473ffffffffffffffffffffffffffffffffffffffff1673ffffffffffffffffffffffffffffffffffffffff1673ffffffffffffffffffffffffffffffffffffffff168152505090508060000151848381518110620004e257620004e162001933565b5b602002602001019073ffffffffffffffffffffffffffffffffffffffff16908173ffffffffffffffffffffffffffffffffffffffff168152505080602001518015620005a15750806000015173ffffffffffffffffffffffffffffffffffffffff166395ee12216040518163ffffffff1660e01b8152600401602060405180830381865afa15801562000579573d6000803e3d6000fd5b505050506040513d601f19601f820116820180604052508101906200059f919062001993565b155b838381518110620005b757620005b662001933565b5b602002602001019015159081151581525050508080600101915050620003c1565b508181945094505050509091565b620005f06200133d565b620005fc6000620013c2565b565b620006086200133d565b6200061262001486565b6200061e60026200132f565b811062000662576040517f08c379a0000000000000000000000000000000000000000000000000000000008152600401620006599062001a26565b60405180910390fd5b6003600082815260200190815260200160002060000160149054906101000a900460ff16620006c8576040517f08c379a0000000000000000000000000000000000000000000000000000000008152600401620006bf9062001a98565b60405180910390fd5b600060036000838152602001908152602001600020905060008160000160009054906101000a900473ffffffffffffffffffffffffffffffffffffffff1690508073ffffffffffffffffffffffffffffffffffffffff166395ee12216040518163ffffffff1660e01b8152600401602060405180830381865afa15801562000754573d6000803e3d6000fd5b505050506040513d601f19601f820116820180604052508101906200077a919062001993565b620007e1578073ffffffffffffffffffffffffffffffffffffffff16624f3e866040518163ffffffff1660e01b8152600401600060405180830381600087803b158015620007c757600080fd5b505af1158015620007dc573d6000803e3d6000fd5b505050505b60008260000160146101000a81548160ff0219169083151502179055508160000160009054906101000a900473ffffffffffffffffffffffffffffffffffffffff1673ffffffffffffffffffffffffffffffffffffffff16837fbc024e4aa60a5c1fe873e2fcdf7c38b4580c07539828049db4428819e6031ad560405160405180910390a38160000160009054906101000a900473ffffffffffffffffffffffffffffffffffffffff1673ffffffffffffffffffffffffffffffffffffffff16837f046a9ef4e9741ed9b7cba82ad486735ab516bd04dc43f6ee911737503f759db76000604051620008d49190620018c3565b60405180910390a35050620008e8620014d8565b50565b60046020528060005260406000206000915090505481565b60008060009054906101000a900473ffffffffffffffffffffffffffffffffffffffff16905090565b600080600460008473ffffffffffffffffffffffffffffffffffffffff1673ffffffffffffffffffffffffffffffffffffffff1681526020019081526020016000205490506200097d60026200132f565b81101580620009ee57508273ffffffffffffffffffffffffffffffffffffffff166003600083815260200190815260200160002060000160009054906101000a900473ffffffffffffffffffffffffffffffffffffffff1673ffffffffffffffffffffffffffffffffffffffff1614155b15620009ff57600091505062000aa3565b6003600082815260200190815260200160002060000160149054906101000a900460ff16801562000a9f57508273ffffffffffffffffffffffffffffffffffffffff166395ee12216040518163ffffffff1660e01b8152600401602060405180830381865afa15801562000a77573d6000803e3d6000fd5b505050506040513d601f19601f8201168201806040525081019062000a9d919062001993565b155b9150505b919050565b600062000ab462001486565b6000821162000afa576040517f08c379a000000000000000000000000000000000000000000000000000000000815260040162000af19062001b30565b60405180910390fd5b600062000b0860026200132f565b90506000833060405162000b1c90620014ff565b62000b2992919062001b52565b604051809103906000f08015801562000b46573d6000803e3d6000fd5b509050600073ffffffffffffffffffffffffffffffffffffffff168173ffffffffffffffffffffffffffffffffffffffff160362000bbb576040517f08c379a000000000000000000000000000000000000000000000000000000000815260040162000bb29062001bcf565b60405180910390fd5b6040518060a001604052808273ffffffffffffffffffffffffffffffffffffffff1681526020016001151581526020014281526020018581526020013373ffffffffffffffffffffffffffffffffffffffff168152506003600084815260200190815260200160002060008201518160000160006101000a81548173ffffffffffffffffffffffffffffffffffffffff021916908373ffffffffffffffffffffffffffffffffffffffff16021790555060208201518160000160146101000a81548160ff021916908315150217905550604082015181600101556060820151816002015560808201518160030160006101000a81548173ffffffffffffffffffffffffffffffffffffffff021916908373ffffffffffffffffffffffffffffffffffffffff16021790555090505081600460008373ffffffffffffffffffffffffffffffffffffffff1673ffffffffffffffffffffffffffffffffffffffff1681526020019081526020016000208190555062000d396002620014e1565b3373ffffffffffffffffffffffffffffffffffffffff168173ffffffffffffffffffffffffffffffffffffffff16837fd1344736c6f5aed92434818925ffb41a595e2e7e95a63ec40204158b754b0686874260405162000d9b92919062001bf1565b60405180910390a48073ffffffffffffffffffffffffffffffffffffffff16827f046a9ef4e9741ed9b7cba82ad486735ab516bd04dc43f6ee911737503f759db7600160405162000ded9190620018c3565b60405180910390a3809250505062000e04620014d8565b919050565b6060600062000e1960026200132f565b90506000805b8281101562000f23576003600082815260200190815260200160002060000160149054906101000a900460ff16801562000efe57506003600082815260200190815260200160002060000160009054906101000a900473ffffffffffffffffffffffffffffffffffffffff1673ffffffffffffffffffffffffffffffffffffffff166395ee12216040518163ffffffff1660e01b8152600401602060405180830381865afa15801562000ed6573d6000803e3d6000fd5b505050506040513d601f19601f8201168201806040525081019062000efc919062001993565b155b1562000f1557818062000f119062001c4d565b9250505b808060010191505062000e1f565b5060008167ffffffffffffffff81111562000f435762000f4262001904565b5b60405190808252806020026020018201604052801562000f725781602001602082028036833780820191505090505b5090506000805b848110801562000f8857508382105b1562001118576003600082815260200190815260200160002060000160149054906101000a900460ff1680156200106457506003600082815260200190815260200160002060000160009054906101000a900473ffffffffffffffffffffffffffffffffffffffff1673ffffffffffffffffffffffffffffffffffffffff166395ee12216040518163ffffffff1660e01b8152600401602060405180830381865afa1580156200103c573d6000803e3d6000fd5b505050506040513d601f19601f8201168201806040525081019062001062919062001993565b155b1562001102576003600082815260200190815260200160002060000160009054906101000a900473ffffffffffffffffffffffffffffffffffffffff16838381518110620010b757620010b662001933565b5b602002602001019073ffffffffffffffffffffffffffffffffffffffff16908173ffffffffffffffffffffffffffffffffffffffff16815250508180620010fe9062001c4d565b9250505b80806200110f9062001c4d565b91505062000f79565b508194505050505090565b60008060008060006200113760026200132f565b86106200117b576040517f08c379a0000000000000000000000000000000000000000000000000000000008152600401620011729062001a26565b60405180910390fd5b6000600360008881526020019081526020016000206040518060a00160405290816000820160009054906101000a900473ffffffffffffffffffffffffffffffffffffffff1673ffffffffffffffffffffffffffffffffffffffff1673ffffffffffffffffffffffffffffffffffffffff1681526020016000820160149054906101000a900460ff1615151515815260200160018201548152602001600282015481526020016003820160009054906101000a900473ffffffffffffffffffffffffffffffffffffffff1673ffffffffffffffffffffffffffffffffffffffff1673ffffffffffffffffffffffffffffffffffffffff1681525050905080600001518160200151826040015183606001518460800151955095509550955095505091939590929450565b620012af6200133d565b600073ffffffffffffffffffffffffffffffffffffffff168173ffffffffffffffffffffffffffffffffffffffff160362001321576040517f08c379a0000000000000000000000000000000000000000000000000000000008152600401620013189062001d10565b60405180910390fd5b6200132c81620013c2565b50565b600081600001549050919050565b62001347620014f7565b73ffffffffffffffffffffffffffffffffffffffff166200136762000903565b73ffffffffffffffffffffffffffffffffffffffff1614620013c0576040517f08c379a0000000000000000000000000000000000000000000000000000000008152600401620013b79062001d82565b60405180910390fd5b565b60008060009054906101000a900473ffffffffffffffffffffffffffffffffffffffff169050816000806101000a81548173ffffffffffffffffffffffffffffffffffffffff021916908373ffffffffffffffffffffffffffffffffffffffff1602179055508173ffffffffffffffffffffffffffffffffffffffff168173ffffffffffffffffffffffffffffffffffffffff167f8be0079c531659141344cd1fd0a4f28419497f9722a3daafe3b4186f6b6457e060405160405180910390a35050565b600260015403620014ce576040517f08c379a0000000000000000000000000000000000000000000000000000000008152600401620014c59062001df4565b60405180910390fd5b6002600181905550565b60018081905550565b6001816000016000828254019250508190555050565b600033905090565b61314b8062001e1783390190565b600080fd5b6000819050919050565b620015278162001512565b81146200153357600080fd5b50565b60008135905062001547816200151c565b92915050565b6000602082840312156200156657620015656200150d565b5b6000620015768482850162001536565b91505092915050565b600073ffffffffffffffffffffffffffffffffffffffff82169050919050565b6000620015ac826200157f565b9050919050565b620015be816200159f565b82525050565b60008115159050919050565b620015db81620015c4565b82525050565b620015ec8162001512565b82525050565b600060a082019050620016096000830188620015b3565b620016186020830187620015d0565b620016276040830186620015e1565b620016366060830185620015e1565b620016456080830184620015b3565b9695505050505050565b600081519050919050565b600082825260208201905092915050565b6000819050602082019050919050565b62001686816200159f565b82525050565b60006200169a83836200167b565b60208301905092915050565b6000602082019050919050565b6000620016c0826200164f565b620016cc81856200165a565b9350620016d9836200166b565b8060005b8381101562001710578151620016f488826200168c565b97506200170183620016a6565b925050600181019050620016dd565b5085935050505092915050565b600081519050919050565b600082825260208201905092915050565b6000819050602082019050919050565b6200175481620015c4565b82525050565b600062001768838362001749565b60208301905092915050565b6000602082019050919050565b60006200178e826200171d565b6200179a818562001728565b9350620017a78362001739565b8060005b83811015620017de578151620017c288826200175a565b9750620017cf8362001774565b925050600181019050620017ab565b5085935050505092915050565b60006040820190508181036000830152620018078185620016b3565b905081810360208301526200181d818462001781565b90509392505050565b62001831816200159f565b81146200183d57600080fd5b50565b600081359050620018518162001826565b92915050565b60006020828403121562001870576200186f6200150d565b5b6000620018808482850162001840565b91505092915050565b6000602082019050620018a06000830184620015e1565b92915050565b6000602082019050620018bd6000830184620015b3565b92915050565b6000602082019050620018da6000830184620015d0565b92915050565b60006020820190508181036000830152620018fc8184620016b3565b905092915050565b7f4e487b7100000000000000000000000000000000000000000000000000000000600052604160045260246000fd5b7f4e487b7100000000000000000000000000000000000000000000000000000000600052603260045260246000fd5b6200196d81620015c4565b81146200197957600080fd5b50565b6000815190506200198d8162001962565b92915050565b600060208284031215620019ac57620019ab6200150d565b5b6000620019bc848285016200197c565b91505092915050565b600082825260208201905092915050565b7f496e76616c69642063616d706169676e20494400000000000000000000000000600082015250565b600062001a0e601383620019c5565b915062001a1b82620019d6565b602082019050919050565b6000602082019050818103600083015262001a4181620019ff565b9050919050565b7f43616d706169676e20616c726561647920696e61637469766500000000000000600082015250565b600062001a80601983620019c5565b915062001a8d8262001a48565b602082019050919050565b6000602082019050818103600083015262001ab38162001a71565b9050919050565b7f4d696e696d756d20636f6e747269627574696f6e206d7573742062652067726560008201527f61746572207468616e2030000000000000000000000000000000000000000000602082015250565b600062001b18602b83620019c5565b915062001b258262001aba565b604082019050919050565b6000602082019050818103600083015262001b4b8162001b09565b9050919050565b600060408201905062001b696000830185620015e1565b62001b786020830184620015b3565b9392505050565b7f43616d706169676e206372656174696f6e206661696c65640000000000000000600082015250565b600062001bb7601883620019c5565b915062001bc48262001b7f565b602082019050919050565b6000602082019050818103600083015262001bea8162001ba8565b9050919050565b600060408201905062001c086000830185620015e1565b62001c176020830184620015e1565b9392505050565b7f4e487b7100000000000000000000000000000000000000000000000000000000600052601160045260246000fd5b600062001c5a8262001512565b91507fffffffffffffffffffffffffffffffffffffffffffffffffffffffffffffffff820362001c8f5762001c8e62001c1e565b5b600182019050919050565b7f4f776e61626c653a206e6577206f776e657220697320746865207a65726f206160008201527f6464726573730000000000000000000000000000000000000000000000000000602082015250565b600062001cf8602683620019c5565b915062001d058262001c9a565b604082019050919050565b6000602082019050818103600083015262001d2b8162001ce9565b9050919050565b7f4f776e61626c653a2063616c6c6572206973206e6f7420746865206f776e6572600082015250565b600062001d6a602083620019c5565b915062001d778262001d32565b602082019050919050565b6000602082019050818103600083015262001d9d8162001d5b565b9050919050565b7f5265656e7472616e637947756172643a207265656e7472616e742063616c6c00600082015250565b600062001ddc601f83620019c5565b915062001de98262001da4565b602082019050919050565b6000602082019050818103600083015262001e0f8162001dcd565b905091905056fe60c06040523480156200001157600080fd5b506040516200314b3803806200314b833981810160405281019062000037919062000227565b60016000819055506200005f62000053620000b460201b60201c565b620000bc60201b60201c565b6200007033620000bc60201b60201c565b8073ffffffffffffffffffffffffffffffffffffffff1660808173ffffffffffffffffffffffffffffffffffffffff16815250508160a0818152505050506200026e565b600033905090565b6000600160009054906101000a900473ffffffffffffffffffffffffffffffffffffffff16905081600160006101000a81548173ffffffffffffffffffffffffffffffffffffffff021916908373ffffffffffffffffffffffffffffffffffffffff1602179055508173ffffffffffffffffffffffffffffffffffffffff168173ffffffffffffffffffffffffffffffffffffffff167f8be0079c531659141344cd1fd0a4f28419497f9722a3daafe3b4186f6b6457e060405160405180910390a35050565b600080fd5b6000819050919050565b6200019c8162000187565b8114620001a857600080fd5b50565b600081519050620001bc8162000191565b92915050565b600073ffffffffffffffffffffffffffffffffffffffff82169050919050565b6000620001ef82620001c2565b9050919050565b6200020181620001e2565b81146200020d57600080fd5b50565b6000815190506200022181620001f6565b92915050565b6000806040838503121562000241576200024062000182565b5b60006200025185828601620001ab565b9250506020620002648582860162000210565b9150509250929050565b60805160a051612e94620002b76000396000818161055301528181610f9301526113db0152600081816106f90152818161078f0152818161147801526115380152612e946000f3fe6080604052600436106101435760003560e01c80638da5cb5b116100b6578063d7bb99ba1161006f578063d7bb99ba1461041c578063d7d1bbdb14610426578063dff748e61461044f578063eb8bbd281461047a578063f2fde38b146104a5578063feed5561146104ce57610152565b80638da5cb5b1461032e578063937e09b11461035957806395ee122114610384578063968ed600146103af578063980e7844146103da578063c45a0155146103f157610152565b80634051ddac116101085780634051ddac1461021457806342e94c90146102435780635d6e297f14610280578063715018a6146102ab57806381d12c58146102c25780638a9cfd551461030557610152565b80624f3e8614610157578063034410061461016e5780632d7788db146101975780633015394c146101c05780633410452a146101e957610152565b36610152576101506104f9565b005b600080fd5b34801561016357600080fd5b5061016c6106a7565b005b34801561017a57600080fd5b5061019560048036038101906101909190611aff565b61084d565b005b3480156101a357600080fd5b506101be60048036038101906101b99190611aff565b610b42565b005b3480156101cc57600080fd5b506101e760048036038101906101e29190611aff565b610e0d565b005b3480156101f557600080fd5b506101fe610f78565b60405161020b9190611b3b565b60405180910390f35b34801561022057600080fd5b50610229610f89565b60405161023a959493929190611b97565b60405180910390f35b34801561024f57600080fd5b5061026a60048036038101906102659190611c16565b610fe0565b6040516102779190611b3b565b60405180910390f35b34801561028c57600080fd5b50610295610ff8565b6040516102a29190611b3b565b60405180910390f35b3480156102b757600080fd5b506102c0610ffe565b005b3480156102ce57600080fd5b506102e960048036038101906102e49190611aff565b611012565b6040516102fc9796959493929190611d0f565b60405180910390f35b34801561031157600080fd5b5061032c60048036038101906103279190611ee6565b611109565b005b34801561033a57600080fd5b506103436113af565b6040516103509190611f55565b60405180910390f35b34801561036557600080fd5b5061036e6113d9565b60405161037b9190611b3b565b60405180910390f35b34801561039057600080fd5b506103996113fd565b6040516103a69190611f70565b60405180910390f35b3480156103bb57600080fd5b506103c4611410565b6040516103d19190611b3b565b60405180910390f35b3480156103e657600080fd5b506103ef611416565b005b3480156103fd57600080fd5b50610406611536565b6040516104139190611f8b565b60405180910390f35b6104246104f9565b005b34801561043257600080fd5b5061044d60048036038101906104489190611aff565b61155a565b005b34801561045b57600080fd5b50610464611825565b6040516104719190611b3b565b60405180910390f35b34801561048657600080fd5b5061048f61182f565b60405161049c9190611b3b565b60405180910390f35b3480156104b157600080fd5b506104cc60048036038101906104c79190611c16565b611839565b005b3480156104da57600080fd5b506104e36118bc565b6040516104f09190611b3b565b60405180910390f35b600860009054906101000a900460ff1615610549576040517f08c379a000000000000000000000000000000000000000000000000000000000815260040161054090611ff2565b60405180910390fd5b6105516118cd565b7f00000000000000000000000000000000000000000000000000000000000000003410156105b4576040517f08c379a00000000000000000000000000000000000000000000000000000000081526004016105ab90612084565b60405180910390fd5b6000600260003373ffffffffffffffffffffffffffffffffffffffff1673ffffffffffffffffffffffffffffffffffffffff168152602001908152602001600020540361060657610605600361191c565b5b34600260003373ffffffffffffffffffffffffffffffffffffffff1673ffffffffffffffffffffffffffffffffffffffff168152602001908152602001600020600082825461065591906120d3565b92505081905550610664611932565b7f6770260ea820d2f539364e7617e021543aaf6d192f2fd2a47c20db6bd99a4eb93334604051610695929190612107565b60405180910390a16106a5611951565b565b600860009054906101000a900460ff16156106f7576040517f08c379a00000000000000000000000000000000000000000000000000000000081526004016106ee90611ff2565b60405180910390fd5b7f000000000000000000000000000000000000000000000000000000000000000073ffffffffffffffffffffffffffffffffffffffff163373ffffffffffffffffffffffffffffffffffffffff1614610785576040517f08c379a000000000000000000000000000000000000000000000000000000000815260040161077c906121a2565b60405180910390fd5b61078d6118cd565b7f000000000000000000000000000000000000000000000000000000000000000073ffffffffffffffffffffffffffffffffffffffff166108fc479081150290604051600060405180830381858888f193505050501580156107f3573d6000803e3d6000fd5b506001600860006101000a81548160ff021916908315150217905550610817611932565b7f123d4f203b2b83bfe9f45903402bb88193cc56a43371d97ab5a51bd1817d858660405160405180910390a161084b611951565b565b61085561195b565b61085d6118cd565b61086760056119d9565b81106108a8576040517f08c379a000000000000000000000000000000000000000000000000000000000815260040161089f9061220e565b60405180910390fd5b600060046000838152602001908152602001600020905080600501544211610905576040517f08c379a00000000000000000000000000000000000000000000000000000000081526004016108fc9061227a565b60405180910390fd5b8060020160149054906101000a900460ff1615610957576040517f08c379a000000000000000000000000000000000000000000000000000000000815260040161094e9061230c565b60405180910390fd5b60008160040154826003015461096d91906120d3565b905060006064601e61097f60036119d9565b610989919061232c565b610993919061239d565b9050808210156109d8576040517f08c379a00000000000000000000000000000000000000000000000000000000081526004016109cf9061241a565b60405180910390fd5b8260040154836003015411610a22576040517f08c379a0000000000000000000000000000000000000000000000000000000008152600401610a1990612486565b60405180910390fd5b4783600101541115610a69576040517f08c379a0000000000000000000000000000000000000000000000000000000008152600401610a60906124f2565b60405180910390fd5b60018360020160146101000a81548160ff0219169083151502179055508260020160009054906101000a900473ffffffffffffffffffffffffffffffffffffffff1673ffffffffffffffffffffffffffffffffffffffff166108fc84600101549081150290604051600060405180830381858888f19350505050158015610af4573d6000803e3d6000fd5b50610afd611932565b7f5f737e695a47d9dd61a69c097b680eb2d154fd3a73ddf8e06ae201447c59339584604051610b2c9190611b3b565b60405180910390a1505050610b3f611951565b50565b600860009054906101000a900460ff1615610b92576040517f08c379a0000000000000000000000000000000000000000000000000000000008152600401610b8990611ff2565b60405180910390fd5b610b9a6118cd565b610ba460056119d9565b8110610be5576040517f08c379a0000000000000000000000000000000000000000000000000000000008152600401610bdc9061220e565b60405180910390fd5b6000600260003373ffffffffffffffffffffffffffffffffffffffff1673ffffffffffffffffffffffffffffffffffffffff1681526020019081526020016000205411610c67576040517f08c379a0000000000000000000000000000000000000000000000000000000008152600401610c5e9061255e565b60405180910390fd5b60006004600083815260200190815260200160002090508060060160003373ffffffffffffffffffffffffffffffffffffffff1673ffffffffffffffffffffffffffffffffffffffff16815260200190815260200160002060009054906101000a900460ff1615610d0d576040517f08c379a0000000000000000000000000000000000000000000000000000000008152600401610d04906125ca565b60405180910390fd5b8060050154421115610d54576040517f08c379a0000000000000000000000000000000000000000000000000000000008152600401610d4b90612636565b60405180910390fd5b60018160060160003373ffffffffffffffffffffffffffffffffffffffff1673ffffffffffffffffffffffffffffffffffffffff16815260200190815260200160002060006101000a81548160ff021916908315150217905550806004016000815480929190610dc390612656565b91905055507f490ad67e4c8b3b9c1d11dfcd7f02e155190b8f6feff3a9d9e9df3721f0f74e578233604051610df992919061269e565b60405180910390a150610e0a611951565b50565b610e1561195b565b610e1d6118cd565b610e2760056119d9565b8110610e68576040517f08c379a0000000000000000000000000000000000000000000000000000000008152600401610e5f9061220e565b60405180910390fd5b60006004600083815260200190815260200160002090508060020160149054906101000a900460ff1615610ed1576040517f08c379a0000000000000000000000000000000000000000000000000000000008152600401610ec89061230c565b60405180910390fd5b8060050154421115610f18576040517f08c379a0000000000000000000000000000000000000000000000000000000008152600401610f0f90612713565b60405180910390fd5b60018160020160146101000a81548160ff0219169083151502179055507fee243f878b7fc2f54e934ca33783d4395d42bc07612e2bd4b8e0e178639f7a2882604051610f649190611b3b565b60405180910390a150610f75611951565b50565b6000610f8460056119d9565b905090565b60008060008060007f000000000000000000000000000000000000000000000000000000000000000047610fbd60056119d9565b610fc760036119d9565b610fcf6113af565b945094509450945094509091929394565b60026020528060005260406000206000915090505481565b60075481565b61100661195b565b61101060006119e7565b565b600460205280600052604060002060009150905080600001805461103590612762565b80601f016020809104026020016040519081016040528092919081815260200182805461106190612762565b80156110ae5780601f10611083576101008083540402835291602001916110ae565b820191906000526020600020905b81548152906001019060200180831161109157829003601f168201915b5050505050908060010154908060020160009054906101000a900473ffffffffffffffffffffffffffffffffffffffff16908060020160149054906101000a900460ff16908060030154908060040154908060050154905087565b61111161195b565b600860009054906101000a900460ff1615611161576040517f08c379a000000000000000000000000000000000000000000000000000000000815260040161115890611ff2565b60405180910390fd5b6111696118cd565b600082116111ac576040517f08c379a00000000000000000000000000000000000000000000000000000000081526004016111a390612805565b60405180910390fd5b60008351116111f0576040517f08c379a00000000000000000000000000000000000000000000000000000000081526004016111e790612871565b60405180910390fd5b600073ffffffffffffffffffffffffffffffffffffffff168173ffffffffffffffffffffffffffffffffffffffff160361125f576040517f08c379a0000000000000000000000000000000000000000000000000000000008152600401611256906128dd565b60405180910390fd5b478211156112a2576040517f08c379a000000000000000000000000000000000000000000000000000000000815260040161129990612949565b60405180910390fd5b60006112ae60056119d9565b90506000600460008381526020019081526020016000209050848160000190816112d89190612b15565b50838160010181905550828160020160006101000a81548173ffffffffffffffffffffffffffffffffffffffff021916908373ffffffffffffffffffffffffffffffffffffffff16021790555060008160020160146101000a81548160ff02191690831515021790555062093a804261135191906120d3565b8160050181905550611363600561191c565b7ff7365309cb3a1c4835d32acd2153ebf718723e270daad5bb2aac6dd47564583b828686866040516113989493929190612c3c565b60405180910390a150506113aa611951565b505050565b6000600160009054906101000a900473ffffffffffffffffffffffffffffffffffffffff16905090565b7f000000000000000000000000000000000000000000000000000000000000000081565b600860009054906101000a900460ff1681565b60065481565b600860009054906101000a900460ff1615611466576040517f08c379a000000000000000000000000000000000000000000000000000000000815260040161145d90611ff2565b60405180910390fd5b61146e61195b565b6114766118cd565b7f000000000000000000000000000000000000000000000000000000000000000073ffffffffffffffffffffffffffffffffffffffff166108fc479081150290604051600060405180830381858888f193505050501580156114dc573d6000803e3d6000fd5b506001600860006101000a81548160ff021916908315150217905550611500611932565b7f123d4f203b2b83bfe9f45903402bb88193cc56a43371d97ab5a51bd1817d858660405160405180910390a1611534611951565b565b7f000000000000000000000000000000000000000000000000000000000000000081565b600860009054906101000a900460ff16156115aa576040517f08c379a00000000000000000000000000000000000000000000000000000000081526004016115a190611ff2565b60405180910390fd5b6115b26118cd565b6115bc60056119d9565b81106115fd576040517f08c379a00000000000000000000000000000000000000000000000000000000081526004016115f49061220e565b60405180910390fd5b6000600260003373ffffffffffffffffffffffffffffffffffffffff1673ffffffffffffffffffffffffffffffffffffffff168152602001908152602001600020541161167f576040517f08c379a000000000000000000000000000000000000000000000000000000000815260040161167690612cd4565b60405180910390fd5b60006004600083815260200190815260200160002090508060060160003373ffffffffffffffffffffffffffffffffffffffff1673ffffffffffffffffffffffffffffffffffffffff16815260200190815260200160002060009054906101000a900460ff1615611725576040517f08c379a000000000000000000000000000000000000000000000000000000000815260040161171c906125ca565b60405180910390fd5b806005015442111561176c576040517f08c379a000000000000000000000000000000000000000000000000000000000815260040161176390612636565b60405180910390fd5b60018160060160003373ffffffffffffffffffffffffffffffffffffffff1673ffffffffffffffffffffffffffffffffffffffff16815260200190815260200160002060006101000a81548160ff0219169083151502179055508060030160008154809291906117db90612656565b91905055507ff3dc904660a0ea05aba8dfa1e21fbc4fb2914be2a3029da7b0fdd3e5eee20ddb823360405161181192919061269e565b60405180910390a150611822611951565b50565b6000600754905090565b6000600654905090565b61184161195b565b600073ffffffffffffffffffffffffffffffffffffffff168173ffffffffffffffffffffffffffffffffffffffff16036118b0576040517f08c379a00000000000000000000000000000000000000000000000000000000081526004016118a790612d66565b60405180910390fd5b6118b9816119e7565b50565b60006118c860036119d9565b905090565b600260005403611912576040517f08c379a000000000000000000000000000000000000000000000000000000000815260040161190990612dd2565b60405180910390fd5b6002600081905550565b6001816000016000828254019250508190555050565b47600681905550600754600654111561194f576006546007819055505b565b6001600081905550565b611963611aad565b73ffffffffffffffffffffffffffffffffffffffff166119816113af565b73ffffffffffffffffffffffffffffffffffffffff16146119d7576040517f08c379a00000000000000000000000000000000000000000000000000000000081526004016119ce90612e3e565b60405180910390fd5b565b600081600001549050919050565b6000600160009054906101000a900473ffffffffffffffffffffffffffffffffffffffff16905081600160006101000a81548173ffffffffffffffffffffffffffffffffffffffff021916908373ffffffffffffffffffffffffffffffffffffffff1602179055508173ffffffffffffffffffffffffffffffffffffffff168173ffffffffffffffffffffffffffffffffffffffff167f8be0079c531659141344cd1fd0a4f28419497f9722a3daafe3b4186f6b6457e060405160405180910390a35050565b600033905090565b6000604051905090565b600080fd5b600080fd5b6000819050919050565b611adc81611ac9565b8114611ae757600080fd5b50565b600081359050611af981611ad3565b92915050565b600060208284031215611b1557611b14611abf565b5b6000611b2384828501611aea565b91505092915050565b611b3581611ac9565b82525050565b6000602082019050611b506000830184611b2c565b92915050565b600073ffffffffffffffffffffffffffffffffffffffff82169050919050565b6000611b8182611b56565b9050919050565b611b9181611b76565b82525050565b600060a082019050611bac6000830188611b2c565b611bb96020830187611b2c565b611bc66040830186611b2c565b611bd36060830185611b2c565b611be06080830184611b88565b9695505050505050565b611bf381611b76565b8114611bfe57600080fd5b50565b600081359050611c1081611bea565b92915050565b600060208284031215611c2c57611c2b611abf565b5b6000611c3a84828501611c01565b91505092915050565b600081519050919050565b600082825260208201905092915050565b60005b83811015611c7d578082015181840152602081019050611c62565b60008484015250505050565b6000601f19601f8301169050919050565b6000611ca582611c43565b611caf8185611c4e565b9350611cbf818560208601611c5f565b611cc881611c89565b840191505092915050565b6000611cde82611b56565b9050919050565b611cee81611cd3565b82525050565b60008115159050919050565b611d0981611cf4565b82525050565b600060e0820190508181036000830152611d29818a611c9a565b9050611d386020830189611b2c565b611d456040830188611ce5565b611d526060830187611d00565b611d5f6080830186611b2c565b611d6c60a0830185611b2c565b611d7960c0830184611b2c565b98975050505050505050565b600080fd5b600080fd5b7f4e487b7100000000000000000000000000000000000000000000000000000000600052604160045260246000fd5b611dc782611c89565b810181811067ffffffffffffffff82111715611de657611de5611d8f565b5b80604052505050565b6000611df9611ab5565b9050611e058282611dbe565b919050565b600067ffffffffffffffff821115611e2557611e24611d8f565b5b611e2e82611c89565b9050602081019050919050565b82818337600083830152505050565b6000611e5d611e5884611e0a565b611def565b905082815260208101848484011115611e7957611e78611d8a565b5b611e84848285611e3b565b509392505050565b600082601f830112611ea157611ea0611d85565b5b8135611eb1848260208601611e4a565b91505092915050565b611ec381611cd3565b8114611ece57600080fd5b50565b600081359050611ee081611eba565b92915050565b600080600060608486031215611eff57611efe611abf565b5b600084013567ffffffffffffffff811115611f1d57611f1c611ac4565b5b611f2986828701611e8c565b9350506020611f3a86828701611aea565b9250506040611f4b86828701611ed1565b9150509250925092565b6000602082019050611f6a6000830184611b88565b92915050565b6000602082019050611f856000830184611d00565b92915050565b6000602082019050611fa06000830184611ce5565b92915050565b7f43616d706169676e20686173206265656e2063616e63656c6c65640000000000600082015250565b6000611fdc601b83611c4e565b9150611fe782611fa6565b602082019050919050565b6000602082019050818103600083015261200b81611fcf565b9050919050565b7f436f6e747269627574696f6e2062656c6f77206d696e696d756d20616d6f756e60008201527f7400000000000000000000000000000000000000000000000000000000000000602082015250565b600061206e602183611c4e565b915061207982612012565b604082019050919050565b6000602082019050818103600083015261209d81612061565b9050919050565b7f4e487b7100000000000000000000000000000000000000000000000000000000600052601160045260246000fd5b60006120de82611ac9565b91506120e983611ac9565b9250828201905080821115612101576121006120a4565b5b92915050565b600060408201905061211c6000830185611b88565b6121296020830184611b2c565b9392505050565b7f4f6e6c792074686520666163746f72792063616e2063616c6c2074686973206660008201527f756e6374696f6e00000000000000000000000000000000000000000000000000602082015250565b600061218c602783611c4e565b915061219782612130565b604082019050919050565b600060208201905081810360008301526121bb8161217f565b9050919050565b7f496e76616c6964207265717565737420696e6465780000000000000000000000600082015250565b60006121f8601583611c4e565b9150612203826121c2565b602082019050919050565b60006020820190508181036000830152612227816121eb565b9050919050565b7f566f74696e6720706572696f64206e6f7420656e646564000000000000000000600082015250565b6000612264601783611c4e565b915061226f8261222e565b602082019050919050565b6000602082019050818103600083015261229381612257565b9050919050565b7f526571756573742068617320616c7265616479206265656e20636f6d706c657460008201527f6564000000000000000000000000000000000000000000000000000000000000602082015250565b60006122f6602283611c4e565b91506123018261229a565b604082019050919050565b60006020820190508181036000830152612325816122e9565b9050919050565b600061233782611ac9565b915061234283611ac9565b925082820261235081611ac9565b91508282048414831517612367576123666120a4565b5b5092915050565b7f4e487b7100000000000000000000000000000000000000000000000000000000600052601260045260246000fd5b60006123a882611ac9565b91506123b383611ac9565b9250826123c3576123c261236e565b5b828204905092915050565b7f51756f72756d206e6f7420726561636865640000000000000000000000000000600082015250565b6000612404601283611c4e565b915061240f826123ce565b602082019050919050565b60006020820190508181036000830152612433816123f7565b9050919050565b7f4e6f7420656e6f75676820617070726f76616c73000000000000000000000000600082015250565b6000612470601483611c4e565b915061247b8261243a565b602082019050919050565b6000602082019050818103600083015261249f81612463565b9050919050565b7f496e73756666696369656e742066756e64730000000000000000000000000000600082015250565b60006124dc601283611c4e565b91506124e7826124a6565b602082019050919050565b6000602082019050818103600083015261250b816124cf565b9050919050565b7f4f6e6c7920636f6e7472696275746f72732063616e2072656a65637400000000600082015250565b6000612548601c83611c4e565b915061255382612512565b602082019050919050565b600060208201905081810360008301526125778161253b565b9050919050565b7f596f75206861766520616c726561647920766f74656400000000000000000000600082015250565b60006125b4601683611c4e565b91506125bf8261257e565b602082019050919050565b600060208201905081810360008301526125e3816125a7565b9050919050565b7f566f74696e6720706572696f642068617320656e646564000000000000000000600082015250565b6000612620601783611c4e565b915061262b826125ea565b602082019050919050565b6000602082019050818103600083015261264f81612613565b9050919050565b600061266182611ac9565b91507fffffffffffffffffffffffffffffffffffffffffffffffffffffffffffffffff8203612693576126926120a4565b5b600182019050919050565b60006040820190506126b36000830185611b2c565b6126c06020830184611b88565b9392505050565b7f566f74696e6720706572696f6420656e64656400000000000000000000000000600082015250565b60006126fd601383611c4e565b9150612708826126c7565b602082019050919050565b6000602082019050818103600083015261272c816126f0565b9050919050565b7f4e487b7100000000000000000000000000000000000000000000000000000000600052602260045260246000fd5b6000600282049050600182168061277a57607f821691505b60208210810361278d5761278c612733565b5b50919050565b7f526571756573742076616c7565206d757374206265206772656174657220746860008201527f616e203000000000000000000000000000000000000000000000000000000000602082015250565b60006127ef602483611c4e565b91506127fa82612793565b604082019050919050565b6000602082019050818103600083015261281e816127e2565b9050919050565b7f4465736372697074696f6e2063616e6e6f7420626520656d7074790000000000600082015250565b600061285b601b83611c4e565b915061286682612825565b602082019050919050565b6000602082019050818103600083015261288a8161284e565b9050919050565b7f496e76616c696420726563697069656e74206164647265737300000000000000600082015250565b60006128c7601983611c4e565b91506128d282612891565b602082019050919050565b600060208201905081810360008301526128f6816128ba565b9050919050565b7f496e73756666696369656e742066756e647320666f7220726571756573740000600082015250565b6000612933601e83611c4e565b915061293e826128fd565b602082019050919050565b6000602082019050818103600083015261296281612926565b9050919050565b60008190508160005260206000209050919050565b60006020601f8301049050919050565b600082821b905092915050565b6000600883026129cb7fffffffffffffffffffffffffffffffffffffffffffffffffffffffffffffffff8261298e565b6129d5868361298e565b95508019841693508086168417925050509392505050565b6000819050919050565b6000612a12612a0d612a0884611ac9565b6129ed565b611ac9565b9050919050565b6000819050919050565b612a2c836129f7565b612a40612a3882612a19565b84845461299b565b825550505050565b600090565b612a55612a48565b612a60818484612a23565b505050565b5b81811015612a8457612a79600082612a4d565b600181019050612a66565b5050565b601f821115612ac957612a9a81612969565b612aa38461297e565b81016020851015612ab2578190505b612ac6612abe8561297e565b830182612a65565b50505b505050565b600082821c905092915050565b6000612aec60001984600802612ace565b1980831691505092915050565b6000612b058383612adb565b9150826002028217905092915050565b612b1e82611c43565b67ffffffffffffffff811115612b3757612b36611d8f565b5b612b418254612762565b612b4c828285612a88565b600060209050601f831160018114612b7f5760008415612b6d578287015190505b612b778582612af9565b865550612bdf565b601f198416612b8d86612969565b60005b82811015612bb557848901518255600182019150602085019450602081019050612b90565b86831015612bd25784890151612bce601f891682612adb565b8355505b6001600288020188555050505b505050505050565b6000612c02612bfd612bf884611b56565b6129ed565b611b56565b9050919050565b6000612c1482612be7565b9050919050565b6000612c2682612c09565b9050919050565b612c3681612c1b565b82525050565b6000608082019050612c516000830187611b2c565b8181036020830152612c638186611c9a565b9050612c726040830185611b2c565b612c7f6060830184612c2d565b95945050505050565b7f4f6e6c7920636f6e7472696275746f72732063616e20617070726f7665000000600082015250565b6000612cbe601d83611c4e565b9150612cc982612c88565b602082019050919050565b60006020820190508181036000830152612ced81612cb1565b9050919050565b7f4f776e61626c653a206e6577206f776e657220697320746865207a65726f206160008201527f6464726573730000000000000000000000000000000000000000000000000000602082015250565b6000612d50602683611c4e565b9150612d5b82612cf4565b604082019050919050565b60006020820190508181036000830152612d7f81612d43565b9050919050565b7f5265656e7472616e637947756172643a207265656e7472616e742063616c6c00600082015250565b6000612dbc601f83611c4e565b9150612dc782612d86565b602082019050919050565b60006020820190508181036000830152612deb81612daf565b9050919050565b7f4f776e61626c653a2063616c6c6572206973206e6f7420746865206f776e6572600082015250565b6000612e28602083611c4e565b9150612e3382612df2565b602082019050919050565b60006020820190508181036000830152612e5781612e1b565b905091905056fea26469706673582212202fea864d23eeabf8d6570fbf0f84b35488599f8a3d1ef12f57321b7f0f56a4b864736f6c63430008180033a26469706673582212202e7c9f52d312dc5624bc07d9364f3166fc582f699a0c9135d040c4bd737f65a464736f6c63430008180033","opcodes":"PUSH1 0x80 PUSH1 0x40 MSTORE CALLVALUE DUP1 ISZERO PUSH3 0x11 JUMPI PUSH1 0x0 DUP1 REVERT JUMPDEST POP PUSH3 0x32 PUSH3 0x26 PUSH3 0x50 PUSH1 0x20 SHL PUSH1 0x20 SHR JUMP JUMPDEST PUSH3 0x58 PUSH1 0x20 SHL PUSH1 0x20 SHR JUMP JUMPDEST PUSH1 0x1 DUP1 DUP2 SWAP1 SSTORE POP PUSH3 0x4A CALLER PUSH3 0x58 PUSH1 0x20 SHL PUSH1 0x20 SHR JUMP JUMPDEST PUSH3 0x11C JUMP JUMPDEST PUSH1 0x0 CALLER SWAP1 POP SWAP1 JUMP JUMPDEST PUSH1 0x0 DUP1 PUSH1 0x0 SWAP1 SLOAD SWAP1 PUSH2 0x100 EXP SWAP1 DIV PUSH20 0xFFFFFFFFFFFFFFFFFFFFFFFFFFFFFFFFFFFFFFFF AND SWAP1 POP DUP2 PUSH1 0x0 DUP1 PUSH2 0x100 EXP DUP2 SLOAD DUP2 PUSH20 0xFFFFFFFFFFFFFFFFFFFFFFFFFFFFFFFFFFFFFFFF MUL NOT AND SWAP1 DUP4 PUSH20 0xFFFFFFFFFFFFFFFFFFFFFFFFFFFFFFFFFFFFFFFF AND MUL OR SWAP1 SSTORE POP DUP2 PUSH20 0xFFFFFFFFFFFFFFFFFFFFFFFFFFFFFFFFFFFFFFFF AND DUP2 PUSH20 0xFFFFFFFFFFFFFFFFFFFFFFFFFFFFFFFFFFFFFFFF AND PUSH32 0x8BE0079C531659141344CD1FD0A4F28419497F9722A3DAAFE3B4186F6B6457E0 PUSH1 0x40 MLOAD PUSH1 0x40 MLOAD DUP1 SWAP2 SUB SWAP1 LOG3 POP POP JUMP JUMPDEST PUSH2 0x4F97 DUP1 PUSH3 0x12C PUSH1 0x0 CODECOPY PUSH1 0x0 RETURN INVALID PUSH1 0x80 PUSH1 0x40 MSTORE CALLVALUE DUP1 ISZERO PUSH3 0x11 JUMPI PUSH1 0x0 DUP1 REVERT JUMPDEST POP PUSH1 0x4 CALLDATASIZE LT PUSH3 0xB8 JUMPI PUSH1 0x0 CALLDATALOAD PUSH1 0xE0 SHR DUP1 PUSH4 0x8DA5CB5B GT PUSH3 0x7B JUMPI DUP1 PUSH4 0x8DA5CB5B EQ PUSH3 0x17C JUMPI DUP1 PUSH4 0x9D31E1A7 EQ PUSH3 0x19E JUMPI DUP1 PUSH4 0xA3303A75 EQ PUSH3 0x1D4 JUMPI DUP1 PUSH4 0xC362B156 EQ PUSH3 0x20A JUMPI DUP1 PUSH4 0xE38E2B82 EQ PUSH3 0x22C JUMPI DUP1 PUSH4 0xF2FDE38B EQ PUSH3 0x266 JUMPI PUSH3 0xB8 JUMP JUMPDEST DUP1 PUSH4 0x141961BC EQ PUSH3 0xBD JUMPI DUP1 PUSH4 0x4ACB9D4F EQ PUSH3 0xF7 JUMPI DUP1 PUSH4 0x715018A6 EQ PUSH3 0x11A JUMPI DUP1 PUSH4 0x7ECA30FE EQ PUSH3 0x126 JUMPI DUP1 PUSH4 0x840F8B90 EQ PUSH3 0x146 JUMPI JUMPDEST PUSH1 0x0 DUP1 REVERT JUMPDEST PUSH3 0xDB PUSH1 0x4 DUP1 CALLDATASIZE SUB DUP2 ADD SWAP1 PUSH3 0xD5 SWAP2 SWAP1 PUSH3 0x154D JUMP JUMPDEST PUSH3 0x286 JUMP JUMPDEST PUSH1 0x40 MLOAD PUSH3 0xEE SWAP6 SWAP5 SWAP4 SWAP3 SWAP2 SWAP1 PUSH3 0x15F2 JUMP JUMPDEST PUSH1 0x40 MLOAD DUP1 SWAP2 SUB SWAP1 RETURN JUMPDEST PUSH3 0x101 PUSH3 0x309 JUMP JUMPDEST PUSH1 0x40 MLOAD PUSH3 0x111 SWAP3 SWAP2 SWAP1 PUSH3 0x17EB JUMP JUMPDEST PUSH1 0x40 MLOAD DUP1 SWAP2 SUB SWAP1 RETURN JUMPDEST PUSH3 0x124 PUSH3 0x5E6 JUMP JUMPDEST STOP JUMPDEST PUSH3 0x144 PUSH1 0x4 DUP1 CALLDATASIZE SUB DUP2 ADD SWAP1 PUSH3 0x13E SWAP2 SWAP1 PUSH3 0x154D JUMP JUMPDEST PUSH3 0x5FE JUMP JUMPDEST STOP JUMPDEST PUSH3 0x164 PUSH1 0x4 DUP1 CALLDATASIZE SUB DUP2 ADD SWAP1 PUSH3 0x15E SWAP2 SWAP1 PUSH3 0x1857 JUMP JUMPDEST PUSH3 0x8EB JUMP JUMPDEST PUSH1 0x40 MLOAD PUSH3 0x173 SWAP2 SWAP1 PUSH3 0x1889 JUMP JUMPDEST PUSH1 0x40 MLOAD DUP1 SWAP2 SUB SWAP1 RETURN JUMPDEST PUSH3 0x186 PUSH3 0x903 JUMP JUMPDEST PUSH1 0x40 MLOAD PUSH3 0x195 SWAP2 SWAP1 PUSH3 0x18A6 JUMP JUMPDEST PUSH1 0x40 MLOAD DUP1 SWAP2 SUB SWAP1 RETURN JUMPDEST PUSH3 0x1BC PUSH1 0x4 DUP1 CALLDATASIZE SUB DUP2 ADD SWAP1 PUSH3 0x1B6 SWAP2 SWAP1 PUSH3 0x1857 JUMP JUMPDEST PUSH3 0x92C JUMP JUMPDEST PUSH1 0x40 MLOAD PUSH3 0x1CB SWAP2 SWAP1 PUSH3 0x18C3 JUMP JUMPDEST PUSH1 0x40 MLOAD DUP1 SWAP2 SUB SWAP1 RETURN JUMPDEST PUSH3 0x1F2 PUSH1 0x4 DUP1 CALLDATASIZE SUB DUP2 ADD SWAP1 PUSH3 0x1EC SWAP2 SWAP1 PUSH3 0x154D JUMP JUMPDEST PUSH3 0xAA8 JUMP JUMPDEST PUSH1 0x40 MLOAD PUSH3 0x201 SWAP2 SWAP1 PUSH3 0x18A6 JUMP JUMPDEST PUSH1 0x40 MLOAD DUP1 SWAP2 SUB SWAP1 RETURN JUMPDEST PUSH3 0x214 PUSH3 0xE09 JUMP JUMPDEST PUSH1 0x40 MLOAD PUSH3 0x223 SWAP2 SWAP1 PUSH3 0x18E0 JUMP JUMPDEST PUSH1 0x40 MLOAD DUP1 SWAP2 SUB SWAP1 RETURN JUMPDEST PUSH3 0x24A PUSH1 0x4 DUP1 CALLDATASIZE SUB DUP2 ADD SWAP1 PUSH3 0x244 SWAP2 SWAP1 PUSH3 0x154D JUMP JUMPDEST PUSH3 0x1123 JUMP JUMPDEST PUSH1 0x40 MLOAD PUSH3 0x25D SWAP6 SWAP5 SWAP4 SWAP3 SWAP2 SWAP1 PUSH3 0x15F2 JUMP JUMPDEST PUSH1 0x40 MLOAD DUP1 SWAP2 SUB SWAP1 RETURN JUMPDEST PUSH3 0x284 PUSH1 0x4 DUP1 CALLDATASIZE SUB DUP2 ADD SWAP1 PUSH3 0x27E SWAP2 SWAP1 PUSH3 0x1857 JUMP JUMPDEST PUSH3 0x12A5 JUMP JUMPDEST STOP JUMPDEST PUSH1 0x3 PUSH1 0x20 MSTORE DUP1 PUSH1 0x0 MSTORE PUSH1 0x40 PUSH1 0x0 KECCAK256 PUSH1 0x0 SWAP2 POP SWAP1 POP DUP1 PUSH1 0x0 ADD PUSH1 0x0 SWAP1 SLOAD SWAP1 PUSH2 0x100 EXP SWAP1 DIV PUSH20 0xFFFFFFFFFFFFFFFFFFFFFFFFFFFFFFFFFFFFFFFF AND SWAP1 DUP1 PUSH1 0x0 ADD PUSH1 0x14 SWAP1 SLOAD SWAP1 PUSH2 0x100 EXP SWAP1 DIV PUSH1 0xFF AND SWAP1 DUP1 PUSH1 0x1 ADD SLOAD SWAP1 DUP1 PUSH1 0x2 ADD SLOAD SWAP1 DUP1 PUSH1 0x3 ADD PUSH1 0x0 SWAP1 SLOAD SWAP1 PUSH2 0x100 EXP SWAP1 DIV PUSH20 0xFFFFFFFFFFFFFFFFFFFFFFFFFFFFFFFFFFFFFFFF AND SWAP1 POP DUP6 JUMP JUMPDEST PUSH1 0x60 DUP1 PUSH1 0x0 PUSH3 0x31A PUSH1 0x2 PUSH3 0x132F JUMP JUMPDEST SWAP1 POP PUSH1 0x0 DUP2 PUSH8 0xFFFFFFFFFFFFFFFF DUP2 GT ISZERO PUSH3 0x33B JUMPI PUSH3 0x33A PUSH3 0x1904 JUMP JUMPDEST JUMPDEST PUSH1 0x40 MLOAD SWAP1 DUP1 DUP3 MSTORE DUP1 PUSH1 0x20 MUL PUSH1 0x20 ADD DUP3 ADD PUSH1 0x40 MSTORE DUP1 ISZERO PUSH3 0x36A JUMPI DUP2 PUSH1 0x20 ADD PUSH1 0x20 DUP3 MUL DUP1 CALLDATASIZE DUP4 CALLDATACOPY DUP1 DUP3 ADD SWAP2 POP POP SWAP1 POP JUMPDEST POP SWAP1 POP PUSH1 0x0 DUP3 PUSH8 0xFFFFFFFFFFFFFFFF DUP2 GT ISZERO PUSH3 0x38C JUMPI PUSH3 0x38B PUSH3 0x1904 JUMP JUMPDEST JUMPDEST PUSH1 0x40 MLOAD SWAP1 DUP1 DUP3 MSTORE DUP1 PUSH1 0x20 MUL PUSH1 0x20 ADD DUP3 ADD PUSH1 0x40 MSTORE DUP1 ISZERO PUSH3 0x3BB JUMPI DUP2 PUSH1 0x20 ADD PUSH1 0x20 DUP3 MUL DUP1 CALLDATASIZE DUP4 CALLDATACOPY DUP1 DUP3 ADD SWAP2 POP POP SWAP1 POP JUMPDEST POP SWAP1 POP PUSH1 0x0 JUMPDEST DUP4 DUP2 LT ISZERO PUSH3 0x5D8 JUMPI PUSH1 0x0 PUSH1 0x3 PUSH1 0x0 DUP4 DUP2 MSTORE PUSH1 0x20 ADD SWAP1 DUP2 MSTORE PUSH1 0x20 ADD PUSH1 0x0 KECCAK256 PUSH1 0x40 MLOAD DUP1 PUSH1 0xA0 ADD PUSH1 0x40 MSTORE SWAP1 DUP2 PUSH1 0x0 DUP3 ADD PUSH1 0x0 SWAP1 SLOAD SWAP1 PUSH2 0x100 EXP SWAP1 DIV PUSH20 0xFFFFFFFFFFFFFFFFFFFFFFFFFFFFFFFFFFFFFFFF AND PUSH20 0xFFFFFFFFFFFFFFFFFFFFFFFFFFFFFFFFFFFFFFFF AND PUSH20 0xFFFFFFFFFFFFFFFFFFFFFFFFFFFFFFFFFFFFFFFF AND DUP2 MSTORE PUSH1 0x20 ADD PUSH1 0x0 DUP3 ADD PUSH1 0x14 SWAP1 SLOAD SWAP1 PUSH2 0x100 EXP SWAP1 DIV PUSH1 0xFF AND ISZERO ISZERO ISZERO ISZERO DUP2 MSTORE PUSH1 0x20 ADD PUSH1 0x1 DUP3 ADD SLOAD DUP2 MSTORE PUSH1 0x20 ADD PUSH1 0x2 DUP3 ADD SLOAD DUP2 MSTORE PUSH1 0x20 ADD PUSH1 0x3 DUP3 ADD PUSH1 0x0 SWAP1 SLOAD SWAP1 PUSH2 0x100 EXP SWAP1 DIV PUSH20 0xFFFFFFFFFFFFFFFFFFFFFFFFFFFFFFFFFFFFFFFF AND PUSH20 0xFFFFFFFFFFFFFFFFFFFFFFFFFFFFFFFFFFFFFFFF AND PUSH20 0xFFFFFFFFFFFFFFFFFFFFFFFFFFFFFFFFFFFFFFFF AND DUP2 MSTORE POP POP SWAP1 POP DUP1 PUSH1 0x0 ADD MLOAD DUP5 DUP4 DUP2 MLOAD DUP2 LT PUSH3 0x4E2 JUMPI PUSH3 0x4E1 PUSH3 0x1933 JUMP JUMPDEST JUMPDEST PUSH1 0x20 MUL PUSH1 0x20 ADD ADD SWAP1 PUSH20 0xFFFFFFFFFFFFFFFFFFFFFFFFFFFFFFFFFFFFFFFF AND SWAP1 DUP2 PUSH20 0xFFFFFFFFFFFFFFFFFFFFFFFFFFFFFFFFFFFFFFFF AND DUP2 MSTORE POP POP DUP1 PUSH1 0x20 ADD MLOAD DUP1 ISZERO PUSH3 0x5A1 JUMPI POP DUP1 PUSH1 0x0 ADD MLOAD PUSH20 0xFFFFFFFFFFFFFFFFFFFFFFFFFFFFFFFFFFFFFFFF AND PUSH4 0x95EE1221 PUSH1 0x40 MLOAD DUP2 PUSH4 0xFFFFFFFF AND PUSH1 0xE0 SHL DUP2 MSTORE PUSH1 0x4 ADD PUSH1 0x20 PUSH1 0x40 MLOAD DUP1 DUP4 SUB DUP2 DUP7 GAS STATICCALL ISZERO DUP1 ISZERO PUSH3 0x579 JUMPI RETURNDATASIZE PUSH1 0x0 DUP1 RETURNDATACOPY RETURNDATASIZE PUSH1 0x0 REVERT JUMPDEST POP POP POP POP PUSH1 0x40 MLOAD RETURNDATASIZE PUSH1 0x1F NOT PUSH1 0x1F DUP3 ADD AND DUP3 ADD DUP1 PUSH1 0x40 MSTORE POP DUP2 ADD SWAP1 PUSH3 0x59F SWAP2 SWAP1 PUSH3 0x1993 JUMP JUMPDEST ISZERO JUMPDEST DUP4 DUP4 DUP2 MLOAD DUP2 LT PUSH3 0x5B7 JUMPI PUSH3 0x5B6 PUSH3 0x1933 JUMP JUMPDEST JUMPDEST PUSH1 0x20 MUL PUSH1 0x20 ADD ADD SWAP1 ISZERO ISZERO SWAP1 DUP2 ISZERO ISZERO DUP2 MSTORE POP POP POP DUP1 DUP1 PUSH1 0x1 ADD SWAP2 POP POP PUSH3 0x3C1 JUMP JUMPDEST POP DUP2 DUP2 SWAP5 POP SWAP5 POP POP POP POP SWAP1 SWAP2 JUMP JUMPDEST PUSH3 0x5F0 PUSH3 0x133D JUMP JUMPDEST PUSH3 0x5FC PUSH1 0x0 PUSH3 0x13C2 JUMP JUMPDEST JUMP JUMPDEST PUSH3 0x608 PUSH3 0x133D JUMP JUMPDEST PUSH3 0x612 PUSH3 0x1486 JUMP JUMPDEST PUSH3 0x61E PUSH1 0x2 PUSH3 0x132F JUMP JUMPDEST DUP2 LT PUSH3 0x662 JUMPI PUSH1 0x40 MLOAD PUSH32 0x8C379A000000000000000000000000000000000000000000000000000000000 DUP2 MSTORE PUSH1 0x4 ADD PUSH3 0x659 SWAP1 PUSH3 0x1A26 JUMP JUMPDEST PUSH1 0x40 MLOAD DUP1 SWAP2 SUB SWAP1 REVERT JUMPDEST PUSH1 0x3 PUSH1 0x0 DUP3 DUP2 MSTORE PUSH1 0x20 ADD SWAP1 DUP2 MSTORE PUSH1 0x20 ADD PUSH1 0x0 KECCAK256 PUSH1 0x0 ADD PUSH1 0x14 SWAP1 SLOAD SWAP1 PUSH2 0x100 EXP SWAP1 DIV PUSH1 0xFF AND PUSH3 0x6C8 JUMPI PUSH1 0x40 MLOAD PUSH32 0x8C379A000000000000000000000000000000000000000000000000000000000 DUP2 MSTORE PUSH1 0x4 ADD PUSH3 0x6BF SWAP1 PUSH3 0x1A98 JUMP JUMPDEST PUSH1 0x40 MLOAD DUP1 SWAP2 SUB SWAP1 REVERT JUMPDEST PUSH1 0x0 PUSH1 0x3 PUSH1 0x0 DUP4 DUP2 MSTORE PUSH1 0x20 ADD SWAP1 DUP2 MSTORE PUSH1 0x20 ADD PUSH1 0x0 KECCAK256 SWAP1 POP PUSH1 0x0 DUP2 PUSH1 0x0 ADD PUSH1 0x0 SWAP1 SLOAD SWAP1 PUSH2 0x100 EXP SWAP1 DIV PUSH20 0xFFFFFFFFFFFFFFFFFFFFFFFFFFFFFFFFFFFFFFFF AND SWAP1 POP DUP1 PUSH20 0xFFFFFFFFFFFFFFFFFFFFFFFFFFFFFFFFFFFFFFFF AND PUSH4 0x95EE1221 PUSH1 0x40 MLOAD DUP2 PUSH4 0xFFFFFFFF AND PUSH1 0xE0 SHL DUP2 MSTORE PUSH1 0x4 ADD PUSH1 0x20 PUSH1 0x40 MLOAD DUP1 DUP4 SUB DUP2 DUP7 GAS STATICCALL ISZERO DUP1 ISZERO PUSH3 0x754 JUMPI RETURNDATASIZE PUSH1 0x0 DUP1 RETURNDATACOPY RETURNDATASIZE PUSH1 0x0 REVERT JUMPDEST POP POP POP POP PUSH1 0x40 MLOAD RETURNDATASIZE PUSH1 0x1F NOT PUSH1 0x1F DUP3 ADD AND DUP3 ADD DUP1 PUSH1 0x40 MSTORE POP DUP2 ADD SWAP1 PUSH3 0x77A SWAP2 SWAP1 PUSH3 0x1993 JUMP JUMPDEST PUSH3 0x7E1 JUMPI DUP1 PUSH20 0xFFFFFFFFFFFFFFFFFFFFFFFFFFFFFFFFFFFFFFFF AND PUSH3 0x4F3E86 PUSH1 0x40 MLOAD DUP2 PUSH4 0xFFFFFFFF AND PUSH1 0xE0 SHL DUP2 MSTORE PUSH1 0x4 ADD PUSH1 0x0 PUSH1 0x40 MLOAD DUP1 DUP4 SUB DUP2 PUSH1 0x0 DUP8 DUP1 EXTCODESIZE ISZERO DUP1 ISZERO PUSH3 0x7C7 JUMPI PUSH1 0x0 DUP1 REVERT JUMPDEST POP GAS CALL ISZERO DUP1 ISZERO PUSH3 0x7DC JUMPI RETURNDATASIZE PUSH1 0x0 DUP1 RETURNDATACOPY RETURNDATASIZE PUSH1 0x0 REVERT JUMPDEST POP POP POP POP JUMPDEST PUSH1 0x0 DUP3 PUSH1 0x0 ADD PUSH1 0x14 PUSH2 0x100 EXP DUP2 SLOAD DUP2 PUSH1 0xFF MUL NOT AND SWAP1 DUP4 ISZERO ISZERO MUL OR SWAP1 SSTORE POP DUP2 PUSH1 0x0 ADD PUSH1 0x0 SWAP1 SLOAD SWAP1 PUSH2 0x100 EXP SWAP1 DIV PUSH20 0xFFFFFFFFFFFFFFFFFFFFFFFFFFFFFFFFFFFFFFFF AND PUSH20 0xFFFFFFFFFFFFFFFFFFFFFFFFFFFFFFFFFFFFFFFF AND DUP4 PUSH32 0xBC024E4AA60A5C1FE873E2FCDF7C38B4580C07539828049DB4428819E6031AD5 PUSH1 0x40 MLOAD PUSH1 0x40 MLOAD DUP1 SWAP2 SUB SWAP1 LOG3 DUP2 PUSH1 0x0 ADD PUSH1 0x0 SWAP1 SLOAD SWAP1 PUSH2 0x100 EXP SWAP1 DIV PUSH20 0xFFFFFFFFFFFFFFFFFFFFFFFFFFFFFFFFFFFFFFFF AND PUSH20 0xFFFFFFFFFFFFFFFFFFFFFFFFFFFFFFFFFFFFFFFF AND DUP4 PUSH32 0x46A9EF4E9741ED9B7CBA82AD486735AB516BD04DC43F6EE911737503F759DB7 PUSH1 0x0 PUSH1 0x40 MLOAD PUSH3 0x8D4 SWAP2 SWAP1 PUSH3 0x18C3 JUMP JUMPDEST PUSH1 0x40 MLOAD DUP1 SWAP2 SUB SWAP1 LOG3 POP POP PUSH3 0x8E8 PUSH3 0x14D8 JUMP JUMPDEST POP JUMP JUMPDEST PUSH1 0x4 PUSH1 0x20 MSTORE DUP1 PUSH1 0x0 MSTORE PUSH1 0x40 PUSH1 0x0 KECCAK256 PUSH1 0x0 SWAP2 POP SWAP1 POP SLOAD DUP2 JUMP JUMPDEST PUSH1 0x0 DUP1 PUSH1 0x0 SWAP1 SLOAD SWAP1 PUSH2 0x100 EXP SWAP1 DIV PUSH20 0xFFFFFFFFFFFFFFFFFFFFFFFFFFFFFFFFFFFFFFFF AND SWAP1 POP SWAP1 JUMP JUMPDEST PUSH1 0x0 DUP1 PUSH1 0x4 PUSH1 0x0 DUP5 PUSH20 0xFFFFFFFFFFFFFFFFFFFFFFFFFFFFFFFFFFFFFFFF AND PUSH20 0xFFFFFFFFFFFFFFFFFFFFFFFFFFFFFFFFFFFFFFFF AND DUP2 MSTORE PUSH1 0x20 ADD SWAP1 DUP2 MSTORE PUSH1 0x20 ADD PUSH1 0x0 KECCAK256 SLOAD SWAP1 POP PUSH3 0x97D PUSH1 0x2 PUSH3 0x132F JUMP JUMPDEST DUP2 LT ISZERO DUP1 PUSH3 0x9EE JUMPI POP DUP3 PUSH20 0xFFFFFFFFFFFFFFFFFFFFFFFFFFFFFFFFFFFFFFFF AND PUSH1 0x3 PUSH1 0x0 DUP4 DUP2 MSTORE PUSH1 0x20 ADD SWAP1 DUP2 MSTORE PUSH1 0x20 ADD PUSH1 0x0 KECCAK256 PUSH1 0x0 ADD PUSH1 0x0 SWAP1 SLOAD SWAP1 PUSH2 0x100 EXP SWAP1 DIV PUSH20 0xFFFFFFFFFFFFFFFFFFFFFFFFFFFFFFFFFFFFFFFF AND PUSH20 0xFFFFFFFFFFFFFFFFFFFFFFFFFFFFFFFFFFFFFFFF AND EQ ISZERO JUMPDEST ISZERO PUSH3 0x9FF JUMPI PUSH1 0x0 SWAP2 POP POP PUSH3 0xAA3 JUMP JUMPDEST PUSH1 0x3 PUSH1 0x0 DUP3 DUP2 MSTORE PUSH1 0x20 ADD SWAP1 DUP2 MSTORE PUSH1 0x20 ADD PUSH1 0x0 KECCAK256 PUSH1 0x0 ADD PUSH1 0x14 SWAP1 SLOAD SWAP1 PUSH2 0x100 EXP SWAP1 DIV PUSH1 0xFF AND DUP1 ISZERO PUSH3 0xA9F JUMPI POP DUP3 PUSH20 0xFFFFFFFFFFFFFFFFFFFFFFFFFFFFFFFFFFFFFFFF AND PUSH4 0x95EE1221 PUSH1 0x40 MLOAD DUP2 PUSH4 0xFFFFFFFF AND PUSH1 0xE0 SHL DUP2 MSTORE PUSH1 0x4 ADD PUSH1 0x20 PUSH1 0x40 MLOAD DUP1 DUP4 SUB DUP2 DUP7 GAS STATICCALL ISZERO DUP1 ISZERO PUSH3 0xA77 JUMPI RETURNDATASIZE PUSH1 0x0 DUP1 RETURNDATACOPY RETURNDATASIZE PUSH1 0x0 REVERT JUMPDEST POP POP POP POP PUSH1 0x40 MLOAD RETURNDATASIZE PUSH1 0x1F NOT PUSH1 0x1F DUP3 ADD AND DUP3 ADD DUP1 PUSH1 0x40 MSTORE POP DUP2 ADD SWAP1 PUSH3 0xA9D SWAP2 SWAP1 PUSH3 0x1993 JUMP JUMPDEST ISZERO JUMPDEST SWAP2 POP POP JUMPDEST SWAP2 SWAP1 POP JUMP JUMPDEST PUSH1 0x0 PUSH3 0xAB4 PUSH3 0x1486 JUMP JUMPDEST PUSH1 0x0 DUP3 GT PUSH3 0xAFA JUMPI PUSH1 0x40 MLOAD PUSH32 0x8C379A000000000000000000000000000000000000000000000000000000000 DUP2 MSTORE PUSH1 0x4 ADD PUSH3 0xAF1 SWAP1 PUSH3 0x1B30 JUMP JUMPDEST PUSH1 0x40 MLOAD DUP1 SWAP2 SUB SWAP1 REVERT JUMPDEST PUSH1 0x0 PUSH3 0xB08 PUSH1 0x2 PUSH3 0x132F JUMP JUMPDEST SWAP1 POP PUSH1 0x0 DUP4 ADDRESS PUSH1 0x40 MLOAD PUSH3 0xB1C SWAP1 PUSH3 0x14FF JUMP JUMPDEST PUSH3 0xB29 SWAP3 SWAP2 SWAP1 PUSH3 0x1B52 JUMP JUMPDEST PUSH1 0x40 MLOAD DUP1 SWAP2 SUB SWAP1 PUSH1 0x0 CREATE DUP1 ISZERO DUP1 ISZERO PUSH3 0xB46 JUMPI RETURNDATASIZE PUSH1 0x0 DUP1 RETURNDATACOPY RETURNDATASIZE PUSH1 0x0 REVERT JUMPDEST POP SWAP1 POP PUSH1 0x0 PUSH20 0xFFFFFFFFFFFFFFFFFFFFFFFFFFFFFFFFFFFFFFFF AND DUP2 PUSH20 0xFFFFFFFFFFFFFFFFFFFFFFFFFFFFFFFFFFFFFFFF AND SUB PUSH3 0xBBB JUMPI PUSH1 0x40 MLOAD PUSH32 0x8C379A000000000000000000000000000000000000000000000000000000000 DUP2 MSTORE PUSH1 0x4 ADD PUSH3 0xBB2 SWAP1 PUSH3 0x1BCF JUMP JUMPDEST PUSH1 0x40 MLOAD DUP1 SWAP2 SUB SWAP1 REVERT JUMPDEST PUSH1 0x40 MLOAD DUP1 PUSH1 0xA0 ADD PUSH1 0x40 MSTORE DUP1 DUP3 PUSH20 0xFFFFFFFFFFFFFFFFFFFFFFFFFFFFFFFFFFFFFFFF AND DUP2 MSTORE PUSH1 0x20 ADD PUSH1 0x1 ISZERO ISZERO DUP2 MSTORE PUSH1 0x20 ADD TIMESTAMP DUP2 MSTORE PUSH1 0x20 ADD DUP6 DUP2 MSTORE PUSH1 0x20 ADD CALLER PUSH20 0xFFFFFFFFFFFFFFFFFFFFFFFFFFFFFFFFFFFFFFFF AND DUP2 MSTORE POP PUSH1 0x3 PUSH1 0x0 DUP5 DUP2 MSTORE PUSH1 0x20 ADD SWAP1 DUP2 MSTORE PUSH1 0x20 ADD PUSH1 0x0 KECCAK256 PUSH1 0x0 DUP3 ADD MLOAD DUP2 PUSH1 0x0 ADD PUSH1 0x0 PUSH2 0x100 EXP DUP2 SLOAD DUP2 PUSH20 0xFFFFFFFFFFFFFFFFFFFFFFFFFFFFFFFFFFFFFFFF MUL NOT AND SWAP1 DUP4 PUSH20 0xFFFFFFFFFFFFFFFFFFFFFFFFFFFFFFFFFFFFFFFF AND MUL OR SWAP1 SSTORE POP PUSH1 0x20 DUP3 ADD MLOAD DUP2 PUSH1 0x0 ADD PUSH1 0x14 PUSH2 0x100 EXP DUP2 SLOAD DUP2 PUSH1 0xFF MUL NOT AND SWAP1 DUP4 ISZERO ISZERO MUL OR SWAP1 SSTORE POP PUSH1 0x40 DUP3 ADD MLOAD DUP2 PUSH1 0x1 ADD SSTORE PUSH1 0x60 DUP3 ADD MLOAD DUP2 PUSH1 0x2 ADD SSTORE PUSH1 0x80 DUP3 ADD MLOAD DUP2 PUSH1 0x3 ADD PUSH1 0x0 PUSH2 0x100 EXP DUP2 SLOAD DUP2 PUSH20 0xFFFFFFFFFFFFFFFFFFFFFFFFFFFFFFFFFFFFFFFF MUL NOT AND SWAP1 DUP4 PUSH20 0xFFFFFFFFFFFFFFFFFFFFFFFFFFFFFFFFFFFFFFFF AND MUL OR SWAP1 SSTORE POP SWAP1 POP POP DUP2 PUSH1 0x4 PUSH1 0x0 DUP4 PUSH20 0xFFFFFFFFFFFFFFFFFFFFFFFFFFFFFFFFFFFFFFFF AND PUSH20 0xFFFFFFFFFFFFFFFFFFFFFFFFFFFFFFFFFFFFFFFF AND DUP2 MSTORE PUSH1 0x20 ADD SWAP1 DUP2 MSTORE PUSH1 0x20 ADD PUSH1 0x0 KECCAK256 DUP2 SWAP1 SSTORE POP PUSH3 0xD39 PUSH1 0x2 PUSH3 0x14E1 JUMP JUMPDEST CALLER PUSH20 0xFFFFFFFFFFFFFFFFFFFFFFFFFFFFFFFFFFFFFFFF AND DUP2 PUSH20 0xFFFFFFFFFFFFFFFFFFFFFFFFFFFFFFFFFFFFFFFF AND DUP4 PUSH32 0xD1344736C6F5AED92434818925FFB41A595E2E7E95A63EC40204158B754B0686 DUP8 TIMESTAMP PUSH1 0x40 MLOAD PUSH3 0xD9B SWAP3 SWAP2 SWAP1 PUSH3 0x1BF1 JUMP JUMPDEST PUSH1 0x40 MLOAD DUP1 SWAP2 SUB SWAP1 LOG4 DUP1 PUSH20 0xFFFFFFFFFFFFFFFFFFFFFFFFFFFFFFFFFFFFFFFF AND DUP3 PUSH32 0x46A9EF4E9741ED9B7CBA82AD486735AB516BD04DC43F6EE911737503F759DB7 PUSH1 0x1 PUSH1 0x40 MLOAD PUSH3 0xDED SWAP2 SWAP1 PUSH3 0x18C3 JUMP JUMPDEST PUSH1 0x40 MLOAD DUP1 SWAP2 SUB SWAP1 LOG3 DUP1 SWAP3 POP POP POP PUSH3 0xE04 PUSH3 0x14D8 JUMP JUMPDEST SWAP2 SWAP1 POP JUMP JUMPDEST PUSH1 0x60 PUSH1 0x0 PUSH3 0xE19 PUSH1 0x2 PUSH3 0x132F JUMP JUMPDEST SWAP1 POP PUSH1 0x0 DUP1 JUMPDEST DUP3 DUP2 LT ISZERO PUSH3 0xF23 JUMPI PUSH1 0x3 PUSH1 0x0 DUP3 DUP2 MSTORE PUSH1 0x20 ADD SWAP1 DUP2 MSTORE PUSH1 0x20 ADD PUSH1 0x0 KECCAK256 PUSH1 0x0 ADD PUSH1 0x14 SWAP1 SLOAD SWAP1 PUSH2 0x100 EXP SWAP1 DIV PUSH1 0xFF AND DUP1 ISZERO PUSH3 0xEFE JUMPI POP PUSH1 0x3 PUSH1 0x0 DUP3 DUP2 MSTORE PUSH1 0x20 ADD SWAP1 DUP2 MSTORE PUSH1 0x20 ADD PUSH1 0x0 KECCAK256 PUSH1 0x0 ADD PUSH1 0x0 SWAP1 SLOAD SWAP1 PUSH2 0x100 EXP SWAP1 DIV PUSH20 0xFFFFFFFFFFFFFFFFFFFFFFFFFFFFFFFFFFFFFFFF AND PUSH20 0xFFFFFFFFFFFFFFFFFFFFFFFFFFFFFFFFFFFFFFFF AND PUSH4 0x95EE1221 PUSH1 0x40 MLOAD DUP2 PUSH4 0xFFFFFFFF AND PUSH1 0xE0 SHL DUP2 MSTORE PUSH1 0x4 ADD PUSH1 0x20 PUSH1 0x40 MLOAD DUP1 DUP4 SUB DUP2 DUP7 GAS STATICCALL ISZERO DUP1 ISZERO PUSH3 0xED6 JUMPI RETURNDATASIZE PUSH1 0x0 DUP1 RETURNDATACOPY RETURNDATASIZE PUSH1 0x0 REVERT JUMPDEST POP POP POP POP PUSH1 0x40 MLOAD RETURNDATASIZE PUSH1 0x1F NOT PUSH1 0x1F DUP3 ADD AND DUP3 ADD DUP1 PUSH1 0x40 MSTORE POP DUP2 ADD SWAP1 PUSH3 0xEFC SWAP2 SWAP1 PUSH3 0x1993 JUMP JUMPDEST ISZERO JUMPDEST ISZERO PUSH3 0xF15 JUMPI DUP2 DUP1 PUSH3 0xF11 SWAP1 PUSH3 0x1C4D JUMP JUMPDEST SWAP3 POP POP JUMPDEST DUP1 DUP1 PUSH1 0x1 ADD SWAP2 POP POP PUSH3 0xE1F JUMP JUMPDEST POP PUSH1 0x0 DUP2 PUSH8 0xFFFFFFFFFFFFFFFF DUP2 GT ISZERO PUSH3 0xF43 JUMPI PUSH3 0xF42 PUSH3 0x1904 JUMP JUMPDEST JUMPDEST PUSH1 0x40 MLOAD SWAP1 DUP1 DUP3 MSTORE DUP1 PUSH1 0x20 MUL PUSH1 0x20 ADD DUP3 ADD PUSH1 0x40 MSTORE DUP1 ISZERO PUSH3 0xF72 JUMPI DUP2 PUSH1 0x20 ADD PUSH1 0x20 DUP3 MUL DUP1 CALLDATASIZE DUP4 CALLDATACOPY DUP1 DUP3 ADD SWAP2 POP POP SWAP1 POP JUMPDEST POP SWAP1 POP PUSH1 0x0 DUP1 JUMPDEST DUP5 DUP2 LT DUP1 ISZERO PUSH3 0xF88 JUMPI POP DUP4 DUP3 LT JUMPDEST ISZERO PUSH3 0x1118 JUMPI PUSH1 0x3 PUSH1 0x0 DUP3 DUP2 MSTORE PUSH1 0x20 ADD SWAP1 DUP2 MSTORE PUSH1 0x20 ADD PUSH1 0x0 KECCAK256 PUSH1 0x0 ADD PUSH1 0x14 SWAP1 SLOAD SWAP1 PUSH2 0x100 EXP SWAP1 DIV PUSH1 0xFF AND DUP1 ISZERO PUSH3 0x1064 JUMPI POP PUSH1 0x3 PUSH1 0x0 DUP3 DUP2 MSTORE PUSH1 0x20 ADD SWAP1 DUP2 MSTORE PUSH1 0x20 ADD PUSH1 0x0 KECCAK256 PUSH1 0x0 ADD PUSH1 0x0 SWAP1 SLOAD SWAP1 PUSH2 0x100 EXP SWAP1 DIV PUSH20 0xFFFFFFFFFFFFFFFFFFFFFFFFFFFFFFFFFFFFFFFF AND PUSH20 0xFFFFFFFFFFFFFFFFFFFFFFFFFFFFFFFFFFFFFFFF AND PUSH4 0x95EE1221 PUSH1 0x40 MLOAD DUP2 PUSH4 0xFFFFFFFF AND PUSH1 0xE0 SHL DUP2 MSTORE PUSH1 0x4 ADD PUSH1 0x20 PUSH1 0x40 MLOAD DUP1 DUP4 SUB DUP2 DUP7 GAS STATICCALL ISZERO DUP1 ISZERO PUSH3 0x103C JUMPI RETURNDATASIZE PUSH1 0x0 DUP1 RETURNDATACOPY RETURNDATASIZE PUSH1 0x0 REVERT JUMPDEST POP POP POP POP PUSH1 0x40 MLOAD RETURNDATASIZE PUSH1 0x1F NOT PUSH1 0x1F DUP3 ADD AND DUP3 ADD DUP1 PUSH1 0x40 MSTORE POP DUP2 ADD SWAP1 PUSH3 0x1062 SWAP2 SWAP1 PUSH3 0x1993 JUMP JUMPDEST ISZERO JUMPDEST ISZERO PUSH3 0x1102 JUMPI PUSH1 0x3 PUSH1 0x0 DUP3 DUP2 MSTORE PUSH1 0x20 ADD SWAP1 DUP2 MSTORE PUSH1 0x20 ADD PUSH1 0x0 KECCAK256 PUSH1 0x0 ADD PUSH1 0x0 SWAP1 SLOAD SWAP1 PUSH2 0x100 EXP SWAP1 DIV PUSH20 0xFFFFFFFFFFFFFFFFFFFFFFFFFFFFFFFFFFFFFFFF AND DUP4 DUP4 DUP2 MLOAD DUP2 LT PUSH3 0x10B7 JUMPI PUSH3 0x10B6 PUSH3 0x1933 JUMP JUMPDEST JUMPDEST PUSH1 0x20 MUL PUSH1 0x20 ADD ADD SWAP1 PUSH20 0xFFFFFFFFFFFFFFFFFFFFFFFFFFFFFFFFFFFFFFFF AND SWAP1 DUP2 PUSH20 0xFFFFFFFFFFFFFFFFFFFFFFFFFFFFFFFFFFFFFFFF AND DUP2 MSTORE POP POP DUP2 DUP1 PUSH3 0x10FE SWAP1 PUSH3 0x1C4D JUMP JUMPDEST SWAP3 POP POP JUMPDEST DUP1 DUP1 PUSH3 0x110F SWAP1 PUSH3 0x1C4D JUMP JUMPDEST SWAP2 POP POP PUSH3 0xF79 JUMP JUMPDEST POP DUP2 SWAP5 POP POP POP POP POP SWAP1 JUMP JUMPDEST PUSH1 0x0 DUP1 PUSH1 0x0 DUP1 PUSH1 0x0 PUSH3 0x1137 PUSH1 0x2 PUSH3 0x132F JUMP JUMPDEST DUP7 LT PUSH3 0x117B JUMPI PUSH1 0x40 MLOAD PUSH32 0x8C379A000000000000000000000000000000000000000000000000000000000 DUP2 MSTORE PUSH1 0x4 ADD PUSH3 0x1172 SWAP1 PUSH3 0x1A26 JUMP JUMPDEST PUSH1 0x40 MLOAD DUP1 SWAP2 SUB SWAP1 REVERT JUMPDEST PUSH1 0x0 PUSH1 0x3 PUSH1 0x0 DUP9 DUP2 MSTORE PUSH1 0x20 ADD SWAP1 DUP2 MSTORE PUSH1 0x20 ADD PUSH1 0x0 KECCAK256 PUSH1 0x40 MLOAD DUP1 PUSH1 0xA0 ADD PUSH1 0x40 MSTORE SWAP1 DUP2 PUSH1 0x0 DUP3 ADD PUSH1 0x0 SWAP1 SLOAD SWAP1 PUSH2 0x100 EXP SWAP1 DIV PUSH20 0xFFFFFFFFFFFFFFFFFFFFFFFFFFFFFFFFFFFFFFFF AND PUSH20 0xFFFFFFFFFFFFFFFFFFFFFFFFFFFFFFFFFFFFFFFF AND PUSH20 0xFFFFFFFFFFFFFFFFFFFFFFFFFFFFFFFFFFFFFFFF AND DUP2 MSTORE PUSH1 0x20 ADD PUSH1 0x0 DUP3 ADD PUSH1 0x14 SWAP1 SLOAD SWAP1 PUSH2 0x100 EXP SWAP1 DIV PUSH1 0xFF AND ISZERO ISZERO ISZERO ISZERO DUP2 MSTORE PUSH1 0x20 ADD PUSH1 0x1 DUP3 ADD SLOAD DUP2 MSTORE PUSH1 0x20 ADD PUSH1 0x2 DUP3 ADD SLOAD DUP2 MSTORE PUSH1 0x20 ADD PUSH1 0x3 DUP3 ADD PUSH1 0x0 SWAP1 SLOAD SWAP1 PUSH2 0x100 EXP SWAP1 DIV PUSH20 0xFFFFFFFFFFFFFFFFFFFFFFFFFFFFFFFFFFFFFFFF AND PUSH20 0xFFFFFFFFFFFFFFFFFFFFFFFFFFFFFFFFFFFFFFFF AND PUSH20 0xFFFFFFFFFFFFFFFFFFFFFFFFFFFFFFFFFFFFFFFF AND DUP2 MSTORE POP POP SWAP1 POP DUP1 PUSH1 0x0 ADD MLOAD DUP2 PUSH1 0x20 ADD MLOAD DUP3 PUSH1 0x40 ADD MLOAD DUP4 PUSH1 0x60 ADD MLOAD DUP5 PUSH1 0x80 ADD MLOAD SWAP6 POP SWAP6 POP SWAP6 POP SWAP6 POP SWAP6 POP POP SWAP2 SWAP4 SWAP6 SWAP1 SWAP3 SWAP5 POP JUMP JUMPDEST PUSH3 0x12AF PUSH3 0x133D JUMP JUMPDEST PUSH1 0x0 PUSH20 0xFFFFFFFFFFFFFFFFFFFFFFFFFFFFFFFFFFFFFFFF AND DUP2 PUSH20 0xFFFFFFFFFFFFFFFFFFFFFFFFFFFFFFFFFFFFFFFF AND SUB PUSH3 0x1321 JUMPI PUSH1 0x40 MLOAD PUSH32 0x8C379A000000000000000000000000000000000000000000000000000000000 DUP2 MSTORE PUSH1 0x4 ADD PUSH3 0x1318 SWAP1 PUSH3 0x1D10 JUMP JUMPDEST PUSH1 0x40 MLOAD DUP1 SWAP2 SUB SWAP1 REVERT JUMPDEST PUSH3 0x132C DUP2 PUSH3 0x13C2 JUMP JUMPDEST POP JUMP JUMPDEST PUSH1 0x0 DUP2 PUSH1 0x0 ADD SLOAD SWAP1 POP SWAP2 SWAP1 POP JUMP JUMPDEST PUSH3 0x1347 PUSH3 0x14F7 JUMP JUMPDEST PUSH20 0xFFFFFFFFFFFFFFFFFFFFFFFFFFFFFFFFFFFFFFFF AND PUSH3 0x1367 PUSH3 0x903 JUMP JUMPDEST PUSH20 0xFFFFFFFFFFFFFFFFFFFFFFFFFFFFFFFFFFFFFFFF AND EQ PUSH3 0x13C0 JUMPI PUSH1 0x40 MLOAD PUSH32 0x8C379A000000000000000000000000000000000000000000000000000000000 DUP2 MSTORE PUSH1 0x4 ADD PUSH3 0x13B7 SWAP1 PUSH3 0x1D82 JUMP JUMPDEST PUSH1 0x40 MLOAD DUP1 SWAP2 SUB SWAP1 REVERT JUMPDEST JUMP JUMPDEST PUSH1 0x0 DUP1 PUSH1 0x0 SWAP1 SLOAD SWAP1 PUSH2 0x100 EXP SWAP1 DIV PUSH20 0xFFFFFFFFFFFFFFFFFFFFFFFFFFFFFFFFFFFFFFFF AND SWAP1 POP DUP2 PUSH1 0x0 DUP1 PUSH2 0x100 EXP DUP2 SLOAD DUP2 PUSH20 0xFFFFFFFFFFFFFFFFFFFFFFFFFFFFFFFFFFFFFFFF MUL NOT AND SWAP1 DUP4 PUSH20 0xFFFFFFFFFFFFFFFFFFFFFFFFFFFFFFFFFFFFFFFF AND MUL OR SWAP1 SSTORE POP DUP2 PUSH20 0xFFFFFFFFFFFFFFFFFFFFFFFFFFFFFFFFFFFFFFFF AND DUP2 PUSH20 0xFFFFFFFFFFFFFFFFFFFFFFFFFFFFFFFFFFFFFFFF AND PUSH32 0x8BE0079C531659141344CD1FD0A4F28419497F9722A3DAAFE3B4186F6B6457E0 PUSH1 0x40 MLOAD PUSH1 0x40 MLOAD DUP1 SWAP2 SUB SWAP1 LOG3 POP POP JUMP JUMPDEST PUSH1 0x2 PUSH1 0x1 SLOAD SUB PUSH3 0x14CE JUMPI PUSH1 0x40 MLOAD PUSH32 0x8C379A000000000000000000000000000000000000000000000000000000000 DUP2 MSTORE PUSH1 0x4 ADD PUSH3 0x14C5 SWAP1 PUSH3 0x1DF4 JUMP JUMPDEST PUSH1 0x40 MLOAD DUP1 SWAP2 SUB SWAP1 REVERT JUMPDEST PUSH1 0x2 PUSH1 0x1 DUP2 SWAP1 SSTORE POP JUMP JUMPDEST PUSH1 0x1 DUP1 DUP2 SWAP1 SSTORE POP JUMP JUMPDEST PUSH1 0x1 DUP2 PUSH1 0x0 ADD PUSH1 0x0 DUP3 DUP3 SLOAD ADD SWAP3 POP POP DUP2 SWAP1 SSTORE POP POP JUMP JUMPDEST PUSH1 0x0 CALLER SWAP1 POP SWAP1 JUMP JUMPDEST PUSH2 0x314B DUP1 PUSH3 0x1E17 DUP4 CODECOPY ADD SWAP1 JUMP JUMPDEST PUSH1 0x0 DUP1 REVERT JUMPDEST PUSH1 0x0 DUP2 SWAP1 POP SWAP2 SWAP1 POP JUMP JUMPDEST PUSH3 0x1527 DUP2 PUSH3 0x1512 JUMP JUMPDEST DUP2 EQ PUSH3 0x1533 JUMPI PUSH1 0x0 DUP1 REVERT JUMPDEST POP JUMP JUMPDEST PUSH1 0x0 DUP2 CALLDATALOAD SWAP1 POP PUSH3 0x1547 DUP2 PUSH3 0x151C JUMP JUMPDEST SWAP3 SWAP2 POP POP JUMP JUMPDEST PUSH1 0x0 PUSH1 0x20 DUP3 DUP5 SUB SLT ISZERO PUSH3 0x1566 JUMPI PUSH3 0x1565 PUSH3 0x150D JUMP JUMPDEST JUMPDEST PUSH1 0x0 PUSH3 0x1576 DUP5 DUP3 DUP6 ADD PUSH3 0x1536 JUMP JUMPDEST SWAP2 POP POP SWAP3 SWAP2 POP POP JUMP JUMPDEST PUSH1 0x0 PUSH20 0xFFFFFFFFFFFFFFFFFFFFFFFFFFFFFFFFFFFFFFFF DUP3 AND SWAP1 POP SWAP2 SWAP1 POP JUMP JUMPDEST PUSH1 0x0 PUSH3 0x15AC DUP3 PUSH3 0x157F JUMP JUMPDEST SWAP1 POP SWAP2 SWAP1 POP JUMP JUMPDEST PUSH3 0x15BE DUP2 PUSH3 0x159F JUMP JUMPDEST DUP3 MSTORE POP POP JUMP JUMPDEST PUSH1 0x0 DUP2 ISZERO ISZERO SWAP1 POP SWAP2 SWAP1 POP JUMP JUMPDEST PUSH3 0x15DB DUP2 PUSH3 0x15C4 JUMP JUMPDEST DUP3 MSTORE POP POP JUMP JUMPDEST PUSH3 0x15EC DUP2 PUSH3 0x1512 JUMP JUMPDEST DUP3 MSTORE POP POP JUMP JUMPDEST PUSH1 0x0 PUSH1 0xA0 DUP3 ADD SWAP1 POP PUSH3 0x1609 PUSH1 0x0 DUP4 ADD DUP9 PUSH3 0x15B3 JUMP JUMPDEST PUSH3 0x1618 PUSH1 0x20 DUP4 ADD DUP8 PUSH3 0x15D0 JUMP JUMPDEST PUSH3 0x1627 PUSH1 0x40 DUP4 ADD DUP7 PUSH3 0x15E1 JUMP JUMPDEST PUSH3 0x1636 PUSH1 0x60 DUP4 ADD DUP6 PUSH3 0x15E1 JUMP JUMPDEST PUSH3 0x1645 PUSH1 0x80 DUP4 ADD DUP5 PUSH3 0x15B3 JUMP JUMPDEST SWAP7 SWAP6 POP POP POP POP POP POP JUMP JUMPDEST PUSH1 0x0 DUP2 MLOAD SWAP1 POP SWAP2 SWAP1 POP JUMP JUMPDEST PUSH1 0x0 DUP3 DUP3 MSTORE PUSH1 0x20 DUP3 ADD SWAP1 POP SWAP3 SWAP2 POP POP JUMP JUMPDEST PUSH1 0x0 DUP2 SWAP1 POP PUSH1 0x20 DUP3 ADD SWAP1 POP SWAP2 SWAP1 POP JUMP JUMPDEST PUSH3 0x1686 DUP2 PUSH3 0x159F JUMP JUMPDEST DUP3 MSTORE POP POP JUMP JUMPDEST PUSH1 0x0 PUSH3 0x169A DUP4 DUP4 PUSH3 0x167B JUMP JUMPDEST PUSH1 0x20 DUP4 ADD SWAP1 POP SWAP3 SWAP2 POP POP JUMP JUMPDEST PUSH1 0x0 PUSH1 0x20 DUP3 ADD SWAP1 POP SWAP2 SWAP1 POP JUMP JUMPDEST PUSH1 0x0 PUSH3 0x16C0 DUP3 PUSH3 0x164F JUMP JUMPDEST PUSH3 0x16CC DUP2 DUP6 PUSH3 0x165A JUMP JUMPDEST SWAP4 POP PUSH3 0x16D9 DUP4 PUSH3 0x166B JUMP JUMPDEST DUP1 PUSH1 0x0 JUMPDEST DUP4 DUP2 LT ISZERO PUSH3 0x1710 JUMPI DUP2 MLOAD PUSH3 0x16F4 DUP9 DUP3 PUSH3 0x168C JUMP JUMPDEST SWAP8 POP PUSH3 0x1701 DUP4 PUSH3 0x16A6 JUMP JUMPDEST SWAP3 POP POP PUSH1 0x1 DUP2 ADD SWAP1 POP PUSH3 0x16DD JUMP JUMPDEST POP DUP6 SWAP4 POP POP POP POP SWAP3 SWAP2 POP POP JUMP JUMPDEST PUSH1 0x0 DUP2 MLOAD SWAP1 POP SWAP2 SWAP1 POP JUMP JUMPDEST PUSH1 0x0 DUP3 DUP3 MSTORE PUSH1 0x20 DUP3 ADD SWAP1 POP SWAP3 SWAP2 POP POP JUMP JUMPDEST PUSH1 0x0 DUP2 SWAP1 POP PUSH1 0x20 DUP3 ADD SWAP1 POP SWAP2 SWAP1 POP JUMP JUMPDEST PUSH3 0x1754 DUP2 PUSH3 0x15C4 JUMP JUMPDEST DUP3 MSTORE POP POP JUMP JUMPDEST PUSH1 0x0 PUSH3 0x1768 DUP4 DUP4 PUSH3 0x1749 JUMP JUMPDEST PUSH1 0x20 DUP4 ADD SWAP1 POP SWAP3 SWAP2 POP POP JUMP JUMPDEST PUSH1 0x0 PUSH1 0x20 DUP3 ADD SWAP1 POP SWAP2 SWAP1 POP JUMP JUMPDEST PUSH1 0x0 PUSH3 0x178E DUP3 PUSH3 0x171D JUMP JUMPDEST PUSH3 0x179A DUP2 DUP6 PUSH3 0x1728 JUMP JUMPDEST SWAP4 POP PUSH3 0x17A7 DUP4 PUSH3 0x1739 JUMP JUMPDEST DUP1 PUSH1 0x0 JUMPDEST DUP4 DUP2 LT ISZERO PUSH3 0x17DE JUMPI DUP2 MLOAD PUSH3 0x17C2 DUP9 DUP3 PUSH3 0x175A JUMP JUMPDEST SWAP8 POP PUSH3 0x17CF DUP4 PUSH3 0x1774 JUMP JUMPDEST SWAP3 POP POP PUSH1 0x1 DUP2 ADD SWAP1 POP PUSH3 0x17AB JUMP JUMPDEST POP DUP6 SWAP4 POP POP POP POP SWAP3 SWAP2 POP POP JUMP JUMPDEST PUSH1 0x0 PUSH1 0x40 DUP3 ADD SWAP1 POP DUP2 DUP2 SUB PUSH1 0x0 DUP4 ADD MSTORE PUSH3 0x1807 DUP2 DUP6 PUSH3 0x16B3 JUMP JUMPDEST SWAP1 POP DUP2 DUP2 SUB PUSH1 0x20 DUP4 ADD MSTORE PUSH3 0x181D DUP2 DUP5 PUSH3 0x1781 JUMP JUMPDEST SWAP1 POP SWAP4 SWAP3 POP POP POP JUMP JUMPDEST PUSH3 0x1831 DUP2 PUSH3 0x159F JUMP JUMPDEST DUP2 EQ PUSH3 0x183D JUMPI PUSH1 0x0 DUP1 REVERT JUMPDEST POP JUMP JUMPDEST PUSH1 0x0 DUP2 CALLDATALOAD SWAP1 POP PUSH3 0x1851 DUP2 PUSH3 0x1826 JUMP JUMPDEST SWAP3 SWAP2 POP POP JUMP JUMPDEST PUSH1 0x0 PUSH1 0x20 DUP3 DUP5 SUB SLT ISZERO PUSH3 0x1870 JUMPI PUSH3 0x186F PUSH3 0x150D JUMP JUMPDEST JUMPDEST PUSH1 0x0 PUSH3 0x1880 DUP5 DUP3 DUP6 ADD PUSH3 0x1840 JUMP JUMPDEST SWAP2 POP POP SWAP3 SWAP2 POP POP JUMP JUMPDEST PUSH1 0x0 PUSH1 0x20 DUP3 ADD SWAP1 POP PUSH3 0x18A0 PUSH1 0x0 DUP4 ADD DUP5 PUSH3 0x15E1 JUMP JUMPDEST SWAP3 SWAP2 POP POP JUMP JUMPDEST PUSH1 0x0 PUSH1 0x20 DUP3 ADD SWAP1 POP PUSH3 0x18BD PUSH1 0x0 DUP4 ADD DUP5 PUSH3 0x15B3 JUMP JUMPDEST SWAP3 SWAP2 POP POP JUMP JUMPDEST PUSH1 0x0 PUSH1 0x20 DUP3 ADD SWAP1 POP PUSH3 0x18DA PUSH1 0x0 DUP4 ADD DUP5 PUSH3 0x15D0 JUMP JUMPDEST SWAP3 SWAP2 POP POP JUMP JUMPDEST PUSH1 0x0 PUSH1 0x20 DUP3 ADD SWAP1 POP DUP2 DUP2 SUB PUSH1 0x0 DUP4 ADD MSTORE PUSH3 0x18FC DUP2 DUP5 PUSH3 0x16B3 JUMP JUMPDEST SWAP1 POP SWAP3 SWAP2 POP POP JUMP JUMPDEST PUSH32 0x4E487B7100000000000000000000000000000000000000000000000000000000 PUSH1 0x0 MSTORE PUSH1 0x41 PUSH1 0x4 MSTORE PUSH1 0x24 PUSH1 0x0 REVERT JUMPDEST PUSH32 0x4E487B7100000000000000000000000000000000000000000000000000000000 PUSH1 0x0 MSTORE PUSH1 0x32 PUSH1 0x4 MSTORE PUSH1 0x24 PUSH1 0x0 REVERT JUMPDEST PUSH3 0x196D DUP2 PUSH3 0x15C4 JUMP JUMPDEST DUP2 EQ PUSH3 0x1979 JUMPI PUSH1 0x0 DUP1 REVERT JUMPDEST POP JUMP JUMPDEST PUSH1 0x0 DUP2 MLOAD SWAP1 POP PUSH3 0x198D DUP2 PUSH3 0x1962 JUMP JUMPDEST SWAP3 SWAP2 POP POP JUMP JUMPDEST PUSH1 0x0 PUSH1 0x20 DUP3 DUP5 SUB SLT ISZERO PUSH3 0x19AC JUMPI PUSH3 0x19AB PUSH3 0x150D JUMP JUMPDEST JUMPDEST PUSH1 0x0 PUSH3 0x19BC DUP5 DUP3 DUP6 ADD PUSH3 0x197C JUMP JUMPDEST SWAP2 POP POP SWAP3 SWAP2 POP POP JUMP JUMPDEST PUSH1 0x0 DUP3 DUP3 MSTORE PUSH1 0x20 DUP3 ADD SWAP1 POP SWAP3 SWAP2 POP POP JUMP JUMPDEST PUSH32 0x496E76616C69642063616D706169676E20494400000000000000000000000000 PUSH1 0x0 DUP3 ADD MSTORE POP JUMP JUMPDEST PUSH1 0x0 PUSH3 0x1A0E PUSH1 0x13 DUP4 PUSH3 0x19C5 JUMP JUMPDEST SWAP2 POP PUSH3 0x1A1B DUP3 PUSH3 0x19D6 JUMP JUMPDEST PUSH1 0x20 DUP3 ADD SWAP1 POP SWAP2 SWAP1 POP JUMP JUMPDEST PUSH1 0x0 PUSH1 0x20 DUP3 ADD SWAP1 POP DUP2 DUP2 SUB PUSH1 0x0 DUP4 ADD MSTORE PUSH3 0x1A41 DUP2 PUSH3 0x19FF JUMP JUMPDEST SWAP1 POP SWAP2 SWAP1 POP JUMP JUMPDEST PUSH32 0x43616D706169676E20616C726561647920696E61637469766500000000000000 PUSH1 0x0 DUP3 ADD MSTORE POP JUMP JUMPDEST PUSH1 0x0 PUSH3 0x1A80 PUSH1 0x19 DUP4 PUSH3 0x19C5 JUMP JUMPDEST SWAP2 POP PUSH3 0x1A8D DUP3 PUSH3 0x1A48 JUMP JUMPDEST PUSH1 0x20 DUP3 ADD SWAP1 POP SWAP2 SWAP1 POP JUMP JUMPDEST PUSH1 0x0 PUSH1 0x20 DUP3 ADD SWAP1 POP DUP2 DUP2 SUB PUSH1 0x0 DUP4 ADD MSTORE PUSH3 0x1AB3 DUP2 PUSH3 0x1A71 JUMP JUMPDEST SWAP1 POP SWAP2 SWAP1 POP JUMP JUMPDEST PUSH32 0x4D696E696D756D20636F6E747269627574696F6E206D75737420626520677265 PUSH1 0x0 DUP3 ADD MSTORE PUSH32 0x61746572207468616E2030000000000000000000000000000000000000000000 PUSH1 0x20 DUP3 ADD MSTORE POP JUMP JUMPDEST PUSH1 0x0 PUSH3 0x1B18 PUSH1 0x2B DUP4 PUSH3 0x19C5 JUMP JUMPDEST SWAP2 POP PUSH3 0x1B25 DUP3 PUSH3 0x1ABA JUMP JUMPDEST PUSH1 0x40 DUP3 ADD SWAP1 POP SWAP2 SWAP1 POP JUMP JUMPDEST PUSH1 0x0 PUSH1 0x20 DUP3 ADD SWAP1 POP DUP2 DUP2 SUB PUSH1 0x0 DUP4 ADD MSTORE PUSH3 0x1B4B DUP2 PUSH3 0x1B09 JUMP JUMPDEST SWAP1 POP SWAP2 SWAP1 POP JUMP JUMPDEST PUSH1 0x0 PUSH1 0x40 DUP3 ADD SWAP1 POP PUSH3 0x1B69 PUSH1 0x0 DUP4 ADD DUP6 PUSH3 0x15E1 JUMP JUMPDEST PUSH3 0x1B78 PUSH1 0x20 DUP4 ADD DUP5 PUSH3 0x15B3 JUMP JUMPDEST SWAP4 SWAP3 POP POP POP JUMP JUMPDEST PUSH32 0x43616D706169676E206372656174696F6E206661696C65640000000000000000 PUSH1 0x0 DUP3 ADD MSTORE POP JUMP JUMPDEST PUSH1 0x0 PUSH3 0x1BB7 PUSH1 0x18 DUP4 PUSH3 0x19C5 JUMP JUMPDEST SWAP2 POP PUSH3 0x1BC4 DUP3 PUSH3 0x1B7F JUMP JUMPDEST PUSH1 0x20 DUP3 ADD SWAP1 POP SWAP2 SWAP1 POP JUMP JUMPDEST PUSH1 0x0 PUSH1 0x20 DUP3 ADD SWAP1 POP DUP2 DUP2 SUB PUSH1 0x0 DUP4 ADD MSTORE PUSH3 0x1BEA DUP2 PUSH3 0x1BA8 JUMP JUMPDEST SWAP1 POP SWAP2 SWAP1 POP JUMP JUMPDEST PUSH1 0x0 PUSH1 0x40 DUP3 ADD SWAP1 POP PUSH3 0x1C08 PUSH1 0x0 DUP4 ADD DUP6 PUSH3 0x15E1 JUMP JUMPDEST PUSH3 0x1C17 PUSH1 0x20 DUP4 ADD DUP5 PUSH3 0x15E1 JUMP JUMPDEST SWAP4 SWAP3 POP POP POP JUMP JUMPDEST PUSH32 0x4E487B7100000000000000000000000000000000000000000000000000000000 PUSH1 0x0 MSTORE PUSH1 0x11 PUSH1 0x4 MSTORE PUSH1 0x24 PUSH1 0x0 REVERT JUMPDEST PUSH1 0x0 PUSH3 0x1C5A DUP3 PUSH3 0x1512 JUMP JUMPDEST SWAP2 POP PUSH32 0xFFFFFFFFFFFFFFFFFFFFFFFFFFFFFFFFFFFFFFFFFFFFFFFFFFFFFFFFFFFFFFFF DUP3 SUB PUSH3 0x1C8F JUMPI PUSH3 0x1C8E PUSH3 0x1C1E JUMP JUMPDEST JUMPDEST PUSH1 0x1 DUP3 ADD SWAP1 POP SWAP2 SWAP1 POP JUMP JUMPDEST PUSH32 0x4F776E61626C653A206E6577206F776E657220697320746865207A65726F2061 PUSH1 0x0 DUP3 ADD MSTORE PUSH32 0x6464726573730000000000000000000000000000000000000000000000000000 PUSH1 0x20 DUP3 ADD MSTORE POP JUMP JUMPDEST PUSH1 0x0 PUSH3 0x1CF8 PUSH1 0x26 DUP4 PUSH3 0x19C5 JUMP JUMPDEST SWAP2 POP PUSH3 0x1D05 DUP3 PUSH3 0x1C9A JUMP JUMPDEST PUSH1 0x40 DUP3 ADD SWAP1 POP SWAP2 SWAP1 POP JUMP JUMPDEST PUSH1 0x0 PUSH1 0x20 DUP3 ADD SWAP1 POP DUP2 DUP2 SUB PUSH1 0x0 DUP4 ADD MSTORE PUSH3 0x1D2B DUP2 PUSH3 0x1CE9 JUMP JUMPDEST SWAP1 POP SWAP2 SWAP1 POP JUMP JUMPDEST PUSH32 0x4F776E61626C653A2063616C6C6572206973206E6F7420746865206F776E6572 PUSH1 0x0 DUP3 ADD MSTORE POP JUMP JUMPDEST PUSH1 0x0 PUSH3 0x1D6A PUSH1 0x20 DUP4 PUSH3 0x19C5 JUMP JUMPDEST SWAP2 POP PUSH3 0x1D77 DUP3 PUSH3 0x1D32 JUMP JUMPDEST PUSH1 0x20 DUP3 ADD SWAP1 POP SWAP2 SWAP1 POP JUMP JUMPDEST PUSH1 0x0 PUSH1 0x20 DUP3 ADD SWAP1 POP DUP2 DUP2 SUB PUSH1 0x0 DUP4 ADD MSTORE PUSH3 0x1D9D DUP2 PUSH3 0x1D5B JUMP JUMPDEST SWAP1 POP SWAP2 SWAP1 POP JUMP JUMPDEST PUSH32 0x5265656E7472616E637947756172643A207265656E7472616E742063616C6C00 PUSH1 0x0 DUP3 ADD MSTORE POP JUMP JUMPDEST PUSH1 0x0 PUSH3 0x1DDC PUSH1 0x1F DUP4 PUSH3 0x19C5 JUMP JUMPDEST SWAP2 POP PUSH3 0x1DE9 DUP3 PUSH3 0x1DA4 JUMP JUMPDEST PUSH1 0x20 DUP3 ADD SWAP1 POP SWAP2 SWAP1 POP JUMP JUMPDEST PUSH1 0x0 PUSH1 0x20 DUP3 ADD SWAP1 POP DUP2 DUP2 SUB PUSH1 0x0 DUP4 ADD MSTORE PUSH3 0x1E0F DUP2 PUSH3 0x1DCD JUMP JUMPDEST SWAP1 POP SWAP2 SWAP1 POP JUMP INVALID PUSH1 0xC0 PUSH1 0x40 MSTORE CALLVALUE DUP1 ISZERO PUSH3 0x11 JUMPI PUSH1 0x0 DUP1 REVERT JUMPDEST POP PUSH1 0x40 MLOAD PUSH3 0x314B CODESIZE SUB DUP1 PUSH3 0x314B DUP4 CODECOPY DUP2 DUP2 ADD PUSH1 0x40 MSTORE DUP2 ADD SWAP1 PUSH3 0x37 SWAP2 SWAP1 PUSH3 0x227 JUMP JUMPDEST PUSH1 0x1 PUSH1 0x0 DUP2 SWAP1 SSTORE POP PUSH3 0x5F PUSH3 0x53 PUSH3 0xB4 PUSH1 0x20 SHL PUSH1 0x20 SHR JUMP JUMPDEST PUSH3 0xBC PUSH1 0x20 SHL PUSH1 0x20 SHR JUMP JUMPDEST PUSH3 0x70 CALLER PUSH3 0xBC PUSH1 0x20 SHL PUSH1 0x20 SHR JUMP JUMPDEST DUP1 PUSH20 0xFFFFFFFFFFFFFFFFFFFFFFFFFFFFFFFFFFFFFFFF AND PUSH1 0x80 DUP2 PUSH20 0xFFFFFFFFFFFFFFFFFFFFFFFFFFFFFFFFFFFFFFFF AND DUP2 MSTORE POP POP DUP2 PUSH1 0xA0 DUP2 DUP2 MSTORE POP POP POP POP PUSH3 0x26E JUMP JUMPDEST PUSH1 0x0 CALLER SWAP1 POP SWAP1 JUMP JUMPDEST PUSH1 0x0 PUSH1 0x1 PUSH1 0x0 SWAP1 SLOAD SWAP1 PUSH2 0x100 EXP SWAP1 DIV PUSH20 0xFFFFFFFFFFFFFFFFFFFFFFFFFFFFFFFFFFFFFFFF AND SWAP1 POP DUP2 PUSH1 0x1 PUSH1 0x0 PUSH2 0x100 EXP DUP2 SLOAD DUP2 PUSH20 0xFFFFFFFFFFFFFFFFFFFFFFFFFFFFFFFFFFFFFFFF MUL NOT AND SWAP1 DUP4 PUSH20 0xFFFFFFFFFFFFFFFFFFFFFFFFFFFFFFFFFFFFFFFF AND MUL OR SWAP1 SSTORE POP DUP2 PUSH20 0xFFFFFFFFFFFFFFFFFFFFFFFFFFFFFFFFFFFFFFFF AND DUP2 PUSH20 0xFFFFFFFFFFFFFFFFFFFFFFFFFFFFFFFFFFFFFFFF AND PUSH32 0x8BE0079C531659141344CD1FD0A4F28419497F9722A3DAAFE3B4186F6B6457E0 PUSH1 0x40 MLOAD PUSH1 0x40 MLOAD DUP1 SWAP2 SUB SWAP1 LOG3 POP POP JUMP JUMPDEST PUSH1 0x0 DUP1 REVERT JUMPDEST PUSH1 0x0 DUP2 SWAP1 POP SWAP2 SWAP1 POP JUMP JUMPDEST PUSH3 0x19C DUP2 PUSH3 0x187 JUMP JUMPDEST DUP2 EQ PUSH3 0x1A8 JUMPI PUSH1 0x0 DUP1 REVERT JUMPDEST POP JUMP JUMPDEST PUSH1 0x0 DUP2 MLOAD SWAP1 POP PUSH3 0x1BC DUP2 PUSH3 0x191 JUMP JUMPDEST SWAP3 SWAP2 POP POP JUMP JUMPDEST PUSH1 0x0 PUSH20 0xFFFFFFFFFFFFFFFFFFFFFFFFFFFFFFFFFFFFFFFF DUP3 AND SWAP1 POP SWAP2 SWAP1 POP JUMP JUMPDEST PUSH1 0x0 PUSH3 0x1EF DUP3 PUSH3 0x1C2 JUMP JUMPDEST SWAP1 POP SWAP2 SWAP1 POP JUMP JUMPDEST PUSH3 0x201 DUP2 PUSH3 0x1E2 JUMP JUMPDEST DUP2 EQ PUSH3 0x20D JUMPI PUSH1 0x0 DUP1 REVERT JUMPDEST POP JUMP JUMPDEST PUSH1 0x0 DUP2 MLOAD SWAP1 POP PUSH3 0x221 DUP2 PUSH3 0x1F6 JUMP JUMPDEST SWAP3 SWAP2 POP POP JUMP JUMPDEST PUSH1 0x0 DUP1 PUSH1 0x40 DUP4 DUP6 SUB SLT ISZERO PUSH3 0x241 JUMPI PUSH3 0x240 PUSH3 0x182 JUMP JUMPDEST JUMPDEST PUSH1 0x0 PUSH3 0x251 DUP6 DUP3 DUP7 ADD PUSH3 0x1AB JUMP JUMPDEST SWAP3 POP POP PUSH1 0x20 PUSH3 0x264 DUP6 DUP3 DUP7 ADD PUSH3 0x210 JUMP JUMPDEST SWAP2 POP POP SWAP3 POP SWAP3 SWAP1 POP JUMP JUMPDEST PUSH1 0x80 MLOAD PUSH1 0xA0 MLOAD PUSH2 0x2E94 PUSH3 0x2B7 PUSH1 0x0 CODECOPY PUSH1 0x0 DUP2 DUP2 PUSH2 0x553 ADD MSTORE DUP2 DUP2 PUSH2 0xF93 ADD MSTORE PUSH2 0x13DB ADD MSTORE PUSH1 0x0 DUP2 DUP2 PUSH2 0x6F9 ADD MSTORE DUP2 DUP2 PUSH2 0x78F ADD MSTORE DUP2 DUP2 PUSH2 0x1478 ADD MSTORE PUSH2 0x1538 ADD MSTORE PUSH2 0x2E94 PUSH1 0x0 RETURN INVALID PUSH1 0x80 PUSH1 0x40 MSTORE PUSH1 0x4 CALLDATASIZE LT PUSH2 0x143 JUMPI PUSH1 0x0 CALLDATALOAD PUSH1 0xE0 SHR DUP1 PUSH4 0x8DA5CB5B GT PUSH2 0xB6 JUMPI DUP1 PUSH4 0xD7BB99BA GT PUSH2 0x6F JUMPI DUP1 PUSH4 0xD7BB99BA EQ PUSH2 0x41C JUMPI DUP1 PUSH4 0xD7D1BBDB EQ PUSH2 0x426 JUMPI DUP1 PUSH4 0xDFF748E6 EQ PUSH2 0x44F JUMPI DUP1 PUSH4 0xEB8BBD28 EQ PUSH2 0x47A JUMPI DUP1 PUSH4 0xF2FDE38B EQ PUSH2 0x4A5 JUMPI DUP1 PUSH4 0xFEED5561 EQ PUSH2 0x4CE JUMPI PUSH2 0x152 JUMP JUMPDEST DUP1 PUSH4 0x8DA5CB5B EQ PUSH2 0x32E JUMPI DUP1 PUSH4 0x937E09B1 EQ PUSH2 0x359 JUMPI DUP1 PUSH4 0x95EE1221 EQ PUSH2 0x384 JUMPI DUP1 PUSH4 0x968ED600 EQ PUSH2 0x3AF JUMPI DUP1 PUSH4 0x980E7844 EQ PUSH2 0x3DA JUMPI DUP1 PUSH4 0xC45A0155 EQ PUSH2 0x3F1 JUMPI PUSH2 0x152 JUMP JUMPDEST DUP1 PUSH4 0x4051DDAC GT PUSH2 0x108 JUMPI DUP1 PUSH4 0x4051DDAC EQ PUSH2 0x214 JUMPI DUP1 PUSH4 0x42E94C90 EQ PUSH2 0x243 JUMPI DUP1 PUSH4 0x5D6E297F EQ PUSH2 0x280 JUMPI DUP1 PUSH4 0x715018A6 EQ PUSH2 0x2AB JUMPI DUP1 PUSH4 0x81D12C58 EQ PUSH2 0x2C2 JUMPI DUP1 PUSH4 0x8A9CFD55 EQ PUSH2 0x305 JUMPI PUSH2 0x152 JUMP JUMPDEST DUP1 PUSH3 0x4F3E86 EQ PUSH2 0x157 JUMPI DUP1 PUSH4 0x3441006 EQ PUSH2 0x16E JUMPI DUP1 PUSH4 0x2D7788DB EQ PUSH2 0x197 JUMPI DUP1 PUSH4 0x3015394C EQ PUSH2 0x1C0 JUMPI DUP1 PUSH4 0x3410452A EQ PUSH2 0x1E9 JUMPI PUSH2 0x152 JUMP JUMPDEST CALLDATASIZE PUSH2 0x152 JUMPI PUSH2 0x150 PUSH2 0x4F9 JUMP JUMPDEST STOP JUMPDEST PUSH1 0x0 DUP1 REVERT JUMPDEST CALLVALUE DUP1 ISZERO PUSH2 0x163 JUMPI PUSH1 0x0 DUP1 REVERT JUMPDEST POP PUSH2 0x16C PUSH2 0x6A7 JUMP JUMPDEST STOP JUMPDEST CALLVALUE DUP1 ISZERO PUSH2 0x17A JUMPI PUSH1 0x0 DUP1 REVERT JUMPDEST POP PUSH2 0x195 PUSH1 0x4 DUP1 CALLDATASIZE SUB DUP2 ADD SWAP1 PUSH2 0x190 SWAP2 SWAP1 PUSH2 0x1AFF JUMP JUMPDEST PUSH2 0x84D JUMP JUMPDEST STOP JUMPDEST CALLVALUE DUP1 ISZERO PUSH2 0x1A3 JUMPI PUSH1 0x0 DUP1 REVERT JUMPDEST POP PUSH2 0x1BE PUSH1 0x4 DUP1 CALLDATASIZE SUB DUP2 ADD SWAP1 PUSH2 0x1B9 SWAP2 SWAP1 PUSH2 0x1AFF JUMP JUMPDEST PUSH2 0xB42 JUMP JUMPDEST STOP JUMPDEST CALLVALUE DUP1 ISZERO PUSH2 0x1CC JUMPI PUSH1 0x0 DUP1 REVERT JUMPDEST POP PUSH2 0x1E7 PUSH1 0x4 DUP1 CALLDATASIZE SUB DUP2 ADD SWAP1 PUSH2 0x1E2 SWAP2 SWAP1 PUSH2 0x1AFF JUMP JUMPDEST PUSH2 0xE0D JUMP JUMPDEST STOP JUMPDEST CALLVALUE DUP1 ISZERO PUSH2 0x1F5 JUMPI PUSH1 0x0 DUP1 REVERT JUMPDEST POP PUSH2 0x1FE PUSH2 0xF78 JUMP JUMPDEST PUSH1 0x40 MLOAD PUSH2 0x20B SWAP2 SWAP1 PUSH2 0x1B3B JUMP JUMPDEST PUSH1 0x40 MLOAD DUP1 SWAP2 SUB SWAP1 RETURN JUMPDEST CALLVALUE DUP1 ISZERO PUSH2 0x220 JUMPI PUSH1 0x0 DUP1 REVERT JUMPDEST POP PUSH2 0x229 PUSH2 0xF89 JUMP JUMPDEST PUSH1 0x40 MLOAD PUSH2 0x23A SWAP6 SWAP5 SWAP4 SWAP3 SWAP2 SWAP1 PUSH2 0x1B97 JUMP JUMPDEST PUSH1 0x40 MLOAD DUP1 SWAP2 SUB SWAP1 RETURN JUMPDEST CALLVALUE DUP1 ISZERO PUSH2 0x24F JUMPI PUSH1 0x0 DUP1 REVERT JUMPDEST POP PUSH2 0x26A PUSH1 0x4 DUP1 CALLDATASIZE SUB DUP2 ADD SWAP1 PUSH2 0x265 SWAP2 SWAP1 PUSH2 0x1C16 JUMP JUMPDEST PUSH2 0xFE0 JUMP JUMPDEST PUSH1 0x40 MLOAD PUSH2 0x277 SWAP2 SWAP1 PUSH2 0x1B3B JUMP JUMPDEST PUSH1 0x40 MLOAD DUP1 SWAP2 SUB SWAP1 RETURN JUMPDEST CALLVALUE DUP1 ISZERO PUSH2 0x28C JUMPI PUSH1 0x0 DUP1 REVERT JUMPDEST POP PUSH2 0x295 PUSH2 0xFF8 JUMP JUMPDEST PUSH1 0x40 MLOAD PUSH2 0x2A2 SWAP2 SWAP1 PUSH2 0x1B3B JUMP JUMPDEST PUSH1 0x40 MLOAD DUP1 SWAP2 SUB SWAP1 RETURN JUMPDEST CALLVALUE DUP1 ISZERO PUSH2 0x2B7 JUMPI PUSH1 0x0 DUP1 REVERT JUMPDEST POP PUSH2 0x2C0 PUSH2 0xFFE JUMP JUMPDEST STOP JUMPDEST CALLVALUE DUP1 ISZERO PUSH2 0x2CE JUMPI PUSH1 0x0 DUP1 REVERT JUMPDEST POP PUSH2 0x2E9 PUSH1 0x4 DUP1 CALLDATASIZE SUB DUP2 ADD SWAP1 PUSH2 0x2E4 SWAP2 SWAP1 PUSH2 0x1AFF JUMP JUMPDEST PUSH2 0x1012 JUMP JUMPDEST PUSH1 0x40 MLOAD PUSH2 0x2FC SWAP8 SWAP7 SWAP6 SWAP5 SWAP4 SWAP3 SWAP2 SWAP1 PUSH2 0x1D0F JUMP JUMPDEST PUSH1 0x40 MLOAD DUP1 SWAP2 SUB SWAP1 RETURN JUMPDEST CALLVALUE DUP1 ISZERO PUSH2 0x311 JUMPI PUSH1 0x0 DUP1 REVERT JUMPDEST POP PUSH2 0x32C PUSH1 0x4 DUP1 CALLDATASIZE SUB DUP2 ADD SWAP1 PUSH2 0x327 SWAP2 SWAP1 PUSH2 0x1EE6 JUMP JUMPDEST PUSH2 0x1109 JUMP JUMPDEST STOP JUMPDEST CALLVALUE DUP1 ISZERO PUSH2 0x33A JUMPI PUSH1 0x0 DUP1 REVERT JUMPDEST POP PUSH2 0x343 PUSH2 0x13AF JUMP JUMPDEST PUSH1 0x40 MLOAD PUSH2 0x350 SWAP2 SWAP1 PUSH2 0x1F55 JUMP JUMPDEST PUSH1 0x40 MLOAD DUP1 SWAP2 SUB SWAP1 RETURN JUMPDEST CALLVALUE DUP1 ISZERO PUSH2 0x365 JUMPI PUSH1 0x0 DUP1 REVERT JUMPDEST POP PUSH2 0x36E PUSH2 0x13D9 JUMP JUMPDEST PUSH1 0x40 MLOAD PUSH2 0x37B SWAP2 SWAP1 PUSH2 0x1B3B JUMP JUMPDEST PUSH1 0x40 MLOAD DUP1 SWAP2 SUB SWAP1 RETURN JUMPDEST CALLVALUE DUP1 ISZERO PUSH2 0x390 JUMPI PUSH1 0x0 DUP1 REVERT JUMPDEST POP PUSH2 0x399 PUSH2 0x13FD JUMP JUMPDEST PUSH1 0x40 MLOAD PUSH2 0x3A6 SWAP2 SWAP1 PUSH2 0x1F70 JUMP JUMPDEST PUSH1 0x40 MLOAD DUP1 SWAP2 SUB SWAP1 RETURN JUMPDEST CALLVALUE DUP1 ISZERO PUSH2 0x3BB JUMPI PUSH1 0x0 DUP1 REVERT JUMPDEST POP PUSH2 0x3C4 PUSH2 0x1410 JUMP JUMPDEST PUSH1 0x40 MLOAD PUSH2 0x3D1 SWAP2 SWAP1 PUSH2 0x1B3B JUMP JUMPDEST PUSH1 0x40 MLOAD DUP1 SWAP2 SUB SWAP1 RETURN JUMPDEST CALLVALUE DUP1 ISZERO PUSH2 0x3E6 JUMPI PUSH1 0x0 DUP1 REVERT JUMPDEST POP PUSH2 0x3EF PUSH2 0x1416 JUMP JUMPDEST STOP JUMPDEST CALLVALUE DUP1 ISZERO PUSH2 0x3FD JUMPI PUSH1 0x0 DUP1 REVERT JUMPDEST POP PUSH2 0x406 PUSH2 0x1536 JUMP JUMPDEST PUSH1 0x40 MLOAD PUSH2 0x413 SWAP2 SWAP1 PUSH2 0x1F8B JUMP JUMPDEST PUSH1 0x40 MLOAD DUP1 SWAP2 SUB SWAP1 RETURN JUMPDEST PUSH2 0x424 PUSH2 0x4F9 JUMP JUMPDEST STOP JUMPDEST CALLVALUE DUP1 ISZERO PUSH2 0x432 JUMPI PUSH1 0x0 DUP1 REVERT JUMPDEST POP PUSH2 0x44D PUSH1 0x4 DUP1 CALLDATASIZE SUB DUP2 ADD SWAP1 PUSH2 0x448 SWAP2 SWAP1 PUSH2 0x1AFF JUMP JUMPDEST PUSH2 0x155A JUMP JUMPDEST STOP JUMPDEST CALLVALUE DUP1 ISZERO PUSH2 0x45B JUMPI PUSH1 0x0 DUP1 REVERT JUMPDEST POP PUSH2 0x464 PUSH2 0x1825 JUMP JUMPDEST PUSH1 0x40 MLOAD PUSH2 0x471 SWAP2 SWAP1 PUSH2 0x1B3B JUMP JUMPDEST PUSH1 0x40 MLOAD DUP1 SWAP2 SUB SWAP1 RETURN JUMPDEST CALLVALUE DUP1 ISZERO PUSH2 0x486 JUMPI PUSH1 0x0 DUP1 REVERT JUMPDEST POP PUSH2 0x48F PUSH2 0x182F JUMP JUMPDEST PUSH1 0x40 MLOAD PUSH2 0x49C SWAP2 SWAP1 PUSH2 0x1B3B JUMP JUMPDEST PUSH1 0x40 MLOAD DUP1 SWAP2 SUB SWAP1 RETURN JUMPDEST CALLVALUE DUP1 ISZERO PUSH2 0x4B1 JUMPI PUSH1 0x0 DUP1 REVERT JUMPDEST POP PUSH2 0x4CC PUSH1 0x4 DUP1 CALLDATASIZE SUB DUP2 ADD SWAP1 PUSH2 0x4C7 SWAP2 SWAP1 PUSH2 0x1C16 JUMP JUMPDEST PUSH2 0x1839 JUMP JUMPDEST STOP JUMPDEST CALLVALUE DUP1 ISZERO PUSH2 0x4DA JUMPI PUSH1 0x0 DUP1 REVERT JUMPDEST POP PUSH2 0x4E3 PUSH2 0x18BC JUMP JUMPDEST PUSH1 0x40 MLOAD PUSH2 0x4F0 SWAP2 SWAP1 PUSH2 0x1B3B JUMP JUMPDEST PUSH1 0x40 MLOAD DUP1 SWAP2 SUB SWAP1 RETURN JUMPDEST PUSH1 0x8 PUSH1 0x0 SWAP1 SLOAD SWAP1 PUSH2 0x100 EXP SWAP1 DIV PUSH1 0xFF AND ISZERO PUSH2 0x549 JUMPI PUSH1 0x40 MLOAD PUSH32 0x8C379A000000000000000000000000000000000000000000000000000000000 DUP2 MSTORE PUSH1 0x4 ADD PUSH2 0x540 SWAP1 PUSH2 0x1FF2 JUMP JUMPDEST PUSH1 0x40 MLOAD DUP1 SWAP2 SUB SWAP1 REVERT JUMPDEST PUSH2 0x551 PUSH2 0x18CD JUMP JUMPDEST PUSH32 0x0 CALLVALUE LT ISZERO PUSH2 0x5B4 JUMPI PUSH1 0x40 MLOAD PUSH32 0x8C379A000000000000000000000000000000000000000000000000000000000 DUP2 MSTORE PUSH1 0x4 ADD PUSH2 0x5AB SWAP1 PUSH2 0x2084 JUMP JUMPDEST PUSH1 0x40 MLOAD DUP1 SWAP2 SUB SWAP1 REVERT JUMPDEST PUSH1 0x0 PUSH1 0x2 PUSH1 0x0 CALLER PUSH20 0xFFFFFFFFFFFFFFFFFFFFFFFFFFFFFFFFFFFFFFFF AND PUSH20 0xFFFFFFFFFFFFFFFFFFFFFFFFFFFFFFFFFFFFFFFF AND DUP2 MSTORE PUSH1 0x20 ADD SWAP1 DUP2 MSTORE PUSH1 0x20 ADD PUSH1 0x0 KECCAK256 SLOAD SUB PUSH2 0x606 JUMPI PUSH2 0x605 PUSH1 0x3 PUSH2 0x191C JUMP JUMPDEST JUMPDEST CALLVALUE PUSH1 0x2 PUSH1 0x0 CALLER PUSH20 0xFFFFFFFFFFFFFFFFFFFFFFFFFFFFFFFFFFFFFFFF AND PUSH20 0xFFFFFFFFFFFFFFFFFFFFFFFFFFFFFFFFFFFFFFFF AND DUP2 MSTORE PUSH1 0x20 ADD SWAP1 DUP2 MSTORE PUSH1 0x20 ADD PUSH1 0x0 KECCAK256 PUSH1 0x0 DUP3 DUP3 SLOAD PUSH2 0x655 SWAP2 SWAP1 PUSH2 0x20D3 JUMP JUMPDEST SWAP3 POP POP DUP2 SWAP1 SSTORE POP PUSH2 0x664 PUSH2 0x1932 JUMP JUMPDEST PUSH32 0x6770260EA820D2F539364E7617E021543AAF6D192F2FD2A47C20DB6BD99A4EB9 CALLER CALLVALUE PUSH1 0x40 MLOAD PUSH2 0x695 SWAP3 SWAP2 SWAP1 PUSH2 0x2107 JUMP JUMPDEST PUSH1 0x40 MLOAD DUP1 SWAP2 SUB SWAP1 LOG1 PUSH2 0x6A5 PUSH2 0x1951 JUMP JUMPDEST JUMP JUMPDEST PUSH1 0x8 PUSH1 0x0 SWAP1 SLOAD SWAP1 PUSH2 0x100 EXP SWAP1 DIV PUSH1 0xFF AND ISZERO PUSH2 0x6F7 JUMPI PUSH1 0x40 MLOAD PUSH32 0x8C379A000000000000000000000000000000000000000000000000000000000 DUP2 MSTORE PUSH1 0x4 ADD PUSH2 0x6EE SWAP1 PUSH2 0x1FF2 JUMP JUMPDEST PUSH1 0x40 MLOAD DUP1 SWAP2 SUB SWAP1 REVERT JUMPDEST PUSH32 0x0 PUSH20 0xFFFFFFFFFFFFFFFFFFFFFFFFFFFFFFFFFFFFFFFF AND CALLER PUSH20 0xFFFFFFFFFFFFFFFFFFFFFFFFFFFFFFFFFFFFFFFF AND EQ PUSH2 0x785 JUMPI PUSH1 0x40 MLOAD PUSH32 0x8C379A000000000000000000000000000000000000000000000000000000000 DUP2 MSTORE PUSH1 0x4 ADD PUSH2 0x77C SWAP1 PUSH2 0x21A2 JUMP JUMPDEST PUSH1 0x40 MLOAD DUP1 SWAP2 SUB SWAP1 REVERT JUMPDEST PUSH2 0x78D PUSH2 0x18CD JUMP JUMPDEST PUSH32 0x0 PUSH20 0xFFFFFFFFFFFFFFFFFFFFFFFFFFFFFFFFFFFFFFFF AND PUSH2 0x8FC SELFBALANCE SWAP1 DUP2 ISZERO MUL SWAP1 PUSH1 0x40 MLOAD PUSH1 0x0 PUSH1 0x40 MLOAD DUP1 DUP4 SUB DUP2 DUP6 DUP9 DUP9 CALL SWAP4 POP POP POP POP ISZERO DUP1 ISZERO PUSH2 0x7F3 JUMPI RETURNDATASIZE PUSH1 0x0 DUP1 RETURNDATACOPY RETURNDATASIZE PUSH1 0x0 REVERT JUMPDEST POP PUSH1 0x1 PUSH1 0x8 PUSH1 0x0 PUSH2 0x100 EXP DUP2 SLOAD DUP2 PUSH1 0xFF MUL NOT AND SWAP1 DUP4 ISZERO ISZERO MUL OR SWAP1 SSTORE POP PUSH2 0x817 PUSH2 0x1932 JUMP JUMPDEST PUSH32 0x123D4F203B2B83BFE9F45903402BB88193CC56A43371D97AB5A51BD1817D8586 PUSH1 0x40 MLOAD PUSH1 0x40 MLOAD DUP1 SWAP2 SUB SWAP1 LOG1 PUSH2 0x84B PUSH2 0x1951 JUMP JUMPDEST JUMP JUMPDEST PUSH2 0x855 PUSH2 0x195B JUMP JUMPDEST PUSH2 0x85D PUSH2 0x18CD JUMP JUMPDEST PUSH2 0x867 PUSH1 0x5 PUSH2 0x19D9 JUMP JUMPDEST DUP2 LT PUSH2 0x8A8 JUMPI PUSH1 0x40 MLOAD PUSH32 0x8C379A000000000000000000000000000000000000000000000000000000000 DUP2 MSTORE PUSH1 0x4 ADD PUSH2 0x89F SWAP1 PUSH2 0x220E JUMP JUMPDEST PUSH1 0x40 MLOAD DUP1 SWAP2 SUB SWAP1 REVERT JUMPDEST PUSH1 0x0 PUSH1 0x4 PUSH1 0x0 DUP4 DUP2 MSTORE PUSH1 0x20 ADD SWAP1 DUP2 MSTORE PUSH1 0x20 ADD PUSH1 0x0 KECCAK256 SWAP1 POP DUP1 PUSH1 0x5 ADD SLOAD TIMESTAMP GT PUSH2 0x905 JUMPI PUSH1 0x40 MLOAD PUSH32 0x8C379A000000000000000000000000000000000000000000000000000000000 DUP2 MSTORE PUSH1 0x4 ADD PUSH2 0x8FC SWAP1 PUSH2 0x227A JUMP JUMPDEST PUSH1 0x40 MLOAD DUP1 SWAP2 SUB SWAP1 REVERT JUMPDEST DUP1 PUSH1 0x2 ADD PUSH1 0x14 SWAP1 SLOAD SWAP1 PUSH2 0x100 EXP SWAP1 DIV PUSH1 0xFF AND ISZERO PUSH2 0x957 JUMPI PUSH1 0x40 MLOAD PUSH32 0x8C379A000000000000000000000000000000000000000000000000000000000 DUP2 MSTORE PUSH1 0x4 ADD PUSH2 0x94E SWAP1 PUSH2 0x230C JUMP JUMPDEST PUSH1 0x40 MLOAD DUP1 SWAP2 SUB SWAP1 REVERT JUMPDEST PUSH1 0x0 DUP2 PUSH1 0x4 ADD SLOAD DUP3 PUSH1 0x3 ADD SLOAD PUSH2 0x96D SWAP2 SWAP1 PUSH2 0x20D3 JUMP JUMPDEST SWAP1 POP PUSH1 0x0 PUSH1 0x64 PUSH1 0x1E PUSH2 0x97F PUSH1 0x3 PUSH2 0x19D9 JUMP JUMPDEST PUSH2 0x989 SWAP2 SWAP1 PUSH2 0x232C JUMP JUMPDEST PUSH2 0x993 SWAP2 SWAP1 PUSH2 0x239D JUMP JUMPDEST SWAP1 POP DUP1 DUP3 LT ISZERO PUSH2 0x9D8 JUMPI PUSH1 0x40 MLOAD PUSH32 0x8C379A000000000000000000000000000000000000000000000000000000000 DUP2 MSTORE PUSH1 0x4 ADD PUSH2 0x9CF SWAP1 PUSH2 0x241A JUMP JUMPDEST PUSH1 0x40 MLOAD DUP1 SWAP2 SUB SWAP1 REVERT JUMPDEST DUP3 PUSH1 0x4 ADD SLOAD DUP4 PUSH1 0x3 ADD SLOAD GT PUSH2 0xA22 JUMPI PUSH1 0x40 MLOAD PUSH32 0x8C379A000000000000000000000000000000000000000000000000000000000 DUP2 MSTORE PUSH1 0x4 ADD PUSH2 0xA19 SWAP1 PUSH2 0x2486 JUMP JUMPDEST PUSH1 0x40 MLOAD DUP1 SWAP2 SUB SWAP1 REVERT JUMPDEST SELFBALANCE DUP4 PUSH1 0x1 ADD SLOAD GT ISZERO PUSH2 0xA69 JUMPI PUSH1 0x40 MLOAD PUSH32 0x8C379A000000000000000000000000000000000000000000000000000000000 DUP2 MSTORE PUSH1 0x4 ADD PUSH2 0xA60 SWAP1 PUSH2 0x24F2 JUMP JUMPDEST PUSH1 0x40 MLOAD DUP1 SWAP2 SUB SWAP1 REVERT JUMPDEST PUSH1 0x1 DUP4 PUSH1 0x2 ADD PUSH1 0x14 PUSH2 0x100 EXP DUP2 SLOAD DUP2 PUSH1 0xFF MUL NOT AND SWAP1 DUP4 ISZERO ISZERO MUL OR SWAP1 SSTORE POP DUP3 PUSH1 0x2 ADD PUSH1 0x0 SWAP1 SLOAD SWAP1 PUSH2 0x100 EXP SWAP1 DIV PUSH20 0xFFFFFFFFFFFFFFFFFFFFFFFFFFFFFFFFFFFFFFFF AND PUSH20 0xFFFFFFFFFFFFFFFFFFFFFFFFFFFFFFFFFFFFFFFF AND PUSH2 0x8FC DUP5 PUSH1 0x1 ADD SLOAD SWAP1 DUP2 ISZERO MUL SWAP1 PUSH1 0x40 MLOAD PUSH1 0x0 PUSH1 0x40 MLOAD DUP1 DUP4 SUB DUP2 DUP6 DUP9 DUP9 CALL SWAP4 POP POP POP POP ISZERO DUP1 ISZERO PUSH2 0xAF4 JUMPI RETURNDATASIZE PUSH1 0x0 DUP1 RETURNDATACOPY RETURNDATASIZE PUSH1 0x0 REVERT JUMPDEST POP PUSH2 0xAFD PUSH2 0x1932 JUMP JUMPDEST PUSH32 0x5F737E695A47D9DD61A69C097B680EB2D154FD3A73DDF8E06AE201447C593395 DUP5 PUSH1 0x40 MLOAD PUSH2 0xB2C SWAP2 SWAP1 PUSH2 0x1B3B JUMP JUMPDEST PUSH1 0x40 MLOAD DUP1 SWAP2 SUB SWAP1 LOG1 POP POP POP PUSH2 0xB3F PUSH2 0x1951 JUMP JUMPDEST POP JUMP JUMPDEST PUSH1 0x8 PUSH1 0x0 SWAP1 SLOAD SWAP1 PUSH2 0x100 EXP SWAP1 DIV PUSH1 0xFF AND ISZERO PUSH2 0xB92 JUMPI PUSH1 0x40 MLOAD PUSH32 0x8C379A000000000000000000000000000000000000000000000000000000000 DUP2 MSTORE PUSH1 0x4 ADD PUSH2 0xB89 SWAP1 PUSH2 0x1FF2 JUMP JUMPDEST PUSH1 0x40 MLOAD DUP1 SWAP2 SUB SWAP1 REVERT JUMPDEST PUSH2 0xB9A PUSH2 0x18CD JUMP JUMPDEST PUSH2 0xBA4 PUSH1 0x5 PUSH2 0x19D9 JUMP JUMPDEST DUP2 LT PUSH2 0xBE5 JUMPI PUSH1 0x40 MLOAD PUSH32 0x8C379A000000000000000000000000000000000000000000000000000000000 DUP2 MSTORE PUSH1 0x4 ADD PUSH2 0xBDC SWAP1 PUSH2 0x220E JUMP JUMPDEST PUSH1 0x40 MLOAD DUP1 SWAP2 SUB SWAP1 REVERT JUMPDEST PUSH1 0x0 PUSH1 0x2 PUSH1 0x0 CALLER PUSH20 0xFFFFFFFFFFFFFFFFFFFFFFFFFFFFFFFFFFFFFFFF AND PUSH20 0xFFFFFFFFFFFFFFFFFFFFFFFFFFFFFFFFFFFFFFFF AND DUP2 MSTORE PUSH1 0x20 ADD SWAP1 DUP2 MSTORE PUSH1 0x20 ADD PUSH1 0x0 KECCAK256 SLOAD GT PUSH2 0xC67 JUMPI PUSH1 0x40 MLOAD PUSH32 0x8C379A000000000000000000000000000000000000000000000000000000000 DUP2 MSTORE PUSH1 0x4 ADD PUSH2 0xC5E SWAP1 PUSH2 0x255E JUMP JUMPDEST PUSH1 0x40 MLOAD DUP1 SWAP2 SUB SWAP1 REVERT JUMPDEST PUSH1 0x0 PUSH1 0x4 PUSH1 0x0 DUP4 DUP2 MSTORE PUSH1 0x20 ADD SWAP1 DUP2 MSTORE PUSH1 0x20 ADD PUSH1 0x0 KECCAK256 SWAP1 POP DUP1 PUSH1 0x6 ADD PUSH1 0x0 CALLER PUSH20 0xFFFFFFFFFFFFFFFFFFFFFFFFFFFFFFFFFFFFFFFF AND PUSH20 0xFFFFFFFFFFFFFFFFFFFFFFFFFFFFFFFFFFFFFFFF AND DUP2 MSTORE PUSH1 0x20 ADD SWAP1 DUP2 MSTORE PUSH1 0x20 ADD PUSH1 0x0 KECCAK256 PUSH1 0x0 SWAP1 SLOAD SWAP1 PUSH2 0x100 EXP SWAP1 DIV PUSH1 0xFF AND ISZERO PUSH2 0xD0D JUMPI PUSH1 0x40 MLOAD PUSH32 0x8C379A000000000000000000000000000000000000000000000000000000000 DUP2 MSTORE PUSH1 0x4 ADD PUSH2 0xD04 SWAP1 PUSH2 0x25CA JUMP JUMPDEST PUSH1 0x40 MLOAD DUP1 SWAP2 SUB SWAP1 REVERT JUMPDEST DUP1 PUSH1 0x5 ADD SLOAD TIMESTAMP GT ISZERO PUSH2 0xD54 JUMPI PUSH1 0x40 MLOAD PUSH32 0x8C379A000000000000000000000000000000000000000000000000000000000 DUP2 MSTORE PUSH1 0x4 ADD PUSH2 0xD4B SWAP1 PUSH2 0x2636 JUMP JUMPDEST PUSH1 0x40 MLOAD DUP1 SWAP2 SUB SWAP1 REVERT JUMPDEST PUSH1 0x1 DUP2 PUSH1 0x6 ADD PUSH1 0x0 CALLER PUSH20 0xFFFFFFFFFFFFFFFFFFFFFFFFFFFFFFFFFFFFFFFF AND PUSH20 0xFFFFFFFFFFFFFFFFFFFFFFFFFFFFFFFFFFFFFFFF AND DUP2 MSTORE PUSH1 0x20 ADD SWAP1 DUP2 MSTORE PUSH1 0x20 ADD PUSH1 0x0 KECCAK256 PUSH1 0x0 PUSH2 0x100 EXP DUP2 SLOAD DUP2 PUSH1 0xFF MUL NOT AND SWAP1 DUP4 ISZERO ISZERO MUL OR SWAP1 SSTORE POP DUP1 PUSH1 0x4 ADD PUSH1 0x0 DUP2 SLOAD DUP1 SWAP3 SWAP2 SWAP1 PUSH2 0xDC3 SWAP1 PUSH2 0x2656 JUMP JUMPDEST SWAP2 SWAP1 POP SSTORE POP PUSH32 0x490AD67E4C8B3B9C1D11DFCD7F02E155190B8F6FEFF3A9D9E9DF3721F0F74E57 DUP3 CALLER PUSH1 0x40 MLOAD PUSH2 0xDF9 SWAP3 SWAP2 SWAP1 PUSH2 0x269E JUMP JUMPDEST PUSH1 0x40 MLOAD DUP1 SWAP2 SUB SWAP1 LOG1 POP PUSH2 0xE0A PUSH2 0x1951 JUMP JUMPDEST POP JUMP JUMPDEST PUSH2 0xE15 PUSH2 0x195B JUMP JUMPDEST PUSH2 0xE1D PUSH2 0x18CD JUMP JUMPDEST PUSH2 0xE27 PUSH1 0x5 PUSH2 0x19D9 JUMP JUMPDEST DUP2 LT PUSH2 0xE68 JUMPI PUSH1 0x40 MLOAD PUSH32 0x8C379A000000000000000000000000000000000000000000000000000000000 DUP2 MSTORE PUSH1 0x4 ADD PUSH2 0xE5F SWAP1 PUSH2 0x220E JUMP JUMPDEST PUSH1 0x40 MLOAD DUP1 SWAP2 SUB SWAP1 REVERT JUMPDEST PUSH1 0x0 PUSH1 0x4 PUSH1 0x0 DUP4 DUP2 MSTORE PUSH1 0x20 ADD SWAP1 DUP2 MSTORE PUSH1 0x20 ADD PUSH1 0x0 KECCAK256 SWAP1 POP DUP1 PUSH1 0x2 ADD PUSH1 0x14 SWAP1 SLOAD SWAP1 PUSH2 0x100 EXP SWAP1 DIV PUSH1 0xFF AND ISZERO PUSH2 0xED1 JUMPI PUSH1 0x40 MLOAD PUSH32 0x8C379A000000000000000000000000000000000000000000000000000000000 DUP2 MSTORE PUSH1 0x4 ADD PUSH2 0xEC8 SWAP1 PUSH2 0x230C JUMP JUMPDEST PUSH1 0x40 MLOAD DUP1 SWAP2 SUB SWAP1 REVERT JUMPDEST DUP1 PUSH1 0x5 ADD SLOAD TIMESTAMP GT ISZERO PUSH2 0xF18 JUMPI PUSH1 0x40 MLOAD PUSH32 0x8C379A000000000000000000000000000000000000000000000000000000000 DUP2 MSTORE PUSH1 0x4 ADD PUSH2 0xF0F SWAP1 PUSH2 0x2713 JUMP JUMPDEST PUSH1 0x40 MLOAD DUP1 SWAP2 SUB SWAP1 REVERT JUMPDEST PUSH1 0x1 DUP2 PUSH1 0x2 ADD PUSH1 0x14 PUSH2 0x100 EXP DUP2 SLOAD DUP2 PUSH1 0xFF MUL NOT AND SWAP1 DUP4 ISZERO ISZERO MUL OR SWAP1 SSTORE POP PUSH32 0xEE243F878B7FC2F54E934CA33783D4395D42BC07612E2BD4B8E0E178639F7A28 DUP3 PUSH1 0x40 MLOAD PUSH2 0xF64 SWAP2 SWAP1 PUSH2 0x1B3B JUMP JUMPDEST PUSH1 0x40 MLOAD DUP1 SWAP2 SUB SWAP1 LOG1 POP PUSH2 0xF75 PUSH2 0x1951 JUMP JUMPDEST POP JUMP JUMPDEST PUSH1 0x0 PUSH2 0xF84 PUSH1 0x5 PUSH2 0x19D9 JUMP JUMPDEST SWAP1 POP SWAP1 JUMP JUMPDEST PUSH1 0x0 DUP1 PUSH1 0x0 DUP1 PUSH1 0x0 PUSH32 0x0 SELFBALANCE PUSH2 0xFBD PUSH1 0x5 PUSH2 0x19D9 JUMP JUMPDEST PUSH2 0xFC7 PUSH1 0x3 PUSH2 0x19D9 JUMP JUMPDEST PUSH2 0xFCF PUSH2 0x13AF JUMP JUMPDEST SWAP5 POP SWAP5 POP SWAP5 POP SWAP5 POP SWAP5 POP SWAP1 SWAP2 SWAP3 SWAP4 SWAP5 JUMP JUMPDEST PUSH1 0x2 PUSH1 0x20 MSTORE DUP1 PUSH1 0x0 MSTORE PUSH1 0x40 PUSH1 0x0 KECCAK256 PUSH1 0x0 SWAP2 POP SWAP1 POP SLOAD DUP2 JUMP JUMPDEST PUSH1 0x7 SLOAD DUP2 JUMP JUMPDEST PUSH2 0x1006 PUSH2 0x195B JUMP JUMPDEST PUSH2 0x1010 PUSH1 0x0 PUSH2 0x19E7 JUMP JUMPDEST JUMP JUMPDEST PUSH1 0x4 PUSH1 0x20 MSTORE DUP1 PUSH1 0x0 MSTORE PUSH1 0x40 PUSH1 0x0 KECCAK256 PUSH1 0x0 SWAP2 POP SWAP1 POP DUP1 PUSH1 0x0 ADD DUP1 SLOAD PUSH2 0x1035 SWAP1 PUSH2 0x2762 JUMP JUMPDEST DUP1 PUSH1 0x1F ADD PUSH1 0x20 DUP1 SWAP2 DIV MUL PUSH1 0x20 ADD PUSH1 0x40 MLOAD SWAP1 DUP2 ADD PUSH1 0x40 MSTORE DUP1 SWAP3 SWAP2 SWAP1 DUP2 DUP2 MSTORE PUSH1 0x20 ADD DUP3 DUP1 SLOAD PUSH2 0x1061 SWAP1 PUSH2 0x2762 JUMP JUMPDEST DUP1 ISZERO PUSH2 0x10AE JUMPI DUP1 PUSH1 0x1F LT PUSH2 0x1083 JUMPI PUSH2 0x100 DUP1 DUP4 SLOAD DIV MUL DUP4 MSTORE SWAP2 PUSH1 0x20 ADD SWAP2 PUSH2 0x10AE JUMP JUMPDEST DUP3 ADD SWAP2 SWAP1 PUSH1 0x0 MSTORE PUSH1 0x20 PUSH1 0x0 KECCAK256 SWAP1 JUMPDEST DUP2 SLOAD DUP2 MSTORE SWAP1 PUSH1 0x1 ADD SWAP1 PUSH1 0x20 ADD DUP1 DUP4 GT PUSH2 0x1091 JUMPI DUP3 SWAP1 SUB PUSH1 0x1F AND DUP3 ADD SWAP2 JUMPDEST POP POP POP POP POP SWAP1 DUP1 PUSH1 0x1 ADD SLOAD SWAP1 DUP1 PUSH1 0x2 ADD PUSH1 0x0 SWAP1 SLOAD SWAP1 PUSH2 0x100 EXP SWAP1 DIV PUSH20 0xFFFFFFFFFFFFFFFFFFFFFFFFFFFFFFFFFFFFFFFF AND SWAP1 DUP1 PUSH1 0x2 ADD PUSH1 0x14 SWAP1 SLOAD SWAP1 PUSH2 0x100 EXP SWAP1 DIV PUSH1 0xFF AND SWAP1 DUP1 PUSH1 0x3 ADD SLOAD SWAP1 DUP1 PUSH1 0x4 ADD SLOAD SWAP1 DUP1 PUSH1 0x5 ADD SLOAD SWAP1 POP DUP8 JUMP JUMPDEST PUSH2 0x1111 PUSH2 0x195B JUMP JUMPDEST PUSH1 0x8 PUSH1 0x0 SWAP1 SLOAD SWAP1 PUSH2 0x100 EXP SWAP1 DIV PUSH1 0xFF AND ISZERO PUSH2 0x1161 JUMPI PUSH1 0x40 MLOAD PUSH32 0x8C379A000000000000000000000000000000000000000000000000000000000 DUP2 MSTORE PUSH1 0x4 ADD PUSH2 0x1158 SWAP1 PUSH2 0x1FF2 JUMP JUMPDEST PUSH1 0x40 MLOAD DUP1 SWAP2 SUB SWAP1 REVERT JUMPDEST PUSH2 0x1169 PUSH2 0x18CD JUMP JUMPDEST PUSH1 0x0 DUP3 GT PUSH2 0x11AC JUMPI PUSH1 0x40 MLOAD PUSH32 0x8C379A000000000000000000000000000000000000000000000000000000000 DUP2 MSTORE PUSH1 0x4 ADD PUSH2 0x11A3 SWAP1 PUSH2 0x2805 JUMP JUMPDEST PUSH1 0x40 MLOAD DUP1 SWAP2 SUB SWAP1 REVERT JUMPDEST PUSH1 0x0 DUP4 MLOAD GT PUSH2 0x11F0 JUMPI PUSH1 0x40 MLOAD PUSH32 0x8C379A000000000000000000000000000000000000000000000000000000000 DUP2 MSTORE PUSH1 0x4 ADD PUSH2 0x11E7 SWAP1 PUSH2 0x2871 JUMP JUMPDEST PUSH1 0x40 MLOAD DUP1 SWAP2 SUB SWAP1 REVERT JUMPDEST PUSH1 0x0 PUSH20 0xFFFFFFFFFFFFFFFFFFFFFFFFFFFFFFFFFFFFFFFF AND DUP2 PUSH20 0xFFFFFFFFFFFFFFFFFFFFFFFFFFFFFFFFFFFFFFFF AND SUB PUSH2 0x125F JUMPI PUSH1 0x40 MLOAD PUSH32 0x8C379A000000000000000000000000000000000000000000000000000000000 DUP2 MSTORE PUSH1 0x4 ADD PUSH2 0x1256 SWAP1 PUSH2 0x28DD JUMP JUMPDEST PUSH1 0x40 MLOAD DUP1 SWAP2 SUB SWAP1 REVERT JUMPDEST SELFBALANCE DUP3 GT ISZERO PUSH2 0x12A2 JUMPI PUSH1 0x40 MLOAD PUSH32 0x8C379A000000000000000000000000000000000000000000000000000000000 DUP2 MSTORE PUSH1 0x4 ADD PUSH2 0x1299 SWAP1 PUSH2 0x2949 JUMP JUMPDEST PUSH1 0x40 MLOAD DUP1 SWAP2 SUB SWAP1 REVERT JUMPDEST PUSH1 0x0 PUSH2 0x12AE PUSH1 0x5 PUSH2 0x19D9 JUMP JUMPDEST SWAP1 POP PUSH1 0x0 PUSH1 0x4 PUSH1 0x0 DUP4 DUP2 MSTORE PUSH1 0x20 ADD SWAP1 DUP2 MSTORE PUSH1 0x20 ADD PUSH1 0x0 KECCAK256 SWAP1 POP DUP5 DUP2 PUSH1 0x0 ADD SWAP1 DUP2 PUSH2 0x12D8 SWAP2 SWAP1 PUSH2 0x2B15 JUMP JUMPDEST POP DUP4 DUP2 PUSH1 0x1 ADD DUP2 SWAP1 SSTORE POP DUP3 DUP2 PUSH1 0x2 ADD PUSH1 0x0 PUSH2 0x100 EXP DUP2 SLOAD DUP2 PUSH20 0xFFFFFFFFFFFFFFFFFFFFFFFFFFFFFFFFFFFFFFFF MUL NOT AND SWAP1 DUP4 PUSH20 0xFFFFFFFFFFFFFFFFFFFFFFFFFFFFFFFFFFFFFFFF AND MUL OR SWAP1 SSTORE POP PUSH1 0x0 DUP2 PUSH1 0x2 ADD PUSH1 0x14 PUSH2 0x100 EXP DUP2 SLOAD DUP2 PUSH1 0xFF MUL NOT AND SWAP1 DUP4 ISZERO ISZERO MUL OR SWAP1 SSTORE POP PUSH3 0x93A80 TIMESTAMP PUSH2 0x1351 SWAP2 SWAP1 PUSH2 0x20D3 JUMP JUMPDEST DUP2 PUSH1 0x5 ADD DUP2 SWAP1 SSTORE POP PUSH2 0x1363 PUSH1 0x5 PUSH2 0x191C JUMP JUMPDEST PUSH32 0xF7365309CB3A1C4835D32ACD2153EBF718723E270DAAD5BB2AAC6DD47564583B DUP3 DUP7 DUP7 DUP7 PUSH1 0x40 MLOAD PUSH2 0x1398 SWAP5 SWAP4 SWAP3 SWAP2 SWAP1 PUSH2 0x2C3C JUMP JUMPDEST PUSH1 0x40 MLOAD DUP1 SWAP2 SUB SWAP1 LOG1 POP POP PUSH2 0x13AA PUSH2 0x1951 JUMP JUMPDEST POP POP POP JUMP JUMPDEST PUSH1 0x0 PUSH1 0x1 PUSH1 0x0 SWAP1 SLOAD SWAP1 PUSH2 0x100 EXP SWAP1 DIV PUSH20 0xFFFFFFFFFFFFFFFFFFFFFFFFFFFFFFFFFFFFFFFF AND SWAP1 POP SWAP1 JUMP JUMPDEST PUSH32 0x0 DUP2 JUMP JUMPDEST PUSH1 0x8 PUSH1 0x0 SWAP1 SLOAD SWAP1 PUSH2 0x100 EXP SWAP1 DIV PUSH1 0xFF AND DUP2 JUMP JUMPDEST PUSH1 0x6 SLOAD DUP2 JUMP JUMPDEST PUSH1 0x8 PUSH1 0x0 SWAP1 SLOAD SWAP1 PUSH2 0x100 EXP SWAP1 DIV PUSH1 0xFF AND ISZERO PUSH2 0x1466 JUMPI PUSH1 0x40 MLOAD PUSH32 0x8C379A000000000000000000000000000000000000000000000000000000000 DUP2 MSTORE PUSH1 0x4 ADD PUSH2 0x145D SWAP1 PUSH2 0x1FF2 JUMP JUMPDEST PUSH1 0x40 MLOAD DUP1 SWAP2 SUB SWAP1 REVERT JUMPDEST PUSH2 0x146E PUSH2 0x195B JUMP JUMPDEST PUSH2 0x1476 PUSH2 0x18CD JUMP JUMPDEST PUSH32 0x0 PUSH20 0xFFFFFFFFFFFFFFFFFFFFFFFFFFFFFFFFFFFFFFFF AND PUSH2 0x8FC SELFBALANCE SWAP1 DUP2 ISZERO MUL SWAP1 PUSH1 0x40 MLOAD PUSH1 0x0 PUSH1 0x40 MLOAD DUP1 DUP4 SUB DUP2 DUP6 DUP9 DUP9 CALL SWAP4 POP POP POP POP ISZERO DUP1 ISZERO PUSH2 0x14DC JUMPI RETURNDATASIZE PUSH1 0x0 DUP1 RETURNDATACOPY RETURNDATASIZE PUSH1 0x0 REVERT JUMPDEST POP PUSH1 0x1 PUSH1 0x8 PUSH1 0x0 PUSH2 0x100 EXP DUP2 SLOAD DUP2 PUSH1 0xFF MUL NOT AND SWAP1 DUP4 ISZERO ISZERO MUL OR SWAP1 SSTORE POP PUSH2 0x1500 PUSH2 0x1932 JUMP JUMPDEST PUSH32 0x123D4F203B2B83BFE9F45903402BB88193CC56A43371D97AB5A51BD1817D8586 PUSH1 0x40 MLOAD PUSH1 0x40 MLOAD DUP1 SWAP2 SUB SWAP1 LOG1 PUSH2 0x1534 PUSH2 0x1951 JUMP JUMPDEST JUMP JUMPDEST PUSH32 0x0 DUP2 JUMP JUMPDEST PUSH1 0x8 PUSH1 0x0 SWAP1 SLOAD SWAP1 PUSH2 0x100 EXP SWAP1 DIV PUSH1 0xFF AND ISZERO PUSH2 0x15AA JUMPI PUSH1 0x40 MLOAD PUSH32 0x8C379A000000000000000000000000000000000000000000000000000000000 DUP2 MSTORE PUSH1 0x4 ADD PUSH2 0x15A1 SWAP1 PUSH2 0x1FF2 JUMP JUMPDEST PUSH1 0x40 MLOAD DUP1 SWAP2 SUB SWAP1 REVERT JUMPDEST PUSH2 0x15B2 PUSH2 0x18CD JUMP JUMPDEST PUSH2 0x15BC PUSH1 0x5 PUSH2 0x19D9 JUMP JUMPDEST DUP2 LT PUSH2 0x15FD JUMPI PUSH1 0x40 MLOAD PUSH32 0x8C379A000000000000000000000000000000000000000000000000000000000 DUP2 MSTORE PUSH1 0x4 ADD PUSH2 0x15F4 SWAP1 PUSH2 0x220E JUMP JUMPDEST PUSH1 0x40 MLOAD DUP1 SWAP2 SUB SWAP1 REVERT JUMPDEST PUSH1 0x0 PUSH1 0x2 PUSH1 0x0 CALLER PUSH20 0xFFFFFFFFFFFFFFFFFFFFFFFFFFFFFFFFFFFFFFFF AND PUSH20 0xFFFFFFFFFFFFFFFFFFFFFFFFFFFFFFFFFFFFFFFF AND DUP2 MSTORE PUSH1 0x20 ADD SWAP1 DUP2 MSTORE PUSH1 0x20 ADD PUSH1 0x0 KECCAK256 SLOAD GT PUSH2 0x167F JUMPI PUSH1 0x40 MLOAD PUSH32 0x8C379A000000000000000000000000000000000000000000000000000000000 DUP2 MSTORE PUSH1 0x4 ADD PUSH2 0x1676 SWAP1 PUSH2 0x2CD4 JUMP JUMPDEST PUSH1 0x40 MLOAD DUP1 SWAP2 SUB SWAP1 REVERT JUMPDEST PUSH1 0x0 PUSH1 0x4 PUSH1 0x0 DUP4 DUP2 MSTORE PUSH1 0x20 ADD SWAP1 DUP2 MSTORE PUSH1 0x20 ADD PUSH1 0x0 KECCAK256 SWAP1 POP DUP1 PUSH1 0x6 ADD PUSH1 0x0 CALLER PUSH20 0xFFFFFFFFFFFFFFFFFFFFFFFFFFFFFFFFFFFFFFFF AND PUSH20 0xFFFFFFFFFFFFFFFFFFFFFFFFFFFFFFFFFFFFFFFF AND DUP2 MSTORE PUSH1 0x20 ADD SWAP1 DUP2 MSTORE PUSH1 0x20 ADD PUSH1 0x0 KECCAK256 PUSH1 0x0 SWAP1 SLOAD SWAP1 PUSH2 0x100 EXP SWAP1 DIV PUSH1 0xFF AND ISZERO PUSH2 0x1725 JUMPI PUSH1 0x40 MLOAD PUSH32 0x8C379A000000000000000000000000000000000000000000000000000000000 DUP2 MSTORE PUSH1 0x4 ADD PUSH2 0x171C SWAP1 PUSH2 0x25CA JUMP JUMPDEST PUSH1 0x40 MLOAD DUP1 SWAP2 SUB SWAP1 REVERT JUMPDEST DUP1 PUSH1 0x5 ADD SLOAD TIMESTAMP GT ISZERO PUSH2 0x176C JUMPI PUSH1 0x40 MLOAD PUSH32 0x8C379A000000000000000000000000000000000000000000000000000000000 DUP2 MSTORE PUSH1 0x4 ADD PUSH2 0x1763 SWAP1 PUSH2 0x2636 JUMP JUMPDEST PUSH1 0x40 MLOAD DUP1 SWAP2 SUB SWAP1 REVERT JUMPDEST PUSH1 0x1 DUP2 PUSH1 0x6 ADD PUSH1 0x0 CALLER PUSH20 0xFFFFFFFFFFFFFFFFFFFFFFFFFFFFFFFFFFFFFFFF AND PUSH20 0xFFFFFFFFFFFFFFFFFFFFFFFFFFFFFFFFFFFFFFFF AND DUP2 MSTORE PUSH1 0x20 ADD SWAP1 DUP2 MSTORE PUSH1 0x20 ADD PUSH1 0x0 KECCAK256 PUSH1 0x0 PUSH2 0x100 EXP DUP2 SLOAD DUP2 PUSH1 0xFF MUL NOT AND SWAP1 DUP4 ISZERO ISZERO MUL OR SWAP1 SSTORE POP DUP1 PUSH1 0x3 ADD PUSH1 0x0 DUP2 SLOAD DUP1 SWAP3 SWAP2 SWAP1 PUSH2 0x17DB SWAP1 PUSH2 0x2656 JUMP JUMPDEST SWAP2 SWAP1 POP SSTORE POP PUSH32 0xF3DC904660A0EA05ABA8DFA1E21FBC4FB2914BE2A3029DA7B0FDD3E5EEE20DDB DUP3 CALLER PUSH1 0x40 MLOAD PUSH2 0x1811 SWAP3 SWAP2 SWAP1 PUSH2 0x269E JUMP JUMPDEST PUSH1 0x40 MLOAD DUP1 SWAP2 SUB SWAP1 LOG1 POP PUSH2 0x1822 PUSH2 0x1951 JUMP JUMPDEST POP JUMP JUMPDEST PUSH1 0x0 PUSH1 0x7 SLOAD SWAP1 POP SWAP1 JUMP JUMPDEST PUSH1 0x0 PUSH1 0x6 SLOAD SWAP1 POP SWAP1 JUMP JUMPDEST PUSH2 0x1841 PUSH2 0x195B JUMP JUMPDEST PUSH1 0x0 PUSH20 0xFFFFFFFFFFFFFFFFFFFFFFFFFFFFFFFFFFFFFFFF AND DUP2 PUSH20 0xFFFFFFFFFFFFFFFFFFFFFFFFFFFFFFFFFFFFFFFF AND SUB PUSH2 0x18B0 JUMPI PUSH1 0x40 MLOAD PUSH32 0x8C379A000000000000000000000000000000000000000000000000000000000 DUP2 MSTORE PUSH1 0x4 ADD PUSH2 0x18A7 SWAP1 PUSH2 0x2D66 JUMP JUMPDEST PUSH1 0x40 MLOAD DUP1 SWAP2 SUB SWAP1 REVERT JUMPDEST PUSH2 0x18B9 DUP2 PUSH2 0x19E7 JUMP JUMPDEST POP JUMP JUMPDEST PUSH1 0x0 PUSH2 0x18C8 PUSH1 0x3 PUSH2 0x19D9 JUMP JUMPDEST SWAP1 POP SWAP1 JUMP JUMPDEST PUSH1 0x2 PUSH1 0x0 SLOAD SUB PUSH2 0x1912 JUMPI PUSH1 0x40 MLOAD PUSH32 0x8C379A000000000000000000000000000000000000000000000000000000000 DUP2 MSTORE PUSH1 0x4 ADD PUSH2 0x1909 SWAP1 PUSH2 0x2DD2 JUMP JUMPDEST PUSH1 0x40 MLOAD DUP1 SWAP2 SUB SWAP1 REVERT JUMPDEST PUSH1 0x2 PUSH1 0x0 DUP2 SWAP1 SSTORE POP JUMP JUMPDEST PUSH1 0x1 DUP2 PUSH1 0x0 ADD PUSH1 0x0 DUP3 DUP3 SLOAD ADD SWAP3 POP POP DUP2 SWAP1 SSTORE POP POP JUMP JUMPDEST SELFBALANCE PUSH1 0x6 DUP2 SWAP1 SSTORE POP PUSH1 0x7 SLOAD PUSH1 0x6 SLOAD GT ISZERO PUSH2 0x194F JUMPI PUSH1 0x6 SLOAD PUSH1 0x7 DUP2 SWAP1 SSTORE POP JUMPDEST JUMP JUMPDEST PUSH1 0x1 PUSH1 0x0 DUP2 SWAP1 SSTORE POP JUMP JUMPDEST PUSH2 0x1963 PUSH2 0x1AAD JUMP JUMPDEST PUSH20 0xFFFFFFFFFFFFFFFFFFFFFFFFFFFFFFFFFFFFFFFF AND PUSH2 0x1981 PUSH2 0x13AF JUMP JUMPDEST PUSH20 0xFFFFFFFFFFFFFFFFFFFFFFFFFFFFFFFFFFFFFFFF AND EQ PUSH2 0x19D7 JUMPI PUSH1 0x40 MLOAD PUSH32 0x8C379A000000000000000000000000000000000000000000000000000000000 DUP2 MSTORE PUSH1 0x4 ADD PUSH2 0x19CE SWAP1 PUSH2 0x2E3E JUMP JUMPDEST PUSH1 0x40 MLOAD DUP1 SWAP2 SUB SWAP1 REVERT JUMPDEST JUMP JUMPDEST PUSH1 0x0 DUP2 PUSH1 0x0 ADD SLOAD SWAP1 POP SWAP2 SWAP1 POP JUMP JUMPDEST PUSH1 0x0 PUSH1 0x1 PUSH1 0x0 SWAP1 SLOAD SWAP1 PUSH2 0x100 EXP SWAP1 DIV PUSH20 0xFFFFFFFFFFFFFFFFFFFFFFFFFFFFFFFFFFFFFFFF AND SWAP1 POP DUP2 PUSH1 0x1 PUSH1 0x0 PUSH2 0x100 EXP DUP2 SLOAD DUP2 PUSH20 0xFFFFFFFFFFFFFFFFFFFFFFFFFFFFFFFFFFFFFFFF MUL NOT AND SWAP1 DUP4 PUSH20 0xFFFFFFFFFFFFFFFFFFFFFFFFFFFFFFFFFFFFFFFF AND MUL OR SWAP1 SSTORE POP DUP2 PUSH20 0xFFFFFFFFFFFFFFFFFFFFFFFFFFFFFFFFFFFFFFFF AND DUP2 PUSH20 0xFFFFFFFFFFFFFFFFFFFFFFFFFFFFFFFFFFFFFFFF AND PUSH32 0x8BE0079C531659141344CD1FD0A4F28419497F9722A3DAAFE3B4186F6B6457E0 PUSH1 0x40 MLOAD PUSH1 0x40 MLOAD DUP1 SWAP2 SUB SWAP1 LOG3 POP POP JUMP JUMPDEST PUSH1 0x0 CALLER SWAP1 POP SWAP1 JUMP JUMPDEST PUSH1 0x0 PUSH1 0x40 MLOAD SWAP1 POP SWAP1 JUMP JUMPDEST PUSH1 0x0 DUP1 REVERT JUMPDEST PUSH1 0x0 DUP1 REVERT JUMPDEST PUSH1 0x0 DUP2 SWAP1 POP SWAP2 SWAP1 POP JUMP JUMPDEST PUSH2 0x1ADC DUP2 PUSH2 0x1AC9 JUMP JUMPDEST DUP2 EQ PUSH2 0x1AE7 JUMPI PUSH1 0x0 DUP1 REVERT JUMPDEST POP JUMP JUMPDEST PUSH1 0x0 DUP2 CALLDATALOAD SWAP1 POP PUSH2 0x1AF9 DUP2 PUSH2 0x1AD3 JUMP JUMPDEST SWAP3 SWAP2 POP POP JUMP JUMPDEST PUSH1 0x0 PUSH1 0x20 DUP3 DUP5 SUB SLT ISZERO PUSH2 0x1B15 JUMPI PUSH2 0x1B14 PUSH2 0x1ABF JUMP JUMPDEST JUMPDEST PUSH1 0x0 PUSH2 0x1B23 DUP5 DUP3 DUP6 ADD PUSH2 0x1AEA JUMP JUMPDEST SWAP2 POP POP SWAP3 SWAP2 POP POP JUMP JUMPDEST PUSH2 0x1B35 DUP2 PUSH2 0x1AC9 JUMP JUMPDEST DUP3 MSTORE POP POP JUMP JUMPDEST PUSH1 0x0 PUSH1 0x20 DUP3 ADD SWAP1 POP PUSH2 0x1B50 PUSH1 0x0 DUP4 ADD DUP5 PUSH2 0x1B2C JUMP JUMPDEST SWAP3 SWAP2 POP POP JUMP JUMPDEST PUSH1 0x0 PUSH20 0xFFFFFFFFFFFFFFFFFFFFFFFFFFFFFFFFFFFFFFFF DUP3 AND SWAP1 POP SWAP2 SWAP1 POP JUMP JUMPDEST PUSH1 0x0 PUSH2 0x1B81 DUP3 PUSH2 0x1B56 JUMP JUMPDEST SWAP1 POP SWAP2 SWAP1 POP JUMP JUMPDEST PUSH2 0x1B91 DUP2 PUSH2 0x1B76 JUMP JUMPDEST DUP3 MSTORE POP POP JUMP JUMPDEST PUSH1 0x0 PUSH1 0xA0 DUP3 ADD SWAP1 POP PUSH2 0x1BAC PUSH1 0x0 DUP4 ADD DUP9 PUSH2 0x1B2C JUMP JUMPDEST PUSH2 0x1BB9 PUSH1 0x20 DUP4 ADD DUP8 PUSH2 0x1B2C JUMP JUMPDEST PUSH2 0x1BC6 PUSH1 0x40 DUP4 ADD DUP7 PUSH2 0x1B2C JUMP JUMPDEST PUSH2 0x1BD3 PUSH1 0x60 DUP4 ADD DUP6 PUSH2 0x1B2C JUMP JUMPDEST PUSH2 0x1BE0 PUSH1 0x80 DUP4 ADD DUP5 PUSH2 0x1B88 JUMP JUMPDEST SWAP7 SWAP6 POP POP POP POP POP POP JUMP JUMPDEST PUSH2 0x1BF3 DUP2 PUSH2 0x1B76 JUMP JUMPDEST DUP2 EQ PUSH2 0x1BFE JUMPI PUSH1 0x0 DUP1 REVERT JUMPDEST POP JUMP JUMPDEST PUSH1 0x0 DUP2 CALLDATALOAD SWAP1 POP PUSH2 0x1C10 DUP2 PUSH2 0x1BEA JUMP JUMPDEST SWAP3 SWAP2 POP POP JUMP JUMPDEST PUSH1 0x0 PUSH1 0x20 DUP3 DUP5 SUB SLT ISZERO PUSH2 0x1C2C JUMPI PUSH2 0x1C2B PUSH2 0x1ABF JUMP JUMPDEST JUMPDEST PUSH1 0x0 PUSH2 0x1C3A DUP5 DUP3 DUP6 ADD PUSH2 0x1C01 JUMP JUMPDEST SWAP2 POP POP SWAP3 SWAP2 POP POP JUMP JUMPDEST PUSH1 0x0 DUP2 MLOAD SWAP1 POP SWAP2 SWAP1 POP JUMP JUMPDEST PUSH1 0x0 DUP3 DUP3 MSTORE PUSH1 0x20 DUP3 ADD SWAP1 POP SWAP3 SWAP2 POP POP JUMP JUMPDEST PUSH1 0x0 JUMPDEST DUP4 DUP2 LT ISZERO PUSH2 0x1C7D JUMPI DUP1 DUP3 ADD MLOAD DUP2 DUP5 ADD MSTORE PUSH1 0x20 DUP2 ADD SWAP1 POP PUSH2 0x1C62 JUMP JUMPDEST PUSH1 0x0 DUP5 DUP5 ADD MSTORE POP POP POP POP JUMP JUMPDEST PUSH1 0x0 PUSH1 0x1F NOT PUSH1 0x1F DUP4 ADD AND SWAP1 POP SWAP2 SWAP1 POP JUMP JUMPDEST PUSH1 0x0 PUSH2 0x1CA5 DUP3 PUSH2 0x1C43 JUMP JUMPDEST PUSH2 0x1CAF DUP2 DUP6 PUSH2 0x1C4E JUMP JUMPDEST SWAP4 POP PUSH2 0x1CBF DUP2 DUP6 PUSH1 0x20 DUP7 ADD PUSH2 0x1C5F JUMP JUMPDEST PUSH2 0x1CC8 DUP2 PUSH2 0x1C89 JUMP JUMPDEST DUP5 ADD SWAP2 POP POP SWAP3 SWAP2 POP POP JUMP JUMPDEST PUSH1 0x0 PUSH2 0x1CDE DUP3 PUSH2 0x1B56 JUMP JUMPDEST SWAP1 POP SWAP2 SWAP1 POP JUMP JUMPDEST PUSH2 0x1CEE DUP2 PUSH2 0x1CD3 JUMP JUMPDEST DUP3 MSTORE POP POP JUMP JUMPDEST PUSH1 0x0 DUP2 ISZERO ISZERO SWAP1 POP SWAP2 SWAP1 POP JUMP JUMPDEST PUSH2 0x1D09 DUP2 PUSH2 0x1CF4 JUMP JUMPDEST DUP3 MSTORE POP POP JUMP JUMPDEST PUSH1 0x0 PUSH1 0xE0 DUP3 ADD SWAP1 POP DUP2 DUP2 SUB PUSH1 0x0 DUP4 ADD MSTORE PUSH2 0x1D29 DUP2 DUP11 PUSH2 0x1C9A JUMP JUMPDEST SWAP1 POP PUSH2 0x1D38 PUSH1 0x20 DUP4 ADD DUP10 PUSH2 0x1B2C JUMP JUMPDEST PUSH2 0x1D45 PUSH1 0x40 DUP4 ADD DUP9 PUSH2 0x1CE5 JUMP JUMPDEST PUSH2 0x1D52 PUSH1 0x60 DUP4 ADD DUP8 PUSH2 0x1D00 JUMP JUMPDEST PUSH2 0x1D5F PUSH1 0x80 DUP4 ADD DUP7 PUSH2 0x1B2C JUMP JUMPDEST PUSH2 0x1D6C PUSH1 0xA0 DUP4 ADD DUP6 PUSH2 0x1B2C JUMP JUMPDEST PUSH2 0x1D79 PUSH1 0xC0 DUP4 ADD DUP5 PUSH2 0x1B2C JUMP JUMPDEST SWAP9 SWAP8 POP POP POP POP POP POP POP POP JUMP JUMPDEST PUSH1 0x0 DUP1 REVERT JUMPDEST PUSH1 0x0 DUP1 REVERT JUMPDEST PUSH32 0x4E487B7100000000000000000000000000000000000000000000000000000000 PUSH1 0x0 MSTORE PUSH1 0x41 PUSH1 0x4 MSTORE PUSH1 0x24 PUSH1 0x0 REVERT JUMPDEST PUSH2 0x1DC7 DUP3 PUSH2 0x1C89 JUMP JUMPDEST DUP2 ADD DUP2 DUP2 LT PUSH8 0xFFFFFFFFFFFFFFFF DUP3 GT OR ISZERO PUSH2 0x1DE6 JUMPI PUSH2 0x1DE5 PUSH2 0x1D8F JUMP JUMPDEST JUMPDEST DUP1 PUSH1 0x40 MSTORE POP POP POP JUMP JUMPDEST PUSH1 0x0 PUSH2 0x1DF9 PUSH2 0x1AB5 JUMP JUMPDEST SWAP1 POP PUSH2 0x1E05 DUP3 DUP3 PUSH2 0x1DBE JUMP JUMPDEST SWAP2 SWAP1 POP JUMP JUMPDEST PUSH1 0x0 PUSH8 0xFFFFFFFFFFFFFFFF DUP3 GT ISZERO PUSH2 0x1E25 JUMPI PUSH2 0x1E24 PUSH2 0x1D8F JUMP JUMPDEST JUMPDEST PUSH2 0x1E2E DUP3 PUSH2 0x1C89 JUMP JUMPDEST SWAP1 POP PUSH1 0x20 DUP2 ADD SWAP1 POP SWAP2 SWAP1 POP JUMP JUMPDEST DUP3 DUP2 DUP4 CALLDATACOPY PUSH1 0x0 DUP4 DUP4 ADD MSTORE POP POP POP JUMP JUMPDEST PUSH1 0x0 PUSH2 0x1E5D PUSH2 0x1E58 DUP5 PUSH2 0x1E0A JUMP JUMPDEST PUSH2 0x1DEF JUMP JUMPDEST SWAP1 POP DUP3 DUP2 MSTORE PUSH1 0x20 DUP2 ADD DUP5 DUP5 DUP5 ADD GT ISZERO PUSH2 0x1E79 JUMPI PUSH2 0x1E78 PUSH2 0x1D8A JUMP JUMPDEST JUMPDEST PUSH2 0x1E84 DUP5 DUP3 DUP6 PUSH2 0x1E3B JUMP JUMPDEST POP SWAP4 SWAP3 POP POP POP JUMP JUMPDEST PUSH1 0x0 DUP3 PUSH1 0x1F DUP4 ADD SLT PUSH2 0x1EA1 JUMPI PUSH2 0x1EA0 PUSH2 0x1D85 JUMP JUMPDEST JUMPDEST DUP2 CALLDATALOAD PUSH2 0x1EB1 DUP5 DUP3 PUSH1 0x20 DUP7 ADD PUSH2 0x1E4A JUMP JUMPDEST SWAP2 POP POP SWAP3 SWAP2 POP POP JUMP JUMPDEST PUSH2 0x1EC3 DUP2 PUSH2 0x1CD3 JUMP JUMPDEST DUP2 EQ PUSH2 0x1ECE JUMPI PUSH1 0x0 DUP1 REVERT JUMPDEST POP JUMP JUMPDEST PUSH1 0x0 DUP2 CALLDATALOAD SWAP1 POP PUSH2 0x1EE0 DUP2 PUSH2 0x1EBA JUMP JUMPDEST SWAP3 SWAP2 POP POP JUMP JUMPDEST PUSH1 0x0 DUP1 PUSH1 0x0 PUSH1 0x60 DUP5 DUP7 SUB SLT ISZERO PUSH2 0x1EFF JUMPI PUSH2 0x1EFE PUSH2 0x1ABF JUMP JUMPDEST JUMPDEST PUSH1 0x0 DUP5 ADD CALLDATALOAD PUSH8 0xFFFFFFFFFFFFFFFF DUP2 GT ISZERO PUSH2 0x1F1D JUMPI PUSH2 0x1F1C PUSH2 0x1AC4 JUMP JUMPDEST JUMPDEST PUSH2 0x1F29 DUP7 DUP3 DUP8 ADD PUSH2 0x1E8C JUMP JUMPDEST SWAP4 POP POP PUSH1 0x20 PUSH2 0x1F3A DUP7 DUP3 DUP8 ADD PUSH2 0x1AEA JUMP JUMPDEST SWAP3 POP POP PUSH1 0x40 PUSH2 0x1F4B DUP7 DUP3 DUP8 ADD PUSH2 0x1ED1 JUMP JUMPDEST SWAP2 POP POP SWAP3 POP SWAP3 POP SWAP3 JUMP JUMPDEST PUSH1 0x0 PUSH1 0x20 DUP3 ADD SWAP1 POP PUSH2 0x1F6A PUSH1 0x0 DUP4 ADD DUP5 PUSH2 0x1B88 JUMP JUMPDEST SWAP3 SWAP2 POP POP JUMP JUMPDEST PUSH1 0x0 PUSH1 0x20 DUP3 ADD SWAP1 POP PUSH2 0x1F85 PUSH1 0x0 DUP4 ADD DUP5 PUSH2 0x1D00 JUMP JUMPDEST SWAP3 SWAP2 POP POP JUMP JUMPDEST PUSH1 0x0 PUSH1 0x20 DUP3 ADD SWAP1 POP PUSH2 0x1FA0 PUSH1 0x0 DUP4 ADD DUP5 PUSH2 0x1CE5 JUMP JUMPDEST SWAP3 SWAP2 POP POP JUMP JUMPDEST PUSH32 0x43616D706169676E20686173206265656E2063616E63656C6C65640000000000 PUSH1 0x0 DUP3 ADD MSTORE POP JUMP JUMPDEST PUSH1 0x0 PUSH2 0x1FDC PUSH1 0x1B DUP4 PUSH2 0x1C4E JUMP JUMPDEST SWAP2 POP PUSH2 0x1FE7 DUP3 PUSH2 0x1FA6 JUMP JUMPDEST PUSH1 0x20 DUP3 ADD SWAP1 POP SWAP2 SWAP1 POP JUMP JUMPDEST PUSH1 0x0 PUSH1 0x20 DUP3 ADD SWAP1 POP DUP2 DUP2 SUB PUSH1 0x0 DUP4 ADD MSTORE PUSH2 0x200B DUP2 PUSH2 0x1FCF JUMP JUMPDEST SWAP1 POP SWAP2 SWAP1 POP JUMP JUMPDEST PUSH32 0x436F6E747269627574696F6E2062656C6F77206D696E696D756D20616D6F756E PUSH1 0x0 DUP3 ADD MSTORE PUSH32 0x7400000000000000000000000000000000000000000000000000000000000000 PUSH1 0x20 DUP3 ADD MSTORE POP JUMP JUMPDEST PUSH1 0x0 PUSH2 0x206E PUSH1 0x21 DUP4 PUSH2 0x1C4E JUMP JUMPDEST SWAP2 POP PUSH2 0x2079 DUP3 PUSH2 0x2012 JUMP JUMPDEST PUSH1 0x40 DUP3 ADD SWAP1 POP SWAP2 SWAP1 POP JUMP JUMPDEST PUSH1 0x0 PUSH1 0x20 DUP3 ADD SWAP1 POP DUP2 DUP2 SUB PUSH1 0x0 DUP4 ADD MSTORE PUSH2 0x209D DUP2 PUSH2 0x2061 JUMP JUMPDEST SWAP1 POP SWAP2 SWAP1 POP JUMP JUMPDEST PUSH32 0x4E487B7100000000000000000000000000000000000000000000000000000000 PUSH1 0x0 MSTORE PUSH1 0x11 PUSH1 0x4 MSTORE PUSH1 0x24 PUSH1 0x0 REVERT JUMPDEST PUSH1 0x0 PUSH2 0x20DE DUP3 PUSH2 0x1AC9 JUMP JUMPDEST SWAP2 POP PUSH2 0x20E9 DUP4 PUSH2 0x1AC9 JUMP JUMPDEST SWAP3 POP DUP3 DUP3 ADD SWAP1 POP DUP1 DUP3 GT ISZERO PUSH2 0x2101 JUMPI PUSH2 0x2100 PUSH2 0x20A4 JUMP JUMPDEST JUMPDEST SWAP3 SWAP2 POP POP JUMP JUMPDEST PUSH1 0x0 PUSH1 0x40 DUP3 ADD SWAP1 POP PUSH2 0x211C PUSH1 0x0 DUP4 ADD DUP6 PUSH2 0x1B88 JUMP JUMPDEST PUSH2 0x2129 PUSH1 0x20 DUP4 ADD DUP5 PUSH2 0x1B2C JUMP JUMPDEST SWAP4 SWAP3 POP POP POP JUMP JUMPDEST PUSH32 0x4F6E6C792074686520666163746F72792063616E2063616C6C20746869732066 PUSH1 0x0 DUP3 ADD MSTORE PUSH32 0x756E6374696F6E00000000000000000000000000000000000000000000000000 PUSH1 0x20 DUP3 ADD MSTORE POP JUMP JUMPDEST PUSH1 0x0 PUSH2 0x218C PUSH1 0x27 DUP4 PUSH2 0x1C4E JUMP JUMPDEST SWAP2 POP PUSH2 0x2197 DUP3 PUSH2 0x2130 JUMP JUMPDEST PUSH1 0x40 DUP3 ADD SWAP1 POP SWAP2 SWAP1 POP JUMP JUMPDEST PUSH1 0x0 PUSH1 0x20 DUP3 ADD SWAP1 POP DUP2 DUP2 SUB PUSH1 0x0 DUP4 ADD MSTORE PUSH2 0x21BB DUP2 PUSH2 0x217F JUMP JUMPDEST SWAP1 POP SWAP2 SWAP1 POP JUMP JUMPDEST PUSH32 0x496E76616C6964207265717565737420696E6465780000000000000000000000 PUSH1 0x0 DUP3 ADD MSTORE POP JUMP JUMPDEST PUSH1 0x0 PUSH2 0x21F8 PUSH1 0x15 DUP4 PUSH2 0x1C4E JUMP JUMPDEST SWAP2 POP PUSH2 0x2203 DUP3 PUSH2 0x21C2 JUMP JUMPDEST PUSH1 0x20 DUP3 ADD SWAP1 POP SWAP2 SWAP1 POP JUMP JUMPDEST PUSH1 0x0 PUSH1 0x20 DUP3 ADD SWAP1 POP DUP2 DUP2 SUB PUSH1 0x0 DUP4 ADD MSTORE PUSH2 0x2227 DUP2 PUSH2 0x21EB JUMP JUMPDEST SWAP1 POP SWAP2 SWAP1 POP JUMP JUMPDEST PUSH32 0x566F74696E6720706572696F64206E6F7420656E646564000000000000000000 PUSH1 0x0 DUP3 ADD MSTORE POP JUMP JUMPDEST PUSH1 0x0 PUSH2 0x2264 PUSH1 0x17 DUP4 PUSH2 0x1C4E JUMP JUMPDEST SWAP2 POP PUSH2 0x226F DUP3 PUSH2 0x222E JUMP JUMPDEST PUSH1 0x20 DUP3 ADD SWAP1 POP SWAP2 SWAP1 POP JUMP JUMPDEST PUSH1 0x0 PUSH1 0x20 DUP3 ADD SWAP1 POP DUP2 DUP2 SUB PUSH1 0x0 DUP4 ADD MSTORE PUSH2 0x2293 DUP2 PUSH2 0x2257 JUMP JUMPDEST SWAP1 POP SWAP2 SWAP1 POP JUMP JUMPDEST PUSH32 0x526571756573742068617320616C7265616479206265656E20636F6D706C6574 PUSH1 0x0 DUP3 ADD MSTORE PUSH32 0x6564000000000000000000000000000000000000000000000000000000000000 PUSH1 0x20 DUP3 ADD MSTORE POP JUMP JUMPDEST PUSH1 0x0 PUSH2 0x22F6 PUSH1 0x22 DUP4 PUSH2 0x1C4E JUMP JUMPDEST SWAP2 POP PUSH2 0x2301 DUP3 PUSH2 0x229A JUMP JUMPDEST PUSH1 0x40 DUP3 ADD SWAP1 POP SWAP2 SWAP1 POP JUMP JUMPDEST PUSH1 0x0 PUSH1 0x20 DUP3 ADD SWAP1 POP DUP2 DUP2 SUB PUSH1 0x0 DUP4 ADD MSTORE PUSH2 0x2325 DUP2 PUSH2 0x22E9 JUMP JUMPDEST SWAP1 POP SWAP2 SWAP1 POP JUMP JUMPDEST PUSH1 0x0 PUSH2 0x2337 DUP3 PUSH2 0x1AC9 JUMP JUMPDEST SWAP2 POP PUSH2 0x2342 DUP4 PUSH2 0x1AC9 JUMP JUMPDEST SWAP3 POP DUP3 DUP3 MUL PUSH2 0x2350 DUP2 PUSH2 0x1AC9 JUMP JUMPDEST SWAP2 POP DUP3 DUP3 DIV DUP5 EQ DUP4 ISZERO OR PUSH2 0x2367 JUMPI PUSH2 0x2366 PUSH2 0x20A4 JUMP JUMPDEST JUMPDEST POP SWAP3 SWAP2 POP POP JUMP JUMPDEST PUSH32 0x4E487B7100000000000000000000000000000000000000000000000000000000 PUSH1 0x0 MSTORE PUSH1 0x12 PUSH1 0x4 MSTORE PUSH1 0x24 PUSH1 0x0 REVERT JUMPDEST PUSH1 0x0 PUSH2 0x23A8 DUP3 PUSH2 0x1AC9 JUMP JUMPDEST SWAP2 POP PUSH2 0x23B3 DUP4 PUSH2 0x1AC9 JUMP JUMPDEST SWAP3 POP DUP3 PUSH2 0x23C3 JUMPI PUSH2 0x23C2 PUSH2 0x236E JUMP JUMPDEST JUMPDEST DUP3 DUP3 DIV SWAP1 POP SWAP3 SWAP2 POP POP JUMP JUMPDEST PUSH32 0x51756F72756D206E6F7420726561636865640000000000000000000000000000 PUSH1 0x0 DUP3 ADD MSTORE POP JUMP JUMPDEST PUSH1 0x0 PUSH2 0x2404 PUSH1 0x12 DUP4 PUSH2 0x1C4E JUMP JUMPDEST SWAP2 POP PUSH2 0x240F DUP3 PUSH2 0x23CE JUMP JUMPDEST PUSH1 0x20 DUP3 ADD SWAP1 POP SWAP2 SWAP1 POP JUMP JUMPDEST PUSH1 0x0 PUSH1 0x20 DUP3 ADD SWAP1 POP DUP2 DUP2 SUB PUSH1 0x0 DUP4 ADD MSTORE PUSH2 0x2433 DUP2 PUSH2 0x23F7 JUMP JUMPDEST SWAP1 POP SWAP2 SWAP1 POP JUMP JUMPDEST PUSH32 0x4E6F7420656E6F75676820617070726F76616C73000000000000000000000000 PUSH1 0x0 DUP3 ADD MSTORE POP JUMP JUMPDEST PUSH1 0x0 PUSH2 0x2470 PUSH1 0x14 DUP4 PUSH2 0x1C4E JUMP JUMPDEST SWAP2 POP PUSH2 0x247B DUP3 PUSH2 0x243A JUMP JUMPDEST PUSH1 0x20 DUP3 ADD SWAP1 POP SWAP2 SWAP1 POP JUMP JUMPDEST PUSH1 0x0 PUSH1 0x20 DUP3 ADD SWAP1 POP DUP2 DUP2 SUB PUSH1 0x0 DUP4 ADD MSTORE PUSH2 0x249F DUP2 PUSH2 0x2463 JUMP JUMPDEST SWAP1 POP SWAP2 SWAP1 POP JUMP JUMPDEST PUSH32 0x496E73756666696369656E742066756E64730000000000000000000000000000 PUSH1 0x0 DUP3 ADD MSTORE POP JUMP JUMPDEST PUSH1 0x0 PUSH2 0x24DC PUSH1 0x12 DUP4 PUSH2 0x1C4E JUMP JUMPDEST SWAP2 POP PUSH2 0x24E7 DUP3 PUSH2 0x24A6 JUMP JUMPDEST PUSH1 0x20 DUP3 ADD SWAP1 POP SWAP2 SWAP1 POP JUMP JUMPDEST PUSH1 0x0 PUSH1 0x20 DUP3 ADD SWAP1 POP DUP2 DUP2 SUB PUSH1 0x0 DUP4 ADD MSTORE PUSH2 0x250B DUP2 PUSH2 0x24CF JUMP JUMPDEST SWAP1 POP SWAP2 SWAP1 POP JUMP JUMPDEST PUSH32 0x4F6E6C7920636F6E7472696275746F72732063616E2072656A65637400000000 PUSH1 0x0 DUP3 ADD MSTORE POP JUMP JUMPDEST PUSH1 0x0 PUSH2 0x2548 PUSH1 0x1C DUP4 PUSH2 0x1C4E JUMP JUMPDEST SWAP2 POP PUSH2 0x2553 DUP3 PUSH2 0x2512 JUMP JUMPDEST PUSH1 0x20 DUP3 ADD SWAP1 POP SWAP2 SWAP1 POP JUMP JUMPDEST PUSH1 0x0 PUSH1 0x20 DUP3 ADD SWAP1 POP DUP2 DUP2 SUB PUSH1 0x0 DUP4 ADD MSTORE PUSH2 0x2577 DUP2 PUSH2 0x253B JUMP JUMPDEST SWAP1 POP SWAP2 SWAP1 POP JUMP JUMPDEST PUSH32 0x596F75206861766520616C726561647920766F74656400000000000000000000 PUSH1 0x0 DUP3 ADD MSTORE POP JUMP JUMPDEST PUSH1 0x0 PUSH2 0x25B4 PUSH1 0x16 DUP4 PUSH2 0x1C4E JUMP JUMPDEST SWAP2 POP PUSH2 0x25BF DUP3 PUSH2 0x257E JUMP JUMPDEST PUSH1 0x20 DUP3 ADD SWAP1 POP SWAP2 SWAP1 POP JUMP JUMPDEST PUSH1 0x0 PUSH1 0x20 DUP3 ADD SWAP1 POP DUP2 DUP2 SUB PUSH1 0x0 DUP4 ADD MSTORE PUSH2 0x25E3 DUP2 PUSH2 0x25A7 JUMP JUMPDEST SWAP1 POP SWAP2 SWAP1 POP JUMP JUMPDEST PUSH32 0x566F74696E6720706572696F642068617320656E646564000000000000000000 PUSH1 0x0 DUP3 ADD MSTORE POP JUMP JUMPDEST PUSH1 0x0 PUSH2 0x2620 PUSH1 0x17 DUP4 PUSH2 0x1C4E JUMP JUMPDEST SWAP2 POP PUSH2 0x262B DUP3 PUSH2 0x25EA JUMP JUMPDEST PUSH1 0x20 DUP3 ADD SWAP1 POP SWAP2 SWAP1 POP JUMP JUMPDEST PUSH1 0x0 PUSH1 0x20 DUP3 ADD SWAP1 POP DUP2 DUP2 SUB PUSH1 0x0 DUP4 ADD MSTORE PUSH2 0x264F DUP2 PUSH2 0x2613 JUMP JUMPDEST SWAP1 POP SWAP2 SWAP1 POP JUMP JUMPDEST PUSH1 0x0 PUSH2 0x2661 DUP3 PUSH2 0x1AC9 JUMP JUMPDEST SWAP2 POP PUSH32 0xFFFFFFFFFFFFFFFFFFFFFFFFFFFFFFFFFFFFFFFFFFFFFFFFFFFFFFFFFFFFFFFF DUP3 SUB PUSH2 0x2693 JUMPI PUSH2 0x2692 PUSH2 0x20A4 JUMP JUMPDEST JUMPDEST PUSH1 0x1 DUP3 ADD SWAP1 POP SWAP2 SWAP1 POP JUMP JUMPDEST PUSH1 0x0 PUSH1 0x40 DUP3 ADD SWAP1 POP PUSH2 0x26B3 PUSH1 0x0 DUP4 ADD DUP6 PUSH2 0x1B2C JUMP JUMPDEST PUSH2 0x26C0 PUSH1 0x20 DUP4 ADD DUP5 PUSH2 0x1B88 JUMP JUMPDEST SWAP4 SWAP3 POP POP POP JUMP JUMPDEST PUSH32 0x566F74696E6720706572696F6420656E64656400000000000000000000000000 PUSH1 0x0 DUP3 ADD MSTORE POP JUMP JUMPDEST PUSH1 0x0 PUSH2 0x26FD PUSH1 0x13 DUP4 PUSH2 0x1C4E JUMP JUMPDEST SWAP2 POP PUSH2 0x2708 DUP3 PUSH2 0x26C7 JUMP JUMPDEST PUSH1 0x20 DUP3 ADD SWAP1 POP SWAP2 SWAP1 POP JUMP JUMPDEST PUSH1 0x0 PUSH1 0x20 DUP3 ADD SWAP1 POP DUP2 DUP2 SUB PUSH1 0x0 DUP4 ADD MSTORE PUSH2 0x272C DUP2 PUSH2 0x26F0 JUMP JUMPDEST SWAP1 POP SWAP2 SWAP1 POP JUMP JUMPDEST PUSH32 0x4E487B7100000000000000000000000000000000000000000000000000000000 PUSH1 0x0 MSTORE PUSH1 0x22 PUSH1 0x4 MSTORE PUSH1 0x24 PUSH1 0x0 REVERT JUMPDEST PUSH1 0x0 PUSH1 0x2 DUP3 DIV SWAP1 POP PUSH1 0x1 DUP3 AND DUP1 PUSH2 0x277A JUMPI PUSH1 0x7F DUP3 AND SWAP2 POP JUMPDEST PUSH1 0x20 DUP3 LT DUP2 SUB PUSH2 0x278D JUMPI PUSH2 0x278C PUSH2 0x2733 JUMP JUMPDEST JUMPDEST POP SWAP2 SWAP1 POP JUMP JUMPDEST PUSH32 0x526571756573742076616C7565206D7573742062652067726561746572207468 PUSH1 0x0 DUP3 ADD MSTORE PUSH32 0x616E203000000000000000000000000000000000000000000000000000000000 PUSH1 0x20 DUP3 ADD MSTORE POP JUMP JUMPDEST PUSH1 0x0 PUSH2 0x27EF PUSH1 0x24 DUP4 PUSH2 0x1C4E JUMP JUMPDEST SWAP2 POP PUSH2 0x27FA DUP3 PUSH2 0x2793 JUMP JUMPDEST PUSH1 0x40 DUP3 ADD SWAP1 POP SWAP2 SWAP1 POP JUMP JUMPDEST PUSH1 0x0 PUSH1 0x20 DUP3 ADD SWAP1 POP DUP2 DUP2 SUB PUSH1 0x0 DUP4 ADD MSTORE PUSH2 0x281E DUP2 PUSH2 0x27E2 JUMP JUMPDEST SWAP1 POP SWAP2 SWAP1 POP JUMP JUMPDEST PUSH32 0x4465736372697074696F6E2063616E6E6F7420626520656D7074790000000000 PUSH1 0x0 DUP3 ADD MSTORE POP JUMP JUMPDEST PUSH1 0x0 PUSH2 0x285B PUSH1 0x1B DUP4 PUSH2 0x1C4E JUMP JUMPDEST SWAP2 POP PUSH2 0x2866 DUP3 PUSH2 0x2825 JUMP JUMPDEST PUSH1 0x20 DUP3 ADD SWAP1 POP SWAP2 SWAP1 POP JUMP JUMPDEST PUSH1 0x0 PUSH1 0x20 DUP3 ADD SWAP1 POP DUP2 DUP2 SUB PUSH1 0x0 DUP4 ADD MSTORE PUSH2 0x288A DUP2 PUSH2 0x284E JUMP JUMPDEST SWAP1 POP SWAP2 SWAP1 POP JUMP JUMPDEST PUSH32 0x496E76616C696420726563697069656E74206164647265737300000000000000 PUSH1 0x0 DUP3 ADD MSTORE POP JUMP JUMPDEST PUSH1 0x0 PUSH2 0x28C7 PUSH1 0x19 DUP4 PUSH2 0x1C4E JUMP JUMPDEST SWAP2 POP PUSH2 0x28D2 DUP3 PUSH2 0x2891 JUMP JUMPDEST PUSH1 0x20 DUP3 ADD SWAP1 POP SWAP2 SWAP1 POP JUMP JUMPDEST PUSH1 0x0 PUSH1 0x20 DUP3 ADD SWAP1 POP DUP2 DUP2 SUB PUSH1 0x0 DUP4 ADD MSTORE PUSH2 0x28F6 DUP2 PUSH2 0x28BA JUMP JUMPDEST SWAP1 POP SWAP2 SWAP1 POP JUMP JUMPDEST PUSH32 0x496E73756666696369656E742066756E647320666F7220726571756573740000 PUSH1 0x0 DUP3 ADD MSTORE POP JUMP JUMPDEST PUSH1 0x0 PUSH2 0x2933 PUSH1 0x1E DUP4 PUSH2 0x1C4E JUMP JUMPDEST SWAP2 POP PUSH2 0x293E DUP3 PUSH2 0x28FD JUMP JUMPDEST PUSH1 0x20 DUP3 ADD SWAP1 POP SWAP2 SWAP1 POP JUMP JUMPDEST PUSH1 0x0 PUSH1 0x20 DUP3 ADD SWAP1 POP DUP2 DUP2 SUB PUSH1 0x0 DUP4 ADD MSTORE PUSH2 0x2962 DUP2 PUSH2 0x2926 JUMP JUMPDEST SWAP1 POP SWAP2 SWAP1 POP JUMP JUMPDEST PUSH1 0x0 DUP2 SWAP1 POP DUP2 PUSH1 0x0 MSTORE PUSH1 0x20 PUSH1 0x0 KECCAK256 SWAP1 POP SWAP2 SWAP1 POP JUMP JUMPDEST PUSH1 0x0 PUSH1 0x20 PUSH1 0x1F DUP4 ADD DIV SWAP1 POP SWAP2 SWAP1 POP JUMP JUMPDEST PUSH1 0x0 DUP3 DUP3 SHL SWAP1 POP SWAP3 SWAP2 POP POP JUMP JUMPDEST PUSH1 0x0 PUSH1 0x8 DUP4 MUL PUSH2 0x29CB PUSH32 0xFFFFFFFFFFFFFFFFFFFFFFFFFFFFFFFFFFFFFFFFFFFFFFFFFFFFFFFFFFFFFFFF DUP3 PUSH2 0x298E JUMP JUMPDEST PUSH2 0x29D5 DUP7 DUP4 PUSH2 0x298E JUMP JUMPDEST SWAP6 POP DUP1 NOT DUP5 AND SWAP4 POP DUP1 DUP7 AND DUP5 OR SWAP3 POP POP POP SWAP4 SWAP3 POP POP POP JUMP JUMPDEST PUSH1 0x0 DUP2 SWAP1 POP SWAP2 SWAP1 POP JUMP JUMPDEST PUSH1 0x0 PUSH2 0x2A12 PUSH2 0x2A0D PUSH2 0x2A08 DUP5 PUSH2 0x1AC9 JUMP JUMPDEST PUSH2 0x29ED JUMP JUMPDEST PUSH2 0x1AC9 JUMP JUMPDEST SWAP1 POP SWAP2 SWAP1 POP JUMP JUMPDEST PUSH1 0x0 DUP2 SWAP1 POP SWAP2 SWAP1 POP JUMP JUMPDEST PUSH2 0x2A2C DUP4 PUSH2 0x29F7 JUMP JUMPDEST PUSH2 0x2A40 PUSH2 0x2A38 DUP3 PUSH2 0x2A19 JUMP JUMPDEST DUP5 DUP5 SLOAD PUSH2 0x299B JUMP JUMPDEST DUP3 SSTORE POP POP POP POP JUMP JUMPDEST PUSH1 0x0 SWAP1 JUMP JUMPDEST PUSH2 0x2A55 PUSH2 0x2A48 JUMP JUMPDEST PUSH2 0x2A60 DUP2 DUP5 DUP5 PUSH2 0x2A23 JUMP JUMPDEST POP POP POP JUMP JUMPDEST JUMPDEST DUP2 DUP2 LT ISZERO PUSH2 0x2A84 JUMPI PUSH2 0x2A79 PUSH1 0x0 DUP3 PUSH2 0x2A4D JUMP JUMPDEST PUSH1 0x1 DUP2 ADD SWAP1 POP PUSH2 0x2A66 JUMP JUMPDEST POP POP JUMP JUMPDEST PUSH1 0x1F DUP3 GT ISZERO PUSH2 0x2AC9 JUMPI PUSH2 0x2A9A DUP2 PUSH2 0x2969 JUMP JUMPDEST PUSH2 0x2AA3 DUP5 PUSH2 0x297E JUMP JUMPDEST DUP2 ADD PUSH1 0x20 DUP6 LT ISZERO PUSH2 0x2AB2 JUMPI DUP2 SWAP1 POP JUMPDEST PUSH2 0x2AC6 PUSH2 0x2ABE DUP6 PUSH2 0x297E JUMP JUMPDEST DUP4 ADD DUP3 PUSH2 0x2A65 JUMP JUMPDEST POP POP JUMPDEST POP POP POP JUMP JUMPDEST PUSH1 0x0 DUP3 DUP3 SHR SWAP1 POP SWAP3 SWAP2 POP POP JUMP JUMPDEST PUSH1 0x0 PUSH2 0x2AEC PUSH1 0x0 NOT DUP5 PUSH1 0x8 MUL PUSH2 0x2ACE JUMP JUMPDEST NOT DUP1 DUP4 AND SWAP2 POP POP SWAP3 SWAP2 POP POP JUMP JUMPDEST PUSH1 0x0 PUSH2 0x2B05 DUP4 DUP4 PUSH2 0x2ADB JUMP JUMPDEST SWAP2 POP DUP3 PUSH1 0x2 MUL DUP3 OR SWAP1 POP SWAP3 SWAP2 POP POP JUMP JUMPDEST PUSH2 0x2B1E DUP3 PUSH2 0x1C43 JUMP JUMPDEST PUSH8 0xFFFFFFFFFFFFFFFF DUP2 GT ISZERO PUSH2 0x2B37 JUMPI PUSH2 0x2B36 PUSH2 0x1D8F JUMP JUMPDEST JUMPDEST PUSH2 0x2B41 DUP3 SLOAD PUSH2 0x2762 JUMP JUMPDEST PUSH2 0x2B4C DUP3 DUP3 DUP6 PUSH2 0x2A88 JUMP JUMPDEST PUSH1 0x0 PUSH1 0x20 SWAP1 POP PUSH1 0x1F DUP4 GT PUSH1 0x1 DUP2 EQ PUSH2 0x2B7F JUMPI PUSH1 0x0 DUP5 ISZERO PUSH2 0x2B6D JUMPI DUP3 DUP8 ADD MLOAD SWAP1 POP JUMPDEST PUSH2 0x2B77 DUP6 DUP3 PUSH2 0x2AF9 JUMP JUMPDEST DUP7 SSTORE POP PUSH2 0x2BDF JUMP JUMPDEST PUSH1 0x1F NOT DUP5 AND PUSH2 0x2B8D DUP7 PUSH2 0x2969 JUMP JUMPDEST PUSH1 0x0 JUMPDEST DUP3 DUP2 LT ISZERO PUSH2 0x2BB5 JUMPI DUP5 DUP10 ADD MLOAD DUP3 SSTORE PUSH1 0x1 DUP3 ADD SWAP2 POP PUSH1 0x20 DUP6 ADD SWAP5 POP PUSH1 0x20 DUP2 ADD SWAP1 POP PUSH2 0x2B90 JUMP JUMPDEST DUP7 DUP4 LT ISZERO PUSH2 0x2BD2 JUMPI DUP5 DUP10 ADD MLOAD PUSH2 0x2BCE PUSH1 0x1F DUP10 AND DUP3 PUSH2 0x2ADB JUMP JUMPDEST DUP4 SSTORE POP JUMPDEST PUSH1 0x1 PUSH1 0x2 DUP9 MUL ADD DUP9 SSTORE POP POP POP JUMPDEST POP POP POP POP POP POP JUMP JUMPDEST PUSH1 0x0 PUSH2 0x2C02 PUSH2 0x2BFD PUSH2 0x2BF8 DUP5 PUSH2 0x1B56 JUMP JUMPDEST PUSH2 0x29ED JUMP JUMPDEST PUSH2 0x1B56 JUMP JUMPDEST SWAP1 POP SWAP2 SWAP1 POP JUMP JUMPDEST PUSH1 0x0 PUSH2 0x2C14 DUP3 PUSH2 0x2BE7 JUMP JUMPDEST SWAP1 POP SWAP2 SWAP1 POP JUMP JUMPDEST PUSH1 0x0 PUSH2 0x2C26 DUP3 PUSH2 0x2C09 JUMP JUMPDEST SWAP1 POP SWAP2 SWAP1 POP JUMP JUMPDEST PUSH2 0x2C36 DUP2 PUSH2 0x2C1B JUMP JUMPDEST DUP3 MSTORE POP POP JUMP JUMPDEST PUSH1 0x0 PUSH1 0x80 DUP3 ADD SWAP1 POP PUSH2 0x2C51 PUSH1 0x0 DUP4 ADD DUP8 PUSH2 0x1B2C JUMP JUMPDEST DUP2 DUP2 SUB PUSH1 0x20 DUP4 ADD MSTORE PUSH2 0x2C63 DUP2 DUP7 PUSH2 0x1C9A JUMP JUMPDEST SWAP1 POP PUSH2 0x2C72 PUSH1 0x40 DUP4 ADD DUP6 PUSH2 0x1B2C JUMP JUMPDEST PUSH2 0x2C7F PUSH1 0x60 DUP4 ADD DUP5 PUSH2 0x2C2D JUMP JUMPDEST SWAP6 SWAP5 POP POP POP POP POP JUMP JUMPDEST PUSH32 0x4F6E6C7920636F6E7472696275746F72732063616E20617070726F7665000000 PUSH1 0x0 DUP3 ADD MSTORE POP JUMP JUMPDEST PUSH1 0x0 PUSH2 0x2CBE PUSH1 0x1D DUP4 PUSH2 0x1C4E JUMP JUMPDEST SWAP2 POP PUSH2 0x2CC9 DUP3 PUSH2 0x2C88 JUMP JUMPDEST PUSH1 0x20 DUP3 ADD SWAP1 POP SWAP2 SWAP1 POP JUMP JUMPDEST PUSH1 0x0 PUSH1 0x20 DUP3 ADD SWAP1 POP DUP2 DUP2 SUB PUSH1 0x0 DUP4 ADD MSTORE PUSH2 0x2CED DUP2 PUSH2 0x2CB1 JUMP JUMPDEST SWAP1 POP SWAP2 SWAP1 POP JUMP JUMPDEST PUSH32 0x4F776E61626C653A206E6577206F776E657220697320746865207A65726F2061 PUSH1 0x0 DUP3 ADD MSTORE PUSH32 0x6464726573730000000000000000000000000000000000000000000000000000 PUSH1 0x20 DUP3 ADD MSTORE POP JUMP JUMPDEST PUSH1 0x0 PUSH2 0x2D50 PUSH1 0x26 DUP4 PUSH2 0x1C4E JUMP JUMPDEST SWAP2 POP PUSH2 0x2D5B DUP3 PUSH2 0x2CF4 JUMP JUMPDEST PUSH1 0x40 DUP3 ADD SWAP1 POP SWAP2 SWAP1 POP JUMP JUMPDEST PUSH1 0x0 PUSH1 0x20 DUP3 ADD SWAP1 POP DUP2 DUP2 SUB PUSH1 0x0 DUP4 ADD MSTORE PUSH2 0x2D7F DUP2 PUSH2 0x2D43 JUMP JUMPDEST SWAP1 POP SWAP2 SWAP1 POP JUMP JUMPDEST PUSH32 0x5265656E7472616E637947756172643A207265656E7472616E742063616C6C00 PUSH1 0x0 DUP3 ADD MSTORE POP JUMP JUMPDEST PUSH1 0x0 PUSH2 0x2DBC PUSH1 0x1F DUP4 PUSH2 0x1C4E JUMP JUMPDEST SWAP2 POP PUSH2 0x2DC7 DUP3 PUSH2 0x2D86 JUMP JUMPDEST PUSH1 0x20 DUP3 ADD SWAP1 POP SWAP2 SWAP1 POP JUMP JUMPDEST PUSH1 0x0 PUSH1 0x20 DUP3 ADD SWAP1 POP DUP2 DUP2 SUB PUSH1 0x0 DUP4 ADD MSTORE PUSH2 0x2DEB DUP2 PUSH2 0x2DAF JUMP JUMPDEST SWAP1 POP SWAP2 SWAP1 POP JUMP JUMPDEST PUSH32 0x4F776E61626C653A2063616C6C6572206973206E6F7420746865206F776E6572 PUSH1 0x0 DUP3 ADD MSTORE POP JUMP JUMPDEST PUSH1 0x0 PUSH2 0x2E28 PUSH1 0x20 DUP4 PUSH2 0x1C4E JUMP JUMPDEST SWAP2 POP PUSH2 0x2E33 DUP3 PUSH2 0x2DF2 JUMP JUMPDEST PUSH1 0x20 DUP3 ADD SWAP1 POP SWAP2 SWAP1 POP JUMP JUMPDEST PUSH1 0x0 PUSH1 0x20 DUP3 ADD SWAP1 POP DUP2 DUP2 SUB PUSH1 0x0 DUP4 ADD MSTORE PUSH2 0x2E57 DUP2 PUSH2 0x2E1B JUMP JUMPDEST SWAP1 POP SWAP2 SWAP1 POP JUMP INVALID LOG2 PUSH5 0x6970667358 0x22 SLT KECCAK256 0x2F 0xEA DUP7 0x4D 0x23 0xEE 0xAB 0xF8 0xD6 JUMPI 0xF 0xBF 0xF DUP5 0xB3 SLOAD DUP9 MSIZE SWAP16 DUP11 RETURNDATASIZE 0x1E CALL 0x2F JUMPI ORIGIN SHL PUSH32 0xF56A4B864736F6C63430008180033A26469706673582212202E7C9F52D312DC JUMP 0x24 0xBC SMOD 0xD9 CALLDATASIZE 0x4F BALANCE PUSH7 0xFC582F699A0C91 CALLDATALOAD 0xD0 BLOCKHASH 0xC4 0xBD PUSH20 0x7F65A464736F6C63430008180033000000000000 "},"methodIdentifiers":{"campaignIds(address)":"840f8b90","campaigns(uint256)":"141961bc","createCampaign(uint256)":"a3303a75","deactivateCampaign(uint256)":"7eca30fe","getActiveCampaigns()":"c362b156","getCampaignInfo(uint256)":"e38e2b82","getCampaignStatus(address)":"9d31e1a7","getDeployedCampaigns()":"4acb9d4f","owner()":"8da5cb5b","renounceOwnership()":"715018a6","transferOwnership(address)":"f2fde38b"}}}}}