{
  "_format": "hh-sol-artifact-1",
  "contractName": "CampaignFactory",
  "sourceName": "contracts/CampaignFactory.sol",
  "abi": [
    {
      "inputs": [],
      "stateMutability": "nonpayable",
      "type": "constructor"
    },
    {
      "anonymous": false,
      "inputs": [
        {
          "indexed": false,
          "internalType": "uint256",
          "name": "campaignId",
          "type": "uint256"
        },
        {
          "indexed": false,
          "internalType": "address",
          "name": "campaignAddress",
          "type": "address"
        },
        {
          "indexed": false,
          "internalType": "address",
          "name": "creator",
          "type": "address"
        },
        {
          "indexed": false,
          "internalType": "uint256",
          "name": "minContribution",
          "type": "uint256"
        },
        {
          "indexed": false,
          "internalType": "uint256",
          "name": "timestamp",
          "type": "uint256"
        }
      ],
      "name": "CampaignCreated",
      "type": "event"
    },
    {
      "anonymous": false,
      "inputs": [
        {
          "indexed": false,
          "internalType": "uint256",
          "name": "campaignId",
          "type": "uint256"
        },
        {
          "indexed": false,
          "internalType": "address",
          "name": "campaignAddress",
          "type": "address"
        }
      ],
      "name": "CampaignRemoved",
      "type": "event"
    },
    {
      "anonymous": false,
      "inputs": [
        {
          "indexed": false,
          "internalType": "uint256",
          "name": "campaignId",
          "type": "uint256"
        },
        {
          "indexed": false,
          "internalType": "address",
          "name": "campaignAddress",
          "type": "address"
        },
        {
          "indexed": false,
          "internalType": "bool",
          "name": "isActive",
          "type": "bool"
        }
      ],
      "name": "CampaignStatusChanged",
      "type": "event"
    },
    {
      "anonymous": false,
      "inputs": [
        {
          "indexed": false,
          "internalType": "uint256",
          "name": "amount",
          "type": "uint256"
        },
        {
          "indexed": false,
          "internalType": "address",
          "name": "recipient",
          "type": "address"
        }
      ],
      "name": "FundsReleased",
      "type": "event"
    },
    {
      "anonymous": false,
      "inputs": [
        {
          "indexed": true,
          "internalType": "address",
          "name": "previousOwner",
          "type": "address"
        },
        {
          "indexed": true,
          "internalType": "address",
          "name": "newOwner",
          "type": "address"
        }
      ],
      "name": "OwnershipTransferred",
      "type": "event"
    },
    {
      "inputs": [
        {
          "internalType": "address",
          "name": "",
          "type": "address"
        }
      ],
      "name": "campaignIds",
      "outputs": [
        {
          "internalType": "uint256",
          "name": "",
          "type": "uint256"
        }
      ],
      "stateMutability": "view",
      "type": "function"
    },
    {
      "inputs": [
        {
          "internalType": "uint256",
          "name": "",
          "type": "uint256"
        }
      ],
      "name": "campaigns",
      "outputs": [
        {
          "internalType": "address",
          "name": "campaignAddress",
          "type": "address"
        },
        {
          "internalType": "bool",
          "name": "isActive",
          "type": "bool"
        },
        {
          "internalType": "uint256",
          "name": "createdAt",
          "type": "uint256"
        },
        {
          "internalType": "uint256",
          "name": "minContribution",
          "type": "uint256"
        },
        {
          "internalType": "address",
          "name": "creator",
          "type": "address"
        }
      ],
      "stateMutability": "view",
      "type": "function"
    },
    {
      "inputs": [
        {
          "internalType": "uint256",
          "name": "minContribution",
          "type": "uint256"
        }
      ],
      "name": "createCampaign",
      "outputs": [
        {
          "internalType": "address",
          "name": "",
          "type": "address"
        }
      ],
      "stateMutability": "nonpayable",
      "type": "function"
    },
    {
      "inputs": [
        {
          "internalType": "uint256",
          "name": "campaignId",
          "type": "uint256"
        }
      ],
      "name": "deactivateCampaign",
      "outputs": [],
      "stateMutability": "nonpayable",
      "type": "function"
    },
    {
      "inputs": [],
      "name": "getActiveCampaigns",
      "outputs": [
        {
          "internalType": "address[]",
          "name": "",
          "type": "address[]"
        }
      ],
      "stateMutability": "view",
      "type": "function"
    },
    {
      "inputs": [
        {
          "internalType": "address",
          "name": "campaignAddress",
          "type": "address"
        }
      ],
      "name": "getCampaignId",
      "outputs": [
        {
          "internalType": "uint256",
          "name": "",
          "type": "uint256"
        }
      ],
      "stateMutability": "view",
      "type": "function"
    },
    {
      "inputs": [
        {
          "internalType": "uint256",
          "name": "campaignId",
          "type": "uint256"
        }
      ],
      "name": "getCampaignInfo",
      "outputs": [
        {
          "internalType": "address",
          "name": "campaignAddress",
          "type": "address"
        },
        {
          "internalType": "bool",
          "name": "isActive",
          "type": "bool"
        },
        {
          "internalType": "uint256",
          "name": "createdAt",
          "type": "uint256"
        },
        {
          "internalType": "uint256",
          "name": "minContribution",
          "type": "uint256"
        },
        {
          "internalType": "address",
          "name": "creator",
          "type": "address"
        }
      ],
      "stateMutability": "view",
      "type": "function"
    },
    {
      "inputs": [
        {
          "internalType": "address",
          "name": "campaignAddress",
          "type": "address"
        }
      ],
      "name": "getCampaignStatus",
      "outputs": [
        {
          "internalType": "bool",
          "name": "",
          "type": "bool"
        }
      ],
      "stateMutability": "view",
      "type": "function"
    },
    {
      "inputs": [],
      "name": "getDeployedCampaigns",
      "outputs": [
        {
          "internalType": "address[]",
          "name": "",
          "type": "address[]"
        },
        {
          "internalType": "bool[]",
          "name": "",
          "type": "bool[]"
        }
      ],
      "stateMutability": "view",
      "type": "function"
    },
    {
      "inputs": [],
      "name": "owner",
      "outputs": [
        {
          "internalType": "address",
          "name": "",
          "type": "address"
        }
      ],
      "stateMutability": "view",
      "type": "function"
    },
    {
      "inputs": [],
      "name": "releaseFunds",
      "outputs": [],
      "stateMutability": "nonpayable",
      "type": "function"
    },
    {
      "inputs": [],
      "name": "renounceOwnership",
      "outputs": [],
      "stateMutability": "nonpayable",
      "type": "function"
    },
    {
      "inputs": [
        {
          "internalType": "address",
          "name": "newOwner",
          "type": "address"
        }
      ],
      "name": "transferOwnership",
      "outputs": [],
      "stateMutability": "nonpayable",
      "type": "function"
    }
  ],
  "bytecode": "0x60806040523480156200001157600080fd5b5062000032620000266200005060201b60201c565b6200005860201b60201c565b600180819055506200004a336200005860201b60201c565b6200011c565b600033905090565b60008060009054906101000a900473ffffffffffffffffffffffffffffffffffffffff169050816000806101000a81548173ffffffffffffffffffffffffffffffffffffffff021916908373ffffffffffffffffffffffffffffffffffffffff1602179055508173ffffffffffffffffffffffffffffffffffffffff168173ffffffffffffffffffffffffffffffffffffffff167f8be0079c531659141344cd1fd0a4f28419497f9722a3daafe3b4186f6b6457e060405160405180910390a35050565b6151d2806200012c6000396000f3fe60806040523480156200001157600080fd5b5060043610620000e25760003560e01c80638da5cb5b1162000099578063a3303a75116200006f578063a3303a751462000240578063c362b1561462000276578063e38e2b821462000298578063f2fde38b14620002d257620000e2565b80638da5cb5b14620001b25780639550fef114620001d45780639d31e1a7146200020a57620000e2565b8063141961bc14620000e75780634acb9d4f146200012157806369d895751462000144578063715018a614620001505780637eca30fe146200015c578063840f8b90146200017c575b600080fd5b620001056004803603810190620000ff9190620016a9565b620002f2565b604051620001189594939291906200174e565b60405180910390f35b6200012b62000375565b6040516200013b92919062001947565b60405180910390f35b6200014e62000652565b005b6200015a62000753565b005b6200017a6004803603810190620001749190620016a9565b6200076b565b005b6200019a6004803603810190620001949190620019b3565b62000a3b565b604051620001a99190620019e5565b60405180910390f35b620001bc62000a53565b604051620001cb919062001a02565b60405180910390f35b620001f26004803603810190620001ec9190620019b3565b62000a7c565b604051620002019190620019e5565b60405180910390f35b620002286004803603810190620002229190620019b3565b62000ac5565b60405162000237919062001a1f565b60405180910390f35b6200025e6004803603810190620002589190620016a9565b62000c41565b6040516200026d919062001a02565b60405180910390f35b6200028062000f65565b6040516200028f919062001a3c565b60405180910390f35b620002b66004803603810190620002b09190620016a9565b6200127f565b604051620002c99594939291906200174e565b60405180910390f35b620002f06004803603810190620002ea9190620019b3565b62001401565b005b60036020528060005260406000206000915090508060000160009054906101000a900473ffffffffffffffffffffffffffffffffffffffff16908060000160149054906101000a900460ff16908060010154908060020154908060030160009054906101000a900473ffffffffffffffffffffffffffffffffffffffff16905085565b60608060006200038660026200148b565b905060008167ffffffffffffffff811115620003a757620003a662001a60565b5b604051908082528060200260200182016040528015620003d65781602001602082028036833780820191505090505b50905060008267ffffffffffffffff811115620003f857620003f762001a60565b5b604051908082528060200260200182016040528015620004275781602001602082028036833780820191505090505b50905060005b8381101562000644576000600360008381526020019081526020016000206040518060a00160405290816000820160009054906101000a900473ffffffffffffffffffffffffffffffffffffffff1673ffffffffffffffffffffffffffffffffffffffff1673ffffffffffffffffffffffffffffffffffffffff1681526020016000820160149054906101000a900460ff1615151515815260200160018201548152602001600282015481526020016003820160009054906101000a900473ffffffffffffffffffffffffffffffffffffffff1673ffffffffffffffffffffffffffffffffffffffff1673ffffffffffffffffffffffffffffffffffffffff1681525050905080600001518483815181106200054e576200054d62001a8f565b5b602002602001019073ffffffffffffffffffffffffffffffffffffffff16908173ffffffffffffffffffffffffffffffffffffffff1681525050806020015180156200060d5750806000015173ffffffffffffffffffffffffffffffffffffffff166395ee12216040518163ffffffff1660e01b8152600401602060405180830381865afa158015620005e5573d6000803e3d6000fd5b505050506040513d601f19601f820116820180604052508101906200060b919062001aef565b155b83838151811062000623576200062262001a8f565b5b6020026020010190151590811515815250505080806001019150506200042d565b508181945094505050509091565b6200065c62001499565b620006666200151e565b600047905060008111620006b1576040517f08c379a0000000000000000000000000000000000000000000000000000000008152600401620006a89062001b82565b60405180910390fd5b620006bb62000a53565b73ffffffffffffffffffffffffffffffffffffffff166108fc829081150290604051600060405180830381858888f1935050505015801562000701573d6000803e3d6000fd5b507f8f5073d0a7a22ba450e278541077e181af457be74bea91e61f1f99e6bb40748e816200072e62000a53565b6040516200073e92919062001ba4565b60405180910390a1506200075162001570565b565b6200075d62001499565b62000769600062001579565b565b6200077562001499565b6200077f6200151e565b6200078b60026200148b565b8110620007cf576040517f08c379a0000000000000000000000000000000000000000000000000000000008152600401620007c69062001c21565b60405180910390fd5b6003600082815260200190815260200160002060000160149054906101000a900460ff1662000835576040517f08c379a00000000000000000000000000000000000000000000000000000000081526004016200082c9062001c93565b60405180910390fd5b600060036000838152602001908152602001600020905060008160000160009054906101000a900473ffffffffffffffffffffffffffffffffffffffff1690508073ffffffffffffffffffffffffffffffffffffffff166395ee12216040518163ffffffff1660e01b8152600401602060405180830381865afa158015620008c1573d6000803e3d6000fd5b505050506040513d601f19601f82011682018060405250810190620008e7919062001aef565b6200094e578073ffffffffffffffffffffffffffffffffffffffff16624f3e866040518163ffffffff1660e01b8152600401600060405180830381600087803b1580156200093457600080fd5b505af115801562000949573d6000803e3d6000fd5b505050505b60008260000160146101000a81548160ff0219169083151502179055507fbc024e4aa60a5c1fe873e2fcdf7c38b4580c07539828049db4428819e6031ad5838360000160009054906101000a900473ffffffffffffffffffffffffffffffffffffffff16604051620009c292919062001ba4565b60405180910390a17f046a9ef4e9741ed9b7cba82ad486735ab516bd04dc43f6ee911737503f759db7838360000160009054906101000a900473ffffffffffffffffffffffffffffffffffffffff16600060405162000a249392919062001cb5565b60405180910390a1505062000a3862001570565b50565b60046020528060005260406000206000915090505481565b60008060009054906101000a900473ffffffffffffffffffffffffffffffffffffffff16905090565b6000600460008373ffffffffffffffffffffffffffffffffffffffff1673ffffffffffffffffffffffffffffffffffffffff168152602001908152602001600020549050919050565b600080600460008473ffffffffffffffffffffffffffffffffffffffff1673ffffffffffffffffffffffffffffffffffffffff16815260200190815260200160002054905062000b1660026200148b565b8110158062000b8757508273ffffffffffffffffffffffffffffffffffffffff166003600083815260200190815260200160002060000160009054906101000a900473ffffffffffffffffffffffffffffffffffffffff1673ffffffffffffffffffffffffffffffffffffffff1614155b1562000b9857600091505062000c3c565b6003600082815260200190815260200160002060000160149054906101000a900460ff16801562000c3857508273ffffffffffffffffffffffffffffffffffffffff166395ee12216040518163ffffffff1660e01b8152600401602060405180830381865afa15801562000c10573d6000803e3d6000fd5b505050506040513d601f19601f8201168201806040525081019062000c36919062001aef565b155b9150505b919050565b600062000c4d6200151e565b6000821162000c93576040517f08c379a000000000000000000000000000000000000000000000000000000000815260040162000c8a9062001d68565b60405180910390fd5b600062000ca160026200148b565b90506000833060405162000cb5906200165b565b62000cc292919062001ba4565b604051809103906000f08015801562000cdf573d6000803e3d6000fd5b509050600073ffffffffffffffffffffffffffffffffffffffff168173ffffffffffffffffffffffffffffffffffffffff160362000d54576040517f08c379a000000000000000000000000000000000000000000000000000000000815260040162000d4b9062001dda565b60405180910390fd5b6040518060a001604052808273ffffffffffffffffffffffffffffffffffffffff1681526020016001151581526020014281526020018581526020013373ffffffffffffffffffffffffffffffffffffffff168152506003600084815260200190815260200160002060008201518160000160006101000a81548173ffffffffffffffffffffffffffffffffffffffff021916908373ffffffffffffffffffffffffffffffffffffffff16021790555060208201518160000160146101000a81548160ff021916908315150217905550604082015181600101556060820151816002015560808201518160030160006101000a81548173ffffffffffffffffffffffffffffffffffffffff021916908373ffffffffffffffffffffffffffffffffffffffff16021790555090505081600460008373ffffffffffffffffffffffffffffffffffffffff1673ffffffffffffffffffffffffffffffffffffffff1681526020019081526020016000208190555062000ed260026200163d565b7fd1344736c6f5aed92434818925ffb41a595e2e7e95a63ec40204158b754b0686828233874260405162000f0b95949392919062001dfc565b60405180910390a17f046a9ef4e9741ed9b7cba82ad486735ab516bd04dc43f6ee911737503f759db78282600160405162000f499392919062001cb5565b60405180910390a1809250505062000f6062001570565b919050565b6060600062000f7560026200148b565b90506000805b828110156200107f576003600082815260200190815260200160002060000160149054906101000a900460ff1680156200105a57506003600082815260200190815260200160002060000160009054906101000a900473ffffffffffffffffffffffffffffffffffffffff1673ffffffffffffffffffffffffffffffffffffffff166395ee12216040518163ffffffff1660e01b8152600401602060405180830381865afa15801562001032573d6000803e3d6000fd5b505050506040513d601f19601f8201168201806040525081019062001058919062001aef565b155b15620010715781806200106d9062001e88565b9250505b808060010191505062000f7b565b5060008167ffffffffffffffff8111156200109f576200109e62001a60565b5b604051908082528060200260200182016040528015620010ce5781602001602082028036833780820191505090505b5090506000805b8481108015620010e457508382105b1562001274576003600082815260200190815260200160002060000160149054906101000a900460ff168015620011c057506003600082815260200190815260200160002060000160009054906101000a900473ffffffffffffffffffffffffffffffffffffffff1673ffffffffffffffffffffffffffffffffffffffff166395ee12216040518163ffffffff1660e01b8152600401602060405180830381865afa15801562001198573d6000803e3d6000fd5b505050506040513d601f19601f82011682018060405250810190620011be919062001aef565b155b156200125e576003600082815260200190815260200160002060000160009054906101000a900473ffffffffffffffffffffffffffffffffffffffff1683838151811062001213576200121262001a8f565b5b602002602001019073ffffffffffffffffffffffffffffffffffffffff16908173ffffffffffffffffffffffffffffffffffffffff168152505081806200125a9062001e88565b9250505b80806200126b9062001e88565b915050620010d5565b508194505050505090565b60008060008060006200129360026200148b565b8610620012d7576040517f08c379a0000000000000000000000000000000000000000000000000000000008152600401620012ce9062001c21565b60405180910390fd5b6000600360008881526020019081526020016000206040518060a00160405290816000820160009054906101000a900473ffffffffffffffffffffffffffffffffffffffff1673ffffffffffffffffffffffffffffffffffffffff1673ffffffffffffffffffffffffffffffffffffffff1681526020016000820160149054906101000a900460ff1615151515815260200160018201548152602001600282015481526020016003820160009054906101000a900473ffffffffffffffffffffffffffffffffffffffff1673ffffffffffffffffffffffffffffffffffffffff1673ffffffffffffffffffffffffffffffffffffffff1681525050905080600001518160200151826040015183606001518460800151955095509550955095505091939590929450565b6200140b62001499565b600073ffffffffffffffffffffffffffffffffffffffff168173ffffffffffffffffffffffffffffffffffffffff16036200147d576040517f08c379a0000000000000000000000000000000000000000000000000000000008152600401620014749062001f4b565b60405180910390fd5b620014888162001579565b50565b600081600001549050919050565b620014a362001653565b73ffffffffffffffffffffffffffffffffffffffff16620014c362000a53565b73ffffffffffffffffffffffffffffffffffffffff16146200151c576040517f08c379a0000000000000000000000000000000000000000000000000000000008152600401620015139062001fbd565b60405180910390fd5b565b60026001540362001566576040517f08c379a00000000000000000000000000000000000000000000000000000000081526004016200155d906200202f565b60405180910390fd5b6002600181905550565b60018081905550565b60008060009054906101000a900473ffffffffffffffffffffffffffffffffffffffff169050816000806101000a81548173ffffffffffffffffffffffffffffffffffffffff021916908373ffffffffffffffffffffffffffffffffffffffff1602179055508173ffffffffffffffffffffffffffffffffffffffff168173ffffffffffffffffffffffffffffffffffffffff167f8be0079c531659141344cd1fd0a4f28419497f9722a3daafe3b4186f6b6457e060405160405180910390a35050565b6001816000016000828254019250508190555050565b600033905090565b61314b806200205283390190565b600080fd5b6000819050919050565b62001683816200166e565b81146200168f57600080fd5b50565b600081359050620016a38162001678565b92915050565b600060208284031215620016c257620016c162001669565b5b6000620016d28482850162001692565b91505092915050565b600073ffffffffffffffffffffffffffffffffffffffff82169050919050565b60006200170882620016db565b9050919050565b6200171a81620016fb565b82525050565b60008115159050919050565b620017378162001720565b82525050565b62001748816200166e565b82525050565b600060a0820190506200176560008301886200170f565b6200177460208301876200172c565b6200178360408301866200173d565b6200179260608301856200173d565b620017a160808301846200170f565b9695505050505050565b600081519050919050565b600082825260208201905092915050565b6000819050602082019050919050565b620017e281620016fb565b82525050565b6000620017f68383620017d7565b60208301905092915050565b6000602082019050919050565b60006200181c82620017ab565b620018288185620017b6565b93506200183583620017c7565b8060005b838110156200186c578151620018508882620017e8565b97506200185d8362001802565b92505060018101905062001839565b5085935050505092915050565b600081519050919050565b600082825260208201905092915050565b6000819050602082019050919050565b620018b08162001720565b82525050565b6000620018c48383620018a5565b60208301905092915050565b6000602082019050919050565b6000620018ea8262001879565b620018f6818562001884565b9350620019038362001895565b8060005b838110156200193a5781516200191e8882620018b6565b97506200192b83620018d0565b92505060018101905062001907565b5085935050505092915050565b600060408201905081810360008301526200196381856200180f565b90508181036020830152620019798184620018dd565b90509392505050565b6200198d81620016fb565b81146200199957600080fd5b50565b600081359050620019ad8162001982565b92915050565b600060208284031215620019cc57620019cb62001669565b5b6000620019dc848285016200199c565b91505092915050565b6000602082019050620019fc60008301846200173d565b92915050565b600060208201905062001a1960008301846200170f565b92915050565b600060208201905062001a3660008301846200172c565b92915050565b6000602082019050818103600083015262001a5881846200180f565b905092915050565b7f4e487b7100000000000000000000000000000000000000000000000000000000600052604160045260246000fd5b7f4e487b7100000000000000000000000000000000000000000000000000000000600052603260045260246000fd5b62001ac98162001720565b811462001ad557600080fd5b50565b60008151905062001ae98162001abe565b92915050565b60006020828403121562001b085762001b0762001669565b5b600062001b188482850162001ad8565b91505092915050565b600082825260208201905092915050565b7f4e6f2066756e647320746f2072656c6561736500000000000000000000000000600082015250565b600062001b6a60138362001b21565b915062001b778262001b32565b602082019050919050565b6000602082019050818103600083015262001b9d8162001b5b565b9050919050565b600060408201905062001bbb60008301856200173d565b62001bca60208301846200170f565b9392505050565b7f496e76616c69642063616d706169676e20494400000000000000000000000000600082015250565b600062001c0960138362001b21565b915062001c168262001bd1565b602082019050919050565b6000602082019050818103600083015262001c3c8162001bfa565b9050919050565b7f43616d706169676e20616c726561647920696e61637469766500000000000000600082015250565b600062001c7b60198362001b21565b915062001c888262001c43565b602082019050919050565b6000602082019050818103600083015262001cae8162001c6c565b9050919050565b600060608201905062001ccc60008301866200173d565b62001cdb60208301856200170f565b62001cea60408301846200172c565b949350505050565b7f4d696e696d756d20636f6e747269627574696f6e206d7573742062652067726560008201527f61746572207468616e2030000000000000000000000000000000000000000000602082015250565b600062001d50602b8362001b21565b915062001d5d8262001cf2565b604082019050919050565b6000602082019050818103600083015262001d838162001d41565b9050919050565b7f43616d706169676e206372656174696f6e206661696c65640000000000000000600082015250565b600062001dc260188362001b21565b915062001dcf8262001d8a565b602082019050919050565b6000602082019050818103600083015262001df58162001db3565b9050919050565b600060a08201905062001e1360008301886200173d565b62001e2260208301876200170f565b62001e3160408301866200170f565b62001e4060608301856200173d565b62001e4f60808301846200173d565b9695505050505050565b7f4e487b7100000000000000000000000000000000000000000000000000000000600052601160045260246000fd5b600062001e95826200166e565b91507fffffffffffffffffffffffffffffffffffffffffffffffffffffffffffffffff820362001eca5762001ec962001e59565b5b600182019050919050565b7f4f776e61626c653a206e6577206f776e657220697320746865207a65726f206160008201527f6464726573730000000000000000000000000000000000000000000000000000602082015250565b600062001f3360268362001b21565b915062001f408262001ed5565b604082019050919050565b6000602082019050818103600083015262001f668162001f24565b9050919050565b7f4f776e61626c653a2063616c6c6572206973206e6f7420746865206f776e6572600082015250565b600062001fa560208362001b21565b915062001fb28262001f6d565b602082019050919050565b6000602082019050818103600083015262001fd88162001f96565b9050919050565b7f5265656e7472616e637947756172643a207265656e7472616e742063616c6c00600082015250565b600062002017601f8362001b21565b9150620020248262001fdf565b602082019050919050565b600060208201905081810360008301526200204a8162002008565b905091905056fe60c06040523480156200001157600080fd5b506040516200314b3803806200314b833981810160405281019062000037919062000227565b60016000819055506200005f62000053620000b460201b60201c565b620000bc60201b60201c565b6200007033620000bc60201b60201c565b8073ffffffffffffffffffffffffffffffffffffffff1660808173ffffffffffffffffffffffffffffffffffffffff16815250508160a0818152505050506200026e565b600033905090565b6000600160009054906101000a900473ffffffffffffffffffffffffffffffffffffffff16905081600160006101000a81548173ffffffffffffffffffffffffffffffffffffffff021916908373ffffffffffffffffffffffffffffffffffffffff1602179055508173ffffffffffffffffffffffffffffffffffffffff168173ffffffffffffffffffffffffffffffffffffffff167f8be0079c531659141344cd1fd0a4f28419497f9722a3daafe3b4186f6b6457e060405160405180910390a35050565b600080fd5b6000819050919050565b6200019c8162000187565b8114620001a857600080fd5b50565b600081519050620001bc8162000191565b92915050565b600073ffffffffffffffffffffffffffffffffffffffff82169050919050565b6000620001ef82620001c2565b9050919050565b6200020181620001e2565b81146200020d57600080fd5b50565b6000815190506200022181620001f6565b92915050565b6000806040838503121562000241576200024062000182565b5b60006200025185828601620001ab565b9250506020620002648582860162000210565b9150509250929050565b60805160a051612e94620002b76000396000818161055301528181610f9301526113db0152600081816106f90152818161078f0152818161147801526115380152612e946000f3fe6080604052600436106101435760003560e01c80638da5cb5b116100b6578063d7bb99ba1161006f578063d7bb99ba1461041c578063d7d1bbdb14610426578063dff748e61461044f578063eb8bbd281461047a578063f2fde38b146104a5578063feed5561146104ce57610152565b80638da5cb5b1461032e578063937e09b11461035957806395ee122114610384578063968ed600146103af578063980e7844146103da578063c45a0155146103f157610152565b80634051ddac116101085780634051ddac1461021457806342e94c90146102435780635d6e297f14610280578063715018a6146102ab57806381d12c58146102c25780638a9cfd551461030557610152565b80624f3e8614610157578063034410061461016e5780632d7788db146101975780633015394c146101c05780633410452a146101e957610152565b36610152576101506104f9565b005b600080fd5b34801561016357600080fd5b5061016c6106a7565b005b34801561017a57600080fd5b5061019560048036038101906101909190611aff565b61084d565b005b3480156101a357600080fd5b506101be60048036038101906101b99190611aff565b610b42565b005b3480156101cc57600080fd5b506101e760048036038101906101e29190611aff565b610e0d565b005b3480156101f557600080fd5b506101fe610f78565b60405161020b9190611b3b565b60405180910390f35b34801561022057600080fd5b50610229610f89565b60405161023a959493929190611b97565b60405180910390f35b34801561024f57600080fd5b5061026a60048036038101906102659190611c16565b610fe0565b6040516102779190611b3b565b60405180910390f35b34801561028c57600080fd5b50610295610ff8565b6040516102a29190611b3b565b60405180910390f35b3480156102b757600080fd5b506102c0610ffe565b005b3480156102ce57600080fd5b506102e960048036038101906102e49190611aff565b611012565b6040516102fc9796959493929190611d0f565b60405180910390f35b34801561031157600080fd5b5061032c60048036038101906103279190611ee6565b611109565b005b34801561033a57600080fd5b506103436113af565b6040516103509190611f55565b60405180910390f35b34801561036557600080fd5b5061036e6113d9565b60405161037b9190611b3b565b60405180910390f35b34801561039057600080fd5b506103996113fd565b6040516103a69190611f70565b60405180910390f35b3480156103bb57600080fd5b506103c4611410565b6040516103d19190611b3b565b60405180910390f35b3480156103e657600080fd5b506103ef611416565b005b3480156103fd57600080fd5b50610406611536565b6040516104139190611f8b565b60405180910390f35b6104246104f9565b005b34801561043257600080fd5b5061044d60048036038101906104489190611aff565b61155a565b005b34801561045b57600080fd5b50610464611825565b6040516104719190611b3b565b60405180910390f35b34801561048657600080fd5b5061048f61182f565b60405161049c9190611b3b565b60405180910390f35b3480156104b157600080fd5b506104cc60048036038101906104c79190611c16565b611839565b005b3480156104da57600080fd5b506104e36118bc565b6040516104f09190611b3b565b60405180910390f35b600860009054906101000a900460ff1615610549576040517f08c379a000000000000000000000000000000000000000000000000000000000815260040161054090611ff2565b60405180910390fd5b6105516118cd565b7f00000000000000000000000000000000000000000000000000000000000000003410156105b4576040517f08c379a00000000000000000000000000000000000000000000000000000000081526004016105ab90612084565b60405180910390fd5b6000600260003373ffffffffffffffffffffffffffffffffffffffff1673ffffffffffffffffffffffffffffffffffffffff168152602001908152602001600020540361060657610605600361191c565b5b34600260003373ffffffffffffffffffffffffffffffffffffffff1673ffffffffffffffffffffffffffffffffffffffff168152602001908152602001600020600082825461065591906120d3565b92505081905550610664611932565b7f6770260ea820d2f539364e7617e021543aaf6d192f2fd2a47c20db6bd99a4eb93334604051610695929190612107565b60405180910390a16106a5611951565b565b600860009054906101000a900460ff16156106f7576040517f08c379a00000000000000000000000000000000000000000000000000000000081526004016106ee90611ff2565b60405180910390fd5b7f000000000000000000000000000000000000000000000000000000000000000073ffffffffffffffffffffffffffffffffffffffff163373ffffffffffffffffffffffffffffffffffffffff1614610785576040517f08c379a000000000000000000000000000000000000000000000000000000000815260040161077c906121a2565b60405180910390fd5b61078d6118cd565b7f000000000000000000000000000000000000000000000000000000000000000073ffffffffffffffffffffffffffffffffffffffff166108fc479081150290604051600060405180830381858888f193505050501580156107f3573d6000803e3d6000fd5b506001600860006101000a81548160ff021916908315150217905550610817611932565b7f123d4f203b2b83bfe9f45903402bb88193cc56a43371d97ab5a51bd1817d858660405160405180910390a161084b611951565b565b61085561195b565b61085d6118cd565b61086760056119d9565b81106108a8576040517f08c379a000000000000000000000000000000000000000000000000000000000815260040161089f9061220e565b60405180910390fd5b600060046000838152602001908152602001600020905080600501544211610905576040517f08c379a00000000000000000000000000000000000000000000000000000000081526004016108fc9061227a565b60405180910390fd5b8060020160149054906101000a900460ff1615610957576040517f08c379a000000000000000000000000000000000000000000000000000000000815260040161094e9061230c565b60405180910390fd5b60008160040154826003015461096d91906120d3565b905060006064601e61097f60036119d9565b610989919061232c565b610993919061239d565b9050808210156109d8576040517f08c379a00000000000000000000000000000000000000000000000000000000081526004016109cf9061241a565b60405180910390fd5b8260040154836003015411610a22576040517f08c379a0000000000000000000000000000000000000000000000000000000008152600401610a1990612486565b60405180910390fd5b4783600101541115610a69576040517f08c379a0000000000000000000000000000000000000000000000000000000008152600401610a60906124f2565b60405180910390fd5b60018360020160146101000a81548160ff0219169083151502179055508260020160009054906101000a900473ffffffffffffffffffffffffffffffffffffffff1673ffffffffffffffffffffffffffffffffffffffff166108fc84600101549081150290604051600060405180830381858888f19350505050158015610af4573d6000803e3d6000fd5b50610afd611932565b7f5f737e695a47d9dd61a69c097b680eb2d154fd3a73ddf8e06ae201447c59339584604051610b2c9190611b3b565b60405180910390a1505050610b3f611951565b50565b600860009054906101000a900460ff1615610b92576040517f08c379a0000000000000000000000000000000000000000000000000000000008152600401610b8990611ff2565b60405180910390fd5b610b9a6118cd565b610ba460056119d9565b8110610be5576040517f08c379a0000000000000000000000000000000000000000000000000000000008152600401610bdc9061220e565b60405180910390fd5b6000600260003373ffffffffffffffffffffffffffffffffffffffff1673ffffffffffffffffffffffffffffffffffffffff1681526020019081526020016000205411610c67576040517f08c379a0000000000000000000000000000000000000000000000000000000008152600401610c5e9061255e565b60405180910390fd5b60006004600083815260200190815260200160002090508060060160003373ffffffffffffffffffffffffffffffffffffffff1673ffffffffffffffffffffffffffffffffffffffff16815260200190815260200160002060009054906101000a900460ff1615610d0d576040517f08c379a0000000000000000000000000000000000000000000000000000000008152600401610d04906125ca565b60405180910390fd5b8060050154421115610d54576040517f08c379a0000000000000000000000000000000000000000000000000000000008152600401610d4b90612636565b60405180910390fd5b60018160060160003373ffffffffffffffffffffffffffffffffffffffff1673ffffffffffffffffffffffffffffffffffffffff16815260200190815260200160002060006101000a81548160ff021916908315150217905550806004016000815480929190610dc390612656565b91905055507f490ad67e4c8b3b9c1d11dfcd7f02e155190b8f6feff3a9d9e9df3721f0f74e578233604051610df992919061269e565b60405180910390a150610e0a611951565b50565b610e1561195b565b610e1d6118cd565b610e2760056119d9565b8110610e68576040517f08c379a0000000000000000000000000000000000000000000000000000000008152600401610e5f9061220e565b60405180910390fd5b60006004600083815260200190815260200160002090508060020160149054906101000a900460ff1615610ed1576040517f08c379a0000000000000000000000000000000000000000000000000000000008152600401610ec89061230c565b60405180910390fd5b8060050154421115610f18576040517f08c379a0000000000000000000000000000000000000000000000000000000008152600401610f0f90612713565b60405180910390fd5b60018160020160146101000a81548160ff0219169083151502179055507fee243f878b7fc2f54e934ca33783d4395d42bc07612e2bd4b8e0e178639f7a2882604051610f649190611b3b565b60405180910390a150610f75611951565b50565b6000610f8460056119d9565b905090565b60008060008060007f000000000000000000000000000000000000000000000000000000000000000047610fbd60056119d9565b610fc760036119d9565b610fcf6113af565b945094509450945094509091929394565b60026020528060005260406000206000915090505481565b60075481565b61100661195b565b61101060006119e7565b565b600460205280600052604060002060009150905080600001805461103590612762565b80601f016020809104026020016040519081016040528092919081815260200182805461106190612762565b80156110ae5780601f10611083576101008083540402835291602001916110ae565b820191906000526020600020905b81548152906001019060200180831161109157829003601f168201915b5050505050908060010154908060020160009054906101000a900473ffffffffffffffffffffffffffffffffffffffff16908060020160149054906101000a900460ff16908060030154908060040154908060050154905087565b61111161195b565b600860009054906101000a900460ff1615611161576040517f08c379a000000000000000000000000000000000000000000000000000000000815260040161115890611ff2565b60405180910390fd5b6111696118cd565b600082116111ac576040517f08c379a00000000000000000000000000000000000000000000000000000000081526004016111a390612805565b60405180910390fd5b60008351116111f0576040517f08c379a00000000000000000000000000000000000000000000000000000000081526004016111e790612871565b60405180910390fd5b600073ffffffffffffffffffffffffffffffffffffffff168173ffffffffffffffffffffffffffffffffffffffff160361125f576040517f08c379a0000000000000000000000000000000000000000000000000000000008152600401611256906128dd565b60405180910390fd5b478211156112a2576040517f08c379a000000000000000000000000000000000000000000000000000000000815260040161129990612949565b60405180910390fd5b60006112ae60056119d9565b90506000600460008381526020019081526020016000209050848160000190816112d89190612b15565b50838160010181905550828160020160006101000a81548173ffffffffffffffffffffffffffffffffffffffff021916908373ffffffffffffffffffffffffffffffffffffffff16021790555060008160020160146101000a81548160ff02191690831515021790555062093a804261135191906120d3565b8160050181905550611363600561191c565b7ff7365309cb3a1c4835d32acd2153ebf718723e270daad5bb2aac6dd47564583b828686866040516113989493929190612c3c565b60405180910390a150506113aa611951565b505050565b6000600160009054906101000a900473ffffffffffffffffffffffffffffffffffffffff16905090565b7f000000000000000000000000000000000000000000000000000000000000000081565b600860009054906101000a900460ff1681565b60065481565b600860009054906101000a900460ff1615611466576040517f08c379a000000000000000000000000000000000000000000000000000000000815260040161145d90611ff2565b60405180910390fd5b61146e61195b565b6114766118cd565b7f000000000000000000000000000000000000000000000000000000000000000073ffffffffffffffffffffffffffffffffffffffff166108fc479081150290604051600060405180830381858888f193505050501580156114dc573d6000803e3d6000fd5b506001600860006101000a81548160ff021916908315150217905550611500611932565b7f123d4f203b2b83bfe9f45903402bb88193cc56a43371d97ab5a51bd1817d858660405160405180910390a1611534611951565b565b7f000000000000000000000000000000000000000000000000000000000000000081565b600860009054906101000a900460ff16156115aa576040517f08c379a00000000000000000000000000000000000000000000000000000000081526004016115a190611ff2565b60405180910390fd5b6115b26118cd565b6115bc60056119d9565b81106115fd576040517f08c379a00000000000000000000000000000000000000000000000000000000081526004016115f49061220e565b60405180910390fd5b6000600260003373ffffffffffffffffffffffffffffffffffffffff1673ffffffffffffffffffffffffffffffffffffffff168152602001908152602001600020541161167f576040517f08c379a000000000000000000000000000000000000000000000000000000000815260040161167690612cd4565b60405180910390fd5b60006004600083815260200190815260200160002090508060060160003373ffffffffffffffffffffffffffffffffffffffff1673ffffffffffffffffffffffffffffffffffffffff16815260200190815260200160002060009054906101000a900460ff1615611725576040517f08c379a000000000000000000000000000000000000000000000000000000000815260040161171c906125ca565b60405180910390fd5b806005015442111561176c576040517f08c379a000000000000000000000000000000000000000000000000000000000815260040161176390612636565b60405180910390fd5b60018160060160003373ffffffffffffffffffffffffffffffffffffffff1673ffffffffffffffffffffffffffffffffffffffff16815260200190815260200160002060006101000a81548160ff0219169083151502179055508060030160008154809291906117db90612656565b91905055507ff3dc904660a0ea05aba8dfa1e21fbc4fb2914be2a3029da7b0fdd3e5eee20ddb823360405161181192919061269e565b60405180910390a150611822611951565b50565b6000600754905090565b6000600654905090565b61184161195b565b600073ffffffffffffffffffffffffffffffffffffffff168173ffffffffffffffffffffffffffffffffffffffff16036118b0576040517f08c379a00000000000000000000000000000000000000000000000000000000081526004016118a790612d66565b60405180910390fd5b6118b9816119e7565b50565b60006118c860036119d9565b905090565b600260005403611912576040517f08c379a000000000000000000000000000000000000000000000000000000000815260040161190990612dd2565b60405180910390fd5b6002600081905550565b6001816000016000828254019250508190555050565b47600681905550600754600654111561194f576006546007819055505b565b6001600081905550565b611963611aad565b73ffffffffffffffffffffffffffffffffffffffff166119816113af565b73ffffffffffffffffffffffffffffffffffffffff16146119d7576040517f08c379a00000000000000000000000000000000000000000000000000000000081526004016119ce90612e3e565b60405180910390fd5b565b600081600001549050919050565b6000600160009054906101000a900473ffffffffffffffffffffffffffffffffffffffff16905081600160006101000a81548173ffffffffffffffffffffffffffffffffffffffff021916908373ffffffffffffffffffffffffffffffffffffffff1602179055508173ffffffffffffffffffffffffffffffffffffffff168173ffffffffffffffffffffffffffffffffffffffff167f8be0079c531659141344cd1fd0a4f28419497f9722a3daafe3b4186f6b6457e060405160405180910390a35050565b600033905090565b6000604051905090565b600080fd5b600080fd5b6000819050919050565b611adc81611ac9565b8114611ae757600080fd5b50565b600081359050611af981611ad3565b92915050565b600060208284031215611b1557611b14611abf565b5b6000611b2384828501611aea565b91505092915050565b611b3581611ac9565b82525050565b6000602082019050611b506000830184611b2c565b92915050565b600073ffffffffffffffffffffffffffffffffffffffff82169050919050565b6000611b8182611b56565b9050919050565b611b9181611b76565b82525050565b600060a082019050611bac6000830188611b2c565b611bb96020830187611b2c565b611bc66040830186611b2c565b611bd36060830185611b2c565b611be06080830184611b88565b9695505050505050565b611bf381611b76565b8114611bfe57600080fd5b50565b600081359050611c1081611bea565b92915050565b600060208284031215611c2c57611c2b611abf565b5b6000611c3a84828501611c01565b91505092915050565b600081519050919050565b600082825260208201905092915050565b60005b83811015611c7d578082015181840152602081019050611c62565b60008484015250505050565b6000601f19601f8301169050919050565b6000611ca582611c43565b611caf8185611c4e565b9350611cbf818560208601611c5f565b611cc881611c89565b840191505092915050565b6000611cde82611b56565b9050919050565b611cee81611cd3565b82525050565b60008115159050919050565b611d0981611cf4565b82525050565b600060e0820190508181036000830152611d29818a611c9a565b9050611d386020830189611b2c565b611d456040830188611ce5565b611d526060830187611d00565b611d5f6080830186611b2c565b611d6c60a0830185611b2c565b611d7960c0830184611b2c565b98975050505050505050565b600080fd5b600080fd5b7f4e487b7100000000000000000000000000000000000000000000000000000000600052604160045260246000fd5b611dc782611c89565b810181811067ffffffffffffffff82111715611de657611de5611d8f565b5b80604052505050565b6000611df9611ab5565b9050611e058282611dbe565b919050565b600067ffffffffffffffff821115611e2557611e24611d8f565b5b611e2e82611c89565b9050602081019050919050565b82818337600083830152505050565b6000611e5d611e5884611e0a565b611def565b905082815260208101848484011115611e7957611e78611d8a565b5b611e84848285611e3b565b509392505050565b600082601f830112611ea157611ea0611d85565b5b8135611eb1848260208601611e4a565b91505092915050565b611ec381611cd3565b8114611ece57600080fd5b50565b600081359050611ee081611eba565b92915050565b600080600060608486031215611eff57611efe611abf565b5b600084013567ffffffffffffffff811115611f1d57611f1c611ac4565b5b611f2986828701611e8c565b9350506020611f3a86828701611aea565b9250506040611f4b86828701611ed1565b9150509250925092565b6000602082019050611f6a6000830184611b88565b92915050565b6000602082019050611f856000830184611d00565b92915050565b6000602082019050611fa06000830184611ce5565b92915050565b7f43616d706169676e20686173206265656e2063616e63656c6c65640000000000600082015250565b6000611fdc601b83611c4e565b9150611fe782611fa6565b602082019050919050565b6000602082019050818103600083015261200b81611fcf565b9050919050565b7f436f6e747269627574696f6e2062656c6f77206d696e696d756d20616d6f756e60008201527f7400000000000000000000000000000000000000000000000000000000000000602082015250565b600061206e602183611c4e565b915061207982612012565b604082019050919050565b6000602082019050818103600083015261209d81612061565b9050919050565b7f4e487b7100000000000000000000000000000000000000000000000000000000600052601160045260246000fd5b60006120de82611ac9565b91506120e983611ac9565b9250828201905080821115612101576121006120a4565b5b92915050565b600060408201905061211c6000830185611b88565b6121296020830184611b2c565b9392505050565b7f4f6e6c792074686520666163746f72792063616e2063616c6c2074686973206660008201527f756e6374696f6e00000000000000000000000000000000000000000000000000602082015250565b600061218c602783611c4e565b915061219782612130565b604082019050919050565b600060208201905081810360008301526121bb8161217f565b9050919050565b7f496e76616c6964207265717565737420696e6465780000000000000000000000600082015250565b60006121f8601583611c4e565b9150612203826121c2565b602082019050919050565b60006020820190508181036000830152612227816121eb565b9050919050565b7f566f74696e6720706572696f64206e6f7420656e646564000000000000000000600082015250565b6000612264601783611c4e565b915061226f8261222e565b602082019050919050565b6000602082019050818103600083015261229381612257565b9050919050565b7f526571756573742068617320616c7265616479206265656e20636f6d706c657460008201527f6564000000000000000000000000000000000000000000000000000000000000602082015250565b60006122f6602283611c4e565b91506123018261229a565b604082019050919050565b60006020820190508181036000830152612325816122e9565b9050919050565b600061233782611ac9565b915061234283611ac9565b925082820261235081611ac9565b91508282048414831517612367576123666120a4565b5b5092915050565b7f4e487b7100000000000000000000000000000000000000000000000000000000600052601260045260246000fd5b60006123a882611ac9565b91506123b383611ac9565b9250826123c3576123c261236e565b5b828204905092915050565b7f51756f72756d206e6f7420726561636865640000000000000000000000000000600082015250565b6000612404601283611c4e565b915061240f826123ce565b602082019050919050565b60006020820190508181036000830152612433816123f7565b9050919050565b7f4e6f7420656e6f75676820617070726f76616c73000000000000000000000000600082015250565b6000612470601483611c4e565b915061247b8261243a565b602082019050919050565b6000602082019050818103600083015261249f81612463565b9050919050565b7f496e73756666696369656e742066756e64730000000000000000000000000000600082015250565b60006124dc601283611c4e565b91506124e7826124a6565b602082019050919050565b6000602082019050818103600083015261250b816124cf565b9050919050565b7f4f6e6c7920636f6e7472696275746f72732063616e2072656a65637400000000600082015250565b6000612548601c83611c4e565b915061255382612512565b602082019050919050565b600060208201905081810360008301526125778161253b565b9050919050565b7f596f75206861766520616c726561647920766f74656400000000000000000000600082015250565b60006125b4601683611c4e565b91506125bf8261257e565b602082019050919050565b600060208201905081810360008301526125e3816125a7565b9050919050565b7f566f74696e6720706572696f642068617320656e646564000000000000000000600082015250565b6000612620601783611c4e565b915061262b826125ea565b602082019050919050565b6000602082019050818103600083015261264f81612613565b9050919050565b600061266182611ac9565b91507fffffffffffffffffffffffffffffffffffffffffffffffffffffffffffffffff8203612693576126926120a4565b5b600182019050919050565b60006040820190506126b36000830185611b2c565b6126c06020830184611b88565b9392505050565b7f566f74696e6720706572696f6420656e64656400000000000000000000000000600082015250565b60006126fd601383611c4e565b9150612708826126c7565b602082019050919050565b6000602082019050818103600083015261272c816126f0565b9050919050565b7f4e487b7100000000000000000000000000000000000000000000000000000000600052602260045260246000fd5b6000600282049050600182168061277a57607f821691505b60208210810361278d5761278c612733565b5b50919050565b7f526571756573742076616c7565206d757374206265206772656174657220746860008201527f616e203000000000000000000000000000000000000000000000000000000000602082015250565b60006127ef602483611c4e565b91506127fa82612793565b604082019050919050565b6000602082019050818103600083015261281e816127e2565b9050919050565b7f4465736372697074696f6e2063616e6e6f7420626520656d7074790000000000600082015250565b600061285b601b83611c4e565b915061286682612825565b602082019050919050565b6000602082019050818103600083015261288a8161284e565b9050919050565b7f496e76616c696420726563697069656e74206164647265737300000000000000600082015250565b60006128c7601983611c4e565b91506128d282612891565b602082019050919050565b600060208201905081810360008301526128f6816128ba565b9050919050565b7f496e73756666696369656e742066756e647320666f7220726571756573740000600082015250565b6000612933601e83611c4e565b915061293e826128fd565b602082019050919050565b6000602082019050818103600083015261296281612926565b9050919050565b60008190508160005260206000209050919050565b60006020601f8301049050919050565b600082821b905092915050565b6000600883026129cb7fffffffffffffffffffffffffffffffffffffffffffffffffffffffffffffffff8261298e565b6129d5868361298e565b95508019841693508086168417925050509392505050565b6000819050919050565b6000612a12612a0d612a0884611ac9565b6129ed565b611ac9565b9050919050565b6000819050919050565b612a2c836129f7565b612a40612a3882612a19565b84845461299b565b825550505050565b600090565b612a55612a48565b612a60818484612a23565b505050565b5b81811015612a8457612a79600082612a4d565b600181019050612a66565b5050565b601f821115612ac957612a9a81612969565b612aa38461297e565b81016020851015612ab2578190505b612ac6612abe8561297e565b830182612a65565b50505b505050565b600082821c905092915050565b6000612aec60001984600802612ace565b1980831691505092915050565b6000612b058383612adb565b9150826002028217905092915050565b612b1e82611c43565b67ffffffffffffffff811115612b3757612b36611d8f565b5b612b418254612762565b612b4c828285612a88565b600060209050601f831160018114612b7f5760008415612b6d578287015190505b612b778582612af9565b865550612bdf565b601f198416612b8d86612969565b60005b82811015612bb557848901518255600182019150602085019450602081019050612b90565b86831015612bd25784890151612bce601f891682612adb565b8355505b6001600288020188555050505b505050505050565b6000612c02612bfd612bf884611b56565b6129ed565b611b56565b9050919050565b6000612c1482612be7565b9050919050565b6000612c2682612c09565b9050919050565b612c3681612c1b565b82525050565b6000608082019050612c516000830187611b2c565b8181036020830152612c638186611c9a565b9050612c726040830185611b2c565b612c7f6060830184612c2d565b95945050505050565b7f4f6e6c7920636f6e7472696275746f72732063616e20617070726f7665000000600082015250565b6000612cbe601d83611c4e565b9150612cc982612c88565b602082019050919050565b60006020820190508181036000830152612ced81612cb1565b9050919050565b7f4f776e61626c653a206e6577206f776e657220697320746865207a65726f206160008201527f6464726573730000000000000000000000000000000000000000000000000000602082015250565b6000612d50602683611c4e565b9150612d5b82612cf4565b604082019050919050565b60006020820190508181036000830152612d7f81612d43565b9050919050565b7f5265656e7472616e637947756172643a207265656e7472616e742063616c6c00600082015250565b6000612dbc601f83611c4e565b9150612dc782612d86565b602082019050919050565b60006020820190508181036000830152612deb81612daf565b9050919050565b7f4f776e61626c653a2063616c6c6572206973206e6f7420746865206f776e6572600082015250565b6000612e28602083611c4e565b9150612e3382612df2565b602082019050919050565b60006020820190508181036000830152612e5781612e1b565b905091905056fea26469706673582212202fea864d23eeabf8d6570fbf0f84b35488599f8a3d1ef12f57321b7f0f56a4b864736f6c63430008180033a26469706673582212201ff919fe4130c395e605ae9cb8de0626949608ab9b7c041effce32384f60d05364736f6c63430008180033",
  "linkReferences": {},
  "deployedLinkReferences": {}
}