{
  "_format": "hh-sol-artifact-1",
  "contractName": "CampaignFactory",
  "sourceName": "contracts/CampaignFactory.sol",
  "abi": [
    {
      "inputs": [],
      "stateMutability": "nonpayable",
      "type": "constructor"
    },
    {
      "anonymous": false,
      "inputs": [
        {
          "indexed": false,
          "internalType": "uint256",
          "name": "campaignId",
          "type": "uint256"
        },
        {
          "indexed": false,
          "internalType": "address",
          "name": "campaignAddress",
          "type": "address"
        },
        {
          "indexed": false,
          "internalType": "address",
          "name": "creator",
          "type": "address"
        },
        {
          "indexed": false,
          "internalType": "string",
          "name": "title",
          "type": "string"
        },
        {
          "indexed": false,
          "internalType": "uint256",
          "name": "minContribution",
          "type": "uint256"
        },
        {
          "indexed": false,
          "internalType": "uint256",
          "name": "timestamp",
          "type": "uint256"
        }
      ],
      "name": "CampaignCreated",
      "type": "event"
    },
    {
      "anonymous": false,
      "inputs": [
        {
          "indexed": false,
          "internalType": "uint256",
          "name": "campaignId",
          "type": "uint256"
        },
        {
          "indexed": false,
          "internalType": "address",
          "name": "campaignAddress",
          "type": "address"
        }
      ],
      "name": "CampaignRemoved",
      "type": "event"
    },
    {
      "anonymous": false,
      "inputs": [
        {
          "indexed": false,
          "internalType": "uint256",
          "name": "campaignId",
          "type": "uint256"
        },
        {
          "indexed": false,
          "internalType": "address",
          "name": "campaignAddress",
          "type": "address"
        },
        {
          "indexed": false,
          "internalType": "bool",
          "name": "isActive",
          "type": "bool"
        }
      ],
      "name": "CampaignStatusChanged",
      "type": "event"
    },
    {
      "anonymous": false,
      "inputs": [
        {
          "indexed": false,
          "internalType": "uint256",
          "name": "amount",
          "type": "uint256"
        },
        {
          "indexed": false,
          "internalType": "address",
          "name": "recipient",
          "type": "address"
        }
      ],
      "name": "FundsReleased",
      "type": "event"
    },
    {
      "anonymous": false,
      "inputs": [
        {
          "indexed": true,
          "internalType": "address",
          "name": "previousOwner",
          "type": "address"
        },
        {
          "indexed": true,
          "internalType": "address",
          "name": "newOwner",
          "type": "address"
        }
      ],
      "name": "OwnershipTransferred",
      "type": "event"
    },
    {
      "inputs": [
        {
          "internalType": "address",
          "name": "",
          "type": "address"
        }
      ],
      "name": "campaignIds",
      "outputs": [
        {
          "internalType": "uint256",
          "name": "",
          "type": "uint256"
        }
      ],
      "stateMutability": "view",
      "type": "function"
    },
    {
      "inputs": [
        {
          "internalType": "uint256",
          "name": "",
          "type": "uint256"
        }
      ],
      "name": "campaigns",
      "outputs": [
        {
          "internalType": "address",
          "name": "campaignAddress",
          "type": "address"
        },
        {
          "internalType": "bool",
          "name": "isActive",
          "type": "bool"
        },
        {
          "internalType": "uint256",
          "name": "createdAt",
          "type": "uint256"
        },
        {
          "internalType": "string",
          "name": "title",
          "type": "string"
        },
        {
          "internalType": "uint256",
          "name": "minContribution",
          "type": "uint256"
        },
        {
          "internalType": "address",
          "name": "creator",
          "type": "address"
        }
      ],
      "stateMutability": "view",
      "type": "function"
    },
    {
      "inputs": [
        {
          "internalType": "string",
          "name": "title",
          "type": "string"
        },
        {
          "internalType": "uint256",
          "name": "minContribution",
          "type": "uint256"
        }
      ],
      "name": "createCampaign",
      "outputs": [
        {
          "internalType": "address",
          "name": "",
          "type": "address"
        }
      ],
      "stateMutability": "nonpayable",
      "type": "function"
    },
    {
      "inputs": [
        {
          "internalType": "uint256",
          "name": "campaignId",
          "type": "uint256"
        }
      ],
      "name": "deactivateCampaign",
      "outputs": [],
      "stateMutability": "nonpayable",
      "type": "function"
    },
    {
      "inputs": [],
      "name": "getActiveCampaigns",
      "outputs": [
        {
          "internalType": "address[]",
          "name": "",
          "type": "address[]"
        }
      ],
      "stateMutability": "view",
      "type": "function"
    },
    {
      "inputs": [
        {
          "internalType": "address",
          "name": "campaignAddress",
          "type": "address"
        }
      ],
      "name": "getCampaignId",
      "outputs": [
        {
          "internalType": "uint256",
          "name": "",
          "type": "uint256"
        }
      ],
      "stateMutability": "view",
      "type": "function"
    },
    {
      "inputs": [
        {
          "internalType": "uint256",
          "name": "campaignId",
          "type": "uint256"
        }
      ],
      "name": "getCampaignInfo",
      "outputs": [
        {
          "internalType": "address",
          "name": "campaignAddress",
          "type": "address"
        },
        {
          "internalType": "bool",
          "name": "isActive",
          "type": "bool"
        },
        {
          "internalType": "uint256",
          "name": "createdAt",
          "type": "uint256"
        },
        {
          "internalType": "string",
          "name": "title",
          "type": "string"
        },
        {
          "internalType": "uint256",
          "name": "minContribution",
          "type": "uint256"
        },
        {
          "internalType": "address",
          "name": "creator",
          "type": "address"
        }
      ],
      "stateMutability": "view",
      "type": "function"
    },
    {
      "inputs": [
        {
          "internalType": "address",
          "name": "campaignAddress",
          "type": "address"
        }
      ],
      "name": "getCampaignStatus",
      "outputs": [
        {
          "internalType": "bool",
          "name": "",
          "type": "bool"
        }
      ],
      "stateMutability": "view",
      "type": "function"
    },
    {
      "inputs": [],
      "name": "getDeployedCampaigns",
      "outputs": [
        {
          "internalType": "address[]",
          "name": "",
          "type": "address[]"
        },
        {
          "internalType": "bool[]",
          "name": "",
          "type": "bool[]"
        }
      ],
      "stateMutability": "view",
      "type": "function"
    },
    {
      "inputs": [],
      "name": "owner",
      "outputs": [
        {
          "internalType": "address",
          "name": "",
          "type": "address"
        }
      ],
      "stateMutability": "view",
      "type": "function"
    },
    {
      "inputs": [],
      "name": "releaseFunds",
      "outputs": [],
      "stateMutability": "nonpayable",
      "type": "function"
    },
    {
      "inputs": [],
      "name": "renounceOwnership",
      "outputs": [],
      "stateMutability": "nonpayable",
      "type": "function"
    },
    {
      "inputs": [
        {
          "internalType": "address",
          "name": "newOwner",
          "type": "address"
        }
      ],
      "name": "transferOwnership",
      "outputs": [],
      "stateMutability": "nonpayable",
      "type": "function"
    }
  ],
  "bytecode": "0x608060405234801561001057600080fd5b5061001a3361002c565b600180556100273361002c565b61007c565b600080546001600160a01b038381166001600160a01b0319831681178455604051919092169283917f8be0079c531659141344cd1fd0a4f28419497f9722a3daafe3b4186f6b6457e09190a35050565b61348f8061008b6000396000f3fe60806040523480156200001157600080fd5b5060043610620000e05760003560e01c80638da5cb5b1162000097578063c362b156116200006e578063c362b156146200020c578063e38e2b821462000225578063f102a67c146200023c578063f2fde38b146200025357600080fd5b80638da5cb5b14620001925780639550fef114620001b85780639d31e1a714620001e457600080fd5b8063141961bc14620000e55780634acb9d4f146200011957806369d895751462000133578063715018a6146200013f5780637eca30fe1462000149578063840f8b901462000160575b600080fd5b620000fc620000f636600462001271565b6200026a565b6040516200011096959493929190620012d3565b60405180910390f35b6200012362000348565b6040516200011092919062001367565b6200013d620005e2565b005b6200013d620006dd565b6200013d6200015a36600462001271565b620006f3565b6200018362000171366004620013c4565b60046020526000908152604090205481565b60405190815260200162000110565b6000546001600160a01b03165b6040516001600160a01b03909116815260200162000110565b62000183620001c9366004620013c4565b6001600160a01b031660009081526004602052604090205490565b620001fb620001f5366004620013c4565b62000938565b604051901515815260200162000110565b6200021662000a1b565b604051620001109190620013ef565b620000fc6200023636600462001271565b62000c77565b6200019f6200024d3660046200141a565b62000e07565b6200013d62000264366004620013c4565b620010e0565b6003602052600090815260409020805460018201546002830180546001600160a01b03841694600160a01b90940460ff16939190620002a990620014d9565b80601f0160208091040260200160405190810160405280929190818152602001828054620002d790620014d9565b8015620003285780601f10620002fc5761010080835404028352916020019162000328565b820191906000526020600020905b8154815290600101906020018083116200030a57829003601f168201915b5050505060038301546004909301549192916001600160a01b0316905086565b60608060006200035760025490565b905060008167ffffffffffffffff81111562000377576200037762001404565b604051908082528060200260200182016040528015620003a1578160200160208202803683370190505b50905060008267ffffffffffffffff811115620003c257620003c262001404565b604051908082528060200260200182016040528015620003ec578160200160208202803683370190505b50905060005b83811015620005d7576000818152600360209081526040808320815160c08101835281546001600160a01b0381168252600160a01b900460ff161515938101939093526001810154918301919091526002810180546060840191906200045890620014d9565b80601f01602080910402602001604051908101604052809291908181526020018280546200048690620014d9565b8015620004d75780601f10620004ab57610100808354040283529160200191620004d7565b820191906000526020600020905b815481529060010190602001808311620004b957829003601f168201915b5050509183525050600382015460208201526004909101546001600160a01b031660409091015280518551919250908590849081106200051b576200051b62001515565b6001600160a01b039092166020928302919091018201528101518015620005a8575080600001516001600160a01b03166395ee12216040518163ffffffff1660e01b8152600401602060405180830381865afa15801562000580573d6000803e3d6000fd5b505050506040513d601f19601f82011682018060405250810190620005a691906200152b565b155b838381518110620005bd57620005bd62001515565b9115156020928302919091019091015250600101620003f2565b509094909350915050565b620005ec6200115c565b620005f6620011b8565b4780620006405760405162461bcd60e51b81526020600482015260136024820152724e6f2066756e647320746f2072656c6561736560681b60448201526064015b60405180910390fd5b600080546040516001600160a01b039091169183156108fc02918491818181858888f193505050501580156200067a573d6000803e3d6000fd5b507f8f5073d0a7a22ba450e278541077e181af457be74bea91e61f1f99e6bb40748e81620006b06000546001600160a01b031690565b604080519283526001600160a01b0390911660208301520160405180910390a150620006db60018055565b565b620006e76200115c565b620006db600062001213565b620006fd6200115c565b62000707620011b8565b6002548110620007505760405162461bcd60e51b8152602060048201526013602482015272125b9d985b1a590818d85b5c185a59db881251606a1b604482015260640162000637565b600081815260036020526040902054600160a01b900460ff16620007b75760405162461bcd60e51b815260206004820152601960248201527f43616d706169676e20616c726561647920696e61637469766500000000000000604482015260640162000637565b600081815260036020908152604091829020805483516395ee122160e01b8152935191936001600160a01b039091169283926395ee12219260048082019392918290030181865afa15801562000811573d6000803e3d6000fd5b505050506040513d601f19601f820116820180604052508101906200083791906200152b565b6200089157806001600160a01b0316624f3e866040518163ffffffff1660e01b8152600401600060405180830381600087803b1580156200087757600080fd5b505af11580156200088c573d6000803e3d6000fd5b505050505b815460ff60a01b1981168355604080518581526001600160a01b0390921660208301527fbc024e4aa60a5c1fe873e2fcdf7c38b4580c07539828049db4428819e6031ad5910160405180910390a18154604080518581526001600160a01b039092166020830152600082820152517f046a9ef4e9741ed9b7cba82ad486735ab516bd04dc43f6ee911737503f759db79181900360600190a150506200093560018055565b50565b6001600160a01b038116600090815260046020526040812054600254811015806200097d57506000818152600360205260409020546001600160a01b03848116911614155b156200098c5750600092915050565b600081815260036020526040902054600160a01b900460ff16801562000a145750826001600160a01b03166395ee12216040518163ffffffff1660e01b8152600401602060405180830381865afa158015620009ec573d6000803e3d6000fd5b505050506040513d601f19601f8201168201806040525081019062000a1291906200152b565b155b9392505050565b6060600062000a2960025490565b90506000805b8281101562000af557600081815260036020526040902054600160a01b900460ff16801562000ad657506000818152600360209081526040918290205482516395ee122160e01b815292516001600160a01b03909116926395ee12219260048083019391928290030181865afa15801562000aae573d6000803e3d6000fd5b505050506040513d601f19601f8201168201806040525081019062000ad491906200152b565b155b1562000aec578162000ae8816200154f565b9250505b60010162000a2f565b5060008167ffffffffffffffff81111562000b145762000b1462001404565b60405190808252806020026020018201604052801562000b3e578160200160208202803683370190505b5090506000805b848110801562000b5457508382105b1562000c6d57600081815260036020526040902054600160a01b900460ff16801562000bf857506000818152600360209081526040918290205482516395ee122160e01b815292516001600160a01b03909116926395ee12219260048083019391928290030181865afa15801562000bd0573d6000803e3d6000fd5b505050506040513d601f19601f8201168201806040525081019062000bf691906200152b565b155b1562000c585760008181526003602052604090205483516001600160a01b039091169084908490811062000c305762000c3062001515565b6001600160a01b03909216602092830291909101909101528162000c54816200154f565b9250505b8062000c64816200154f565b91505062000b45565b5090949350505050565b6000806000606060008062000c8b60025490565b871062000cd15760405162461bcd60e51b8152602060048201526013602482015272125b9d985b1a590818d85b5c185a59db881251606a1b604482015260640162000637565b6000878152600360209081526040808320815160c08101835281546001600160a01b0381168252600160a01b900460ff1615159381019390935260018101549183019190915260028101805460608401919062000d2e90620014d9565b80601f016020809104026020016040519081016040528092919081815260200182805462000d5c90620014d9565b801562000dad5780601f1062000d815761010080835404028352916020019162000dad565b820191906000526020600020905b81548152906001019060200180831162000d8f57829003601f168201915b505050918352505060038201546020808301919091526004909201546001600160a01b0316604091820152825191830151908301516060840151608085015160a090950151939d929c50909a509850919650945092505050565b600062000e13620011b8565b600083511162000e5e5760405162461bcd60e51b81526020600482015260156024820152745469746c652063616e6e6f7420626520656d70747960581b604482015260640162000637565b6000821162000ec45760405162461bcd60e51b815260206004820152602b60248201527f4d696e696d756d20636f6e747269627574696f6e206d7573742062652067726560448201526a061746572207468616e20360ac1b606482015260840162000637565b600062000ed060025490565b905060008484303360405162000ee69062001263565b62000ef5949392919062001577565b604051809103906000f08015801562000f12573d6000803e3d6000fd5b5090506001600160a01b03811662000f6d5760405162461bcd60e51b815260206004820152601860248201527f43616d706169676e206372656174696f6e206661696c65640000000000000000604482015260640162000637565b6040805160c0810182526001600160a01b0380841682526001602080840182815242858701908152606086018c8152608087018c90523360a088015260008a81526003909452969092208551815492511515600160a01b026001600160a81b031990931695169490941717835551908201559151909190600282019062000ff5908262001607565b506080820151600382015560a090910151600491820180546001600160a01b0319166001600160a01b0392831617905582166000908152602091909152604090208290556002805460010190557fab59b1925b9e9f5979fb63f46375f2f218e34df984a2b8725b5539447952b8e08282338888426040516200107d96959493929190620016d4565b60405180910390a1604080518381526001600160a01b038316602082015260018183015290517f046a9ef4e9741ed9b7cba82ad486735ab516bd04dc43f6ee911737503f759db79181900360600190a1915050620010da60018055565b92915050565b620010ea6200115c565b6001600160a01b038116620011515760405162461bcd60e51b815260206004820152602660248201527f4f776e61626c653a206e6577206f776e657220697320746865207a65726f206160448201526564647265737360d01b606482015260840162000637565b620009358162001213565b6000546001600160a01b03163314620006db5760405162461bcd60e51b815260206004820181905260248201527f4f776e61626c653a2063616c6c6572206973206e6f7420746865206f776e6572604482015260640162000637565b6002600154036200120c5760405162461bcd60e51b815260206004820152601f60248201527f5265656e7472616e637947756172643a207265656e7472616e742063616c6c00604482015260640162000637565b6002600155565b600080546001600160a01b038381166001600160a01b0319831681178455604051919092169283917f8be0079c531659141344cd1fd0a4f28419497f9722a3daafe3b4186f6b6457e09190a35050565b611d3c806200171e83390190565b6000602082840312156200128457600080fd5b5035919050565b6000815180845260005b81811015620012b35760208185018101518683018201520162001295565b506000602082860101526020601f19601f83011685010191505092915050565b600060018060a01b038089168352871515602084015286604084015260c060608401526200130560c08401876200128b565b60808401959095529290921660a09091015250949350505050565b60008151808452602080850194506020840160005b838110156200135c5781516001600160a01b03168752958201959082019060010162001335565b509495945050505050565b6040815260006200137c604083018562001320565b82810360208481019190915284518083528582019282019060005b81811015620013b757845115158352938301939183019160010162001397565b5090979650505050505050565b600060208284031215620013d757600080fd5b81356001600160a01b038116811462000a1457600080fd5b60208152600062000a14602083018462001320565b634e487b7160e01b600052604160045260246000fd5b600080604083850312156200142e57600080fd5b823567ffffffffffffffff808211156200144757600080fd5b818501915085601f8301126200145c57600080fd5b81358181111562001471576200147162001404565b604051601f8201601f19908116603f011681019083821181831017156200149c576200149c62001404565b81604052828152886020848701011115620014b657600080fd5b826020860160208301376000602093820184015298969091013596505050505050565b600181811c90821680620014ee57607f821691505b6020821081036200150f57634e487b7160e01b600052602260045260246000fd5b50919050565b634e487b7160e01b600052603260045260246000fd5b6000602082840312156200153e57600080fd5b8151801515811462000a1457600080fd5b6000600182016200157057634e487b7160e01b600052601160045260246000fd5b5060010190565b6080815260006200158c60808301876200128b565b6020830195909552506001600160a01b0392831660408201529116606090910152919050565b601f82111562001602576000816000526020600020601f850160051c81016020861015620015dd5750805b601f850160051c820191505b81811015620015fe57828155600101620015e9565b5050505b505050565b815167ffffffffffffffff81111562001624576200162462001404565b6200163c81620016358454620014d9565b84620015b2565b602080601f8311600181146200167457600084156200165b5750858301515b600019600386901b1c1916600185901b178555620015fe565b600085815260208120601f198616915b82811015620016a55788860151825594840194600190910190840162001684565b5085821015620016c45787850151600019600388901b60f8161c191681555b5050505050600190811b01905550565b8681526001600160a01b0386811660208301528516604082015260c06060820181905260009062001708908301866200128b565b60808301949094525060a0015294935050505056fe60e06040524260a0523480156200001557600080fd5b5060405162001d3c38038062001d3c833981016040819052620000389162000100565b600160005562000048336200007b565b62000053816200007b565b6001600160a01b03821660805260026200006e858262000295565b50505060c0525062000361565b600180546001600160a01b038381166001600160a01b0319831681179093556040519116919082907f8be0079c531659141344cd1fd0a4f28419497f9722a3daafe3b4186f6b6457e090600090a35050565b634e487b7160e01b600052604160045260246000fd5b80516001600160a01b0381168114620000fb57600080fd5b919050565b600080600080608085870312156200011757600080fd5b84516001600160401b03808211156200012f57600080fd5b818701915087601f8301126200014457600080fd5b815181811115620001595762000159620000cd565b604051601f8201601f19908116603f01168101908382118183101715620001845762000184620000cd565b81604052828152602093508a84848701011115620001a157600080fd5b600091505b82821015620001c55784820184015181830185015290830190620001a6565b60008484830101528098505050508087015194505050620001e960408601620000e3565b9150620001f960608601620000e3565b905092959194509250565b600181811c908216806200021957607f821691505b6020821081036200023a57634e487b7160e01b600052602260045260246000fd5b50919050565b601f82111562000290576000816000526020600020601f850160051c810160208610156200026b5750805b601f850160051c820191505b818110156200028c5782815560010162000277565b5050505b505050565b81516001600160401b03811115620002b157620002b1620000cd565b620002c981620002c2845462000204565b8462000240565b602080601f831160018114620003015760008415620002e85750858301515b600019600386901b1c1916600185901b1785556200028c565b600085815260208120601f198616915b82811015620003325788860151825594840194600190910190840162000311565b5085821015620003515787850151600019600388901b60f8161c191681555b5050505050600190811b01905550565b60805160a05160c05161198f620003ad6000396000818161039c015281816105280152610c27015260006104490152600081816104150152818161066301526106f5015261198f6000f3fe6080604052600436106101845760003560e01c80638da5cb5b116100d1578063cf09e0d01161008a578063dff748e611610064578063dff748e614610493578063eb8bbd28146104a8578063f2fde38b146104bd578063feed5561146104dd57600080fd5b8063cf09e0d014610437578063d7bb99ba1461046b578063d7d1bbdb1461047357600080fd5b80638da5cb5b14610358578063937e09b11461038a57806395ee1221146103be578063968ed600146103d8578063980e7844146103ee578063c45a01551461040357600080fd5b806342e94c901161013e5780635d6e297f116101185780635d6e297f146102db578063715018a6146102f157806381d12c58146103065780638a9cfd551461033857600080fd5b806342e94c901461025c57806343859632146102895780634a79d50c146102b957600080fd5b80624f3e861461019857806303441006146101ad5780632d7788db146101cd5780633015394c146101ed5780633410452a1461020d5780634051ddac1461023557600080fd5b36610193576101916104f2565b005b600080fd5b3480156101a457600080fd5b50610191610635565b3480156101b957600080fd5b506101916101c836600461145c565b610786565b3480156101d957600080fd5b506101916101e836600461145c565b6109a7565b3480156101f957600080fd5b5061019161020836600461145c565b610b57565b34801561021957600080fd5b50610222610c09565b6040519081526020015b60405180910390f35b34801561024157600080fd5b5061024a610c19565b60405161022c969594939291906114bb565b34801561026857600080fd5b50610222610277366004611515565b60036020526000908152604090205481565b34801561029557600080fd5b506102a96102a4366004611539565b610cff565b604051901515815260200161022c565b3480156102c557600080fd5b506102ce610d58565b60405161022c9190611569565b3480156102e757600080fd5b5061022260085481565b3480156102fd57600080fd5b50610191610de6565b34801561031257600080fd5b5061032661032136600461145c565b610df8565b60405161022c9695949392919061157c565b34801561034457600080fd5b506101916103533660046115e7565b610ec5565b34801561036457600080fd5b506001546001600160a01b03165b6040516001600160a01b03909116815260200161022c565b34801561039657600080fd5b506102227f000000000000000000000000000000000000000000000000000000000000000081565b3480156103ca57600080fd5b506009546102a99060ff1681565b3480156103e457600080fd5b5061022260075481565b3480156103fa57600080fd5b506101916110f3565b34801561040f57600080fd5b506103727f000000000000000000000000000000000000000000000000000000000000000081565b34801561044357600080fd5b506102227f000000000000000000000000000000000000000000000000000000000000000081565b6101916104f2565b34801561047f57600080fd5b5061019161048e36600461145c565b61111e565b34801561049f57600080fd5b50600854610222565b3480156104b457600080fd5b50600754610222565b3480156104c957600080fd5b506101916104d8366004611515565b6112bf565b3480156104e957600080fd5b50610222611335565b60095460ff161561051e5760405162461bcd60e51b8152600401610515906116b2565b60405180910390fd5b610526611340565b7f00000000000000000000000000000000000000000000000000000000000000003410156105a05760405162461bcd60e51b815260206004820152602160248201527f436f6e747269627574696f6e2062656c6f77206d696e696d756d20616d6f756e6044820152601d60fa1b6064820152608401610515565b3360009081526003602052604081205490036105c4576105c4600480546001019055565b33600090815260036020526040812080543492906105e39084906116ff565b909155506105f19050611399565b604080513381523460208201527f6770260ea820d2f539364e7617e021543aaf6d192f2fd2a47c20db6bd99a4eb9910160405180910390a16106336001600055565b565b60095460ff16156106585760405162461bcd60e51b8152600401610515906116b2565b336001600160a01b037f000000000000000000000000000000000000000000000000000000000000000016146106e05760405162461bcd60e51b815260206004820152602760248201527f4f6e6c792074686520666163746f72792063616e2063616c6c207468697320666044820152663ab731ba34b7b760c91b6064820152608401610515565b6106e8611340565b6040516001600160a01b037f000000000000000000000000000000000000000000000000000000000000000016904780156108fc02916000818181858888f1935050505015801561073d573d6000803e3d6000fd5b506009805460ff19166001179055610753611399565b6040517f123d4f203b2b83bfe9f45903402bb88193cc56a43371d97ab5a51bd1817d858690600090a16106336001600055565b61078e6113b0565b610796611340565b60065481106107b75760405162461bcd60e51b815260040161051590611712565b60008181526005602052604090206002810154600160a01b900460ff16156107f15760405162461bcd60e51b815260040161051590611741565b60008160040154826003015461080791906116ff565b90506000606461081660045490565b61082190601e611783565b61082b919061179a565b9050808210156108725760405162461bcd60e51b8152602060048201526012602482015271145d5bdc9d5b481b9bdd081c995858da195960721b6044820152606401610515565b82600401548360030154116108c05760405162461bcd60e51b81526020600482015260146024820152734e6f7420656e6f75676820617070726f76616c7360601b6044820152606401610515565b47836001015411156109095760405162461bcd60e51b8152602060048201526012602482015271496e73756666696369656e742066756e647360701b6044820152606401610515565b60028301805460ff60a01b198116600160a01b1790915560018401546040516001600160a01b039092169181156108fc0291906000818181858888f1935050505015801561095b573d6000803e3d6000fd5b50610964611399565b6040518481527f5f737e695a47d9dd61a69c097b680eb2d154fd3a73ddf8e06ae201447c5933959060200160405180910390a15050506109a46001600055565b50565b60095460ff16156109ca5760405162461bcd60e51b8152600401610515906116b2565b6109d2611340565b60065481106109f35760405162461bcd60e51b815260040161051590611712565b33600090815260036020526040902054610a4f5760405162461bcd60e51b815260206004820152601c60248201527f4f6e6c7920636f6e7472696275746f72732063616e2072656a656374000000006044820152606401610515565b60008181526005602081815260408084203385529283019091529091205460ff1615610ab65760405162461bcd60e51b8152602060048201526016602482015275165bdd481a185d9948185b1c9958591e481d9bdd195960521b6044820152606401610515565b6002810154600160a01b900460ff1615610ae25760405162461bcd60e51b815260040161051590611741565b3360009081526005820160205260408120805460ff1916600117905560048201805491610b0e836117bc565b9091555050604080518381523360208201527f490ad67e4c8b3b9c1d11dfcd7f02e155190b8f6feff3a9d9e9df3721f0f74e5791015b60405180910390a1506109a46001600055565b610b5f6113b0565b610b67611340565b6006548110610b885760405162461bcd60e51b815260040161051590611712565b60008181526005602052604090206002810154600160a01b900460ff1615610bc25760405162461bcd60e51b815260040161051590611741565b60028101805460ff60a01b1916600160a01b1790556040517fee243f878b7fc2f54e934ca33783d4395d42bc07612e2bd4b8e0e178639f7a2890610b449084815260200190565b6000610c1460065490565b905090565b6060600080600080600060027f000000000000000000000000000000000000000000000000000000000000000047610c5060065490565b6004546001546001600160a01b0316858054610c6b906117d5565b80601f0160208091040260200160405190810160405280929190818152602001828054610c97906117d5565b8015610ce45780601f10610cb957610100808354040283529160200191610ce4565b820191906000526020600020905b815481529060010190602001808311610cc757829003601f168201915b50505050509550955095509550955095509550909192939495565b6000610d0a60065490565b8310610d285760405162461bcd60e51b815260040161051590611712565b5060008281526005602081815260408084206001600160a01b0386168552909201905290205460ff165b92915050565b60028054610d65906117d5565b80601f0160208091040260200160405190810160405280929190818152602001828054610d91906117d5565b8015610dde5780601f10610db357610100808354040283529160200191610dde565b820191906000526020600020905b815481529060010190602001808311610dc157829003601f168201915b505050505081565b610dee6113b0565b610633600061140a565b600560205260009081526040902080548190610e13906117d5565b80601f0160208091040260200160405190810160405280929190818152602001828054610e3f906117d5565b8015610e8c5780601f10610e6157610100808354040283529160200191610e8c565b820191906000526020600020905b815481529060010190602001808311610e6f57829003601f168201915b50505050600183015460028401546003850154600490950154939491936001600160a01b0382169350600160a01b90910460ff16919086565b610ecd6113b0565b60095460ff1615610ef05760405162461bcd60e51b8152600401610515906116b2565b610ef8611340565b60008211610f545760405162461bcd60e51b8152602060048201526024808201527f526571756573742076616c7565206d75737420626520677265617465722074686044820152630616e20360e41b6064820152608401610515565b6000835111610fa55760405162461bcd60e51b815260206004820152601b60248201527f4465736372697074696f6e2063616e6e6f7420626520656d70747900000000006044820152606401610515565b6001600160a01b038116610ffb5760405162461bcd60e51b815260206004820152601960248201527f496e76616c696420726563697069656e742061646472657373000000000000006044820152606401610515565b4782111561104b5760405162461bcd60e51b815260206004820152601e60248201527f496e73756666696369656e742066756e647320666f72207265717565737400006044820152606401610515565b600061105660065490565b600081815260056020526040902090915080611072868261185f565b50600181018490556002810180546001600160a81b0319166001600160a01b0385161790556110a5600680546001019055565b7ff7365309cb3a1c4835d32acd2153ebf718723e270daad5bb2aac6dd47564583b828686866040516110da949392919061191f565b60405180910390a150506110ee6001600055565b505050565b60095460ff16156111165760405162461bcd60e51b8152600401610515906116b2565b6106e06113b0565b60095460ff16156111415760405162461bcd60e51b8152600401610515906116b2565b611149611340565b600654811061116a5760405162461bcd60e51b815260040161051590611712565b336000908152600360205260409020546111c65760405162461bcd60e51b815260206004820152601d60248201527f4f6e6c7920636f6e7472696275746f72732063616e20617070726f76650000006044820152606401610515565b60008181526005602081815260408084203385529283019091529091205460ff161561122d5760405162461bcd60e51b8152602060048201526016602482015275165bdd481a185d9948185b1c9958591e481d9bdd195960521b6044820152606401610515565b6002810154600160a01b900460ff16156112595760405162461bcd60e51b815260040161051590611741565b3360009081526005820160205260408120805460ff1916600117905560038201805491611285836117bc565b9091555050604080518381523360208201527ff3dc904660a0ea05aba8dfa1e21fbc4fb2914be2a3029da7b0fdd3e5eee20ddb9101610b44565b6112c76113b0565b6001600160a01b03811661132c5760405162461bcd60e51b815260206004820152602660248201527f4f776e61626c653a206e6577206f776e657220697320746865207a65726f206160448201526564647265737360d01b6064820152608401610515565b6109a48161140a565b6000610c1460045490565b6002600054036113925760405162461bcd60e51b815260206004820152601f60248201527f5265656e7472616e637947756172643a207265656e7472616e742063616c6c006044820152606401610515565b6002600055565b476007819055600854101561063357600754600855565b6001546001600160a01b031633146106335760405162461bcd60e51b815260206004820181905260248201527f4f776e61626c653a2063616c6c6572206973206e6f7420746865206f776e65726044820152606401610515565b600180546001600160a01b038381166001600160a01b0319831681179093556040519116919082907f8be0079c531659141344cd1fd0a4f28419497f9722a3daafe3b4186f6b6457e090600090a35050565b60006020828403121561146e57600080fd5b5035919050565b6000815180845260005b8181101561149b5760208185018101518683018201520161147f565b506000602082860101526020601f19601f83011685010191505092915050565b60c0815260006114ce60c0830189611475565b6020830197909752506040810194909452606084019290925260808301526001600160a01b031660a090910152919050565b6001600160a01b03811681146109a457600080fd5b60006020828403121561152757600080fd5b813561153281611500565b9392505050565b6000806040838503121561154c57600080fd5b82359150602083013561155e81611500565b809150509250929050565b6020815260006115326020830184611475565b60c08152600061158f60c0830189611475565b6020830197909752506001600160a01b039490941660408501529115156060840152608083015260a090910152919050565b634e487b7160e01b600052604160045260246000fd5b80356115e281611500565b919050565b6000806000606084860312156115fc57600080fd5b833567ffffffffffffffff8082111561161457600080fd5b818601915086601f83011261162857600080fd5b81358181111561163a5761163a6115c1565b604051601f8201601f19908116603f01168101908382118183101715611662576116626115c1565b8160405282815289602084870101111561167b57600080fd5b826020860160208301376000602084830101528097505050505050602084013591506116a9604085016115d7565b90509250925092565b6020808252601b908201527f43616d706169676e20686173206265656e2063616e63656c6c65640000000000604082015260600190565b634e487b7160e01b600052601160045260246000fd5b80820180821115610d5257610d526116e9565b602080825260159082015274092dcecc2d8d2c840e4cae2eacae6e840d2dcc8caf605b1b604082015260600190565b60208082526022908201527f526571756573742068617320616c7265616479206265656e20636f6d706c6574604082015261195960f21b606082015260800190565b8082028115828204841417610d5257610d526116e9565b6000826117b757634e487b7160e01b600052601260045260246000fd5b500490565b6000600182016117ce576117ce6116e9565b5060010190565b600181811c908216806117e957607f821691505b60208210810361180957634e487b7160e01b600052602260045260246000fd5b50919050565b601f8211156110ee576000816000526020600020601f850160051c810160208610156118385750805b601f850160051c820191505b8181101561185757828155600101611844565b505050505050565b815167ffffffffffffffff811115611879576118796115c1565b61188d8161188784546117d5565b8461180f565b602080601f8311600181146118c257600084156118aa5750858301515b600019600386901b1c1916600185901b178555611857565b600085815260208120601f198616915b828110156118f1578886015182559484019460019091019084016118d2565b508582101561190f5787850151600019600388901b60f8161c191681555b5050505050600190811b01905550565b8481526080602082015260006119386080830186611475565b6040830194909452506001600160a01b03919091166060909101529291505056fea264697066735822122025977c65cebc0d60035e0eaaee86163b8eca2e20fb827155c7b44b8dc31dc51964736f6c63430008180033a264697066735822122022daacab2153ea8fb1728b931aac41b905ca2f97f1bd1a41a181d96e7f53509864736f6c63430008180033",
  "linkReferences": {},
  "deployedLinkReferences": {}
}