{
  "_format": "hh-sol-artifact-1",
  "contractName": "CampaignFactory",
  "sourceName": "contracts/CampaignFactory.sol",
  "abi": [
    {
      "inputs": [],
      "stateMutability": "nonpayable",
      "type": "constructor"
    },
    {
      "anonymous": false,
      "inputs": [
        {
          "indexed": false,
          "internalType": "uint256",
          "name": "campaignId",
          "type": "uint256"
        },
        {
          "indexed": false,
          "internalType": "address",
          "name": "campaignAddress",
          "type": "address"
        },
        {
          "indexed": false,
          "internalType": "address",
          "name": "creator",
          "type": "address"
        },
        {
          "indexed": false,
          "internalType": "string",
          "name": "title",
          "type": "string"
        },
        {
          "indexed": false,
          "internalType": "uint256",
          "name": "minContribution",
          "type": "uint256"
        },
        {
          "indexed": false,
          "internalType": "uint256",
          "name": "timestamp",
          "type": "uint256"
        }
      ],
      "name": "CampaignCreated",
      "type": "event"
    },
    {
      "anonymous": false,
      "inputs": [
        {
          "indexed": false,
          "internalType": "uint256",
          "name": "campaignId",
          "type": "uint256"
        },
        {
          "indexed": false,
          "internalType": "address",
          "name": "campaignAddress",
          "type": "address"
        }
      ],
      "name": "CampaignRemoved",
      "type": "event"
    },
    {
      "anonymous": false,
      "inputs": [
        {
          "indexed": false,
          "internalType": "uint256",
          "name": "campaignId",
          "type": "uint256"
        },
        {
          "indexed": false,
          "internalType": "address",
          "name": "campaignAddress",
          "type": "address"
        },
        {
          "indexed": false,
          "internalType": "bool",
          "name": "isActive",
          "type": "bool"
        }
      ],
      "name": "CampaignStatusChanged",
      "type": "event"
    },
    {
      "anonymous": false,
      "inputs": [
        {
          "indexed": false,
          "internalType": "uint256",
          "name": "amount",
          "type": "uint256"
        },
        {
          "indexed": false,
          "internalType": "address",
          "name": "recipient",
          "type": "address"
        }
      ],
      "name": "FundsReleased",
      "type": "event"
    },
    {
      "anonymous": false,
      "inputs": [
        {
          "indexed": true,
          "internalType": "address",
          "name": "previousOwner",
          "type": "address"
        },
        {
          "indexed": true,
          "internalType": "address",
          "name": "newOwner",
          "type": "address"
        }
      ],
      "name": "OwnershipTransferred",
      "type": "event"
    },
    {
      "inputs": [
        {
          "internalType": "address",
          "name": "",
          "type": "address"
        }
      ],
      "name": "campaignIds",
      "outputs": [
        {
          "internalType": "uint256",
          "name": "",
          "type": "uint256"
        }
      ],
      "stateMutability": "view",
      "type": "function"
    },
    {
      "inputs": [
        {
          "internalType": "uint256",
          "name": "",
          "type": "uint256"
        }
      ],
      "name": "campaigns",
      "outputs": [
        {
          "internalType": "address",
          "name": "campaignAddress",
          "type": "address"
        },
        {
          "internalType": "bool",
          "name": "isActive",
          "type": "bool"
        },
        {
          "internalType": "uint256",
          "name": "createdAt",
          "type": "uint256"
        },
        {
          "internalType": "string",
          "name": "title",
          "type": "string"
        },
        {
          "internalType": "uint256",
          "name": "minContribution",
          "type": "uint256"
        },
        {
          "internalType": "address",
          "name": "creator",
          "type": "address"
        }
      ],
      "stateMutability": "view",
      "type": "function"
    },
    {
      "inputs": [
        {
          "internalType": "string",
          "name": "title",
          "type": "string"
        },
        {
          "internalType": "uint256",
          "name": "minContribution",
          "type": "uint256"
        }
      ],
      "name": "createCampaign",
      "outputs": [
        {
          "internalType": "address",
          "name": "",
          "type": "address"
        }
      ],
      "stateMutability": "nonpayable",
      "type": "function"
    },
    {
      "inputs": [
        {
          "internalType": "uint256",
          "name": "campaignId",
          "type": "uint256"
        }
      ],
      "name": "deactivateCampaign",
      "outputs": [],
      "stateMutability": "nonpayable",
      "type": "function"
    },
    {
      "inputs": [],
      "name": "getActiveCampaigns",
      "outputs": [
        {
          "internalType": "address[]",
          "name": "",
          "type": "address[]"
        }
      ],
      "stateMutability": "view",
      "type": "function"
    },
    {
      "inputs": [
        {
          "internalType": "address",
          "name": "campaignAddress",
          "type": "address"
        }
      ],
      "name": "getCampaignId",
      "outputs": [
        {
          "internalType": "uint256",
          "name": "",
          "type": "uint256"
        }
      ],
      "stateMutability": "view",
      "type": "function"
    },
    {
      "inputs": [
        {
          "internalType": "uint256",
          "name": "campaignId",
          "type": "uint256"
        }
      ],
      "name": "getCampaignInfo",
      "outputs": [
        {
          "internalType": "address",
          "name": "campaignAddress",
          "type": "address"
        },
        {
          "internalType": "bool",
          "name": "isActive",
          "type": "bool"
        },
        {
          "internalType": "uint256",
          "name": "createdAt",
          "type": "uint256"
        },
        {
          "internalType": "string",
          "name": "title",
          "type": "string"
        },
        {
          "internalType": "uint256",
          "name": "minContribution",
          "type": "uint256"
        },
        {
          "internalType": "address",
          "name": "creator",
          "type": "address"
        }
      ],
      "stateMutability": "view",
      "type": "function"
    },
    {
      "inputs": [
        {
          "internalType": "address",
          "name": "campaignAddress",
          "type": "address"
        }
      ],
      "name": "getCampaignStatus",
      "outputs": [
        {
          "internalType": "bool",
          "name": "",
          "type": "bool"
        }
      ],
      "stateMutability": "view",
      "type": "function"
    },
    {
      "inputs": [],
      "name": "getDeployedCampaigns",
      "outputs": [
        {
          "internalType": "address[]",
          "name": "",
          "type": "address[]"
        },
        {
          "internalType": "bool[]",
          "name": "",
          "type": "bool[]"
        }
      ],
      "stateMutability": "view",
      "type": "function"
    },
    {
      "inputs": [],
      "name": "owner",
      "outputs": [
        {
          "internalType": "address",
          "name": "",
          "type": "address"
        }
      ],
      "stateMutability": "view",
      "type": "function"
    },
    {
      "inputs": [],
      "name": "releaseFunds",
      "outputs": [],
      "stateMutability": "nonpayable",
      "type": "function"
    },
    {
      "inputs": [],
      "name": "renounceOwnership",
      "outputs": [],
      "stateMutability": "nonpayable",
      "type": "function"
    },
    {
      "inputs": [
        {
          "internalType": "address",
          "name": "newOwner",
          "type": "address"
        }
      ],
      "name": "transferOwnership",
      "outputs": [],
      "stateMutability": "nonpayable",
      "type": "function"
    }
  ],
  "bytecode": "0x608060405234801561001057600080fd5b5061001a3361002c565b600180556100273361002c565b61007c565b600080546001600160a01b038381166001600160a01b0319831681178455604051919092169283917f8be0079c531659141344cd1fd0a4f28419497f9722a3daafe3b4186f6b6457e09190a35050565b6133d18061008b6000396000f3fe60806040523480156200001157600080fd5b5060043610620000e05760003560e01c80638da5cb5b1162000097578063c362b156116200006e578063c362b156146200020c578063e38e2b821462000225578063f102a67c146200023c578063f2fde38b146200025357600080fd5b80638da5cb5b14620001925780639550fef114620001b85780639d31e1a714620001e457600080fd5b8063141961bc14620000e55780634acb9d4f146200011957806369d895751462000133578063715018a6146200013f5780637eca30fe1462000149578063840f8b901462000160575b600080fd5b620000fc620000f636600462001271565b6200026a565b6040516200011096959493929190620012d3565b60405180910390f35b6200012362000348565b6040516200011092919062001367565b6200013d620005e2565b005b6200013d620006dd565b6200013d6200015a36600462001271565b620006f3565b6200018362000171366004620013c4565b60046020526000908152604090205481565b60405190815260200162000110565b6000546001600160a01b03165b6040516001600160a01b03909116815260200162000110565b62000183620001c9366004620013c4565b6001600160a01b031660009081526004602052604090205490565b620001fb620001f5366004620013c4565b62000938565b604051901515815260200162000110565b6200021662000a1b565b604051620001109190620013ef565b620000fc6200023636600462001271565b62000c77565b6200019f6200024d3660046200141a565b62000e07565b6200013d62000264366004620013c4565b620010e0565b6003602052600090815260409020805460018201546002830180546001600160a01b03841694600160a01b90940460ff16939190620002a990620014d9565b80601f0160208091040260200160405190810160405280929190818152602001828054620002d790620014d9565b8015620003285780601f10620002fc5761010080835404028352916020019162000328565b820191906000526020600020905b8154815290600101906020018083116200030a57829003601f168201915b5050505060038301546004909301549192916001600160a01b0316905086565b60608060006200035760025490565b905060008167ffffffffffffffff81111562000377576200037762001404565b604051908082528060200260200182016040528015620003a1578160200160208202803683370190505b50905060008267ffffffffffffffff811115620003c257620003c262001404565b604051908082528060200260200182016040528015620003ec578160200160208202803683370190505b50905060005b83811015620005d7576000818152600360209081526040808320815160c08101835281546001600160a01b0381168252600160a01b900460ff161515938101939093526001810154918301919091526002810180546060840191906200045890620014d9565b80601f01602080910402602001604051908101604052809291908181526020018280546200048690620014d9565b8015620004d75780601f10620004ab57610100808354040283529160200191620004d7565b820191906000526020600020905b815481529060010190602001808311620004b957829003601f168201915b5050509183525050600382015460208201526004909101546001600160a01b031660409091015280518551919250908590849081106200051b576200051b62001515565b6001600160a01b039092166020928302919091018201528101518015620005a8575080600001516001600160a01b03166395ee12216040518163ffffffff1660e01b8152600401602060405180830381865afa15801562000580573d6000803e3d6000fd5b505050506040513d601f19601f82011682018060405250810190620005a691906200152b565b155b838381518110620005bd57620005bd62001515565b9115156020928302919091019091015250600101620003f2565b509094909350915050565b620005ec6200115c565b620005f6620011b8565b4780620006405760405162461bcd60e51b81526020600482015260136024820152724e6f2066756e647320746f2072656c6561736560681b60448201526064015b60405180910390fd5b600080546040516001600160a01b039091169183156108fc02918491818181858888f193505050501580156200067a573d6000803e3d6000fd5b507f8f5073d0a7a22ba450e278541077e181af457be74bea91e61f1f99e6bb40748e81620006b06000546001600160a01b031690565b604080519283526001600160a01b0390911660208301520160405180910390a150620006db60018055565b565b620006e76200115c565b620006db600062001213565b620006fd6200115c565b62000707620011b8565b6002548110620007505760405162461bcd60e51b8152602060048201526013602482015272125b9d985b1a590818d85b5c185a59db881251606a1b604482015260640162000637565b600081815260036020526040902054600160a01b900460ff16620007b75760405162461bcd60e51b815260206004820152601960248201527f43616d706169676e20616c726561647920696e61637469766500000000000000604482015260640162000637565b600081815260036020908152604091829020805483516395ee122160e01b8152935191936001600160a01b039091169283926395ee12219260048082019392918290030181865afa15801562000811573d6000803e3d6000fd5b505050506040513d601f19601f820116820180604052508101906200083791906200152b565b6200089157806001600160a01b0316624f3e866040518163ffffffff1660e01b8152600401600060405180830381600087803b1580156200087757600080fd5b505af11580156200088c573d6000803e3d6000fd5b505050505b815460ff60a01b1981168355604080518581526001600160a01b0390921660208301527fbc024e4aa60a5c1fe873e2fcdf7c38b4580c07539828049db4428819e6031ad5910160405180910390a18154604080518581526001600160a01b039092166020830152600082820152517f046a9ef4e9741ed9b7cba82ad486735ab516bd04dc43f6ee911737503f759db79181900360600190a150506200093560018055565b50565b6001600160a01b038116600090815260046020526040812054600254811015806200097d57506000818152600360205260409020546001600160a01b03848116911614155b156200098c5750600092915050565b600081815260036020526040902054600160a01b900460ff16801562000a145750826001600160a01b03166395ee12216040518163ffffffff1660e01b8152600401602060405180830381865afa158015620009ec573d6000803e3d6000fd5b505050506040513d601f19601f8201168201806040525081019062000a1291906200152b565b155b9392505050565b6060600062000a2960025490565b90506000805b8281101562000af557600081815260036020526040902054600160a01b900460ff16801562000ad657506000818152600360209081526040918290205482516395ee122160e01b815292516001600160a01b03909116926395ee12219260048083019391928290030181865afa15801562000aae573d6000803e3d6000fd5b505050506040513d601f19601f8201168201806040525081019062000ad491906200152b565b155b1562000aec578162000ae8816200154f565b9250505b60010162000a2f565b5060008167ffffffffffffffff81111562000b145762000b1462001404565b60405190808252806020026020018201604052801562000b3e578160200160208202803683370190505b5090506000805b848110801562000b5457508382105b1562000c6d57600081815260036020526040902054600160a01b900460ff16801562000bf857506000818152600360209081526040918290205482516395ee122160e01b815292516001600160a01b03909116926395ee12219260048083019391928290030181865afa15801562000bd0573d6000803e3d6000fd5b505050506040513d601f19601f8201168201806040525081019062000bf691906200152b565b155b1562000c585760008181526003602052604090205483516001600160a01b039091169084908490811062000c305762000c3062001515565b6001600160a01b03909216602092830291909101909101528162000c54816200154f565b9250505b8062000c64816200154f565b91505062000b45565b5090949350505050565b6000806000606060008062000c8b60025490565b871062000cd15760405162461bcd60e51b8152602060048201526013602482015272125b9d985b1a590818d85b5c185a59db881251606a1b604482015260640162000637565b6000878152600360209081526040808320815160c08101835281546001600160a01b0381168252600160a01b900460ff1615159381019390935260018101549183019190915260028101805460608401919062000d2e90620014d9565b80601f016020809104026020016040519081016040528092919081815260200182805462000d5c90620014d9565b801562000dad5780601f1062000d815761010080835404028352916020019162000dad565b820191906000526020600020905b81548152906001019060200180831162000d8f57829003601f168201915b505050918352505060038201546020808301919091526004909201546001600160a01b0316604091820152825191830151908301516060840151608085015160a090950151939d929c50909a509850919650945092505050565b600062000e13620011b8565b600083511162000e5e5760405162461bcd60e51b81526020600482015260156024820152745469746c652063616e6e6f7420626520656d70747960581b604482015260640162000637565b6000821162000ec45760405162461bcd60e51b815260206004820152602b60248201527f4d696e696d756d20636f6e747269627574696f6e206d7573742062652067726560448201526a061746572207468616e20360ac1b606482015260840162000637565b600062000ed060025490565b905060008484303360405162000ee69062001263565b62000ef5949392919062001577565b604051809103906000f08015801562000f12573d6000803e3d6000fd5b5090506001600160a01b03811662000f6d5760405162461bcd60e51b815260206004820152601860248201527f43616d706169676e206372656174696f6e206661696c65640000000000000000604482015260640162000637565b6040805160c0810182526001600160a01b0380841682526001602080840182815242858701908152606086018c8152608087018c90523360a088015260008a81526003909452969092208551815492511515600160a01b026001600160a81b031990931695169490941717835551908201559151909190600282019062000ff5908262001607565b506080820151600382015560a090910151600491820180546001600160a01b0319166001600160a01b0392831617905582166000908152602091909152604090208290556002805460010190557fab59b1925b9e9f5979fb63f46375f2f218e34df984a2b8725b5539447952b8e08282338888426040516200107d96959493929190620016d4565b60405180910390a1604080518381526001600160a01b038316602082015260018183015290517f046a9ef4e9741ed9b7cba82ad486735ab516bd04dc43f6ee911737503f759db79181900360600190a1915050620010da60018055565b92915050565b620010ea6200115c565b6001600160a01b038116620011515760405162461bcd60e51b815260206004820152602660248201527f4f776e61626c653a206e6577206f776e657220697320746865207a65726f206160448201526564647265737360d01b606482015260840162000637565b620009358162001213565b6000546001600160a01b03163314620006db5760405162461bcd60e51b815260206004820181905260248201527f4f776e61626c653a2063616c6c6572206973206e6f7420746865206f776e6572604482015260640162000637565b6002600154036200120c5760405162461bcd60e51b815260206004820152601f60248201527f5265656e7472616e637947756172643a207265656e7472616e742063616c6c00604482015260640162000637565b6002600155565b600080546001600160a01b038381166001600160a01b0319831681178455604051919092169283917f8be0079c531659141344cd1fd0a4f28419497f9722a3daafe3b4186f6b6457e09190a35050565b611c7e806200171e83390190565b6000602082840312156200128457600080fd5b5035919050565b6000815180845260005b81811015620012b35760208185018101518683018201520162001295565b506000602082860101526020601f19601f83011685010191505092915050565b600060018060a01b038089168352871515602084015286604084015260c060608401526200130560c08401876200128b565b60808401959095529290921660a09091015250949350505050565b60008151808452602080850194506020840160005b838110156200135c5781516001600160a01b03168752958201959082019060010162001335565b509495945050505050565b6040815260006200137c604083018562001320565b82810360208481019190915284518083528582019282019060005b81811015620013b757845115158352938301939183019160010162001397565b5090979650505050505050565b600060208284031215620013d757600080fd5b81356001600160a01b038116811462000a1457600080fd5b60208152600062000a14602083018462001320565b634e487b7160e01b600052604160045260246000fd5b600080604083850312156200142e57600080fd5b823567ffffffffffffffff808211156200144757600080fd5b818501915085601f8301126200145c57600080fd5b81358181111562001471576200147162001404565b604051601f8201601f19908116603f011681019083821181831017156200149c576200149c62001404565b81604052828152886020848701011115620014b657600080fd5b826020860160208301376000602093820184015298969091013596505050505050565b600181811c90821680620014ee57607f821691505b6020821081036200150f57634e487b7160e01b600052602260045260246000fd5b50919050565b634e487b7160e01b600052603260045260246000fd5b6000602082840312156200153e57600080fd5b8151801515811462000a1457600080fd5b6000600182016200157057634e487b7160e01b600052601160045260246000fd5b5060010190565b6080815260006200158c60808301876200128b565b6020830195909552506001600160a01b0392831660408201529116606090910152919050565b601f82111562001602576000816000526020600020601f850160051c81016020861015620015dd5750805b601f850160051c820191505b81811015620015fe57828155600101620015e9565b5050505b505050565b815167ffffffffffffffff81111562001624576200162462001404565b6200163c81620016358454620014d9565b84620015b2565b602080601f8311600181146200167457600084156200165b5750858301515b600019600386901b1c1916600185901b178555620015fe565b600085815260208120601f198616915b82811015620016a55788860151825594840194600190910190840162001684565b5085821015620016c45787850151600019600388901b60f8161c191681555b5050505050600190811b01905550565b8681526001600160a01b0386811660208301528516604082015260c06060820181905260009062001708908301866200128b565b60808301949094525060a0015294935050505056fe60e06040524260a0523480156200001557600080fd5b5060405162001c7e38038062001c7e833981016040819052620000389162000100565b600160005562000048336200007b565b62000053816200007b565b6001600160a01b03821660805260026200006e858262000295565b50505060c0525062000361565b600180546001600160a01b038381166001600160a01b0319831681179093556040519116919082907f8be0079c531659141344cd1fd0a4f28419497f9722a3daafe3b4186f6b6457e090600090a35050565b634e487b7160e01b600052604160045260246000fd5b80516001600160a01b0381168114620000fb57600080fd5b919050565b600080600080608085870312156200011757600080fd5b84516001600160401b03808211156200012f57600080fd5b818701915087601f8301126200014457600080fd5b815181811115620001595762000159620000cd565b604051601f8201601f19908116603f01168101908382118183101715620001845762000184620000cd565b81604052828152602093508a84848701011115620001a157600080fd5b600091505b82821015620001c55784820184015181830185015290830190620001a6565b60008484830101528098505050508087015194505050620001e960408601620000e3565b9150620001f960608601620000e3565b905092959194509250565b600181811c908216806200021957607f821691505b6020821081036200023a57634e487b7160e01b600052602260045260246000fd5b50919050565b601f82111562000290576000816000526020600020601f850160051c810160208610156200026b5750805b601f850160051c820191505b818110156200028c5782815560010162000277565b5050505b505050565b81516001600160401b03811115620002b157620002b1620000cd565b620002c981620002c2845462000204565b8462000240565b602080601f831160018114620003015760008415620002e85750858301515b600019600386901b1c1916600185901b1785556200028c565b600085815260208120601f198616915b82811015620003325788860151825594840194600190910190840162000311565b5085821015620003515787850151600019600388901b60f8161c191681555b5050505050600190811b01905550565b60805160a05160c0516118d1620003ad60003960008181610351015281816104ed0152610bec0152600061040e0152600081816103da0152818161062801526106ba01526118d16000f3fe6080604052600436106101695760003560e01c80638da5cb5b116100d1578063cf09e0d01161008a578063dff748e611610064578063dff748e614610458578063eb8bbd281461046d578063f2fde38b14610482578063feed5561146104a257600080fd5b8063cf09e0d0146103fc578063d7bb99ba14610430578063d7d1bbdb1461043857600080fd5b80638da5cb5b1461030d578063937e09b11461033f57806395ee122114610373578063968ed6001461039d578063980e7844146103b3578063c45a0155146103c857600080fd5b806342e94c901161012357806342e94c90146102415780634a79d50c1461026e5780635d6e297f14610290578063715018a6146102a657806381d12c58146102bb5780638a9cfd55146102ed57600080fd5b80624f3e861461017d57806303441006146101925780632d7788db146101b25780633015394c146101d25780633410452a146101f25780634051ddac1461021a57600080fd5b36610178576101766104b7565b005b600080fd5b34801561018957600080fd5b506101766105fa565b34801561019e57600080fd5b506101766101ad3660046113c8565b61074b565b3480156101be57600080fd5b506101766101cd3660046113c8565b61096c565b3480156101de57600080fd5b506101766101ed3660046113c8565b610b1c565b3480156101fe57600080fd5b50610207610bce565b6040519081526020015b60405180910390f35b34801561022657600080fd5b5061022f610bde565b60405161021196959493929190611427565b34801561024d57600080fd5b5061020761025c366004611481565b60036020526000908152604090205481565b34801561027a57600080fd5b50610283610cc4565b60405161021191906114a5565b34801561029c57600080fd5b5061020760085481565b3480156102b257600080fd5b50610176610d52565b3480156102c757600080fd5b506102db6102d63660046113c8565b610d64565b604051610211969594939291906114b8565b3480156102f957600080fd5b50610176610308366004611523565b610e31565b34801561031957600080fd5b506001546001600160a01b03165b6040516001600160a01b039091168152602001610211565b34801561034b57600080fd5b506102077f000000000000000000000000000000000000000000000000000000000000000081565b34801561037f57600080fd5b5060095461038d9060ff1681565b6040519015158152602001610211565b3480156103a957600080fd5b5061020760075481565b3480156103bf57600080fd5b5061017661105f565b3480156103d457600080fd5b506103277f000000000000000000000000000000000000000000000000000000000000000081565b34801561040857600080fd5b506102077f000000000000000000000000000000000000000000000000000000000000000081565b6101766104b7565b34801561044457600080fd5b506101766104533660046113c8565b61108a565b34801561046457600080fd5b50600854610207565b34801561047957600080fd5b50600754610207565b34801561048e57600080fd5b5061017661049d366004611481565b61122b565b3480156104ae57600080fd5b506102076112a1565b60095460ff16156104e35760405162461bcd60e51b81526004016104da906115ee565b60405180910390fd5b6104eb6112ac565b7f00000000000000000000000000000000000000000000000000000000000000003410156105655760405162461bcd60e51b815260206004820152602160248201527f436f6e747269627574696f6e2062656c6f77206d696e696d756d20616d6f756e6044820152601d60fa1b60648201526084016104da565b33600090815260036020526040812054900361058957610589600480546001019055565b33600090815260036020526040812080543492906105a890849061163b565b909155506105b69050611305565b604080513381523460208201527f6770260ea820d2f539364e7617e021543aaf6d192f2fd2a47c20db6bd99a4eb9910160405180910390a16105f86001600055565b565b60095460ff161561061d5760405162461bcd60e51b81526004016104da906115ee565b336001600160a01b037f000000000000000000000000000000000000000000000000000000000000000016146106a55760405162461bcd60e51b815260206004820152602760248201527f4f6e6c792074686520666163746f72792063616e2063616c6c207468697320666044820152663ab731ba34b7b760c91b60648201526084016104da565b6106ad6112ac565b6040516001600160a01b037f000000000000000000000000000000000000000000000000000000000000000016904780156108fc02916000818181858888f19350505050158015610702573d6000803e3d6000fd5b506009805460ff19166001179055610718611305565b6040517f123d4f203b2b83bfe9f45903402bb88193cc56a43371d97ab5a51bd1817d858690600090a16105f86001600055565b61075361131c565b61075b6112ac565b600654811061077c5760405162461bcd60e51b81526004016104da90611654565b60008181526005602052604090206002810154600160a01b900460ff16156107b65760405162461bcd60e51b81526004016104da90611683565b6000816004015482600301546107cc919061163b565b9050600060646107db60045490565b6107e690601e6116c5565b6107f091906116dc565b9050808210156108375760405162461bcd60e51b8152602060048201526012602482015271145d5bdc9d5b481b9bdd081c995858da195960721b60448201526064016104da565b82600401548360030154116108855760405162461bcd60e51b81526020600482015260146024820152734e6f7420656e6f75676820617070726f76616c7360601b60448201526064016104da565b47836001015411156108ce5760405162461bcd60e51b8152602060048201526012602482015271496e73756666696369656e742066756e647360701b60448201526064016104da565b60028301805460ff60a01b198116600160a01b1790915560018401546040516001600160a01b039092169181156108fc0291906000818181858888f19350505050158015610920573d6000803e3d6000fd5b50610929611305565b6040518481527f5f737e695a47d9dd61a69c097b680eb2d154fd3a73ddf8e06ae201447c5933959060200160405180910390a15050506109696001600055565b50565b60095460ff161561098f5760405162461bcd60e51b81526004016104da906115ee565b6109976112ac565b60065481106109b85760405162461bcd60e51b81526004016104da90611654565b33600090815260036020526040902054610a145760405162461bcd60e51b815260206004820152601c60248201527f4f6e6c7920636f6e7472696275746f72732063616e2072656a6563740000000060448201526064016104da565b60008181526005602081815260408084203385529283019091529091205460ff1615610a7b5760405162461bcd60e51b8152602060048201526016602482015275165bdd481a185d9948185b1c9958591e481d9bdd195960521b60448201526064016104da565b6002810154600160a01b900460ff1615610aa75760405162461bcd60e51b81526004016104da90611683565b3360009081526005820160205260408120805460ff1916600117905560048201805491610ad3836116fe565b9091555050604080518381523360208201527f490ad67e4c8b3b9c1d11dfcd7f02e155190b8f6feff3a9d9e9df3721f0f74e5791015b60405180910390a1506109696001600055565b610b2461131c565b610b2c6112ac565b6006548110610b4d5760405162461bcd60e51b81526004016104da90611654565b60008181526005602052604090206002810154600160a01b900460ff1615610b875760405162461bcd60e51b81526004016104da90611683565b60028101805460ff60a01b1916600160a01b1790556040517fee243f878b7fc2f54e934ca33783d4395d42bc07612e2bd4b8e0e178639f7a2890610b099084815260200190565b6000610bd960065490565b905090565b6060600080600080600060027f000000000000000000000000000000000000000000000000000000000000000047610c1560065490565b6004546001546001600160a01b0316858054610c3090611717565b80601f0160208091040260200160405190810160405280929190818152602001828054610c5c90611717565b8015610ca95780601f10610c7e57610100808354040283529160200191610ca9565b820191906000526020600020905b815481529060010190602001808311610c8c57829003601f168201915b50505050509550955095509550955095509550909192939495565b60028054610cd190611717565b80601f0160208091040260200160405190810160405280929190818152602001828054610cfd90611717565b8015610d4a5780601f10610d1f57610100808354040283529160200191610d4a565b820191906000526020600020905b815481529060010190602001808311610d2d57829003601f168201915b505050505081565b610d5a61131c565b6105f86000611376565b600560205260009081526040902080548190610d7f90611717565b80601f0160208091040260200160405190810160405280929190818152602001828054610dab90611717565b8015610df85780601f10610dcd57610100808354040283529160200191610df8565b820191906000526020600020905b815481529060010190602001808311610ddb57829003601f168201915b50505050600183015460028401546003850154600490950154939491936001600160a01b0382169350600160a01b90910460ff16919086565b610e3961131c565b60095460ff1615610e5c5760405162461bcd60e51b81526004016104da906115ee565b610e646112ac565b60008211610ec05760405162461bcd60e51b8152602060048201526024808201527f526571756573742076616c7565206d75737420626520677265617465722074686044820152630616e20360e41b60648201526084016104da565b6000835111610f115760405162461bcd60e51b815260206004820152601b60248201527f4465736372697074696f6e2063616e6e6f7420626520656d707479000000000060448201526064016104da565b6001600160a01b038116610f675760405162461bcd60e51b815260206004820152601960248201527f496e76616c696420726563697069656e7420616464726573730000000000000060448201526064016104da565b47821115610fb75760405162461bcd60e51b815260206004820152601e60248201527f496e73756666696369656e742066756e647320666f722072657175657374000060448201526064016104da565b6000610fc260065490565b600081815260056020526040902090915080610fde86826117a1565b50600181018490556002810180546001600160a81b0319166001600160a01b038516179055611011600680546001019055565b7ff7365309cb3a1c4835d32acd2153ebf718723e270daad5bb2aac6dd47564583b828686866040516110469493929190611861565b60405180910390a1505061105a6001600055565b505050565b60095460ff16156110825760405162461bcd60e51b81526004016104da906115ee565b6106a561131c565b60095460ff16156110ad5760405162461bcd60e51b81526004016104da906115ee565b6110b56112ac565b60065481106110d65760405162461bcd60e51b81526004016104da90611654565b336000908152600360205260409020546111325760405162461bcd60e51b815260206004820152601d60248201527f4f6e6c7920636f6e7472696275746f72732063616e20617070726f766500000060448201526064016104da565b60008181526005602081815260408084203385529283019091529091205460ff16156111995760405162461bcd60e51b8152602060048201526016602482015275165bdd481a185d9948185b1c9958591e481d9bdd195960521b60448201526064016104da565b6002810154600160a01b900460ff16156111c55760405162461bcd60e51b81526004016104da90611683565b3360009081526005820160205260408120805460ff19166001179055600382018054916111f1836116fe565b9091555050604080518381523360208201527ff3dc904660a0ea05aba8dfa1e21fbc4fb2914be2a3029da7b0fdd3e5eee20ddb9101610b09565b61123361131c565b6001600160a01b0381166112985760405162461bcd60e51b815260206004820152602660248201527f4f776e61626c653a206e6577206f776e657220697320746865207a65726f206160448201526564647265737360d01b60648201526084016104da565b61096981611376565b6000610bd960045490565b6002600054036112fe5760405162461bcd60e51b815260206004820152601f60248201527f5265656e7472616e637947756172643a207265656e7472616e742063616c6c0060448201526064016104da565b6002600055565b47600781905560085410156105f857600754600855565b6001546001600160a01b031633146105f85760405162461bcd60e51b815260206004820181905260248201527f4f776e61626c653a2063616c6c6572206973206e6f7420746865206f776e657260448201526064016104da565b600180546001600160a01b038381166001600160a01b0319831681179093556040519116919082907f8be0079c531659141344cd1fd0a4f28419497f9722a3daafe3b4186f6b6457e090600090a35050565b6000602082840312156113da57600080fd5b5035919050565b6000815180845260005b81811015611407576020818501810151868301820152016113eb565b506000602082860101526020601f19601f83011685010191505092915050565b60c08152600061143a60c08301896113e1565b6020830197909752506040810194909452606084019290925260808301526001600160a01b031660a090910152919050565b6001600160a01b038116811461096957600080fd5b60006020828403121561149357600080fd5b813561149e8161146c565b9392505050565b60208152600061149e60208301846113e1565b60c0815260006114cb60c08301896113e1565b6020830197909752506001600160a01b039490941660408501529115156060840152608083015260a090910152919050565b634e487b7160e01b600052604160045260246000fd5b803561151e8161146c565b919050565b60008060006060848603121561153857600080fd5b833567ffffffffffffffff8082111561155057600080fd5b818601915086601f83011261156457600080fd5b813581811115611576576115766114fd565b604051601f8201601f19908116603f0116810190838211818310171561159e5761159e6114fd565b816040528281528960208487010111156115b757600080fd5b826020860160208301376000602084830101528097505050505050602084013591506115e560408501611513565b90509250925092565b6020808252601b908201527f43616d706169676e20686173206265656e2063616e63656c6c65640000000000604082015260600190565b634e487b7160e01b600052601160045260246000fd5b8082018082111561164e5761164e611625565b92915050565b602080825260159082015274092dcecc2d8d2c840e4cae2eacae6e840d2dcc8caf605b1b604082015260600190565b60208082526022908201527f526571756573742068617320616c7265616479206265656e20636f6d706c6574604082015261195960f21b606082015260800190565b808202811582820484141761164e5761164e611625565b6000826116f957634e487b7160e01b600052601260045260246000fd5b500490565b60006001820161171057611710611625565b5060010190565b600181811c9082168061172b57607f821691505b60208210810361174b57634e487b7160e01b600052602260045260246000fd5b50919050565b601f82111561105a576000816000526020600020601f850160051c8101602086101561177a5750805b601f850160051c820191505b8181101561179957828155600101611786565b505050505050565b815167ffffffffffffffff8111156117bb576117bb6114fd565b6117cf816117c98454611717565b84611751565b602080601f83116001811461180457600084156117ec5750858301515b600019600386901b1c1916600185901b178555611799565b600085815260208120601f198616915b8281101561183357888601518255948401946001909101908401611814565b50858210156118515787850151600019600388901b60f8161c191681555b5050505050600190811b01905550565b84815260806020820152600061187a60808301866113e1565b6040830194909452506001600160a01b03919091166060909101529291505056fea264697066735822122018da9eaed2b7a0e0400f647a84de91129ef9b19a39cf12b0c503be6842e925b164736f6c63430008180033a2646970667358221220463904c3637752694abf328703e55ab25a7b562d8917a49293537814508b617664736f6c63430008180033",
  "linkReferences": {},
  "deployedLinkReferences": {}
}