{
  "_format": "hh-sol-artifact-1",
  "contractName": "Campaign",
  "sourceName": "contracts/Campaign.sol",
  "abi": [
    {
      "inputs": [
        {
          "internalType": "string",
          "name": "_title",
          "type": "string"
        },
        {
          "internalType": "uint256",
          "name": "minContribution",
          "type": "uint256"
        },
        {
          "internalType": "address",
          "name": "_factory",
          "type": "address"
        },
        {
          "internalType": "address",
          "name": "_owner",
          "type": "address"
        }
      ],
      "stateMutability": "nonpayable",
      "type": "constructor"
    },
    {
      "anonymous": false,
      "inputs": [],
      "name": "CampaignCancelled",
      "type": "event"
    },
    {
      "anonymous": false,
      "inputs": [
        {
          "indexed": false,
          "internalType": "address",
          "name": "contributor",
          "type": "address"
        },
        {
          "indexed": false,
          "internalType": "uint256",
          "name": "amount",
          "type": "uint256"
        }
      ],
      "name": "ContributionMade",
      "type": "event"
    },
    {
      "anonymous": false,
      "inputs": [
        {
          "indexed": true,
          "internalType": "address",
          "name": "previousOwner",
          "type": "address"
        },
        {
          "indexed": true,
          "internalType": "address",
          "name": "newOwner",
          "type": "address"
        }
      ],
      "name": "OwnershipTransferred",
      "type": "event"
    },
    {
      "anonymous": false,
      "inputs": [
        {
          "indexed": false,
          "internalType": "address",
          "name": "contributor",
          "type": "address"
        },
        {
          "indexed": false,
          "internalType": "uint256",
          "name": "amount",
          "type": "uint256"
        }
      ],
      "name": "RefundIssued",
      "type": "event"
    },
    {
      "anonymous": false,
      "inputs": [
        {
          "indexed": false,
          "internalType": "uint256",
          "name": "requestId",
          "type": "uint256"
        },
        {
          "indexed": false,
          "internalType": "address",
          "name": "approver",
          "type": "address"
        }
      ],
      "name": "RequestApproved",
      "type": "event"
    },
    {
      "anonymous": false,
      "inputs": [
        {
          "indexed": false,
          "internalType": "uint256",
          "name": "requestId",
          "type": "uint256"
        }
      ],
      "name": "RequestCancelled",
      "type": "event"
    },
    {
      "anonymous": false,
      "inputs": [
        {
          "indexed": false,
          "internalType": "uint256",
          "name": "requestId",
          "type": "uint256"
        },
        {
          "indexed": false,
          "internalType": "string",
          "name": "description",
          "type": "string"
        },
        {
          "indexed": false,
          "internalType": "uint256",
          "name": "value",
          "type": "uint256"
        },
        {
          "indexed": false,
          "internalType": "address",
          "name": "recipient",
          "type": "address"
        }
      ],
      "name": "RequestCreated",
      "type": "event"
    },
    {
      "anonymous": false,
      "inputs": [
        {
          "indexed": false,
          "internalType": "uint256",
          "name": "requestId",
          "type": "uint256"
        }
      ],
      "name": "RequestFinalized",
      "type": "event"
    },
    {
      "anonymous": false,
      "inputs": [
        {
          "indexed": false,
          "internalType": "uint256",
          "name": "requestId",
          "type": "uint256"
        },
        {
          "indexed": false,
          "internalType": "address",
          "name": "rejector",
          "type": "address"
        }
      ],
      "name": "RequestRejected",
      "type": "event"
    },
    {
      "inputs": [
        {
          "internalType": "uint256",
          "name": "index",
          "type": "uint256"
        }
      ],
      "name": "approveRequest",
      "outputs": [],
      "stateMutability": "nonpayable",
      "type": "function"
    },
    {
      "inputs": [],
      "name": "cancelCampaign",
      "outputs": [],
      "stateMutability": "nonpayable",
      "type": "function"
    },
    {
      "inputs": [
        {
          "internalType": "uint256",
          "name": "index",
          "type": "uint256"
        }
      ],
      "name": "cancelRequest",
      "outputs": [],
      "stateMutability": "nonpayable",
      "type": "function"
    },
    {
      "inputs": [],
      "name": "contribute",
      "outputs": [],
      "stateMutability": "payable",
      "type": "function"
    },
    {
      "inputs": [
        {
          "internalType": "address",
          "name": "",
          "type": "address"
        }
      ],
      "name": "contributions",
      "outputs": [
        {
          "internalType": "uint256",
          "name": "",
          "type": "uint256"
        }
      ],
      "stateMutability": "view",
      "type": "function"
    },
    {
      "inputs": [
        {
          "internalType": "string",
          "name": "description",
          "type": "string"
        },
        {
          "internalType": "uint256",
          "name": "value",
          "type": "uint256"
        },
        {
          "internalType": "address payable",
          "name": "recipient",
          "type": "address"
        }
      ],
      "name": "createRequest",
      "outputs": [],
      "stateMutability": "nonpayable",
      "type": "function"
    },
    {
      "inputs": [],
      "name": "createdAt",
      "outputs": [
        {
          "internalType": "uint256",
          "name": "",
          "type": "uint256"
        }
      ],
      "stateMutability": "view",
      "type": "function"
    },
    {
      "inputs": [],
      "name": "factory",
      "outputs": [
        {
          "internalType": "address payable",
          "name": "",
          "type": "address"
        }
      ],
      "stateMutability": "view",
      "type": "function"
    },
    {
      "inputs": [
        {
          "internalType": "uint256",
          "name": "index",
          "type": "uint256"
        }
      ],
      "name": "finalizeRequest",
      "outputs": [],
      "stateMutability": "nonpayable",
      "type": "function"
    },
    {
      "inputs": [],
      "name": "forceCancel",
      "outputs": [],
      "stateMutability": "nonpayable",
      "type": "function"
    },
    {
      "inputs": [],
      "name": "getContributorsCount",
      "outputs": [
        {
          "internalType": "uint256",
          "name": "",
          "type": "uint256"
        }
      ],
      "stateMutability": "view",
      "type": "function"
    },
    {
      "inputs": [],
      "name": "getMaxFunds",
      "outputs": [
        {
          "internalType": "uint256",
          "name": "",
          "type": "uint256"
        }
      ],
      "stateMutability": "view",
      "type": "function"
    },
    {
      "inputs": [],
      "name": "getRequestsCount",
      "outputs": [
        {
          "internalType": "uint256",
          "name": "",
          "type": "uint256"
        }
      ],
      "stateMutability": "view",
      "type": "function"
    },
    {
      "inputs": [],
      "name": "getSummary",
      "outputs": [
        {
          "internalType": "string",
          "name": "",
          "type": "string"
        },
        {
          "internalType": "uint256",
          "name": "",
          "type": "uint256"
        },
        {
          "internalType": "uint256",
          "name": "",
          "type": "uint256"
        },
        {
          "internalType": "uint256",
          "name": "",
          "type": "uint256"
        },
        {
          "internalType": "uint256",
          "name": "",
          "type": "uint256"
        },
        {
          "internalType": "address",
          "name": "",
          "type": "address"
        }
      ],
      "stateMutability": "view",
      "type": "function"
    },
    {
      "inputs": [],
      "name": "getTotalFunds",
      "outputs": [
        {
          "internalType": "uint256",
          "name": "",
          "type": "uint256"
        }
      ],
      "stateMutability": "view",
      "type": "function"
    },
    {
      "inputs": [],
      "name": "isCancelled",
      "outputs": [
        {
          "internalType": "bool",
          "name": "",
          "type": "bool"
        }
      ],
      "stateMutability": "view",
      "type": "function"
    },
    {
      "inputs": [],
      "name": "maxFunds",
      "outputs": [
        {
          "internalType": "uint256",
          "name": "",
          "type": "uint256"
        }
      ],
      "stateMutability": "view",
      "type": "function"
    },
    {
      "inputs": [],
      "name": "minimumContribution",
      "outputs": [
        {
          "internalType": "uint256",
          "name": "",
          "type": "uint256"
        }
      ],
      "stateMutability": "view",
      "type": "function"
    },
    {
      "inputs": [],
      "name": "owner",
      "outputs": [
        {
          "internalType": "address",
          "name": "",
          "type": "address"
        }
      ],
      "stateMutability": "view",
      "type": "function"
    },
    {
      "inputs": [
        {
          "internalType": "uint256",
          "name": "index",
          "type": "uint256"
        }
      ],
      "name": "rejectRequest",
      "outputs": [],
      "stateMutability": "nonpayable",
      "type": "function"
    },
    {
      "inputs": [],
      "name": "renounceOwnership",
      "outputs": [],
      "stateMutability": "nonpayable",
      "type": "function"
    },
    {
      "inputs": [
        {
          "internalType": "uint256",
          "name": "",
          "type": "uint256"
        }
      ],
      "name": "requests",
      "outputs": [
        {
          "internalType": "string",
          "name": "description",
          "type": "string"
        },
        {
          "internalType": "uint256",
          "name": "value",
          "type": "uint256"
        },
        {
          "internalType": "address payable",
          "name": "recipient",
          "type": "address"
        },
        {
          "internalType": "bool",
          "name": "complete",
          "type": "bool"
        },
        {
          "internalType": "uint256",
          "name": "approvalCount",
          "type": "uint256"
        },
        {
          "internalType": "uint256",
          "name": "rejectionCount",
          "type": "uint256"
        }
      ],
      "stateMutability": "view",
      "type": "function"
    },
    {
      "inputs": [],
      "name": "title",
      "outputs": [
        {
          "internalType": "string",
          "name": "",
          "type": "string"
        }
      ],
      "stateMutability": "view",
      "type": "function"
    },
    {
      "inputs": [],
      "name": "totalFunds",
      "outputs": [
        {
          "internalType": "uint256",
          "name": "",
          "type": "uint256"
        }
      ],
      "stateMutability": "view",
      "type": "function"
    },
    {
      "inputs": [
        {
          "internalType": "address",
          "name": "newOwner",
          "type": "address"
        }
      ],
      "name": "transferOwnership",
      "outputs": [],
      "stateMutability": "nonpayable",
      "type": "function"
    },
    {
      "stateMutability": "payable",
      "type": "receive"
    }
  ],
  "bytecode": "0x60e06040524260a0523480156200001557600080fd5b5060405162001c7e38038062001c7e833981016040819052620000389162000100565b600160005562000048336200007b565b62000053816200007b565b6001600160a01b03821660805260026200006e858262000295565b50505060c0525062000361565b600180546001600160a01b038381166001600160a01b0319831681179093556040519116919082907f8be0079c531659141344cd1fd0a4f28419497f9722a3daafe3b4186f6b6457e090600090a35050565b634e487b7160e01b600052604160045260246000fd5b80516001600160a01b0381168114620000fb57600080fd5b919050565b600080600080608085870312156200011757600080fd5b84516001600160401b03808211156200012f57600080fd5b818701915087601f8301126200014457600080fd5b815181811115620001595762000159620000cd565b604051601f8201601f19908116603f01168101908382118183101715620001845762000184620000cd565b81604052828152602093508a84848701011115620001a157600080fd5b600091505b82821015620001c55784820184015181830185015290830190620001a6565b60008484830101528098505050508087015194505050620001e960408601620000e3565b9150620001f960608601620000e3565b905092959194509250565b600181811c908216806200021957607f821691505b6020821081036200023a57634e487b7160e01b600052602260045260246000fd5b50919050565b601f82111562000290576000816000526020600020601f850160051c810160208610156200026b5750805b601f850160051c820191505b818110156200028c5782815560010162000277565b5050505b505050565b81516001600160401b03811115620002b157620002b1620000cd565b620002c981620002c2845462000204565b8462000240565b602080601f831160018114620003015760008415620002e85750858301515b600019600386901b1c1916600185901b1785556200028c565b600085815260208120601f198616915b82811015620003325788860151825594840194600190910190840162000311565b5085821015620003515787850151600019600388901b60f8161c191681555b5050505050600190811b01905550565b60805160a05160c0516118d1620003ad60003960008181610351015281816104ed0152610bec0152600061040e0152600081816103da0152818161062801526106ba01526118d16000f3fe6080604052600436106101695760003560e01c80638da5cb5b116100d1578063cf09e0d01161008a578063dff748e611610064578063dff748e614610458578063eb8bbd281461046d578063f2fde38b14610482578063feed5561146104a257600080fd5b8063cf09e0d0146103fc578063d7bb99ba14610430578063d7d1bbdb1461043857600080fd5b80638da5cb5b1461030d578063937e09b11461033f57806395ee122114610373578063968ed6001461039d578063980e7844146103b3578063c45a0155146103c857600080fd5b806342e94c901161012357806342e94c90146102415780634a79d50c1461026e5780635d6e297f14610290578063715018a6146102a657806381d12c58146102bb5780638a9cfd55146102ed57600080fd5b80624f3e861461017d57806303441006146101925780632d7788db146101b25780633015394c146101d25780633410452a146101f25780634051ddac1461021a57600080fd5b36610178576101766104b7565b005b600080fd5b34801561018957600080fd5b506101766105fa565b34801561019e57600080fd5b506101766101ad3660046113c8565b61074b565b3480156101be57600080fd5b506101766101cd3660046113c8565b61096c565b3480156101de57600080fd5b506101766101ed3660046113c8565b610b1c565b3480156101fe57600080fd5b50610207610bce565b6040519081526020015b60405180910390f35b34801561022657600080fd5b5061022f610bde565b60405161021196959493929190611427565b34801561024d57600080fd5b5061020761025c366004611481565b60036020526000908152604090205481565b34801561027a57600080fd5b50610283610cc4565b60405161021191906114a5565b34801561029c57600080fd5b5061020760085481565b3480156102b257600080fd5b50610176610d52565b3480156102c757600080fd5b506102db6102d63660046113c8565b610d64565b604051610211969594939291906114b8565b3480156102f957600080fd5b50610176610308366004611523565b610e31565b34801561031957600080fd5b506001546001600160a01b03165b6040516001600160a01b039091168152602001610211565b34801561034b57600080fd5b506102077f000000000000000000000000000000000000000000000000000000000000000081565b34801561037f57600080fd5b5060095461038d9060ff1681565b6040519015158152602001610211565b3480156103a957600080fd5b5061020760075481565b3480156103bf57600080fd5b5061017661105f565b3480156103d457600080fd5b506103277f000000000000000000000000000000000000000000000000000000000000000081565b34801561040857600080fd5b506102077f000000000000000000000000000000000000000000000000000000000000000081565b6101766104b7565b34801561044457600080fd5b506101766104533660046113c8565b61108a565b34801561046457600080fd5b50600854610207565b34801561047957600080fd5b50600754610207565b34801561048e57600080fd5b5061017661049d366004611481565b61122b565b3480156104ae57600080fd5b506102076112a1565b60095460ff16156104e35760405162461bcd60e51b81526004016104da906115ee565b60405180910390fd5b6104eb6112ac565b7f00000000000000000000000000000000000000000000000000000000000000003410156105655760405162461bcd60e51b815260206004820152602160248201527f436f6e747269627574696f6e2062656c6f77206d696e696d756d20616d6f756e6044820152601d60fa1b60648201526084016104da565b33600090815260036020526040812054900361058957610589600480546001019055565b33600090815260036020526040812080543492906105a890849061163b565b909155506105b69050611305565b604080513381523460208201527f6770260ea820d2f539364e7617e021543aaf6d192f2fd2a47c20db6bd99a4eb9910160405180910390a16105f86001600055565b565b60095460ff161561061d5760405162461bcd60e51b81526004016104da906115ee565b336001600160a01b037f000000000000000000000000000000000000000000000000000000000000000016146106a55760405162461bcd60e51b815260206004820152602760248201527f4f6e6c792074686520666163746f72792063616e2063616c6c207468697320666044820152663ab731ba34b7b760c91b60648201526084016104da565b6106ad6112ac565b6040516001600160a01b037f000000000000000000000000000000000000000000000000000000000000000016904780156108fc02916000818181858888f19350505050158015610702573d6000803e3d6000fd5b506009805460ff19166001179055610718611305565b6040517f123d4f203b2b83bfe9f45903402bb88193cc56a43371d97ab5a51bd1817d858690600090a16105f86001600055565b61075361131c565b61075b6112ac565b600654811061077c5760405162461bcd60e51b81526004016104da90611654565b60008181526005602052604090206002810154600160a01b900460ff16156107b65760405162461bcd60e51b81526004016104da90611683565b6000816004015482600301546107cc919061163b565b9050600060646107db60045490565b6107e690601e6116c5565b6107f091906116dc565b9050808210156108375760405162461bcd60e51b8152602060048201526012602482015271145d5bdc9d5b481b9bdd081c995858da195960721b60448201526064016104da565b82600401548360030154116108855760405162461bcd60e51b81526020600482015260146024820152734e6f7420656e6f75676820617070726f76616c7360601b60448201526064016104da565b47836001015411156108ce5760405162461bcd60e51b8152602060048201526012602482015271496e73756666696369656e742066756e647360701b60448201526064016104da565b60028301805460ff60a01b198116600160a01b1790915560018401546040516001600160a01b039092169181156108fc0291906000818181858888f19350505050158015610920573d6000803e3d6000fd5b50610929611305565b6040518481527f5f737e695a47d9dd61a69c097b680eb2d154fd3a73ddf8e06ae201447c5933959060200160405180910390a15050506109696001600055565b50565b60095460ff161561098f5760405162461bcd60e51b81526004016104da906115ee565b6109976112ac565b60065481106109b85760405162461bcd60e51b81526004016104da90611654565b33600090815260036020526040902054610a145760405162461bcd60e51b815260206004820152601c60248201527f4f6e6c7920636f6e7472696275746f72732063616e2072656a6563740000000060448201526064016104da565b60008181526005602081815260408084203385529283019091529091205460ff1615610a7b5760405162461bcd60e51b8152602060048201526016602482015275165bdd481a185d9948185b1c9958591e481d9bdd195960521b60448201526064016104da565b6002810154600160a01b900460ff1615610aa75760405162461bcd60e51b81526004016104da90611683565b3360009081526005820160205260408120805460ff1916600117905560048201805491610ad3836116fe565b9091555050604080518381523360208201527f490ad67e4c8b3b9c1d11dfcd7f02e155190b8f6feff3a9d9e9df3721f0f74e5791015b60405180910390a1506109696001600055565b610b2461131c565b610b2c6112ac565b6006548110610b4d5760405162461bcd60e51b81526004016104da90611654565b60008181526005602052604090206002810154600160a01b900460ff1615610b875760405162461bcd60e51b81526004016104da90611683565b60028101805460ff60a01b1916600160a01b1790556040517fee243f878b7fc2f54e934ca33783d4395d42bc07612e2bd4b8e0e178639f7a2890610b099084815260200190565b6000610bd960065490565b905090565b6060600080600080600060027f000000000000000000000000000000000000000000000000000000000000000047610c1560065490565b6004546001546001600160a01b0316858054610c3090611717565b80601f0160208091040260200160405190810160405280929190818152602001828054610c5c90611717565b8015610ca95780601f10610c7e57610100808354040283529160200191610ca9565b820191906000526020600020905b815481529060010190602001808311610c8c57829003601f168201915b50505050509550955095509550955095509550909192939495565b60028054610cd190611717565b80601f0160208091040260200160405190810160405280929190818152602001828054610cfd90611717565b8015610d4a5780601f10610d1f57610100808354040283529160200191610d4a565b820191906000526020600020905b815481529060010190602001808311610d2d57829003601f168201915b505050505081565b610d5a61131c565b6105f86000611376565b600560205260009081526040902080548190610d7f90611717565b80601f0160208091040260200160405190810160405280929190818152602001828054610dab90611717565b8015610df85780601f10610dcd57610100808354040283529160200191610df8565b820191906000526020600020905b815481529060010190602001808311610ddb57829003601f168201915b50505050600183015460028401546003850154600490950154939491936001600160a01b0382169350600160a01b90910460ff16919086565b610e3961131c565b60095460ff1615610e5c5760405162461bcd60e51b81526004016104da906115ee565b610e646112ac565b60008211610ec05760405162461bcd60e51b8152602060048201526024808201527f526571756573742076616c7565206d75737420626520677265617465722074686044820152630616e20360e41b60648201526084016104da565b6000835111610f115760405162461bcd60e51b815260206004820152601b60248201527f4465736372697074696f6e2063616e6e6f7420626520656d707479000000000060448201526064016104da565b6001600160a01b038116610f675760405162461bcd60e51b815260206004820152601960248201527f496e76616c696420726563697069656e7420616464726573730000000000000060448201526064016104da565b47821115610fb75760405162461bcd60e51b815260206004820152601e60248201527f496e73756666696369656e742066756e647320666f722072657175657374000060448201526064016104da565b6000610fc260065490565b600081815260056020526040902090915080610fde86826117a1565b50600181018490556002810180546001600160a81b0319166001600160a01b038516179055611011600680546001019055565b7ff7365309cb3a1c4835d32acd2153ebf718723e270daad5bb2aac6dd47564583b828686866040516110469493929190611861565b60405180910390a1505061105a6001600055565b505050565b60095460ff16156110825760405162461bcd60e51b81526004016104da906115ee565b6106a561131c565b60095460ff16156110ad5760405162461bcd60e51b81526004016104da906115ee565b6110b56112ac565b60065481106110d65760405162461bcd60e51b81526004016104da90611654565b336000908152600360205260409020546111325760405162461bcd60e51b815260206004820152601d60248201527f4f6e6c7920636f6e7472696275746f72732063616e20617070726f766500000060448201526064016104da565b60008181526005602081815260408084203385529283019091529091205460ff16156111995760405162461bcd60e51b8152602060048201526016602482015275165bdd481a185d9948185b1c9958591e481d9bdd195960521b60448201526064016104da565b6002810154600160a01b900460ff16156111c55760405162461bcd60e51b81526004016104da90611683565b3360009081526005820160205260408120805460ff19166001179055600382018054916111f1836116fe565b9091555050604080518381523360208201527ff3dc904660a0ea05aba8dfa1e21fbc4fb2914be2a3029da7b0fdd3e5eee20ddb9101610b09565b61123361131c565b6001600160a01b0381166112985760405162461bcd60e51b815260206004820152602660248201527f4f776e61626c653a206e6577206f776e657220697320746865207a65726f206160448201526564647265737360d01b60648201526084016104da565b61096981611376565b6000610bd960045490565b6002600054036112fe5760405162461bcd60e51b815260206004820152601f60248201527f5265656e7472616e637947756172643a207265656e7472616e742063616c6c0060448201526064016104da565b6002600055565b47600781905560085410156105f857600754600855565b6001546001600160a01b031633146105f85760405162461bcd60e51b815260206004820181905260248201527f4f776e61626c653a2063616c6c6572206973206e6f7420746865206f776e657260448201526064016104da565b600180546001600160a01b038381166001600160a01b0319831681179093556040519116919082907f8be0079c531659141344cd1fd0a4f28419497f9722a3daafe3b4186f6b6457e090600090a35050565b6000602082840312156113da57600080fd5b5035919050565b6000815180845260005b81811015611407576020818501810151868301820152016113eb565b506000602082860101526020601f19601f83011685010191505092915050565b60c08152600061143a60c08301896113e1565b6020830197909752506040810194909452606084019290925260808301526001600160a01b031660a090910152919050565b6001600160a01b038116811461096957600080fd5b60006020828403121561149357600080fd5b813561149e8161146c565b9392505050565b60208152600061149e60208301846113e1565b60c0815260006114cb60c08301896113e1565b6020830197909752506001600160a01b039490941660408501529115156060840152608083015260a090910152919050565b634e487b7160e01b600052604160045260246000fd5b803561151e8161146c565b919050565b60008060006060848603121561153857600080fd5b833567ffffffffffffffff8082111561155057600080fd5b818601915086601f83011261156457600080fd5b813581811115611576576115766114fd565b604051601f8201601f19908116603f0116810190838211818310171561159e5761159e6114fd565b816040528281528960208487010111156115b757600080fd5b826020860160208301376000602084830101528097505050505050602084013591506115e560408501611513565b90509250925092565b6020808252601b908201527f43616d706169676e20686173206265656e2063616e63656c6c65640000000000604082015260600190565b634e487b7160e01b600052601160045260246000fd5b8082018082111561164e5761164e611625565b92915050565b602080825260159082015274092dcecc2d8d2c840e4cae2eacae6e840d2dcc8caf605b1b604082015260600190565b60208082526022908201527f526571756573742068617320616c7265616479206265656e20636f6d706c6574604082015261195960f21b606082015260800190565b808202811582820484141761164e5761164e611625565b6000826116f957634e487b7160e01b600052601260045260246000fd5b500490565b60006001820161171057611710611625565b5060010190565b600181811c9082168061172b57607f821691505b60208210810361174b57634e487b7160e01b600052602260045260246000fd5b50919050565b601f82111561105a576000816000526020600020601f850160051c8101602086101561177a5750805b601f850160051c820191505b8181101561179957828155600101611786565b505050505050565b815167ffffffffffffffff8111156117bb576117bb6114fd565b6117cf816117c98454611717565b84611751565b602080601f83116001811461180457600084156117ec5750858301515b600019600386901b1c1916600185901b178555611799565b600085815260208120601f198616915b8281101561183357888601518255948401946001909101908401611814565b50858210156118515787850151600019600388901b60f8161c191681555b5050505050600190811b01905550565b84815260806020820152600061187a60808301866113e1565b6040830194909452506001600160a01b03919091166060909101529291505056fea264697066735822122018da9eaed2b7a0e0400f647a84de91129ef9b19a39cf12b0c503be6842e925b164736f6c63430008180033",
  "linkReferences": {},
  "deployedLinkReferences": {}
}