{
  "_format": "hh-sol-artifact-1",
  "contractName": "Campaign",
  "sourceName": "contracts/Campaign.sol",
  "abi": [
    {
      "inputs": [
        {
          "internalType": "string",
          "name": "_title",
          "type": "string"
        },
        {
          "internalType": "uint256",
          "name": "minContribution",
          "type": "uint256"
        },
        {
          "internalType": "address",
          "name": "_factory",
          "type": "address"
        },
        {
          "internalType": "address",
          "name": "_owner",
          "type": "address"
        }
      ],
      "stateMutability": "nonpayable",
      "type": "constructor"
    },
    {
      "anonymous": false,
      "inputs": [],
      "name": "CampaignCancelled",
      "type": "event"
    },
    {
      "anonymous": false,
      "inputs": [
        {
          "indexed": false,
          "internalType": "address",
          "name": "contributor",
          "type": "address"
        },
        {
          "indexed": false,
          "internalType": "uint256",
          "name": "amount",
          "type": "uint256"
        }
      ],
      "name": "ContributionMade",
      "type": "event"
    },
    {
      "anonymous": false,
      "inputs": [
        {
          "indexed": true,
          "internalType": "address",
          "name": "previousOwner",
          "type": "address"
        },
        {
          "indexed": true,
          "internalType": "address",
          "name": "newOwner",
          "type": "address"
        }
      ],
      "name": "OwnershipTransferred",
      "type": "event"
    },
    {
      "anonymous": false,
      "inputs": [
        {
          "indexed": false,
          "internalType": "address",
          "name": "contributor",
          "type": "address"
        },
        {
          "indexed": false,
          "internalType": "uint256",
          "name": "amount",
          "type": "uint256"
        }
      ],
      "name": "RefundIssued",
      "type": "event"
    },
    {
      "anonymous": false,
      "inputs": [
        {
          "indexed": false,
          "internalType": "uint256",
          "name": "requestId",
          "type": "uint256"
        },
        {
          "indexed": false,
          "internalType": "address",
          "name": "approver",
          "type": "address"
        }
      ],
      "name": "RequestApproved",
      "type": "event"
    },
    {
      "anonymous": false,
      "inputs": [
        {
          "indexed": false,
          "internalType": "uint256",
          "name": "requestId",
          "type": "uint256"
        }
      ],
      "name": "RequestCancelled",
      "type": "event"
    },
    {
      "anonymous": false,
      "inputs": [
        {
          "indexed": false,
          "internalType": "uint256",
          "name": "requestId",
          "type": "uint256"
        },
        {
          "indexed": false,
          "internalType": "string",
          "name": "description",
          "type": "string"
        },
        {
          "indexed": false,
          "internalType": "uint256",
          "name": "value",
          "type": "uint256"
        },
        {
          "indexed": false,
          "internalType": "address",
          "name": "recipient",
          "type": "address"
        }
      ],
      "name": "RequestCreated",
      "type": "event"
    },
    {
      "anonymous": false,
      "inputs": [
        {
          "indexed": false,
          "internalType": "uint256",
          "name": "requestId",
          "type": "uint256"
        }
      ],
      "name": "RequestFinalized",
      "type": "event"
    },
    {
      "anonymous": false,
      "inputs": [
        {
          "indexed": false,
          "internalType": "uint256",
          "name": "requestId",
          "type": "uint256"
        },
        {
          "indexed": false,
          "internalType": "address",
          "name": "rejector",
          "type": "address"
        }
      ],
      "name": "RequestRejected",
      "type": "event"
    },
    {
      "inputs": [
        {
          "internalType": "uint256",
          "name": "index",
          "type": "uint256"
        }
      ],
      "name": "approveRequest",
      "outputs": [],
      "stateMutability": "nonpayable",
      "type": "function"
    },
    {
      "inputs": [],
      "name": "cancelCampaign",
      "outputs": [],
      "stateMutability": "nonpayable",
      "type": "function"
    },
    {
      "inputs": [
        {
          "internalType": "uint256",
          "name": "index",
          "type": "uint256"
        }
      ],
      "name": "cancelRequest",
      "outputs": [],
      "stateMutability": "nonpayable",
      "type": "function"
    },
    {
      "inputs": [],
      "name": "contribute",
      "outputs": [],
      "stateMutability": "payable",
      "type": "function"
    },
    {
      "inputs": [
        {
          "internalType": "address",
          "name": "",
          "type": "address"
        }
      ],
      "name": "contributions",
      "outputs": [
        {
          "internalType": "uint256",
          "name": "",
          "type": "uint256"
        }
      ],
      "stateMutability": "view",
      "type": "function"
    },
    {
      "inputs": [
        {
          "internalType": "string",
          "name": "description",
          "type": "string"
        },
        {
          "internalType": "uint256",
          "name": "value",
          "type": "uint256"
        },
        {
          "internalType": "address payable",
          "name": "recipient",
          "type": "address"
        }
      ],
      "name": "createRequest",
      "outputs": [],
      "stateMutability": "nonpayable",
      "type": "function"
    },
    {
      "inputs": [],
      "name": "createdAt",
      "outputs": [
        {
          "internalType": "uint256",
          "name": "",
          "type": "uint256"
        }
      ],
      "stateMutability": "view",
      "type": "function"
    },
    {
      "inputs": [],
      "name": "factory",
      "outputs": [
        {
          "internalType": "address payable",
          "name": "",
          "type": "address"
        }
      ],
      "stateMutability": "view",
      "type": "function"
    },
    {
      "inputs": [
        {
          "internalType": "uint256",
          "name": "index",
          "type": "uint256"
        }
      ],
      "name": "finalizeRequest",
      "outputs": [],
      "stateMutability": "nonpayable",
      "type": "function"
    },
    {
      "inputs": [],
      "name": "forceCancel",
      "outputs": [],
      "stateMutability": "nonpayable",
      "type": "function"
    },
    {
      "inputs": [],
      "name": "getContributorsCount",
      "outputs": [
        {
          "internalType": "uint256",
          "name": "",
          "type": "uint256"
        }
      ],
      "stateMutability": "view",
      "type": "function"
    },
    {
      "inputs": [],
      "name": "getMaxFunds",
      "outputs": [
        {
          "internalType": "uint256",
          "name": "",
          "type": "uint256"
        }
      ],
      "stateMutability": "view",
      "type": "function"
    },
    {
      "inputs": [],
      "name": "getRequestsCount",
      "outputs": [
        {
          "internalType": "uint256",
          "name": "",
          "type": "uint256"
        }
      ],
      "stateMutability": "view",
      "type": "function"
    },
    {
      "inputs": [],
      "name": "getSummary",
      "outputs": [
        {
          "internalType": "string",
          "name": "",
          "type": "string"
        },
        {
          "internalType": "uint256",
          "name": "",
          "type": "uint256"
        },
        {
          "internalType": "uint256",
          "name": "",
          "type": "uint256"
        },
        {
          "internalType": "uint256",
          "name": "",
          "type": "uint256"
        },
        {
          "internalType": "uint256",
          "name": "",
          "type": "uint256"
        },
        {
          "internalType": "address",
          "name": "",
          "type": "address"
        }
      ],
      "stateMutability": "view",
      "type": "function"
    },
    {
      "inputs": [],
      "name": "getTotalFunds",
      "outputs": [
        {
          "internalType": "uint256",
          "name": "",
          "type": "uint256"
        }
      ],
      "stateMutability": "view",
      "type": "function"
    },
    {
      "inputs": [
        {
          "internalType": "uint256",
          "name": "requestIndex",
          "type": "uint256"
        },
        {
          "internalType": "address",
          "name": "contributor",
          "type": "address"
        }
      ],
      "name": "hasVoted",
      "outputs": [
        {
          "internalType": "bool",
          "name": "",
          "type": "bool"
        }
      ],
      "stateMutability": "view",
      "type": "function"
    },
    {
      "inputs": [],
      "name": "isCancelled",
      "outputs": [
        {
          "internalType": "bool",
          "name": "",
          "type": "bool"
        }
      ],
      "stateMutability": "view",
      "type": "function"
    },
    {
      "inputs": [],
      "name": "maxFunds",
      "outputs": [
        {
          "internalType": "uint256",
          "name": "",
          "type": "uint256"
        }
      ],
      "stateMutability": "view",
      "type": "function"
    },
    {
      "inputs": [],
      "name": "minimumContribution",
      "outputs": [
        {
          "internalType": "uint256",
          "name": "",
          "type": "uint256"
        }
      ],
      "stateMutability": "view",
      "type": "function"
    },
    {
      "inputs": [],
      "name": "owner",
      "outputs": [
        {
          "internalType": "address",
          "name": "",
          "type": "address"
        }
      ],
      "stateMutability": "view",
      "type": "function"
    },
    {
      "inputs": [
        {
          "internalType": "uint256",
          "name": "index",
          "type": "uint256"
        }
      ],
      "name": "rejectRequest",
      "outputs": [],
      "stateMutability": "nonpayable",
      "type": "function"
    },
    {
      "inputs": [],
      "name": "renounceOwnership",
      "outputs": [],
      "stateMutability": "nonpayable",
      "type": "function"
    },
    {
      "inputs": [
        {
          "internalType": "uint256",
          "name": "",
          "type": "uint256"
        }
      ],
      "name": "requests",
      "outputs": [
        {
          "internalType": "string",
          "name": "description",
          "type": "string"
        },
        {
          "internalType": "uint256",
          "name": "value",
          "type": "uint256"
        },
        {
          "internalType": "address payable",
          "name": "recipient",
          "type": "address"
        },
        {
          "internalType": "bool",
          "name": "complete",
          "type": "bool"
        },
        {
          "internalType": "uint256",
          "name": "approvalCount",
          "type": "uint256"
        },
        {
          "internalType": "uint256",
          "name": "rejectionCount",
          "type": "uint256"
        }
      ],
      "stateMutability": "view",
      "type": "function"
    },
    {
      "inputs": [],
      "name": "title",
      "outputs": [
        {
          "internalType": "string",
          "name": "",
          "type": "string"
        }
      ],
      "stateMutability": "view",
      "type": "function"
    },
    {
      "inputs": [],
      "name": "totalFunds",
      "outputs": [
        {
          "internalType": "uint256",
          "name": "",
          "type": "uint256"
        }
      ],
      "stateMutability": "view",
      "type": "function"
    },
    {
      "inputs": [
        {
          "internalType": "address",
          "name": "newOwner",
          "type": "address"
        }
      ],
      "name": "transferOwnership",
      "outputs": [],
      "stateMutability": "nonpayable",
      "type": "function"
    },
    {
      "stateMutability": "payable",
      "type": "receive"
    }
  ],
  "bytecode": "0x60e06040524260a0523480156200001557600080fd5b5060405162001d3c38038062001d3c833981016040819052620000389162000100565b600160005562000048336200007b565b62000053816200007b565b6001600160a01b03821660805260026200006e858262000295565b50505060c0525062000361565b600180546001600160a01b038381166001600160a01b0319831681179093556040519116919082907f8be0079c531659141344cd1fd0a4f28419497f9722a3daafe3b4186f6b6457e090600090a35050565b634e487b7160e01b600052604160045260246000fd5b80516001600160a01b0381168114620000fb57600080fd5b919050565b600080600080608085870312156200011757600080fd5b84516001600160401b03808211156200012f57600080fd5b818701915087601f8301126200014457600080fd5b815181811115620001595762000159620000cd565b604051601f8201601f19908116603f01168101908382118183101715620001845762000184620000cd565b81604052828152602093508a84848701011115620001a157600080fd5b600091505b82821015620001c55784820184015181830185015290830190620001a6565b60008484830101528098505050508087015194505050620001e960408601620000e3565b9150620001f960608601620000e3565b905092959194509250565b600181811c908216806200021957607f821691505b6020821081036200023a57634e487b7160e01b600052602260045260246000fd5b50919050565b601f82111562000290576000816000526020600020601f850160051c810160208610156200026b5750805b601f850160051c820191505b818110156200028c5782815560010162000277565b5050505b505050565b81516001600160401b03811115620002b157620002b1620000cd565b620002c981620002c2845462000204565b8462000240565b602080601f831160018114620003015760008415620002e85750858301515b600019600386901b1c1916600185901b1785556200028c565b600085815260208120601f198616915b82811015620003325788860151825594840194600190910190840162000311565b5085821015620003515787850151600019600388901b60f8161c191681555b5050505050600190811b01905550565b60805160a05160c05161198f620003ad6000396000818161039c015281816105280152610c27015260006104490152600081816104150152818161066301526106f5015261198f6000f3fe6080604052600436106101845760003560e01c80638da5cb5b116100d1578063cf09e0d01161008a578063dff748e611610064578063dff748e614610493578063eb8bbd28146104a8578063f2fde38b146104bd578063feed5561146104dd57600080fd5b8063cf09e0d014610437578063d7bb99ba1461046b578063d7d1bbdb1461047357600080fd5b80638da5cb5b14610358578063937e09b11461038a57806395ee1221146103be578063968ed600146103d8578063980e7844146103ee578063c45a01551461040357600080fd5b806342e94c901161013e5780635d6e297f116101185780635d6e297f146102db578063715018a6146102f157806381d12c58146103065780638a9cfd551461033857600080fd5b806342e94c901461025c57806343859632146102895780634a79d50c146102b957600080fd5b80624f3e861461019857806303441006146101ad5780632d7788db146101cd5780633015394c146101ed5780633410452a1461020d5780634051ddac1461023557600080fd5b36610193576101916104f2565b005b600080fd5b3480156101a457600080fd5b50610191610635565b3480156101b957600080fd5b506101916101c836600461145c565b610786565b3480156101d957600080fd5b506101916101e836600461145c565b6109a7565b3480156101f957600080fd5b5061019161020836600461145c565b610b57565b34801561021957600080fd5b50610222610c09565b6040519081526020015b60405180910390f35b34801561024157600080fd5b5061024a610c19565b60405161022c969594939291906114bb565b34801561026857600080fd5b50610222610277366004611515565b60036020526000908152604090205481565b34801561029557600080fd5b506102a96102a4366004611539565b610cff565b604051901515815260200161022c565b3480156102c557600080fd5b506102ce610d58565b60405161022c9190611569565b3480156102e757600080fd5b5061022260085481565b3480156102fd57600080fd5b50610191610de6565b34801561031257600080fd5b5061032661032136600461145c565b610df8565b60405161022c9695949392919061157c565b34801561034457600080fd5b506101916103533660046115e7565b610ec5565b34801561036457600080fd5b506001546001600160a01b03165b6040516001600160a01b03909116815260200161022c565b34801561039657600080fd5b506102227f000000000000000000000000000000000000000000000000000000000000000081565b3480156103ca57600080fd5b506009546102a99060ff1681565b3480156103e457600080fd5b5061022260075481565b3480156103fa57600080fd5b506101916110f3565b34801561040f57600080fd5b506103727f000000000000000000000000000000000000000000000000000000000000000081565b34801561044357600080fd5b506102227f000000000000000000000000000000000000000000000000000000000000000081565b6101916104f2565b34801561047f57600080fd5b5061019161048e36600461145c565b61111e565b34801561049f57600080fd5b50600854610222565b3480156104b457600080fd5b50600754610222565b3480156104c957600080fd5b506101916104d8366004611515565b6112bf565b3480156104e957600080fd5b50610222611335565b60095460ff161561051e5760405162461bcd60e51b8152600401610515906116b2565b60405180910390fd5b610526611340565b7f00000000000000000000000000000000000000000000000000000000000000003410156105a05760405162461bcd60e51b815260206004820152602160248201527f436f6e747269627574696f6e2062656c6f77206d696e696d756d20616d6f756e6044820152601d60fa1b6064820152608401610515565b3360009081526003602052604081205490036105c4576105c4600480546001019055565b33600090815260036020526040812080543492906105e39084906116ff565b909155506105f19050611399565b604080513381523460208201527f6770260ea820d2f539364e7617e021543aaf6d192f2fd2a47c20db6bd99a4eb9910160405180910390a16106336001600055565b565b60095460ff16156106585760405162461bcd60e51b8152600401610515906116b2565b336001600160a01b037f000000000000000000000000000000000000000000000000000000000000000016146106e05760405162461bcd60e51b815260206004820152602760248201527f4f6e6c792074686520666163746f72792063616e2063616c6c207468697320666044820152663ab731ba34b7b760c91b6064820152608401610515565b6106e8611340565b6040516001600160a01b037f000000000000000000000000000000000000000000000000000000000000000016904780156108fc02916000818181858888f1935050505015801561073d573d6000803e3d6000fd5b506009805460ff19166001179055610753611399565b6040517f123d4f203b2b83bfe9f45903402bb88193cc56a43371d97ab5a51bd1817d858690600090a16106336001600055565b61078e6113b0565b610796611340565b60065481106107b75760405162461bcd60e51b815260040161051590611712565b60008181526005602052604090206002810154600160a01b900460ff16156107f15760405162461bcd60e51b815260040161051590611741565b60008160040154826003015461080791906116ff565b90506000606461081660045490565b61082190601e611783565b61082b919061179a565b9050808210156108725760405162461bcd60e51b8152602060048201526012602482015271145d5bdc9d5b481b9bdd081c995858da195960721b6044820152606401610515565b82600401548360030154116108c05760405162461bcd60e51b81526020600482015260146024820152734e6f7420656e6f75676820617070726f76616c7360601b6044820152606401610515565b47836001015411156109095760405162461bcd60e51b8152602060048201526012602482015271496e73756666696369656e742066756e647360701b6044820152606401610515565b60028301805460ff60a01b198116600160a01b1790915560018401546040516001600160a01b039092169181156108fc0291906000818181858888f1935050505015801561095b573d6000803e3d6000fd5b50610964611399565b6040518481527f5f737e695a47d9dd61a69c097b680eb2d154fd3a73ddf8e06ae201447c5933959060200160405180910390a15050506109a46001600055565b50565b60095460ff16156109ca5760405162461bcd60e51b8152600401610515906116b2565b6109d2611340565b60065481106109f35760405162461bcd60e51b815260040161051590611712565b33600090815260036020526040902054610a4f5760405162461bcd60e51b815260206004820152601c60248201527f4f6e6c7920636f6e7472696275746f72732063616e2072656a656374000000006044820152606401610515565b60008181526005602081815260408084203385529283019091529091205460ff1615610ab65760405162461bcd60e51b8152602060048201526016602482015275165bdd481a185d9948185b1c9958591e481d9bdd195960521b6044820152606401610515565b6002810154600160a01b900460ff1615610ae25760405162461bcd60e51b815260040161051590611741565b3360009081526005820160205260408120805460ff1916600117905560048201805491610b0e836117bc565b9091555050604080518381523360208201527f490ad67e4c8b3b9c1d11dfcd7f02e155190b8f6feff3a9d9e9df3721f0f74e5791015b60405180910390a1506109a46001600055565b610b5f6113b0565b610b67611340565b6006548110610b885760405162461bcd60e51b815260040161051590611712565b60008181526005602052604090206002810154600160a01b900460ff1615610bc25760405162461bcd60e51b815260040161051590611741565b60028101805460ff60a01b1916600160a01b1790556040517fee243f878b7fc2f54e934ca33783d4395d42bc07612e2bd4b8e0e178639f7a2890610b449084815260200190565b6000610c1460065490565b905090565b6060600080600080600060027f000000000000000000000000000000000000000000000000000000000000000047610c5060065490565b6004546001546001600160a01b0316858054610c6b906117d5565b80601f0160208091040260200160405190810160405280929190818152602001828054610c97906117d5565b8015610ce45780601f10610cb957610100808354040283529160200191610ce4565b820191906000526020600020905b815481529060010190602001808311610cc757829003601f168201915b50505050509550955095509550955095509550909192939495565b6000610d0a60065490565b8310610d285760405162461bcd60e51b815260040161051590611712565b5060008281526005602081815260408084206001600160a01b0386168552909201905290205460ff165b92915050565b60028054610d65906117d5565b80601f0160208091040260200160405190810160405280929190818152602001828054610d91906117d5565b8015610dde5780601f10610db357610100808354040283529160200191610dde565b820191906000526020600020905b815481529060010190602001808311610dc157829003601f168201915b505050505081565b610dee6113b0565b610633600061140a565b600560205260009081526040902080548190610e13906117d5565b80601f0160208091040260200160405190810160405280929190818152602001828054610e3f906117d5565b8015610e8c5780601f10610e6157610100808354040283529160200191610e8c565b820191906000526020600020905b815481529060010190602001808311610e6f57829003601f168201915b50505050600183015460028401546003850154600490950154939491936001600160a01b0382169350600160a01b90910460ff16919086565b610ecd6113b0565b60095460ff1615610ef05760405162461bcd60e51b8152600401610515906116b2565b610ef8611340565b60008211610f545760405162461bcd60e51b8152602060048201526024808201527f526571756573742076616c7565206d75737420626520677265617465722074686044820152630616e20360e41b6064820152608401610515565b6000835111610fa55760405162461bcd60e51b815260206004820152601b60248201527f4465736372697074696f6e2063616e6e6f7420626520656d70747900000000006044820152606401610515565b6001600160a01b038116610ffb5760405162461bcd60e51b815260206004820152601960248201527f496e76616c696420726563697069656e742061646472657373000000000000006044820152606401610515565b4782111561104b5760405162461bcd60e51b815260206004820152601e60248201527f496e73756666696369656e742066756e647320666f72207265717565737400006044820152606401610515565b600061105660065490565b600081815260056020526040902090915080611072868261185f565b50600181018490556002810180546001600160a81b0319166001600160a01b0385161790556110a5600680546001019055565b7ff7365309cb3a1c4835d32acd2153ebf718723e270daad5bb2aac6dd47564583b828686866040516110da949392919061191f565b60405180910390a150506110ee6001600055565b505050565b60095460ff16156111165760405162461bcd60e51b8152600401610515906116b2565b6106e06113b0565b60095460ff16156111415760405162461bcd60e51b8152600401610515906116b2565b611149611340565b600654811061116a5760405162461bcd60e51b815260040161051590611712565b336000908152600360205260409020546111c65760405162461bcd60e51b815260206004820152601d60248201527f4f6e6c7920636f6e7472696275746f72732063616e20617070726f76650000006044820152606401610515565b60008181526005602081815260408084203385529283019091529091205460ff161561122d5760405162461bcd60e51b8152602060048201526016602482015275165bdd481a185d9948185b1c9958591e481d9bdd195960521b6044820152606401610515565b6002810154600160a01b900460ff16156112595760405162461bcd60e51b815260040161051590611741565b3360009081526005820160205260408120805460ff1916600117905560038201805491611285836117bc565b9091555050604080518381523360208201527ff3dc904660a0ea05aba8dfa1e21fbc4fb2914be2a3029da7b0fdd3e5eee20ddb9101610b44565b6112c76113b0565b6001600160a01b03811661132c5760405162461bcd60e51b815260206004820152602660248201527f4f776e61626c653a206e6577206f776e657220697320746865207a65726f206160448201526564647265737360d01b6064820152608401610515565b6109a48161140a565b6000610c1460045490565b6002600054036113925760405162461bcd60e51b815260206004820152601f60248201527f5265656e7472616e637947756172643a207265656e7472616e742063616c6c006044820152606401610515565b6002600055565b476007819055600854101561063357600754600855565b6001546001600160a01b031633146106335760405162461bcd60e51b815260206004820181905260248201527f4f776e61626c653a2063616c6c6572206973206e6f7420746865206f776e65726044820152606401610515565b600180546001600160a01b038381166001600160a01b0319831681179093556040519116919082907f8be0079c531659141344cd1fd0a4f28419497f9722a3daafe3b4186f6b6457e090600090a35050565b60006020828403121561146e57600080fd5b5035919050565b6000815180845260005b8181101561149b5760208185018101518683018201520161147f565b506000602082860101526020601f19601f83011685010191505092915050565b60c0815260006114ce60c0830189611475565b6020830197909752506040810194909452606084019290925260808301526001600160a01b031660a090910152919050565b6001600160a01b03811681146109a457600080fd5b60006020828403121561152757600080fd5b813561153281611500565b9392505050565b6000806040838503121561154c57600080fd5b82359150602083013561155e81611500565b809150509250929050565b6020815260006115326020830184611475565b60c08152600061158f60c0830189611475565b6020830197909752506001600160a01b039490941660408501529115156060840152608083015260a090910152919050565b634e487b7160e01b600052604160045260246000fd5b80356115e281611500565b919050565b6000806000606084860312156115fc57600080fd5b833567ffffffffffffffff8082111561161457600080fd5b818601915086601f83011261162857600080fd5b81358181111561163a5761163a6115c1565b604051601f8201601f19908116603f01168101908382118183101715611662576116626115c1565b8160405282815289602084870101111561167b57600080fd5b826020860160208301376000602084830101528097505050505050602084013591506116a9604085016115d7565b90509250925092565b6020808252601b908201527f43616d706169676e20686173206265656e2063616e63656c6c65640000000000604082015260600190565b634e487b7160e01b600052601160045260246000fd5b80820180821115610d5257610d526116e9565b602080825260159082015274092dcecc2d8d2c840e4cae2eacae6e840d2dcc8caf605b1b604082015260600190565b60208082526022908201527f526571756573742068617320616c7265616479206265656e20636f6d706c6574604082015261195960f21b606082015260800190565b8082028115828204841417610d5257610d526116e9565b6000826117b757634e487b7160e01b600052601260045260246000fd5b500490565b6000600182016117ce576117ce6116e9565b5060010190565b600181811c908216806117e957607f821691505b60208210810361180957634e487b7160e01b600052602260045260246000fd5b50919050565b601f8211156110ee576000816000526020600020601f850160051c810160208610156118385750805b601f850160051c820191505b8181101561185757828155600101611844565b505050505050565b815167ffffffffffffffff811115611879576118796115c1565b61188d8161188784546117d5565b8461180f565b602080601f8311600181146118c257600084156118aa5750858301515b600019600386901b1c1916600185901b178555611857565b600085815260208120601f198616915b828110156118f1578886015182559484019460019091019084016118d2565b508582101561190f5787850151600019600388901b60f8161c191681555b5050505050600190811b01905550565b8481526080602082015260006119386080830186611475565b6040830194909452506001600160a01b03919091166060909101529291505056fea264697066735822122025977c65cebc0d60035e0eaaee86163b8eca2e20fb827155c7b44b8dc31dc51964736f6c63430008180033",
  "linkReferences": {},
  "deployedLinkReferences": {}
}